{"abi":[{"type":"constructor","inputs":[{"name":"_manager","type":"address","internalType":"address"}],"stateMutability":"nonpayable"},{"type":"function","name":"finalizeCooldown","inputs":[],"outputs":[{"name":"tokensWithdrawn","type":"uint256","internalType":"uint256"},{"name":"finalized","type":"bool","internalType":"bool"}],"stateMutability":"nonpayable"},{"type":"function","name":"rescueTokens","inputs":[{"name":"token","type":"address","internalType":"contract ERC20"},{"name":"receiver","type":"address","internalType":"address"},{"name":"amount","type":"uint256","internalType":"uint256"}],"outputs":[],"stateMutability":"nonpayable"},{"type":"function","name":"startCooldown","inputs":[{"name":"cooldownBalance","type":"uint256","internalType":"uint256"}],"outputs":[],"stateMutability":"nonpayable"},{"type":"function","name":"stopCooldown","inputs":[],"outputs":[],"stateMutability":"nonpayable"},{"type":"error","name":"SafeERC20FailedOperation","inputs":[{"name":"token","type":"address","internalType":"address"}]}],"bytecode":{"object":"0x60a060405234801561000f575f5ffd5b50604051610b81380380610b8183398101604081905261002e9161003f565b6001600160a01b031660805261006c565b5f6020828403121561004f575f5ffd5b81516001600160a01b0381168114610065575f5ffd5b9392505050565b608051610ae261009f5f395f818160b70152818161010601528181610157015281816101a101526107480152610ae25ff3fe608060405234801561000f575f5ffd5b506004361061004a575f3560e01c8063672e1fd81461004e578063716907a714610063578063bb5ec9e214610084578063cea9d26f1461008c575b5f5ffd5b61006161005c366004610916565b61009f565b005b61006b6100ec565b6040805192835290151560208301520160405180910390f35b61006161013f565b61006161009a36600461094e565b610189565b3373ffffffffffffffffffffffffffffffffffffffff7f000000000000000000000000000000000000000000000000000000000000000016146100e0575f5ffd5b6100e9816101f0565b50565b5f803373ffffffffffffffffffffffffffffffffffffffff7f0000000000000000000000000000000000000000000000000000000000000000161461012f575f5ffd5b61013761040d565b915091509091565b3373ffffffffffffffffffffffffffffffffffffffff7f00000000000000000000000000000000000000000000000000000000000000001614610180575f5ffd5b6101875f5ffd5b565b3373ffffffffffffffffffffffffffffffffffffffff7f000000000000000000000000000000000000000000000000000000000000000016146101ca575f5ffd5b6101eb73ffffffffffffffffffffffffffffffffffffffff841683836107e3565b505050565b5f739d39a5de30e57443bff2a8307a4256c8797a349773ffffffffffffffffffffffffffffffffffffffff1663352693156040518163ffffffff1660e01b8152600401602060405180830381865afa15801561024e573d5f5f3e3d5ffd5b505050506040513d601f19601f82011682018060405250810190610272919061098c565b90508062ffffff165f0361031a576040517fba0876520000000000000000000000000000000000000000000000000000000081526004810183905230602482018190526044820152739d39a5de30e57443bff2a8307a4256c8797a34979063ba087652906064015b6020604051808303815f875af11580156102f6573d5f5f3e3d5ffd5b505050506040513d601f19601f820116820180604052508101906101eb91906109b5565b6040517f01320fe2000000000000000000000000000000000000000000000000000000008152306004820152739d39a5de30e57443bff2a8307a4256c8797a3497906301320fe2906024016040805180830381865afa15801561037f573d5f5f3e3d5ffd5b505050506040513d601f19601f820116820180604052508101906103a391906109cc565b516cffffffffffffffffffffffffff16156103bc575f5ffd5b6040517f9343d9e100000000000000000000000000000000000000000000000000000000815260048101839052739d39a5de30e57443bff2a8307a4256c8797a349790639343d9e1906024016102da565b5f5f5f739d39a5de30e57443bff2a8307a4256c8797a349773ffffffffffffffffffffffffffffffffffffffff1663352693156040518163ffffffff1660e01b8152600401602060405180830381865afa15801561046d573d5f5f3e3d5ffd5b505050506040513d601f19601f82011682018060405250810190610491919061098c565b6040517f01320fe20000000000000000000000000000000000000000000000000000000081523060048201529091505f90739d39a5de30e57443bff2a8307a4256c8797a3497906301320fe2906024016040805180830381865afa1580156104fb573d5f5f3e3d5ffd5b505050506040513d601f19601f8201168201806040525081019061051f91906109cc565b80519091506cffffffffffffffffffffffffff164210801561054557508162ffffff165f105b1561055557505f93849350915050565b6040517f70a082310000000000000000000000000000000000000000000000000000000081523060048201525f90734c9edd5852cd905f086c759e8383e09bff1e68b3906370a0823190602401602060405180830381865afa1580156105bd573d5f5f3e3d5ffd5b505050506040513d601f19601f820116820180604052508101906105e191906109b5565b82519091506cffffffffffffffffffffffffff1615610673576040517ff2888dbb000000000000000000000000000000000000000000000000000000008152306004820152739d39a5de30e57443bff2a8307a4256c8797a34979063f2888dbb906024015f604051808303815f87803b15801561065c575f5ffd5b505af115801561066e573d5f5f3e3d5ffd5b505050505b6040517f70a082310000000000000000000000000000000000000000000000000000000081523060048201525f90734c9edd5852cd905f086c759e8383e09bff1e68b3906370a0823190602401602060405180830381865afa1580156106db573d5f5f3e3d5ffd5b505050506040513d601f19601f820116820180604052508101906106ff91906109b5565b905061070b8282610a78565b6040517fa9059cbb00000000000000000000000000000000000000000000000000000000815273ffffffffffffffffffffffffffffffffffffffff7f000000000000000000000000000000000000000000000000000000000000000016600482015260248101829052909650734c9edd5852cd905f086c759e8383e09bff1e68b39063a9059cbb906044016020604051808303815f875af11580156107b2573d5f5f3e3d5ffd5b505050506040513d601f19601f820116820180604052508101906107d69190610ab6565b5060019450505050509091565b6040805173ffffffffffffffffffffffffffffffffffffffff841660248201526044808201849052825180830390910181526064909101909152602080820180517bffffffffffffffffffffffffffffffffffffffffffffffffffffffff167fa9059cbb0000000000000000000000000000000000000000000000000000000017815282516101eb93879390925f9283929183919082885af18061088c576040513d5f823e3d81fd5b50505f513d915081156108a35780600114156108bd565b73ffffffffffffffffffffffffffffffffffffffff84163b155b15610910576040517f5274afe700000000000000000000000000000000000000000000000000000000815273ffffffffffffffffffffffffffffffffffffffff8516600482015260240160405180910390fd5b50505050565b5f60208284031215610926575f5ffd5b5035919050565b73ffffffffffffffffffffffffffffffffffffffff811681146100e9575f5ffd5b5f5f5f60608486031215610960575f5ffd5b833561096b8161092d565b9250602084013561097b8161092d565b929592945050506040919091013590565b5f6020828403121561099c575f5ffd5b815162ffffff811681146109ae575f5ffd5b9392505050565b5f602082840312156109c5575f5ffd5b5051919050565b5f60408284031280156109dd575f5ffd5b506040805190810167ffffffffffffffff81118282101715610a26577f4e487b71000000000000000000000000000000000000000000000000000000005f52604160045260245ffd5b60405282516cffffffffffffffffffffffffff81168114610a45575f5ffd5b8152602083015172ffffffffffffffffffffffffffffffffffffff81168114610a6c575f5ffd5b60208201529392505050565b81810381811115610ab0577f4e487b71000000000000000000000000000000000000000000000000000000005f52601160045260245ffd5b92915050565b5f60208284031215610ac6575f5ffd5b815180151581146109ae575f5ffdfea164736f6c634300081d000a","linkReferences":{}},"methodIdentifiers":{"finalizeCooldown()":"716907a7","rescueTokens(address,address,uint256)":"cea9d26f","startCooldown(uint256)":"672e1fd8","stopCooldown()":"bb5ec9e2"},"id":98}