{"abi":[{"type":"constructor","inputs":[],"stateMutability":"nonpayable"},{"type":"function","name":"HOLDER_IMPLEMENTATION","inputs":[],"outputs":[{"name":"","type":"address","internalType":"address"}],"stateMutability":"view"},{"type":"function","name":"STAKING_TOKEN","inputs":[],"outputs":[{"name":"","type":"address","internalType":"address"}],"stateMutability":"view"},{"type":"function","name":"WITHDRAW_TOKEN","inputs":[],"outputs":[{"name":"","type":"address","internalType":"address"}],"stateMutability":"view"},{"type":"function","name":"YIELD_TOKEN","inputs":[],"outputs":[{"name":"","type":"address","internalType":"address"}],"stateMutability":"view"},{"type":"function","name":"canFinalizeWithdrawRequest","inputs":[{"name":"requestId","type":"uint256","internalType":"uint256"}],"outputs":[{"name":"","type":"bool","internalType":"bool"}],"stateMutability":"view"},{"type":"function","name":"finalizeAndRedeemWithdrawRequest","inputs":[{"name":"account","type":"address","internalType":"address"},{"name":"withdrawYieldTokenAmount","type":"uint256","internalType":"uint256"},{"name":"sharesToBurn","type":"uint256","internalType":"uint256"}],"outputs":[{"name":"tokensWithdrawn","type":"uint256","internalType":"uint256"},{"name":"finalized","type":"bool","internalType":"bool"}],"stateMutability":"nonpayable"},{"type":"function","name":"finalizeRequestManual","inputs":[{"name":"vault","type":"address","internalType":"address"},{"name":"account","type":"address","internalType":"address"}],"outputs":[{"name":"tokensWithdrawn","type":"uint256","internalType":"uint256"},{"name":"finalized","type":"bool","internalType":"bool"}],"stateMutability":"nonpayable"},{"type":"function","name":"getWithdrawRequest","inputs":[{"name":"vault","type":"address","internalType":"address"},{"name":"account","type":"address","internalType":"address"}],"outputs":[{"name":"w","type":"tuple","internalType":"struct WithdrawRequest","components":[{"name":"requestId","type":"uint256","internalType":"uint256"},{"name":"yieldTokenAmount","type":"uint120","internalType":"uint120"},{"name":"sharesAmount","type":"uint120","internalType":"uint120"}]},{"name":"s","type":"tuple","internalType":"struct TokenizedWithdrawRequest","components":[{"name":"totalYieldTokenAmount","type":"uint120","internalType":"uint120"},{"name":"totalWithdraw","type":"uint120","internalType":"uint120"},{"name":"finalized","type":"bool","internalType":"bool"}]}],"stateMutability":"view"},{"type":"function","name":"getWithdrawRequestValue","inputs":[{"name":"vault","type":"address","internalType":"address"},{"name":"account","type":"address","internalType":"address"},{"name":"asset","type":"address","internalType":"address"},{"name":"shares","type":"uint256","internalType":"uint256"}],"outputs":[{"name":"hasRequest","type":"bool","internalType":"bool"},{"name":"valueInAsset","type":"uint256","internalType":"uint256"}],"stateMutability":"view"},{"type":"function","name":"initialize","inputs":[{"name":"data","type":"bytes","internalType":"bytes"}],"outputs":[],"stateMutability":"nonpayable"},{"type":"function","name":"initiateWithdraw","inputs":[{"name":"account","type":"address","internalType":"address"},{"name":"yieldTokenAmount","type":"uint256","internalType":"uint256"},{"name":"sharesAmount","type":"uint256","internalType":"uint256"},{"name":"data","type":"bytes","internalType":"bytes"}],"outputs":[{"name":"requestId","type":"uint256","internalType":"uint256"}],"stateMutability":"nonpayable"},{"type":"function","name":"isApprovedVault","inputs":[{"name":"","type":"address","internalType":"address"}],"outputs":[{"name":"","type":"bool","internalType":"bool"}],"stateMutability":"view"},{"type":"function","name":"isPendingWithdrawRequest","inputs":[{"name":"vault","type":"address","internalType":"address"},{"name":"account","type":"address","internalType":"address"}],"outputs":[{"name":"","type":"bool","internalType":"bool"}],"stateMutability":"view"},{"type":"function","name":"rescueTokens","inputs":[{"name":"cooldownHolder","type":"address","internalType":"address"},{"name":"token","type":"address","internalType":"address"},{"name":"receiver","type":"address","internalType":"address"},{"name":"amount","type":"uint256","internalType":"uint256"}],"outputs":[],"stateMutability":"nonpayable"},{"type":"function","name":"setApprovedVault","inputs":[{"name":"vault","type":"address","internalType":"address"},{"name":"isApproved","type":"bool","internalType":"bool"}],"outputs":[],"stateMutability":"nonpayable"},{"type":"function","name":"stakeTokens","inputs":[{"name":"depositToken","type":"address","internalType":"address"},{"name":"amount","type":"uint256","internalType":"uint256"},{"name":"data","type":"bytes","internalType":"bytes"}],"outputs":[{"name":"yieldTokensMinted","type":"uint256","internalType":"uint256"}],"stateMutability":"nonpayable"},{"type":"function","name":"tokenizeWithdrawRequest","inputs":[{"name":"_from","type":"address","internalType":"address"},{"name":"_to","type":"address","internalType":"address"},{"name":"sharesAmount","type":"uint256","internalType":"uint256"}],"outputs":[{"name":"didTokenize","type":"bool","internalType":"bool"}],"stateMutability":"nonpayable"},{"type":"event","name":"ApprovedVault","inputs":[{"name":"vault","type":"address","indexed":true,"internalType":"address"},{"name":"isApproved","type":"bool","indexed":true,"internalType":"bool"}],"anonymous":false},{"type":"event","name":"InitiateWithdrawRequest","inputs":[{"name":"account","type":"address","indexed":true,"internalType":"address"},{"name":"vault","type":"address","indexed":true,"internalType":"address"},{"name":"yieldTokenAmount","type":"uint256","indexed":false,"internalType":"uint256"},{"name":"sharesAmount","type":"uint256","indexed":false,"internalType":"uint256"},{"name":"requestId","type":"uint256","indexed":false,"internalType":"uint256"}],"anonymous":false},{"type":"event","name":"WithdrawRequestTokenized","inputs":[{"name":"from","type":"address","indexed":true,"internalType":"address"},{"name":"to","type":"address","indexed":true,"internalType":"address"},{"name":"requestId","type":"uint256","indexed":true,"internalType":"uint256"},{"name":"sharesAmount","type":"uint256","indexed":false,"internalType":"uint256"}],"anonymous":false},{"type":"error","name":"ExistingWithdrawRequest","inputs":[{"name":"vault","type":"address","internalType":"address"},{"name":"account","type":"address","internalType":"address"},{"name":"requestId","type":"uint256","internalType":"uint256"}]},{"type":"error","name":"FailedDeployment","inputs":[]},{"type":"error","name":"InsufficientBalance","inputs":[{"name":"balance","type":"uint256","internalType":"uint256"},{"name":"needed","type":"uint256","internalType":"uint256"}]},{"type":"error","name":"InvalidInitialization","inputs":[]},{"type":"error","name":"InvalidWithdrawRequestTokenization","inputs":[]},{"type":"error","name":"NoWithdrawRequest","inputs":[{"name":"vault","type":"address","internalType":"address"},{"name":"account","type":"address","internalType":"address"}]},{"type":"error","name":"SafeERC20FailedOperation","inputs":[{"name":"token","type":"address","internalType":"address"}]},{"type":"error","name":"Unauthorized","inputs":[{"name":"caller","type":"address","internalType":"address"}]}],"bytecode":{"object":"0x60e060405234801561000f575f5ffd5b505f805460ff19166001179055734c9edd5852cd905f086c759e8383e09bff1e68b360a0819052739d39a5de30e57443bff2a8307a4256c8797a349760805260c05260805160a05160c0516139aa6100c85f395f818161011e01528181611efc0152611fc301525f81816101af015281816105950152818161062701526119ea01525f81816101eb015281816106dc0152818161076e015281816109b1015281816115da015281816116ae015261173801526139aa5ff3fe608060405234801561000f575f5ffd5b5060043610610115575f3560e01c8063838f705b116100ad578063d5fc623c1161007d578063df78a62511610063578063df78a62514610402578063e7c35c3c14610424578063ed020beb14610437575f5ffd5b8063d5fc623c146103dc578063d665761a146103ef575f5ffd5b8063838f705b14610241578063a7b8757214610254578063afbf911a1461027c578063c2ded8c1146103c9575f5ffd5b8063439fab91116100e8578063439fab91146101d1578063544bc96d146101e65780637a88690b1461020d5780637c86cff514610220575f5ffd5b80630479d6441461011957806332df6ff21461015d57806337504d9c146101875780633ed3a054146101aa575b5f5ffd5b6101407f000000000000000000000000000000000000000000000000000000000000000081565b6040516001600160a01b0390911681526020015b60405180910390f35b61017061016b366004612509565b61044a565b604080519215158352602083019190915201610154565b61019a610195366004612557565b61083d565b6040519015158152602001610154565b6101407f000000000000000000000000000000000000000000000000000000000000000081565b6101e46101df3660046125cc565b61086b565b005b6101407f000000000000000000000000000000000000000000000000000000000000000081565b600454610140906001600160a01b031681565b61023361022e3660046125ff565b6108df565b604051908152602001610154565b61019a61024f366004612664565b610bac565b610267610262366004612557565b6110da565b60408051928352901515602083015201610154565b61037561028a366004612557565b60408051606080820183525f80835260208084018290529284018190528351808301855281815280840182905284018190526001600160a01b039586168152600283528381209490951685529281528184208251808501845281548082526001909201546effffffffffffffffffffffffffffff808216838601526f0100000000000000000000000000000091829004811683870152928752600384529584902084519586018552548083168652958604909116918401919091527e0100000000000000000000000000000000000000000000000000000000000090930460ff161515908201529091565b60408051835181526020808501516effffffffffffffffffffffffffffff908116828401529483015185168284015283518516606083015283015190931660808401520151151560a082015260c001610154565b61019a6103d73660046126a2565b6111ae565b6101e46103ea366004612509565b6112eb565b6101e46103fd3660046126c6565b61142f565b61019a6104103660046126f2565b60016020525f908152604090205460ff1681565b61023361043236600461270d565b611560565b610267610445366004612765565b61176a565b6001600160a01b038085165f9081526002602090815260408083209387168352928152828220835160608101855281548082526001909201546effffffffffffffffffffffffffffff808216948301949094526f01000000000000000000000000000000900490921693820193909352909182919082036104d1575f5f9250925050610834565b80515f908152600360209081526040808320815160608101835290546effffffffffffffffffffffffffffff80821683526f01000000000000000000000000000000820416938201939093527e0100000000000000000000000000000000000000000000000000000000000090920460ff16151590820152908080806105568a611a1b565b60ff1690508460400151156106ac576040517f4c2d8eff0000000000000000000000000000000000000000000000000000000081526001600160a01b037f0000000000000000000000000000000000000000000000000000000000000000811660048301528b16602482015273594734c7e06c3d483466adbce401c6bd269746c890634c2d8eff906044016040805180830381865afa1580156105fb573d5f5f3e3d5ffd5b505050506040513d601f19601f8201168201806040525081019061061f9190612797565b50935061064b7f0000000000000000000000000000000000000000000000000000000000000000611a1b565b60ff169150845f01516effffffffffffffffffffffffffffff1685602001516effffffffffffffffffffffffffffff1687602001516effffffffffffffffffffffffffffff1661069b91906127e6565b6106a591906127fd565b92506107b0565b6040517f4c2d8eff0000000000000000000000000000000000000000000000000000000081526001600160a01b037f0000000000000000000000000000000000000000000000000000000000000000811660048301528b16602482015273594734c7e06c3d483466adbce401c6bd269746c890634c2d8eff906044016040805180830381865afa158015610742573d5f5f3e3d5ffd5b505050506040513d601f19601f820116820180604052508101906107669190612797565b5093506107927f0000000000000000000000000000000000000000000000000000000000000000611a1b565b60ff16915085602001516effffffffffffffffffffffffffffff1692505b5f670de0b6b3a76400006107c584600a61294e565b6107cf91906127e6565b6107da83600a61294e565b6107e486886127e6565b6107ee91906127e6565b6107f891906127fd565b9050600187604001516effffffffffffffffffffffffffffff168b8361081e91906127e6565b61082891906127fd565b98509850505050505050505b94509492505050565b6001600160a01b038083165f9081526002602090815260408083209385168352929052205415155b92915050565b5f5460ff16156108a7576040517ff92ee8a900000000000000000000000000000000000000000000000000000000815260040160405180910390fd5b5f80547fffffffffffffffffffffffffffffffffffffffffffffffffffffffffffffff001660011790556108db8282611ad1565b5050565b335f9081526001602052604081205460ff1661092e576040517f8e4a23d60000000000000000000000000000000000000000000000000000000081523360048201526024015b60405180910390fd5b335f9081526002602090815260408083206001600160a01b038a16845290915290208054156109a45780546040517fc5883c010000000000000000000000000000000000000000000000000000000081523360048201526001600160a01b03891660248201526044810191909152606401610925565b6109d96001600160a01b037f000000000000000000000000000000000000000000000000000000000000000016333089611b44565b6109e587878686611bc6565b80825591506109f386611d00565b6001820180547fffffffffffffffffffffffffffffffffff000000000000000000000000000000166effffffffffffffffffffffffffffff92909216919091179055610a3e85611d00565b81600101600f6101000a8154816effffffffffffffffffffffffffffff02191690836effffffffffffffffffffffffffffff1602179055506040518060600160405280610a8a88611d00565b6effffffffffffffffffffffffffffff90811682525f60208084018290526040938401829052868252600381529083902084518154868401519686015115157e01000000000000000000000000000000000000000000000000000000000000027fff00ffffffffffffffffffffffffffffffffffffffffffffffffffffffffffff9786166f01000000000000000000000000000000027fffff00000000000000000000000000000000000000000000000000000000000090921692909516919091171794909416919091179092558051888152918201879052810183905233906001600160a01b038916907f7dc6e5b3ca303008de60be523ace8967fcb2a779a76232e12901aae0b826a24e9060600160405180910390a35095945050505050565b335f9081526001602052604081205460ff16610bf6576040517f8e4a23d6000000000000000000000000000000000000000000000000000000008152336004820152602401610925565b826001600160a01b0316846001600160a01b031603610c13575f5ffd5b335f9081526002602090815260408083206001600160a01b038816845290915290208054801580610c42575083155b15610c51575f925050506110d3565b335f9081526002602090815260408083206001600160a01b03891684529091529020805415801590610c84575080548214155b15610cd65780546040517fc5883c010000000000000000000000000000000000000000000000000000000081523360048201526001600160a01b03881660248201526044810191909152606401610925565b81815560018301546f0100000000000000000000000000000090046effffffffffffffffffffffffffffff16851115610d3b576040517f29dc1c1100000000000000000000000000000000000000000000000000000000815260040160405180910390fd5b60018301546f0100000000000000000000000000000090046effffffffffffffffffffffffffffff16859003610ea75760018084015490820154610d93916effffffffffffffffffffffffffffff9081169116612959565b600182810180547fffffffffffffffffffffffffffffffffff000000000000000000000000000000166effffffffffffffffffffffffffffff938416179081905590850154610dfe926f01000000000000000000000000000000918290048116929190910416612959565b600180830180546effffffffffffffffffffffffffffff939093166f01000000000000000000000000000000027fffff000000000000000000000000000000ffffffffffffffffffffffffffffff90931692909217909155335f9081526002602090815260408083206001600160a01b038c16845290915281209081550180547fffff00000000000000000000000000000000000000000000000000000000000016905561107d565b60018301545f906effffffffffffffffffffffffffffff6f010000000000000000000000000000008204811691610ee0918991166127e6565b610eea91906127fd565b6001830154909150610f1790610f129083906effffffffffffffffffffffffffffff16612980565b611d00565b6001830180547fffffffffffffffffffffffffffffffffff000000000000000000000000000000166effffffffffffffffffffffffffffff9283161790819055610f7b91610f129189916f0100000000000000000000000000000090910416612980565b600183810180547fffff000000000000000000000000000000ffffffffffffffffffffffffffffff166f010000000000000000000000000000006effffffffffffffffffffffffffffff94851602179055850154610fdf91610f1291849116612993565b6001850180547fffffffffffffffffffffffffffffffffff000000000000000000000000000000166effffffffffffffffffffffffffffff928316179081905561104391610f129189916f0100000000000000000000000000000090910416612993565b84600101600f6101000a8154816effffffffffffffffffffffffffffff02191690836effffffffffffffffffffffffffffff160217905550505b81866001600160a01b0316886001600160a01b03167f3290f85eb3a83c40daf3b41be74981b06f475e338aee958516f687462f6d8555886040516110c391815260200190565b60405180910390a4600193505050505b9392505050565b6001600160a01b038083165f908152600260209081526040808320938516835292905290812080548291908203611150576040517f53cc89170000000000000000000000000000000000000000000000000000000081526001600160a01b03808716600483015285166024820152604401610925565b604080516060810182528254815260018301546effffffffffffffffffffffffffffff80821660208401526f0100000000000000000000000000000090910416918101919091526111a2908590611d20565b90969095509350505050565b5f5f739d39a5de30e57443bff2a8307a4256c8797a34976001600160a01b031663352693156040518163ffffffff1660e01b8152600401602060405180830381865afa158015611200573d5f5f3e3d5ffd5b505050506040513d601f19601f8201168201806040525081019061122491906129a6565b6040517f01320fe20000000000000000000000000000000000000000000000000000000081526001600160a01b038516600482015290915083905f90739d39a5de30e57443bff2a8307a4256c8797a3497906301320fe2906024016040805180830381865afa158015611299573d5f5f3e3d5ffd5b505050506040513d601f19601f820116820180604052508101906112bd9190612a1e565b905042815f01516cffffffffffffffffffffffffff1610806112e2575062ffffff8316155b95945050505050565b735615deb798bb3e4dfa0139dfa1b3d433cc23b72f6001600160a01b031663c4d5608a6040518163ffffffff1660e01b8152600401602060405180830381865afa15801561133b573d5f5f3e3d5ffd5b505050506040513d601f19601f8201168201806040525081019061135f9190612aa5565b6001600160a01b0316336001600160a01b0316146113ab576040517f8e4a23d6000000000000000000000000000000000000000000000000000000008152336004820152602401610925565b6040517fcea9d26f0000000000000000000000000000000000000000000000000000000081526001600160a01b03848116600483015283811660248301526044820183905285169063cea9d26f906064015f604051808303815f87803b158015611413575f5ffd5b505af1158015611425573d5f5f3e3d5ffd5b5050505050505050565b735615deb798bb3e4dfa0139dfa1b3d433cc23b72f6001600160a01b031663c4d5608a6040518163ffffffff1660e01b8152600401602060405180830381865afa15801561147f573d5f5f3e3d5ffd5b505050506040513d601f19601f820116820180604052508101906114a39190612aa5565b6001600160a01b0316336001600160a01b0316146114ef576040517f8e4a23d6000000000000000000000000000000000000000000000000000000008152336004820152602401610925565b6001600160a01b0382165f8181526001602052604080822080547fffffffffffffffffffffffffffffffffffffffffffffffffffffffffffffff001685151590811790915590519092917f9391b1bd8cb1e638125000ffd909b226e8f35c80fc0aa208a1a3f5fde67fc3ba91a35050565b335f9081526001602052604081205460ff166115aa576040517f8e4a23d6000000000000000000000000000000000000000000000000000000008152336004820152602401610925565b6040517f70a082310000000000000000000000000000000000000000000000000000000081523060048201525f907f00000000000000000000000000000000000000000000000000000000000000006001600160a01b0316906370a0823190602401602060405180830381865afa158015611627573d5f5f3e3d5ffd5b505050506040513d601f19601f8201168201806040525081019061164b9190612ac0565b90506116626001600160a01b038716333088611b44565b5f5f61167088888888611ef7565b9150915061167e8282612025565b6040517f70a0823100000000000000000000000000000000000000000000000000000000815230600482015283907f00000000000000000000000000000000000000000000000000000000000000006001600160a01b0316906370a0823190602401602060405180830381865afa1580156116fb573d5f5f3e3d5ffd5b505050506040513d601f19601f8201168201806040525081019061171f9190612ac0565b6117299190612993565b935061175f6001600160a01b037f0000000000000000000000000000000000000000000000000000000000000000163386612163565b505050949350505050565b335f90815260016020526040812054819060ff166117b6576040517f8e4a23d6000000000000000000000000000000000000000000000000000000008152336004820152602401610925565b335f9081526002602090815260408083206001600160a01b0389168452909152812080549091036117ed575f5f9250925050611a13565b604080516060810182528254815260018301546effffffffffffffffffffffffffffff80821660208401526f01000000000000000000000000000000909104169181019190915261183f908790611d20565b90935091508115611a115760018101546effffffffffffffffffffffffffffff1685101561196e5760018101546effffffffffffffffffffffffffffff1661188786856127e6565b61189191906127fd565b925061189c84611d00565b600182018054600f906118d49084906f0100000000000000000000000000000090046effffffffffffffffffffffffffffff16612ad7565b92506101000a8154816effffffffffffffffffffffffffffff02191690836effffffffffffffffffffffffffffff16021790555061191185611d00565b6001820180545f906119359084906effffffffffffffffffffffffffffff16612ad7565b92506101000a8154816effffffffffffffffffffffffffffff02191690836effffffffffffffffffffffffffffff1602179055506119dd565b60018101546effffffffffffffffffffffffffffff16851461198e575f5ffd5b335f9081526002602090815260408083206001600160a01b038a168452909152812090815560010180547fffff0000000000000000000000000000000000000000000000000000000000001690555b611a116001600160a01b037f0000000000000000000000000000000000000000000000000000000000000000163385612163565b505b935093915050565b5f6001600160a01b0382161580611a4e57506001600160a01b03821673eeeeeeeeeeeeeeeeeeeeeeeeeeeeeeeeeeeeeeee145b611ab757816001600160a01b031663313ce5676040518163ffffffff1660e01b8152600401602060405180830381865afa158015611a8e573d5f5f3e3d5ffd5b505050506040513d601f19601f82011682018060405250810190611ab29190612afe565b611aba565b60125b905060128160ff161115611acc575f5ffd5b919050565b30604051611ade906124e5565b6001600160a01b039091168152602001604051809103905ff080158015611b07573d5f5f3e3d5ffd5b50600480547fffffffffffffffffffffffff0000000000000000000000000000000000000000166001600160a01b03929092169190911790555050565b6040516001600160a01b038481166024830152838116604483015260648201839052611bc09186918216906323b872dd906084015b604051602081830303815290604052915060e01b6020820180517bffffffffffffffffffffffffffffffffffffffffffffffffffffffff8381831617835250505050612194565b50505050565b6004545f908190611bdf906001600160a01b0316612219565b6040517fa9059cbb0000000000000000000000000000000000000000000000000000000081526001600160a01b038216600482015260248101879052909150739d39a5de30e57443bff2a8307a4256c8797a34979063a9059cbb906044016020604051808303815f875af1158015611c59573d5f5f3e3d5ffd5b505050506040513d601f19601f82011682018060405250810190611c7d9190612b1e565b506040517f672e1fd8000000000000000000000000000000000000000000000000000000008152600481018690526001600160a01b0382169063672e1fd8906024015f604051808303815f87803b158015611cd6575f5ffd5b505af1158015611ce8573d5f5f3e3d5ffd5b50506001600160a01b03909216979650505050505050565b5f6effffffffffffffffffffffffffffff821115611d1c575f5ffd5b5090565b80515f90815260036020526040812080548291907e01000000000000000000000000000000000000000000000000000000000000900460ff1615611db057805460208501516effffffffffffffffffffffffffffff80831692611d9a928216916f01000000000000000000000000000000909104166127e6565b611da491906127fd565b60019250925050611ef0565b611dbd85855f0151612224565b90935091508115611ee457611dd183611d00565b81546effffffffffffffffffffffffffffff919091166f01000000000000000000000000000000027fffff000000000000000000000000000000ffffffffffffffffffffffffffffff9091161780825560ff7e010000000000000000000000000000000000000000000000000000000000009091041615611e50575f5ffd5b80547fff00ffffffffffffffffffffffffffffffffffffffffffffffffffffffffffff81167e010000000000000000000000000000000000000000000000000000000000001780835560208601516effffffffffffffffffffffffffffff92831692611ed392918116916f010000000000000000000000000000009004166127e6565b611edd91906127fd565b9250611eee565b8215611eee575f5ffd5b505b9250929050565b5f60607f00000000000000000000000000000000000000000000000000000000000000006001600160a01b0316866001600160a01b031603611f745784915083838080601f0160208091040260200160405190810160405280939291908181526020018383808284375f9201919091525092935061083492505050565b5f611f8184860186612bf3565b9050806080015191506120186040518060e00160405280835f01516004811115611fad57611fad612cbb565b8152602001896001600160a01b031681526020017f00000000000000000000000000000000000000000000000000000000000000006001600160a01b03168152602001888152602001836020015181526020014281526020018360400151815250826060015161228a565b9350505094509492505050565b6040517f095ea7b3000000000000000000000000000000000000000000000000000000008152739d39a5de30e57443bff2a8307a4256c8797a3497600482015260248101839052734c9edd5852cd905f086c759e8383e09bff1e68b39063095ea7b3906044016020604051808303815f875af11580156120a7573d5f5f3e3d5ffd5b505050506040513d601f19601f820116820180604052508101906120cb9190612b1e565b506040517f6e553f6500000000000000000000000000000000000000000000000000000000815260048101839052306024820152739d39a5de30e57443bff2a8307a4256c8797a349790636e553f65906044016020604051808303815f875af115801561213a573d5f5f3e3d5ffd5b505050506040513d601f19601f8201168201806040525081019061215e9190612ac0565b505050565b6040516001600160a01b0383811660248301526044820183905261215e91859182169063a9059cbb90606401611b79565b5f5f60205f8451602086015f885af1806121b3576040513d5f823e3d81fd5b50505f513d915081156121ca5780600114156121d7565b6001600160a01b0384163b155b15611bc0576040517f5274afe70000000000000000000000000000000000000000000000000000000081526001600160a01b0385166004820152602401610925565b5f610865825f61241f565b5f5f5f839050806001600160a01b031663716907a76040518163ffffffff1660e01b815260040160408051808303815f875af1158015612266573d5f5f3e3d5ffd5b505050506040513d601f19601f820116820180604052508101906111a29190612ce8565b5f5f5f5f73594734c7e06c3d483466adbce401c6bd269746c86001600160a01b031663aaf10f426040518163ffffffff1660e01b8152600401602060405180830381865afa1580156122de573d5f5f3e3d5ffd5b505050506040513d601f19601f820116820180604052508101906123029190612aa5565b6001600160a01b0316632ba8c23c60e01b8688604051602401612326929190612d58565b604080517fffffffffffffffffffffffffffffffffffffffffffffffffffffffffffffffe08184030181529181526020820180517bffffffffffffffffffffffffffffffffffffffffffffffffffffffff167fffffffff000000000000000000000000000000000000000000000000000000009094169390931790925290516123af9190612e06565b5f60405180830381855af49150503d805f81146123e7576040519150601f19603f3d011682016040523d82523d5f602084013e6123ec565b606091505b5091509150816123fe573d5f5f3e3d5ffd5b808060200190518101906124129190612797565b9097909650945050505050565b5f81471015612463576040517fcf47918100000000000000000000000000000000000000000000000000000000815247600482015260248101839052604401610925565b763d602d80600a3d3981f3363d3d373d3d3d363d730000008360601b60e81c175f526e5af43d82803e903d91602b57fd5bf38360781b176020526037600983f090506001600160a01b038116610865576040517fb06ebf3d00000000000000000000000000000000000000000000000000000000815260040160405180910390fd5b610b8180612e1d83390190565b6001600160a01b0381168114612506575f5ffd5b50565b5f5f5f5f6080858703121561251c575f5ffd5b8435612527816124f2565b93506020850135612537816124f2565b92506040850135612547816124f2565b9396929550929360600135925050565b5f5f60408385031215612568575f5ffd5b8235612573816124f2565b91506020830135612583816124f2565b809150509250929050565b5f5f83601f84011261259e575f5ffd5b50813567ffffffffffffffff8111156125b5575f5ffd5b602083019150836020828501011115611ef0575f5ffd5b5f5f602083850312156125dd575f5ffd5b823567ffffffffffffffff8111156125f3575f5ffd5b6111a28582860161258e565b5f5f5f5f5f60808688031215612613575f5ffd5b853561261e816124f2565b94506020860135935060408601359250606086013567ffffffffffffffff811115612647575f5ffd5b6126538882890161258e565b969995985093965092949392505050565b5f5f5f60608486031215612676575f5ffd5b8335612681816124f2565b92506020840135612691816124f2565b929592945050506040919091013590565b5f602082840312156126b2575f5ffd5b5035919050565b8015158114612506575f5ffd5b5f5f604083850312156126d7575f5ffd5b82356126e2816124f2565b91506020830135612583816126b9565b5f60208284031215612702575f5ffd5b81356110d3816124f2565b5f5f5f5f60608587031215612720575f5ffd5b843561272b816124f2565b935060208501359250604085013567ffffffffffffffff81111561274d575f5ffd5b6127598782880161258e565b95989497509550505050565b5f5f5f60608486031215612777575f5ffd5b8335612782816124f2565b95602085013595506040909401359392505050565b5f5f604083850312156127a8575f5ffd5b505080516020909101519092909150565b7f4e487b71000000000000000000000000000000000000000000000000000000005f52601160045260245ffd5b8082028115828204841417610865576108656127b9565b5f82612830577f4e487b71000000000000000000000000000000000000000000000000000000005f52601260045260245ffd5b500490565b6001815b6001841115611a1357808504811115612854576128546127b9565b600184161561286257908102905b60019390931c928002612839565b5f8261287e57506001610865565b8161288a57505f610865565b81600181146128a057600281146128aa576128c6565b6001915050610865565b60ff8411156128bb576128bb6127b9565b50506001821b610865565b5060208310610133831016604e8410600b84101617156128e9575081810a610865565b6129147fffffffffffffffffffffffffffffffffffffffffffffffffffffffffffffffff8484612835565b807fffffffffffffffffffffffffffffffffffffffffffffffffffffffffffffffff04821115612946576129466127b9565b029392505050565b5f6110d38383612870565b6effffffffffffffffffffffffffffff8181168382160190811115610865576108656127b9565b80820180821115610865576108656127b9565b81810381811115610865576108656127b9565b5f602082840312156129b6575f5ffd5b815162ffffff811681146110d3575f5ffd5b7f4e487b71000000000000000000000000000000000000000000000000000000005f52604160045260245ffd5b60405160a0810167ffffffffffffffff81118282101715612a1857612a186129c8565b60405290565b5f6040828403128015612a2f575f5ffd5b506040805190810167ffffffffffffffff81118282101715612a5357612a536129c8565b60405282516cffffffffffffffffffffffffff81168114612a72575f5ffd5b8152602083015172ffffffffffffffffffffffffffffffffffffff81168114612a99575f5ffd5b60208201529392505050565b5f60208284031215612ab5575f5ffd5b81516110d3816124f2565b5f60208284031215612ad0575f5ffd5b5051919050565b6effffffffffffffffffffffffffffff8281168282160390811115610865576108656127b9565b5f60208284031215612b0e575f5ffd5b815160ff811681146110d3575f5ffd5b5f60208284031215612b2e575f5ffd5b81516110d3816126b9565b5f82601f830112612b48575f5ffd5b813567ffffffffffffffff811115612b6257612b626129c8565b604051601f82017fffffffffffffffffffffffffffffffffffffffffffffffffffffffffffffffe0908116603f0116810167ffffffffffffffff81118282101715612baf57612baf6129c8565b604052818152838201602001851015612bc6575f5ffd5b816020850160208301375f918101602001919091529392505050565b803561ffff81168114611acc575f5ffd5b5f60208284031215612c03575f5ffd5b813567ffffffffffffffff811115612c19575f5ffd5b820160a08185031215612c2a575f5ffd5b612c326129f5565b813560058110612c40575f5ffd5b815260208281013590820152604082013567ffffffffffffffff811115612c65575f5ffd5b612c7186828501612b39565b604083015250612c8360608301612be2565b6060820152608082013567ffffffffffffffff811115612ca1575f5ffd5b612cad86828501612b39565b608083015250949350505050565b7f4e487b71000000000000000000000000000000000000000000000000000000005f52602160045260245ffd5b5f5f60408385031215612cf9575f5ffd5b82516020840151909250612583816126b9565b5f81518084528060208401602086015e5f6020828601015260207fffffffffffffffffffffffffffffffffffffffffffffffffffffffffffffffe0601f83011685010191505092915050565b61ffff83168152604060208201525f825160058110612d9e577f4e487b71000000000000000000000000000000000000000000000000000000005f52602160045260245ffd5b604083015260208301516001600160a01b03811660608401525060408301516001600160a01b038116608084015250606083015160a0830152608083015160c083015260a083015160e083015260c083015160e06101008401526112e2610120840182612d0c565b5f82518060208501845e5f92019182525091905056fe60a060405234801561000f575f5ffd5b50604051610b81380380610b8183398101604081905261002e9161003f565b6001600160a01b031660805261006c565b5f6020828403121561004f575f5ffd5b81516001600160a01b0381168114610065575f5ffd5b9392505050565b608051610ae261009f5f395f818160b70152818161010601528181610157015281816101a101526107480152610ae25ff3fe608060405234801561000f575f5ffd5b506004361061004a575f3560e01c8063672e1fd81461004e578063716907a714610063578063bb5ec9e214610084578063cea9d26f1461008c575b5f5ffd5b61006161005c366004610916565b61009f565b005b61006b6100ec565b6040805192835290151560208301520160405180910390f35b61006161013f565b61006161009a36600461094e565b610189565b3373ffffffffffffffffffffffffffffffffffffffff7f000000000000000000000000000000000000000000000000000000000000000016146100e0575f5ffd5b6100e9816101f0565b50565b5f803373ffffffffffffffffffffffffffffffffffffffff7f0000000000000000000000000000000000000000000000000000000000000000161461012f575f5ffd5b61013761040d565b915091509091565b3373ffffffffffffffffffffffffffffffffffffffff7f00000000000000000000000000000000000000000000000000000000000000001614610180575f5ffd5b6101875f5ffd5b565b3373ffffffffffffffffffffffffffffffffffffffff7f000000000000000000000000000000000000000000000000000000000000000016146101ca575f5ffd5b6101eb73ffffffffffffffffffffffffffffffffffffffff841683836107e3565b505050565b5f739d39a5de30e57443bff2a8307a4256c8797a349773ffffffffffffffffffffffffffffffffffffffff1663352693156040518163ffffffff1660e01b8152600401602060405180830381865afa15801561024e573d5f5f3e3d5ffd5b505050506040513d601f19601f82011682018060405250810190610272919061098c565b90508062ffffff165f0361031a576040517fba0876520000000000000000000000000000000000000000000000000000000081526004810183905230602482018190526044820152739d39a5de30e57443bff2a8307a4256c8797a34979063ba087652906064015b6020604051808303815f875af11580156102f6573d5f5f3e3d5ffd5b505050506040513d601f19601f820116820180604052508101906101eb91906109b5565b6040517f01320fe2000000000000000000000000000000000000000000000000000000008152306004820152739d39a5de30e57443bff2a8307a4256c8797a3497906301320fe2906024016040805180830381865afa15801561037f573d5f5f3e3d5ffd5b505050506040513d601f19601f820116820180604052508101906103a391906109cc565b516cffffffffffffffffffffffffff16156103bc575f5ffd5b6040517f9343d9e100000000000000000000000000000000000000000000000000000000815260048101839052739d39a5de30e57443bff2a8307a4256c8797a349790639343d9e1906024016102da565b5f5f5f739d39a5de30e57443bff2a8307a4256c8797a349773ffffffffffffffffffffffffffffffffffffffff1663352693156040518163ffffffff1660e01b8152600401602060405180830381865afa15801561046d573d5f5f3e3d5ffd5b505050506040513d601f19601f82011682018060405250810190610491919061098c565b6040517f01320fe20000000000000000000000000000000000000000000000000000000081523060048201529091505f90739d39a5de30e57443bff2a8307a4256c8797a3497906301320fe2906024016040805180830381865afa1580156104fb573d5f5f3e3d5ffd5b505050506040513d601f19601f8201168201806040525081019061051f91906109cc565b80519091506cffffffffffffffffffffffffff164210801561054557508162ffffff165f105b1561055557505f93849350915050565b6040517f70a082310000000000000000000000000000000000000000000000000000000081523060048201525f90734c9edd5852cd905f086c759e8383e09bff1e68b3906370a0823190602401602060405180830381865afa1580156105bd573d5f5f3e3d5ffd5b505050506040513d601f19601f820116820180604052508101906105e191906109b5565b82519091506cffffffffffffffffffffffffff1615610673576040517ff2888dbb000000000000000000000000000000000000000000000000000000008152306004820152739d39a5de30e57443bff2a8307a4256c8797a34979063f2888dbb906024015f604051808303815f87803b15801561065c575f5ffd5b505af115801561066e573d5f5f3e3d5ffd5b505050505b6040517f70a082310000000000000000000000000000000000000000000000000000000081523060048201525f90734c9edd5852cd905f086c759e8383e09bff1e68b3906370a0823190602401602060405180830381865afa1580156106db573d5f5f3e3d5ffd5b505050506040513d601f19601f820116820180604052508101906106ff91906109b5565b905061070b8282610a78565b6040517fa9059cbb00000000000000000000000000000000000000000000000000000000815273ffffffffffffffffffffffffffffffffffffffff7f000000000000000000000000000000000000000000000000000000000000000016600482015260248101829052909650734c9edd5852cd905f086c759e8383e09bff1e68b39063a9059cbb906044016020604051808303815f875af11580156107b2573d5f5f3e3d5ffd5b505050506040513d601f19601f820116820180604052508101906107d69190610ab6565b5060019450505050509091565b6040805173ffffffffffffffffffffffffffffffffffffffff841660248201526044808201849052825180830390910181526064909101909152602080820180517bffffffffffffffffffffffffffffffffffffffffffffffffffffffff167fa9059cbb0000000000000000000000000000000000000000000000000000000017815282516101eb93879390925f9283929183919082885af18061088c576040513d5f823e3d81fd5b50505f513d915081156108a35780600114156108bd565b73ffffffffffffffffffffffffffffffffffffffff84163b155b15610910576040517f5274afe700000000000000000000000000000000000000000000000000000000815273ffffffffffffffffffffffffffffffffffffffff8516600482015260240160405180910390fd5b50505050565b5f60208284031215610926575f5ffd5b5035919050565b73ffffffffffffffffffffffffffffffffffffffff811681146100e9575f5ffd5b5f5f5f60608486031215610960575f5ffd5b833561096b8161092d565b9250602084013561097b8161092d565b929592945050506040919091013590565b5f6020828403121561099c575f5ffd5b815162ffffff811681146109ae575f5ffd5b9392505050565b5f602082840312156109c5575f5ffd5b5051919050565b5f60408284031280156109dd575f5ffd5b506040805190810167ffffffffffffffff81118282101715610a26577f4e487b71000000000000000000000000000000000000000000000000000000005f52604160045260245ffd5b60405282516cffffffffffffffffffffffffff81168114610a45575f5ffd5b8152602083015172ffffffffffffffffffffffffffffffffffffff81168114610a6c575f5ffd5b60208201529392505050565b81810381811115610ab0577f4e487b71000000000000000000000000000000000000000000000000000000005f52601160045260245ffd5b92915050565b5f60208284031215610ac6575f5ffd5b815180151581146109ae575f5ffdfea164736f6c634300081d000aa164736f6c634300081d000a","linkReferences":{}},"methodIdentifiers":{"HOLDER_IMPLEMENTATION()":"7a88690b","STAKING_TOKEN()":"0479d644","WITHDRAW_TOKEN()":"3ed3a054","YIELD_TOKEN()":"544bc96d","canFinalizeWithdrawRequest(uint256)":"c2ded8c1","finalizeAndRedeemWithdrawRequest(address,uint256,uint256)":"ed020beb","finalizeRequestManual(address,address)":"a7b87572","getWithdrawRequest(address,address)":"afbf911a","getWithdrawRequestValue(address,address,address,uint256)":"32df6ff2","initialize(bytes)":"439fab91","initiateWithdraw(address,uint256,uint256,bytes)":"7c86cff5","isApprovedVault(address)":"df78a625","isPendingWithdrawRequest(address,address)":"37504d9c","rescueTokens(address,address,address,uint256)":"d5fc623c","setApprovedVault(address,bool)":"d665761a","stakeTokens(address,uint256,bytes)":"e7c35c3c","tokenizeWithdrawRequest(address,address,uint256)":"838f705b"},"id":98}