{"abi":[{"type":"constructor","inputs":[],"stateMutability":"nonpayable"},{"type":"function","name":"initialize","inputs":[{"name":"data","type":"bytes","internalType":"bytes"}],"outputs":[],"stateMutability":"nonpayable"},{"type":"error","name":"InvalidInitialization","inputs":[]}],"bytecode":{"object":"0x6080604052348015600e575f5ffd5b505f805460ff1916600117905561012f806100285f395ff3fe608060405234801561000f575f5ffd5b5060043610610029575f3560e01c8063439fab911461002d575b5f5ffd5b61004061003b3660046100b4565b610042565b005b5f5460ff161561007e576040517ff92ee8a900000000000000000000000000000000000000000000000000000000815260040160405180910390fd5b5f80547fffffffffffffffffffffffffffffffffffffffffffffffffffffffffffffff001660011790556100b0828282565b5050565b5f5f602083850312156100c5575f5ffd5b823567ffffffffffffffff8111156100db575f5ffd5b8301601f810185136100eb575f5ffd5b803567ffffffffffffffff811115610101575f5ffd5b856020828401011115610112575f5ffd5b602091909101959094509250505056fea164736f6c634300081d000a","linkReferences":{}},"methodIdentifiers":{"initialize(bytes)":"439fab91"},"id":78}