{"abi":[{"type":"constructor","inputs":[],"stateMutability":"nonpayable"},{"type":"function","name":"STAKING_TOKEN","inputs":[],"outputs":[{"name":"","type":"address","internalType":"address"}],"stateMutability":"view"},{"type":"function","name":"WITHDRAW_TOKEN","inputs":[],"outputs":[{"name":"","type":"address","internalType":"address"}],"stateMutability":"view"},{"type":"function","name":"YIELD_TOKEN","inputs":[],"outputs":[{"name":"","type":"address","internalType":"address"}],"stateMutability":"view"},{"type":"function","name":"canFinalizeWithdrawRequest","inputs":[{"name":"requestId","type":"uint256","internalType":"uint256"}],"outputs":[{"name":"","type":"bool","internalType":"bool"}],"stateMutability":"view"},{"type":"function","name":"finalizeAndRedeemWithdrawRequest","inputs":[{"name":"account","type":"address","internalType":"address"},{"name":"withdrawYieldTokenAmount","type":"uint256","internalType":"uint256"},{"name":"sharesToBurn","type":"uint256","internalType":"uint256"}],"outputs":[{"name":"tokensWithdrawn","type":"uint256","internalType":"uint256"},{"name":"finalized","type":"bool","internalType":"bool"}],"stateMutability":"nonpayable"},{"type":"function","name":"finalizeRequestManual","inputs":[{"name":"vault","type":"address","internalType":"address"},{"name":"account","type":"address","internalType":"address"}],"outputs":[{"name":"tokensWithdrawn","type":"uint256","internalType":"uint256"},{"name":"finalized","type":"bool","internalType":"bool"}],"stateMutability":"nonpayable"},{"type":"function","name":"getWithdrawRequest","inputs":[{"name":"vault","type":"address","internalType":"address"},{"name":"account","type":"address","internalType":"address"}],"outputs":[{"name":"w","type":"tuple","internalType":"struct WithdrawRequest","components":[{"name":"requestId","type":"uint256","internalType":"uint256"},{"name":"yieldTokenAmount","type":"uint120","internalType":"uint120"},{"name":"sharesAmount","type":"uint120","internalType":"uint120"}]},{"name":"s","type":"tuple","internalType":"struct TokenizedWithdrawRequest","components":[{"name":"totalYieldTokenAmount","type":"uint120","internalType":"uint120"},{"name":"totalWithdraw","type":"uint120","internalType":"uint120"},{"name":"finalized","type":"bool","internalType":"bool"}]}],"stateMutability":"view"},{"type":"function","name":"getWithdrawRequestValue","inputs":[{"name":"vault","type":"address","internalType":"address"},{"name":"account","type":"address","internalType":"address"},{"name":"asset","type":"address","internalType":"address"},{"name":"shares","type":"uint256","internalType":"uint256"}],"outputs":[{"name":"hasRequest","type":"bool","internalType":"bool"},{"name":"valueInAsset","type":"uint256","internalType":"uint256"}],"stateMutability":"view"},{"type":"function","name":"initialize","inputs":[{"name":"data","type":"bytes","internalType":"bytes"}],"outputs":[],"stateMutability":"nonpayable"},{"type":"function","name":"initiateWithdraw","inputs":[{"name":"account","type":"address","internalType":"address"},{"name":"yieldTokenAmount","type":"uint256","internalType":"uint256"},{"name":"sharesAmount","type":"uint256","internalType":"uint256"},{"name":"data","type":"bytes","internalType":"bytes"}],"outputs":[{"name":"requestId","type":"uint256","internalType":"uint256"}],"stateMutability":"nonpayable"},{"type":"function","name":"isApprovedVault","inputs":[{"name":"","type":"address","internalType":"address"}],"outputs":[{"name":"","type":"bool","internalType":"bool"}],"stateMutability":"view"},{"type":"function","name":"isPendingWithdrawRequest","inputs":[{"name":"vault","type":"address","internalType":"address"},{"name":"account","type":"address","internalType":"address"}],"outputs":[{"name":"","type":"bool","internalType":"bool"}],"stateMutability":"view"},{"type":"function","name":"onERC721Received","inputs":[{"name":"","type":"address","internalType":"address"},{"name":"","type":"address","internalType":"address"},{"name":"","type":"uint256","internalType":"uint256"},{"name":"","type":"bytes","internalType":"bytes"}],"outputs":[{"name":"","type":"bytes4","internalType":"bytes4"}],"stateMutability":"nonpayable"},{"type":"function","name":"rescueTokens","inputs":[{"name":"cooldownHolder","type":"address","internalType":"address"},{"name":"token","type":"address","internalType":"address"},{"name":"receiver","type":"address","internalType":"address"},{"name":"amount","type":"uint256","internalType":"uint256"}],"outputs":[],"stateMutability":"nonpayable"},{"type":"function","name":"setApprovedVault","inputs":[{"name":"vault","type":"address","internalType":"address"},{"name":"isApproved","type":"bool","internalType":"bool"}],"outputs":[],"stateMutability":"nonpayable"},{"type":"function","name":"stakeTokens","inputs":[{"name":"depositToken","type":"address","internalType":"address"},{"name":"amount","type":"uint256","internalType":"uint256"},{"name":"data","type":"bytes","internalType":"bytes"}],"outputs":[{"name":"yieldTokensMinted","type":"uint256","internalType":"uint256"}],"stateMutability":"nonpayable"},{"type":"function","name":"tokenizeWithdrawRequest","inputs":[{"name":"_from","type":"address","internalType":"address"},{"name":"_to","type":"address","internalType":"address"},{"name":"sharesAmount","type":"uint256","internalType":"uint256"}],"outputs":[{"name":"didTokenize","type":"bool","internalType":"bool"}],"stateMutability":"nonpayable"},{"type":"event","name":"ApprovedVault","inputs":[{"name":"vault","type":"address","indexed":true,"internalType":"address"},{"name":"isApproved","type":"bool","indexed":true,"internalType":"bool"}],"anonymous":false},{"type":"event","name":"InitiateWithdrawRequest","inputs":[{"name":"account","type":"address","indexed":true,"internalType":"address"},{"name":"vault","type":"address","indexed":true,"internalType":"address"},{"name":"yieldTokenAmount","type":"uint256","indexed":false,"internalType":"uint256"},{"name":"sharesAmount","type":"uint256","indexed":false,"internalType":"uint256"},{"name":"requestId","type":"uint256","indexed":false,"internalType":"uint256"}],"anonymous":false},{"type":"event","name":"WithdrawRequestTokenized","inputs":[{"name":"from","type":"address","indexed":true,"internalType":"address"},{"name":"to","type":"address","indexed":true,"internalType":"address"},{"name":"requestId","type":"uint256","indexed":true,"internalType":"uint256"},{"name":"sharesAmount","type":"uint256","indexed":false,"internalType":"uint256"}],"anonymous":false},{"type":"error","name":"ExistingWithdrawRequest","inputs":[{"name":"vault","type":"address","internalType":"address"},{"name":"account","type":"address","internalType":"address"},{"name":"requestId","type":"uint256","internalType":"uint256"}]},{"type":"error","name":"InvalidInitialization","inputs":[]},{"type":"error","name":"InvalidWithdrawRequestTokenization","inputs":[]},{"type":"error","name":"NoWithdrawRequest","inputs":[{"name":"vault","type":"address","internalType":"address"},{"name":"account","type":"address","internalType":"address"}]},{"type":"error","name":"SafeERC20FailedOperation","inputs":[{"name":"token","type":"address","internalType":"address"}]},{"type":"error","name":"Unauthorized","inputs":[{"name":"caller","type":"address","internalType":"address"}]}],"bytecode":{"object":"0x60e060405234801561000f575f5ffd5b505f805460ff1916600117905573c02aaa39b223fe8d0a0e5c4f27ead9083c756cc260a081905273cd5fe23c85820f7b72d0926fc9b05b43e359b7ee60805260c05260805160a05160c0516131466100c85f395f818161011e01528181612096015261215d01525f8181610217015281816105ea0152818161067c0152611a3201525f818161025301528181610731015281816107c301528181610a0401528181611622015281816116f6015261178001526131465ff3fe608060405234801561000f575f5ffd5b5060043610610115575f3560e01c8063838f705b116100ad578063d5fc623c1161007d578063df78a62511610063578063df78a62514610457578063e7c35c3c14610479578063ed020beb1461048c575f5ffd5b8063d5fc623c14610431578063d665761a14610444575f5ffd5b8063838f705b14610296578063a7b87572146102a9578063afbf911a146102d1578063c2ded8c11461041e575f5ffd5b80633ed3a054116100e85780633ed3a05414610212578063439fab9114610239578063544bc96d1461024e5780637c86cff514610275575f5ffd5b80630479d64414610119578063150b7a021461015d57806332df6ff2146101c557806337504d9c146101ef575b5f5ffd5b6101407f000000000000000000000000000000000000000000000000000000000000000081565b6040516001600160a01b0390911681526020015b60405180910390f35b61019461016b366004612981565b7f150b7a0200000000000000000000000000000000000000000000000000000000949350505050565b6040517fffffffff000000000000000000000000000000000000000000000000000000009091168152602001610154565b6101d86101d33660046129e9565b61049f565b604080519215158352602083019190915201610154565b6102026101fd366004612a37565b610892565b6040519015158152602001610154565b6101407f000000000000000000000000000000000000000000000000000000000000000081565b61024c610247366004612aac565b6108c0565b005b6101407f000000000000000000000000000000000000000000000000000000000000000081565b610288610283366004612adf565b610932565b604051908152602001610154565b6102026102a4366004612b44565b610bff565b6102bc6102b7366004612a37565b61112d565b60408051928352901515602083015201610154565b6103ca6102df366004612a37565b60408051606080820183525f80835260208084018290529284018190528351808301855281815280840182905284018190526001600160a01b039586168152600283528381209490951685529281528184208251808501845281548082526001909201546effffffffffffffffffffffffffffff808216838601526f0100000000000000000000000000000091829004811683870152928752600384529584902084519586018552548083168652958604909116918401919091527e0100000000000000000000000000000000000000000000000000000000000090930460ff161515908201529091565b60408051835181526020808501516effffffffffffffffffffffffffffff908116828401529483015185168284015283518516606083015283015190931660808401520151151560a082015260c001610154565b61020261042c366004612b82565b611201565b61024c61043f3660046129e9565b611333565b61024c610452366004612ba6565b611477565b610202610465366004612bd2565b60016020525f908152604090205460ff1681565b610288610487366004612bed565b6115a8565b6102bc61049a366004612c45565b6117b2565b6001600160a01b038085165f9081526002602090815260408083209387168352928152828220835160608101855281548082526001909201546effffffffffffffffffffffffffffff808216948301949094526f0100000000000000000000000000000090049092169382019390935290918291908203610526575f5f9250925050610889565b80515f908152600360209081526040808320815160608101835290546effffffffffffffffffffffffffffff80821683526f01000000000000000000000000000000820416938201939093527e0100000000000000000000000000000000000000000000000000000000000090920460ff16151590820152908080806105ab8a611a63565b60ff169050846040015115610701576040517f4c2d8eff0000000000000000000000000000000000000000000000000000000081526001600160a01b037f0000000000000000000000000000000000000000000000000000000000000000811660048301528b16602482015273594734c7e06c3d483466adbce401c6bd269746c890634c2d8eff906044016040805180830381865afa158015610650573d5f5f3e3d5ffd5b505050506040513d601f19601f820116820180604052508101906106749190612c77565b5093506106a07f0000000000000000000000000000000000000000000000000000000000000000611a63565b60ff169150845f01516effffffffffffffffffffffffffffff1685602001516effffffffffffffffffffffffffffff1687602001516effffffffffffffffffffffffffffff166106f09190612cc6565b6106fa9190612cdd565b9250610805565b6040517f4c2d8eff0000000000000000000000000000000000000000000000000000000081526001600160a01b037f0000000000000000000000000000000000000000000000000000000000000000811660048301528b16602482015273594734c7e06c3d483466adbce401c6bd269746c890634c2d8eff906044016040805180830381865afa158015610797573d5f5f3e3d5ffd5b505050506040513d601f19601f820116820180604052508101906107bb9190612c77565b5093506107e77f0000000000000000000000000000000000000000000000000000000000000000611a63565b60ff16915085602001516effffffffffffffffffffffffffffff1692505b5f670de0b6b3a764000061081a84600a612e2e565b6108249190612cc6565b61082f83600a612e2e565b6108398688612cc6565b6108439190612cc6565b61084d9190612cdd565b9050600187604001516effffffffffffffffffffffffffffff168b836108739190612cc6565b61087d9190612cdd565b98509850505050505050505b94509492505050565b6001600160a01b038083165f9081526002602090815260408083209385168352929052205415155b92915050565b5f5460ff16156108fc576040517ff92ee8a900000000000000000000000000000000000000000000000000000000815260040160405180910390fd5b5f80547fffffffffffffffffffffffffffffffffffffffffffffffffffffffffffffff0016600117905561092e828282565b5050565b335f9081526001602052604081205460ff16610981576040517f8e4a23d60000000000000000000000000000000000000000000000000000000081523360048201526024015b60405180910390fd5b335f9081526002602090815260408083206001600160a01b038a16845290915290208054156109f75780546040517fc5883c010000000000000000000000000000000000000000000000000000000081523360048201526001600160a01b03891660248201526044810191909152606401610978565b610a2c6001600160a01b037f000000000000000000000000000000000000000000000000000000000000000016333089611b19565b610a3887878686611b9b565b8082559150610a4686611e9a565b6001820180547fffffffffffffffffffffffffffffffffff000000000000000000000000000000166effffffffffffffffffffffffffffff92909216919091179055610a9185611e9a565b81600101600f6101000a8154816effffffffffffffffffffffffffffff02191690836effffffffffffffffffffffffffffff1602179055506040518060600160405280610add88611e9a565b6effffffffffffffffffffffffffffff90811682525f60208084018290526040938401829052868252600381529083902084518154868401519686015115157e01000000000000000000000000000000000000000000000000000000000000027fff00ffffffffffffffffffffffffffffffffffffffffffffffffffffffffffff9786166f01000000000000000000000000000000027fffff00000000000000000000000000000000000000000000000000000000000090921692909516919091171794909416919091179092558051888152918201879052810183905233906001600160a01b038916907f7dc6e5b3ca303008de60be523ace8967fcb2a779a76232e12901aae0b826a24e9060600160405180910390a35095945050505050565b335f9081526001602052604081205460ff16610c49576040517f8e4a23d6000000000000000000000000000000000000000000000000000000008152336004820152602401610978565b826001600160a01b0316846001600160a01b031603610c66575f5ffd5b335f9081526002602090815260408083206001600160a01b038816845290915290208054801580610c95575083155b15610ca4575f92505050611126565b335f9081526002602090815260408083206001600160a01b03891684529091529020805415801590610cd7575080548214155b15610d295780546040517fc5883c010000000000000000000000000000000000000000000000000000000081523360048201526001600160a01b03881660248201526044810191909152606401610978565b81815560018301546f0100000000000000000000000000000090046effffffffffffffffffffffffffffff16851115610d8e576040517f29dc1c1100000000000000000000000000000000000000000000000000000000815260040160405180910390fd5b60018301546f0100000000000000000000000000000090046effffffffffffffffffffffffffffff16859003610efa5760018084015490820154610de6916effffffffffffffffffffffffffffff9081169116612e39565b600182810180547fffffffffffffffffffffffffffffffffff000000000000000000000000000000166effffffffffffffffffffffffffffff938416179081905590850154610e51926f01000000000000000000000000000000918290048116929190910416612e39565b600180830180546effffffffffffffffffffffffffffff939093166f01000000000000000000000000000000027fffff000000000000000000000000000000ffffffffffffffffffffffffffffff90931692909217909155335f9081526002602090815260408083206001600160a01b038c16845290915281209081550180547fffff0000000000000000000000000000000000000000000000000000000000001690556110d0565b60018301545f906effffffffffffffffffffffffffffff6f010000000000000000000000000000008204811691610f3391899116612cc6565b610f3d9190612cdd565b6001830154909150610f6a90610f659083906effffffffffffffffffffffffffffff16612e60565b611e9a565b6001830180547fffffffffffffffffffffffffffffffffff000000000000000000000000000000166effffffffffffffffffffffffffffff9283161790819055610fce91610f659189916f0100000000000000000000000000000090910416612e60565b600183810180547fffff000000000000000000000000000000ffffffffffffffffffffffffffffff166f010000000000000000000000000000006effffffffffffffffffffffffffffff9485160217905585015461103291610f6591849116612e73565b6001850180547fffffffffffffffffffffffffffffffffff000000000000000000000000000000166effffffffffffffffffffffffffffff928316179081905561109691610f659189916f0100000000000000000000000000000090910416612e73565b84600101600f6101000a8154816effffffffffffffffffffffffffffff02191690836effffffffffffffffffffffffffffff160217905550505b81866001600160a01b0316886001600160a01b03167f3290f85eb3a83c40daf3b41be74981b06f475e338aee958516f687462f6d85558860405161111691815260200190565b60405180910390a4600193505050505b9392505050565b6001600160a01b038083165f9081526002602090815260408083209385168352929052908120805482919082036111a3576040517f53cc89170000000000000000000000000000000000000000000000000000000081526001600160a01b03808716600483015285166024820152604401610978565b604080516060810182528254815260018301546effffffffffffffffffffffffffffff80821660208401526f0100000000000000000000000000000090910416918101919091526111f5908590611eba565b90969095509350505050565b6040517f33727c4d000000000000000000000000000000000000000000000000000000008152600481018290525f90737d5706f6ef3f89b3951e23e557cdfbc3239d4e2c906333727c4d90602401602060405180830381865afa15801561126a573d5f5f3e3d5ffd5b505050506040513d601f19601f8201168201806040525081019061128e9190612e86565b80156108ba57506040517f6352211e000000000000000000000000000000000000000000000000000000008152600481018390525f90737d5706f6ef3f89b3951e23e557cdfbc3239d4e2c90636352211e90602401602060405180830381865afa1580156112fe573d5f5f3e3d5ffd5b505050506040513d601f19601f820116820180604052508101906113229190612ea1565b6001600160a01b0316141592915050565b735615deb798bb3e4dfa0139dfa1b3d433cc23b72f6001600160a01b031663c4d5608a6040518163ffffffff1660e01b8152600401602060405180830381865afa158015611383573d5f5f3e3d5ffd5b505050506040513d601f19601f820116820180604052508101906113a79190612ea1565b6001600160a01b0316336001600160a01b0316146113f3576040517f8e4a23d6000000000000000000000000000000000000000000000000000000008152336004820152602401610978565b6040517fcea9d26f0000000000000000000000000000000000000000000000000000000081526001600160a01b03848116600483015283811660248301526044820183905285169063cea9d26f906064015f604051808303815f87803b15801561145b575f5ffd5b505af115801561146d573d5f5f3e3d5ffd5b5050505050505050565b735615deb798bb3e4dfa0139dfa1b3d433cc23b72f6001600160a01b031663c4d5608a6040518163ffffffff1660e01b8152600401602060405180830381865afa1580156114c7573d5f5f3e3d5ffd5b505050506040513d601f19601f820116820180604052508101906114eb9190612ea1565b6001600160a01b0316336001600160a01b031614611537576040517f8e4a23d6000000000000000000000000000000000000000000000000000000008152336004820152602401610978565b6001600160a01b0382165f8181526001602052604080822080547fffffffffffffffffffffffffffffffffffffffffffffffffffffffffffffff001685151590811790915590519092917f9391b1bd8cb1e638125000ffd909b226e8f35c80fc0aa208a1a3f5fde67fc3ba91a35050565b335f9081526001602052604081205460ff166115f2576040517f8e4a23d6000000000000000000000000000000000000000000000000000000008152336004820152602401610978565b6040517f70a082310000000000000000000000000000000000000000000000000000000081523060048201525f907f00000000000000000000000000000000000000000000000000000000000000006001600160a01b0316906370a0823190602401602060405180830381865afa15801561166f573d5f5f3e3d5ffd5b505050506040513d601f19601f820116820180604052508101906116939190612ebc565b90506116aa6001600160a01b038716333088611b19565b5f5f6116b888888888612091565b915091506116c682826121bf565b6040517f70a0823100000000000000000000000000000000000000000000000000000000815230600482015283907f00000000000000000000000000000000000000000000000000000000000000006001600160a01b0316906370a0823190602401602060405180830381865afa158015611743573d5f5f3e3d5ffd5b505050506040513d601f19601f820116820180604052508101906117679190612ebc565b6117719190612e73565b93506117a76001600160a01b037f0000000000000000000000000000000000000000000000000000000000000000163386612513565b505050949350505050565b335f90815260016020526040812054819060ff166117fe576040517f8e4a23d6000000000000000000000000000000000000000000000000000000008152336004820152602401610978565b335f9081526002602090815260408083206001600160a01b038916845290915281208054909103611835575f5f9250925050611a5b565b604080516060810182528254815260018301546effffffffffffffffffffffffffffff80821660208401526f010000000000000000000000000000009091041691810191909152611887908790611eba565b90935091508115611a595760018101546effffffffffffffffffffffffffffff168510156119b65760018101546effffffffffffffffffffffffffffff166118cf8685612cc6565b6118d99190612cdd565b92506118e484611e9a565b600182018054600f9061191c9084906f0100000000000000000000000000000090046effffffffffffffffffffffffffffff16612ed3565b92506101000a8154816effffffffffffffffffffffffffffff02191690836effffffffffffffffffffffffffffff16021790555061195985611e9a565b6001820180545f9061197d9084906effffffffffffffffffffffffffffff16612ed3565b92506101000a8154816effffffffffffffffffffffffffffff02191690836effffffffffffffffffffffffffffff160217905550611a25565b60018101546effffffffffffffffffffffffffffff1685146119d6575f5ffd5b335f9081526002602090815260408083206001600160a01b038a168452909152812090815560010180547fffff0000000000000000000000000000000000000000000000000000000000001690555b611a596001600160a01b037f0000000000000000000000000000000000000000000000000000000000000000163385612513565b505b935093915050565b5f6001600160a01b0382161580611a9657506001600160a01b03821673eeeeeeeeeeeeeeeeeeeeeeeeeeeeeeeeeeeeeeee145b611aff57816001600160a01b031663313ce5676040518163ffffffff1660e01b8152600401602060405180830381865afa158015611ad6573d5f5f3e3d5ffd5b505050506040513d601f19601f82011682018060405250810190611afa9190612efa565b611b02565b60125b905060128160ff161115611b14575f5ffd5b919050565b6040516001600160a01b038481166024830152838116604483015260648201839052611b959186918216906323b872dd906084015b604051602081830303815290604052915060e01b6020820180517bffffffffffffffffffffffffffffffffffffffffffffffffffffffff8381831617835250505050612549565b50505050565b6040517f70a082310000000000000000000000000000000000000000000000000000000081523060048201525f9081907335fa164735182de50811e8e2e824cfb9b6118ac2906370a0823190602401602060405180830381865afa158015611c05573d5f5f3e3d5ffd5b505050506040513d601f19601f82011682018060405250810190611c299190612ebc565b6040517fde0e9a3e0000000000000000000000000000000000000000000000000000000081526004810187905290915073cd5fe23c85820f7b72d0926fc9b05b43e359b7ee9063de0e9a3e906024016020604051808303815f875af1158015611c94573d5f5f3e3d5ffd5b505050506040513d601f19601f82011682018060405250810190611cb89190612ebc565b506040517f70a082310000000000000000000000000000000000000000000000000000000081523060048201525f907335fa164735182de50811e8e2e824cfb9b6118ac2906370a0823190602401602060405180830381865afa158015611d21573d5f5f3e3d5ffd5b505050506040513d601f19601f82011682018060405250810190611d459190612ebc565b90505f611d528383612e73565b6040517f095ea7b300000000000000000000000000000000000000000000000000000000815273308861a430be4cce5502d0a12724771fc6daf2166004820152602481018290529091507335fa164735182de50811e8e2e824cfb9b6118ac29063095ea7b3906044016020604051808303815f875af1158015611dd7573d5f5f3e3d5ffd5b505050506040513d601f19601f82011682018060405250810190611dfb9190612e86565b506040517f397a1b280000000000000000000000000000000000000000000000000000000081523060048201526024810182905273308861a430be4cce5502d0a12724771fc6daf2169063397a1b28906044016020604051808303815f875af1158015611e6a573d5f5f3e3d5ffd5b505050506040513d601f19601f82011682018060405250810190611e8e9190612ebc565b98975050505050505050565b5f6effffffffffffffffffffffffffffff821115611eb6575f5ffd5b5090565b80515f90815260036020526040812080548291907e01000000000000000000000000000000000000000000000000000000000000900460ff1615611f4a57805460208501516effffffffffffffffffffffffffffff80831692611f34928216916f0100000000000000000000000000000090910416612cc6565b611f3e9190612cdd565b6001925092505061208a565b611f5785855f01516125ce565b9093509150811561207e57611f6b83611e9a565b81546effffffffffffffffffffffffffffff919091166f01000000000000000000000000000000027fffff000000000000000000000000000000ffffffffffffffffffffffffffffff9091161780825560ff7e010000000000000000000000000000000000000000000000000000000000009091041615611fea575f5ffd5b80547fff00ffffffffffffffffffffffffffffffffffffffffffffffffffffffffffff81167e010000000000000000000000000000000000000000000000000000000000001780835560208601516effffffffffffffffffffffffffffff9283169261206d92918116916f01000000000000000000000000000000900416612cc6565b6120779190612cdd565b9250612088565b8215612088575f5ffd5b505b9250929050565b5f60607f00000000000000000000000000000000000000000000000000000000000000006001600160a01b0316866001600160a01b03160361210e5784915083838080601f0160208091040260200160405190810160405280939291908181526020018383808284375f9201919091525092935061088992505050565b5f61211b84860186612f2b565b9050806080015191506121b26040518060e00160405280835f0151600481111561214757612147612ff3565b8152602001896001600160a01b031681526020017f00000000000000000000000000000000000000000000000000000000000000006001600160a01b0316815260200188815260200183602001518152602001428152602001836040015181525082606001516126d6565b9350505094509492505050565b6040517f2e1a7d4d0000000000000000000000000000000000000000000000000000000081526004810183905273c02aaa39b223fe8d0a0e5c4f27ead9083c756cc290632e1a7d4d906024015f604051808303815f87803b158015612222575f5ffd5b505af1158015612234573d5f5f3e3d5ffd5b50506040517f70a082310000000000000000000000000000000000000000000000000000000081523060048201525f92507335fa164735182de50811e8e2e824cfb9b6118ac291506370a0823190602401602060405180830381865afa1580156122a0573d5f5f3e3d5ffd5b505050506040513d601f19601f820116820180604052508101906122c49190612ebc565b905073308861a430be4cce5502d0a12724771fc6daf2166001600160a01b031663d0e30db0846040518263ffffffff1660e01b815260040160206040518083038185885af1158015612318573d5f5f3e3d5ffd5b50505050506040513d601f19601f8201168201806040525081019061233d9190612ebc565b506040517f70a082310000000000000000000000000000000000000000000000000000000081523060048201525f9082907335fa164735182de50811e8e2e824cfb9b6118ac2906370a0823190602401602060405180830381865afa1580156123a8573d5f5f3e3d5ffd5b505050506040513d601f19601f820116820180604052508101906123cc9190612ebc565b6123d69190612e73565b6040517f095ea7b300000000000000000000000000000000000000000000000000000000815273cd5fe23c85820f7b72d0926fc9b05b43e359b7ee6004820152602481018290529091507335fa164735182de50811e8e2e824cfb9b6118ac29063095ea7b3906044016020604051808303815f875af115801561245b573d5f5f3e3d5ffd5b505050506040513d601f19601f8201168201806040525081019061247f9190612e86565b506040517fea598cb00000000000000000000000000000000000000000000000000000000081526004810182905273cd5fe23c85820f7b72d0926fc9b05b43e359b7ee9063ea598cb0906024016020604051808303815f875af11580156124e8573d5f5f3e3d5ffd5b505050506040513d601f19601f8201168201806040525081019061250c9190612ebc565b5050505050565b6040516001600160a01b0383811660248301526044820183905261254491859182169063a9059cbb90606401611b4e565b505050565b5f5f60205f8451602086015f885af180612568576040513d5f823e3d81fd5b50505f513d9150811561257f57806001141561258c565b6001600160a01b0384163b155b15611b95576040517f5274afe70000000000000000000000000000000000000000000000000000000081526001600160a01b0385166004820152602401610978565b5f5f6125d983611201565b9050801561208a576040517fb13acedd000000000000000000000000000000000000000000000000000000008152600481018490524790737d5706f6ef3f89b3951e23e557cdfbc3239d4e2c9063b13acedd906024015f604051808303815f87803b158015612646575f5ffd5b505af1158015612658573d5f5f3e3d5ffd5b5050505080476126689190612e73565b925073c02aaa39b223fe8d0a0e5c4f27ead9083c756cc26001600160a01b031663d0e30db0846040518263ffffffff1660e01b81526004015f604051808303818588803b1580156126b7575f5ffd5b505af11580156126c9573d5f5f3e3d5ffd5b5050505050509250929050565b5f5f5f5f73594734c7e06c3d483466adbce401c6bd269746c86001600160a01b031663aaf10f426040518163ffffffff1660e01b8152600401602060405180830381865afa15801561272a573d5f5f3e3d5ffd5b505050506040513d601f19601f8201168201806040525081019061274e9190612ea1565b6001600160a01b0316632ba8c23c60e01b868860405160240161277292919061306c565b604080517fffffffffffffffffffffffffffffffffffffffffffffffffffffffffffffffe08184030181529181526020820180517bffffffffffffffffffffffffffffffffffffffffffffffffffffffff167fffffffff000000000000000000000000000000000000000000000000000000009094169390931790925290516127fb9190613123565b5f60405180830381855af49150503d805f8114612833576040519150601f19603f3d011682016040523d82523d5f602084013e612838565b606091505b50915091508161284a573d5f5f3e3d5ffd5b8080602001905181019061285e9190612c77565b9097909650945050505050565b6001600160a01b038116811461287f575f5ffd5b50565b7f4e487b71000000000000000000000000000000000000000000000000000000005f52604160045260245ffd5b60405160a0810167ffffffffffffffff811182821017156128d2576128d2612882565b60405290565b5f82601f8301126128e7575f5ffd5b813567ffffffffffffffff81111561290157612901612882565b604051601f82017fffffffffffffffffffffffffffffffffffffffffffffffffffffffffffffffe0908116603f0116810167ffffffffffffffff8111828210171561294e5761294e612882565b604052818152838201602001851015612965575f5ffd5b816020850160208301375f918101602001919091529392505050565b5f5f5f5f60808587031215612994575f5ffd5b843561299f8161286b565b935060208501356129af8161286b565b925060408501359150606085013567ffffffffffffffff8111156129d1575f5ffd5b6129dd878288016128d8565b91505092959194509250565b5f5f5f5f608085870312156129fc575f5ffd5b8435612a078161286b565b93506020850135612a178161286b565b92506040850135612a278161286b565b9396929550929360600135925050565b5f5f60408385031215612a48575f5ffd5b8235612a538161286b565b91506020830135612a638161286b565b809150509250929050565b5f5f83601f840112612a7e575f5ffd5b50813567ffffffffffffffff811115612a95575f5ffd5b60208301915083602082850101111561208a575f5ffd5b5f5f60208385031215612abd575f5ffd5b823567ffffffffffffffff811115612ad3575f5ffd5b6111f585828601612a6e565b5f5f5f5f5f60808688031215612af3575f5ffd5b8535612afe8161286b565b94506020860135935060408601359250606086013567ffffffffffffffff811115612b27575f5ffd5b612b3388828901612a6e565b969995985093965092949392505050565b5f5f5f60608486031215612b56575f5ffd5b8335612b618161286b565b92506020840135612b718161286b565b929592945050506040919091013590565b5f60208284031215612b92575f5ffd5b5035919050565b801515811461287f575f5ffd5b5f5f60408385031215612bb7575f5ffd5b8235612bc28161286b565b91506020830135612a6381612b99565b5f60208284031215612be2575f5ffd5b81356111268161286b565b5f5f5f5f60608587031215612c00575f5ffd5b8435612c0b8161286b565b935060208501359250604085013567ffffffffffffffff811115612c2d575f5ffd5b612c3987828801612a6e565b95989497509550505050565b5f5f5f60608486031215612c57575f5ffd5b8335612c628161286b565b95602085013595506040909401359392505050565b5f5f60408385031215612c88575f5ffd5b505080516020909101519092909150565b7f4e487b71000000000000000000000000000000000000000000000000000000005f52601160045260245ffd5b80820281158282048414176108ba576108ba612c99565b5f82612d10577f4e487b71000000000000000000000000000000000000000000000000000000005f52601260045260245ffd5b500490565b6001815b6001841115611a5b57808504811115612d3457612d34612c99565b6001841615612d4257908102905b60019390931c928002612d19565b5f82612d5e575060016108ba565b81612d6a57505f6108ba565b8160018114612d805760028114612d8a57612da6565b60019150506108ba565b60ff841115612d9b57612d9b612c99565b50506001821b6108ba565b5060208310610133831016604e8410600b8410161715612dc9575081810a6108ba565b612df47fffffffffffffffffffffffffffffffffffffffffffffffffffffffffffffffff8484612d15565b807fffffffffffffffffffffffffffffffffffffffffffffffffffffffffffffffff04821115612e2657612e26612c99565b029392505050565b5f6111268383612d50565b6effffffffffffffffffffffffffffff81811683821601908111156108ba576108ba612c99565b808201808211156108ba576108ba612c99565b818103818111156108ba576108ba612c99565b5f60208284031215612e96575f5ffd5b815161112681612b99565b5f60208284031215612eb1575f5ffd5b81516111268161286b565b5f60208284031215612ecc575f5ffd5b5051919050565b6effffffffffffffffffffffffffffff82811682821603908111156108ba576108ba612c99565b5f60208284031215612f0a575f5ffd5b815160ff81168114611126575f5ffd5b803561ffff81168114611b14575f5ffd5b5f60208284031215612f3b575f5ffd5b813567ffffffffffffffff811115612f51575f5ffd5b820160a08185031215612f62575f5ffd5b612f6a6128af565b813560058110612f78575f5ffd5b815260208281013590820152604082013567ffffffffffffffff811115612f9d575f5ffd5b612fa9868285016128d8565b604083015250612fbb60608301612f1a565b6060820152608082013567ffffffffffffffff811115612fd9575f5ffd5b612fe5868285016128d8565b608083015250949350505050565b7f4e487b71000000000000000000000000000000000000000000000000000000005f52602160045260245ffd5b5f81518084528060208401602086015e5f6020828601015260207fffffffffffffffffffffffffffffffffffffffffffffffffffffffffffffffe0601f83011685010191505092915050565b61ffff83168152604060208201525f8251600581106130b2577f4e487b71000000000000000000000000000000000000000000000000000000005f52602160045260245ffd5b604083015260208301516001600160a01b03811660608401525060408301516001600160a01b038116608084015250606083015160a0830152608083015160c083015260a083015160e083015260c083015160e061010084015261311a610120840182613020565b95945050505050565b5f82518060208501845e5f92019182525091905056fea164736f6c634300081d000a","linkReferences":{}},"methodIdentifiers":{"STAKING_TOKEN()":"0479d644","WITHDRAW_TOKEN()":"3ed3a054","YIELD_TOKEN()":"544bc96d","canFinalizeWithdrawRequest(uint256)":"c2ded8c1","finalizeAndRedeemWithdrawRequest(address,uint256,uint256)":"ed020beb","finalizeRequestManual(address,address)":"a7b87572","getWithdrawRequest(address,address)":"afbf911a","getWithdrawRequestValue(address,address,address,uint256)":"32df6ff2","initialize(bytes)":"439fab91","initiateWithdraw(address,uint256,uint256,bytes)":"7c86cff5","isApprovedVault(address)":"df78a625","isPendingWithdrawRequest(address,address)":"37504d9c","onERC721Received(address,address,uint256,bytes)":"150b7a02","rescueTokens(address,address,address,uint256)":"d5fc623c","setApprovedVault(address,bool)":"d665761a","stakeTokens(address,uint256,bytes)":"e7c35c3c","tokenizeWithdrawRequest(address,address,uint256)":"838f705b"},"id":99}