{"abi":[{"type":"constructor","inputs":[{"name":"pxETHorApxETH","type":"address","internalType":"address"}],"stateMutability":"nonpayable"},{"type":"function","name":"STAKING_TOKEN","inputs":[],"outputs":[{"name":"","type":"address","internalType":"address"}],"stateMutability":"view"},{"type":"function","name":"WITHDRAW_TOKEN","inputs":[],"outputs":[{"name":"","type":"address","internalType":"address"}],"stateMutability":"view"},{"type":"function","name":"YIELD_TOKEN","inputs":[],"outputs":[{"name":"","type":"address","internalType":"address"}],"stateMutability":"view"},{"type":"function","name":"canFinalizeWithdrawRequest","inputs":[{"name":"requestId","type":"uint256","internalType":"uint256"}],"outputs":[{"name":"","type":"bool","internalType":"bool"}],"stateMutability":"view"},{"type":"function","name":"finalizeAndRedeemWithdrawRequest","inputs":[{"name":"account","type":"address","internalType":"address"},{"name":"withdrawYieldTokenAmount","type":"uint256","internalType":"uint256"},{"name":"sharesToBurn","type":"uint256","internalType":"uint256"}],"outputs":[{"name":"tokensWithdrawn","type":"uint256","internalType":"uint256"},{"name":"finalized","type":"bool","internalType":"bool"}],"stateMutability":"nonpayable"},{"type":"function","name":"finalizeRequestManual","inputs":[{"name":"vault","type":"address","internalType":"address"},{"name":"account","type":"address","internalType":"address"}],"outputs":[{"name":"tokensWithdrawn","type":"uint256","internalType":"uint256"},{"name":"finalized","type":"bool","internalType":"bool"}],"stateMutability":"nonpayable"},{"type":"function","name":"getWithdrawRequest","inputs":[{"name":"vault","type":"address","internalType":"address"},{"name":"account","type":"address","internalType":"address"}],"outputs":[{"name":"w","type":"tuple","internalType":"struct WithdrawRequest","components":[{"name":"requestId","type":"uint256","internalType":"uint256"},{"name":"yieldTokenAmount","type":"uint120","internalType":"uint120"},{"name":"sharesAmount","type":"uint120","internalType":"uint120"}]},{"name":"s","type":"tuple","internalType":"struct TokenizedWithdrawRequest","components":[{"name":"totalYieldTokenAmount","type":"uint120","internalType":"uint120"},{"name":"totalWithdraw","type":"uint120","internalType":"uint120"},{"name":"finalized","type":"bool","internalType":"bool"}]}],"stateMutability":"view"},{"type":"function","name":"getWithdrawRequestValue","inputs":[{"name":"vault","type":"address","internalType":"address"},{"name":"account","type":"address","internalType":"address"},{"name":"asset","type":"address","internalType":"address"},{"name":"shares","type":"uint256","internalType":"uint256"}],"outputs":[{"name":"hasRequest","type":"bool","internalType":"bool"},{"name":"valueInAsset","type":"uint256","internalType":"uint256"}],"stateMutability":"view"},{"type":"function","name":"initialize","inputs":[{"name":"data","type":"bytes","internalType":"bytes"}],"outputs":[],"stateMutability":"nonpayable"},{"type":"function","name":"initiateWithdraw","inputs":[{"name":"account","type":"address","internalType":"address"},{"name":"yieldTokenAmount","type":"uint256","internalType":"uint256"},{"name":"sharesAmount","type":"uint256","internalType":"uint256"},{"name":"data","type":"bytes","internalType":"bytes"}],"outputs":[{"name":"requestId","type":"uint256","internalType":"uint256"}],"stateMutability":"nonpayable"},{"type":"function","name":"isApprovedVault","inputs":[{"name":"","type":"address","internalType":"address"}],"outputs":[{"name":"","type":"bool","internalType":"bool"}],"stateMutability":"view"},{"type":"function","name":"isPendingWithdrawRequest","inputs":[{"name":"vault","type":"address","internalType":"address"},{"name":"account","type":"address","internalType":"address"}],"outputs":[{"name":"","type":"bool","internalType":"bool"}],"stateMutability":"view"},{"type":"function","name":"onERC1155BatchReceived","inputs":[{"name":"","type":"address","internalType":"address"},{"name":"","type":"address","internalType":"address"},{"name":"","type":"uint256[]","internalType":"uint256[]"},{"name":"","type":"uint256[]","internalType":"uint256[]"},{"name":"","type":"bytes","internalType":"bytes"}],"outputs":[{"name":"","type":"bytes4","internalType":"bytes4"}],"stateMutability":"nonpayable"},{"type":"function","name":"onERC1155Received","inputs":[{"name":"","type":"address","internalType":"address"},{"name":"","type":"address","internalType":"address"},{"name":"","type":"uint256","internalType":"uint256"},{"name":"","type":"uint256","internalType":"uint256"},{"name":"","type":"bytes","internalType":"bytes"}],"outputs":[{"name":"","type":"bytes4","internalType":"bytes4"}],"stateMutability":"nonpayable"},{"type":"function","name":"rescueTokens","inputs":[{"name":"cooldownHolder","type":"address","internalType":"address"},{"name":"token","type":"address","internalType":"address"},{"name":"receiver","type":"address","internalType":"address"},{"name":"amount","type":"uint256","internalType":"uint256"}],"outputs":[],"stateMutability":"nonpayable"},{"type":"function","name":"setApprovedVault","inputs":[{"name":"vault","type":"address","internalType":"address"},{"name":"isApproved","type":"bool","internalType":"bool"}],"outputs":[],"stateMutability":"nonpayable"},{"type":"function","name":"stakeTokens","inputs":[{"name":"depositToken","type":"address","internalType":"address"},{"name":"amount","type":"uint256","internalType":"uint256"},{"name":"data","type":"bytes","internalType":"bytes"}],"outputs":[{"name":"yieldTokensMinted","type":"uint256","internalType":"uint256"}],"stateMutability":"nonpayable"},{"type":"function","name":"supportsInterface","inputs":[{"name":"interfaceId","type":"bytes4","internalType":"bytes4"}],"outputs":[{"name":"","type":"bool","internalType":"bool"}],"stateMutability":"view"},{"type":"function","name":"tokenizeWithdrawRequest","inputs":[{"name":"_from","type":"address","internalType":"address"},{"name":"_to","type":"address","internalType":"address"},{"name":"sharesAmount","type":"uint256","internalType":"uint256"}],"outputs":[{"name":"didTokenize","type":"bool","internalType":"bool"}],"stateMutability":"nonpayable"},{"type":"event","name":"ApprovedVault","inputs":[{"name":"vault","type":"address","indexed":true,"internalType":"address"},{"name":"isApproved","type":"bool","indexed":true,"internalType":"bool"}],"anonymous":false},{"type":"event","name":"InitiateWithdrawRequest","inputs":[{"name":"account","type":"address","indexed":true,"internalType":"address"},{"name":"vault","type":"address","indexed":true,"internalType":"address"},{"name":"yieldTokenAmount","type":"uint256","indexed":false,"internalType":"uint256"},{"name":"sharesAmount","type":"uint256","indexed":false,"internalType":"uint256"},{"name":"requestId","type":"uint256","indexed":false,"internalType":"uint256"}],"anonymous":false},{"type":"event","name":"WithdrawRequestTokenized","inputs":[{"name":"from","type":"address","indexed":true,"internalType":"address"},{"name":"to","type":"address","indexed":true,"internalType":"address"},{"name":"requestId","type":"uint256","indexed":true,"internalType":"uint256"},{"name":"sharesAmount","type":"uint256","indexed":false,"internalType":"uint256"}],"anonymous":false},{"type":"error","name":"ExistingWithdrawRequest","inputs":[{"name":"vault","type":"address","internalType":"address"},{"name":"account","type":"address","internalType":"address"},{"name":"requestId","type":"uint256","internalType":"uint256"}]},{"type":"error","name":"InvalidInitialization","inputs":[]},{"type":"error","name":"InvalidWithdrawRequestTokenization","inputs":[]},{"type":"error","name":"NoWithdrawRequest","inputs":[{"name":"vault","type":"address","internalType":"address"},{"name":"account","type":"address","internalType":"address"}]},{"type":"error","name":"SafeERC20FailedOperation","inputs":[{"name":"token","type":"address","internalType":"address"}]},{"type":"error","name":"Unauthorized","inputs":[{"name":"caller","type":"address","internalType":"address"}]}],"bytecode":{"object":"0x60e060405234801561000f575f5ffd5b506040516136d93803806136d983398101604081905261002e9161006a565b5f805460ff1916600117905573c02aaa39b223fe8d0a0e5c4f27ead9083c756cc260a08190526001600160a01b0390911660805260c052610097565b5f6020828403121561007a575f5ffd5b81516001600160a01b0381168114610090575f5ffd5b9392505050565b60805160a05160c0516135bd61011c5f395f818161017a015281816123a7015261246e01525f818161021d01528181610729015281816107bb0152611cbc01525f8181610259015281816108700152818161090201528181610b15015281816118ac0152818161198001528181611a0a01528181611e49015261259201526135bd5ff3fe608060405234801561000f575f5ffd5b5060043610610149575f3560e01c8063a7b87572116100c7578063d665761a1161007d578063e7c35c3c11610063578063e7c35c3c146104e8578063ed020beb146104fb578063f23a6e611461050e575f5ffd5b8063d665761a146104b3578063df78a625146104c6575f5ffd5b8063bc197c81116100ad578063bc197c8114610424578063c2ded8c11461048d578063d5fc623c146104a0575f5ffd5b8063a7b87572146102af578063afbf911a146102d7575f5ffd5b80633ed3a0541161011c578063544bc96d11610102578063544bc96d146102545780637c86cff51461027b578063838f705b1461029c575f5ffd5b80633ed3a05414610218578063439fab911461023f575f5ffd5b806301ffc9a71461014d5780630479d6441461017557806332df6ff2146101b457806337504d9c146101de575b5f5ffd5b61016061015b366004612a4a565b610546565b60405190151581526020015b60405180910390f35b61019c7f000000000000000000000000000000000000000000000000000000000000000081565b6040516001600160a01b03909116815260200161016c565b6101c76101c2366004612aa0565b6105de565b60408051921515835260208301919091520161016c565b6101606101ec366004612aee565b6001600160a01b039182165f908152600260209081526040808320939094168252919091522054151590565b61019c7f000000000000000000000000000000000000000000000000000000000000000081565b61025261024d366004612b63565b6109d1565b005b61019c7f000000000000000000000000000000000000000000000000000000000000000081565b61028e610289366004612b96565b610a43565b60405190815260200161016c565b6101606102aa366004612bfb565b610d10565b6102c26102bd366004612aee565b61123e565b6040805192835290151560208301520161016c565b6103d06102e5366004612aee565b60408051606080820183525f80835260208084018290529284018190528351808301855281815280840182905284018190526001600160a01b039586168152600283528381209490951685529281528184208251808501845281548082526001909201546effffffffffffffffffffffffffffff808216838601526f0100000000000000000000000000000091829004811683870152928752600384529584902084519586018552548083168652958604909116918401919091527e0100000000000000000000000000000000000000000000000000000000000090930460ff161515908201529091565b60408051835181526020808501516effffffffffffffffffffffffffffff908116828401529483015185168284015283518516606083015283015190931660808401520151151560a082015260c00161016c565b61045c610432366004612df5565b7fbc197c810000000000000000000000000000000000000000000000000000000095945050505050565b6040517fffffffff00000000000000000000000000000000000000000000000000000000909116815260200161016c565b61016061049b366004612ea8565b611312565b6102526104ae366004612aa0565b6115bd565b6102526104c1366004612ecc565b611701565b6101606104d4366004612ef8565b60016020525f908152604090205460ff1681565b61028e6104f6366004612f13565b611832565b6102c2610509366004612f6b565b611a3c565b61045c61051c366004612f9d565b7ff23a6e610000000000000000000000000000000000000000000000000000000095945050505050565b5f7fffffffff0000000000000000000000000000000000000000000000000000000082167f4e2312e00000000000000000000000000000000000000000000000000000000014806105d857507f01ffc9a7000000000000000000000000000000000000000000000000000000007fffffffff000000000000000000000000000000000000000000000000000000008316145b92915050565b6001600160a01b038085165f9081526002602090815260408083209387168352928152828220835160608101855281548082526001909201546effffffffffffffffffffffffffffff808216948301949094526f0100000000000000000000000000000090049092169382019390935290918291908203610665575f5f92509250506109c8565b80515f908152600360209081526040808320815160608101835290546effffffffffffffffffffffffffffff80821683526f01000000000000000000000000000000820416938201939093527e0100000000000000000000000000000000000000000000000000000000000090920460ff16151590820152908080806106ea8a611ced565b60ff169050846040015115610840576040517f4c2d8eff0000000000000000000000000000000000000000000000000000000081526001600160a01b037f0000000000000000000000000000000000000000000000000000000000000000811660048301528b16602482015273594734c7e06c3d483466adbce401c6bd269746c890634c2d8eff906044016040805180830381865afa15801561078f573d5f5f3e3d5ffd5b505050506040513d601f19601f820116820180604052508101906107b39190612ff5565b5093506107df7f0000000000000000000000000000000000000000000000000000000000000000611ced565b60ff169150845f01516effffffffffffffffffffffffffffff1685602001516effffffffffffffffffffffffffffff1687602001516effffffffffffffffffffffffffffff1661082f9190613044565b610839919061305b565b9250610944565b6040517f4c2d8eff0000000000000000000000000000000000000000000000000000000081526001600160a01b037f0000000000000000000000000000000000000000000000000000000000000000811660048301528b16602482015273594734c7e06c3d483466adbce401c6bd269746c890634c2d8eff906044016040805180830381865afa1580156108d6573d5f5f3e3d5ffd5b505050506040513d601f19601f820116820180604052508101906108fa9190612ff5565b5093506109267f0000000000000000000000000000000000000000000000000000000000000000611ced565b60ff16915085602001516effffffffffffffffffffffffffffff1692505b5f670de0b6b3a764000061095984600a6131ac565b6109639190613044565b61096e83600a6131ac565b6109788688613044565b6109829190613044565b61098c919061305b565b9050600187604001516effffffffffffffffffffffffffffff168b836109b29190613044565b6109bc919061305b565b98509850505050505050505b94509492505050565b5f5460ff1615610a0d576040517ff92ee8a900000000000000000000000000000000000000000000000000000000815260040160405180910390fd5b5f80547fffffffffffffffffffffffffffffffffffffffffffffffffffffffffffffff00166001179055610a3f828282565b5050565b335f9081526001602052604081205460ff16610a92576040517f8e4a23d60000000000000000000000000000000000000000000000000000000081523360048201526024015b60405180910390fd5b335f9081526002602090815260408083206001600160a01b038a1684529091529020805415610b085780546040517fc5883c010000000000000000000000000000000000000000000000000000000081523360048201526001600160a01b03891660248201526044810191909152606401610a89565b610b3d6001600160a01b037f000000000000000000000000000000000000000000000000000000000000000016333089611da3565b610b4987878686611e25565b8082559150610b57866121ab565b6001820180547fffffffffffffffffffffffffffffffffff000000000000000000000000000000166effffffffffffffffffffffffffffff92909216919091179055610ba2856121ab565b81600101600f6101000a8154816effffffffffffffffffffffffffffff02191690836effffffffffffffffffffffffffffff1602179055506040518060600160405280610bee886121ab565b6effffffffffffffffffffffffffffff90811682525f60208084018290526040938401829052868252600381529083902084518154868401519686015115157e01000000000000000000000000000000000000000000000000000000000000027fff00ffffffffffffffffffffffffffffffffffffffffffffffffffffffffffff9786166f01000000000000000000000000000000027fffff00000000000000000000000000000000000000000000000000000000000090921692909516919091171794909416919091179092558051888152918201879052810183905233906001600160a01b038916907f7dc6e5b3ca303008de60be523ace8967fcb2a779a76232e12901aae0b826a24e9060600160405180910390a35095945050505050565b335f9081526001602052604081205460ff16610d5a576040517f8e4a23d6000000000000000000000000000000000000000000000000000000008152336004820152602401610a89565b826001600160a01b0316846001600160a01b031603610d77575f5ffd5b335f9081526002602090815260408083206001600160a01b038816845290915290208054801580610da6575083155b15610db5575f92505050611237565b335f9081526002602090815260408083206001600160a01b03891684529091529020805415801590610de8575080548214155b15610e3a5780546040517fc5883c010000000000000000000000000000000000000000000000000000000081523360048201526001600160a01b03881660248201526044810191909152606401610a89565b81815560018301546f0100000000000000000000000000000090046effffffffffffffffffffffffffffff16851115610e9f576040517f29dc1c1100000000000000000000000000000000000000000000000000000000815260040160405180910390fd5b60018301546f0100000000000000000000000000000090046effffffffffffffffffffffffffffff1685900361100b5760018084015490820154610ef7916effffffffffffffffffffffffffffff90811691166131b7565b600182810180547fffffffffffffffffffffffffffffffffff000000000000000000000000000000166effffffffffffffffffffffffffffff938416179081905590850154610f62926f010000000000000000000000000000009182900481169291909104166131b7565b600180830180546effffffffffffffffffffffffffffff939093166f01000000000000000000000000000000027fffff000000000000000000000000000000ffffffffffffffffffffffffffffff90931692909217909155335f9081526002602090815260408083206001600160a01b038c16845290915281209081550180547fffff0000000000000000000000000000000000000000000000000000000000001690556111e1565b60018301545f906effffffffffffffffffffffffffffff6f01000000000000000000000000000000820481169161104491899116613044565b61104e919061305b565b600183015490915061107b906110769083906effffffffffffffffffffffffffffff166131de565b6121ab565b6001830180547fffffffffffffffffffffffffffffffffff000000000000000000000000000000166effffffffffffffffffffffffffffff92831617908190556110df916110769189916f01000000000000000000000000000000909104166131de565b600183810180547fffff000000000000000000000000000000ffffffffffffffffffffffffffffff166f010000000000000000000000000000006effffffffffffffffffffffffffffff9485160217905585015461114391611076918491166131f1565b6001850180547fffffffffffffffffffffffffffffffffff000000000000000000000000000000166effffffffffffffffffffffffffffff92831617908190556111a7916110769189916f01000000000000000000000000000000909104166131f1565b84600101600f6101000a8154816effffffffffffffffffffffffffffff02191690836effffffffffffffffffffffffffffff160217905550505b81866001600160a01b0316886001600160a01b03167f3290f85eb3a83c40daf3b41be74981b06f475e338aee958516f687462f6d85558860405161122791815260200190565b60405180910390a4600193505050505b9392505050565b6001600160a01b038083165f9081526002602090815260408083209385168352929052908120805482919082036112b4576040517f53cc89170000000000000000000000000000000000000000000000000000000081526001600160a01b03808716600483015285166024820152604401610a89565b604080516060810182528254815260018301546effffffffffffffffffffffffffffff80821660208401526f0100000000000000000000000000000090910416918101919091526113069085906121cb565b90969095509350505050565b5f6effffffffffffffffffffffffffffff607883901c811690831682825b82811161153d576040517ffe196cf8000000000000000000000000000000000000000000000000000000008152600481018290525f9073d664b74274dfeb538d9bac494f3a4760828b02b09063ad45517d90829063fe196cf8906024015f60405180830381865afa1580156113a7573d5f5f3e3d5ffd5b505050506040513d5f823e601f3d9081017fffffffffffffffffffffffffffffffffffffffffffffffffffffffffffffffe01682016040526113ec9190810190613204565b6040518263ffffffff1660e01b815260040161140891906132c5565b602060405180830381865afa158015611423573d5f5f3e3d5ffd5b505050506040513d601f19601f8201168201806040525081019061144791906132e3565b9050600381600481111561145d5761145d6132fe565b1415801561147d5750600481600481111561147a5761147a6132fe565b14155b1561148e57505f9695505050505050565b6040517efdd58e00000000000000000000000000000000000000000000000000000000815230600482015260248101839052735bf2419a33f82f4c1f075b4006d7fc4104c438689062fdd58e90604401602060405180830381865afa1580156114f9573d5f5f3e3d5ffd5b505050506040513d601f19601f8201168201806040525081019061151d919061332b565b61152790846131de565b925050808061153590613342565b915050611330565b508073d664b74274dfeb538d9bac494f3a4760828b02b06001600160a01b031663f7a1f5ff6040518163ffffffff1660e01b8152600401602060405180830381865afa15801561158f573d5f5f3e3d5ffd5b505050506040513d601f19601f820116820180604052508101906115b3919061332b565b1195945050505050565b735615deb798bb3e4dfa0139dfa1b3d433cc23b72f6001600160a01b031663c4d5608a6040518163ffffffff1660e01b8152600401602060405180830381865afa15801561160d573d5f5f3e3d5ffd5b505050506040513d601f19601f820116820180604052508101906116319190613379565b6001600160a01b0316336001600160a01b03161461167d576040517f8e4a23d6000000000000000000000000000000000000000000000000000000008152336004820152602401610a89565b6040517fcea9d26f0000000000000000000000000000000000000000000000000000000081526001600160a01b03848116600483015283811660248301526044820183905285169063cea9d26f906064015f604051808303815f87803b1580156116e5575f5ffd5b505af11580156116f7573d5f5f3e3d5ffd5b5050505050505050565b735615deb798bb3e4dfa0139dfa1b3d433cc23b72f6001600160a01b031663c4d5608a6040518163ffffffff1660e01b8152600401602060405180830381865afa158015611751573d5f5f3e3d5ffd5b505050506040513d601f19601f820116820180604052508101906117759190613379565b6001600160a01b0316336001600160a01b0316146117c1576040517f8e4a23d6000000000000000000000000000000000000000000000000000000008152336004820152602401610a89565b6001600160a01b0382165f8181526001602052604080822080547fffffffffffffffffffffffffffffffffffffffffffffffffffffffffffffff001685151590811790915590519092917f9391b1bd8cb1e638125000ffd909b226e8f35c80fc0aa208a1a3f5fde67fc3ba91a35050565b335f9081526001602052604081205460ff1661187c576040517f8e4a23d6000000000000000000000000000000000000000000000000000000008152336004820152602401610a89565b6040517f70a082310000000000000000000000000000000000000000000000000000000081523060048201525f907f00000000000000000000000000000000000000000000000000000000000000006001600160a01b0316906370a0823190602401602060405180830381865afa1580156118f9573d5f5f3e3d5ffd5b505050506040513d601f19601f8201168201806040525081019061191d919061332b565b90506119346001600160a01b038716333088611da3565b5f5f611942888888886123a2565b9150915061195082826124d0565b6040517f70a0823100000000000000000000000000000000000000000000000000000000815230600482015283907f00000000000000000000000000000000000000000000000000000000000000006001600160a01b0316906370a0823190602401602060405180830381865afa1580156119cd573d5f5f3e3d5ffd5b505050506040513d601f19601f820116820180604052508101906119f1919061332b565b6119fb91906131f1565b9350611a316001600160a01b037f000000000000000000000000000000000000000000000000000000000000000016338661260d565b505050949350505050565b335f90815260016020526040812054819060ff16611a88576040517f8e4a23d6000000000000000000000000000000000000000000000000000000008152336004820152602401610a89565b335f9081526002602090815260408083206001600160a01b038916845290915281208054909103611abf575f5f9250925050611ce5565b604080516060810182528254815260018301546effffffffffffffffffffffffffffff80821660208401526f010000000000000000000000000000009091041691810191909152611b119087906121cb565b90935091508115611ce35760018101546effffffffffffffffffffffffffffff16851015611c405760018101546effffffffffffffffffffffffffffff16611b598685613044565b611b63919061305b565b9250611b6e846121ab565b600182018054600f90611ba69084906f0100000000000000000000000000000090046effffffffffffffffffffffffffffff16613394565b92506101000a8154816effffffffffffffffffffffffffffff02191690836effffffffffffffffffffffffffffff160217905550611be3856121ab565b6001820180545f90611c079084906effffffffffffffffffffffffffffff16613394565b92506101000a8154816effffffffffffffffffffffffffffff02191690836effffffffffffffffffffffffffffff160217905550611caf565b60018101546effffffffffffffffffffffffffffff168514611c60575f5ffd5b335f9081526002602090815260408083206001600160a01b038a168452909152812090815560010180547fffff0000000000000000000000000000000000000000000000000000000000001690555b611ce36001600160a01b037f000000000000000000000000000000000000000000000000000000000000000016338561260d565b505b935093915050565b5f6001600160a01b0382161580611d2057506001600160a01b03821673eeeeeeeeeeeeeeeeeeeeeeeeeeeeeeeeeeeeeeee145b611d8957816001600160a01b031663313ce5676040518163ffffffff1660e01b8152600401602060405180830381865afa158015611d60573d5f5f3e3d5ffd5b505050506040513d601f19601f82011682018060405250810190611d8491906133bb565b611d8c565b60125b905060128160ff161115611d9e575f5ffd5b919050565b6040516001600160a01b038481166024830152838116604483015260648201839052611e1f9186918216906323b872dd906084015b604051602081830303815290604052915060e01b6020820180517bffffffffffffffffffffffffffffffffffffffffffffffffffffffff8381831617835250505050612643565b50505050565b5f7fffffffffffffffffffffffff645fde4f5646a74a18a31609200683811ad34c1a7f00000000000000000000000000000000000000000000000000000000000000006001600160a01b031601611f12576040517fba0876520000000000000000000000000000000000000000000000000000000081526004810185905230602482018190526044820152739ba021b0a9b958b5e75ce9f6dff97c7ee52cb3e69063ba087652906064016020604051808303815f875af1158015611eeb573d5f5f3e3d5ffd5b505050506040513d601f19601f82011682018060405250810190611f0f919061332b565b93505b5f73d664b74274dfeb538d9bac494f3a4760828b02b06001600160a01b0316634972134a6040518163ffffffff1660e01b8152600401602060405180830381865afa158015611f63573d5f5f3e3d5ffd5b505050506040513d601f19601f82011682018060405250810190611f87919061332b565b6040517f095ea7b300000000000000000000000000000000000000000000000000000000815273d664b74274dfeb538d9bac494f3a4760828b02b06004820152602481018790529091507304c154b66cb340f3ae24111cc767e0184ed00cc69063095ea7b3906044016020604051808303815f875af115801561200c573d5f5f3e3d5ffd5b505050506040513d601f19601f8201168201806040525081019061203091906133db565b506040517f3faae344000000000000000000000000000000000000000000000000000000008152600481018690523060248201525f604482015273d664b74274dfeb538d9bac494f3a4760828b02b090633faae344906064015f604051808303815f87803b1580156120a0575f5ffd5b505af11580156120b2573d5f5f3e3d5ffd5b505050505f73d664b74274dfeb538d9bac494f3a4760828b02b06001600160a01b0316634972134a6040518163ffffffff1660e01b8152600401602060405180830381865afa158015612107573d5f5f3e3d5ffd5b505050506040513d601f19601f8201168201806040525081019061212b919061332b565b600480549192505f9182906121439061ffff166133f6565b825461ffff9182166101009390930a838102920219161790915590506effffffffffffffffffffffffffffff8310612179575f5ffd5b6effffffffffffffffffffffffffffff8210612193575f5ffd5b60f01b60789290921b91909117179050949350505050565b5f6effffffffffffffffffffffffffffff8211156121c7575f5ffd5b5090565b80515f90815260036020526040812080548291907e01000000000000000000000000000000000000000000000000000000000000900460ff161561225b57805460208501516effffffffffffffffffffffffffffff80831692612245928216916f0100000000000000000000000000000090910416613044565b61224f919061305b565b6001925092505061239b565b61226885855f01516126c8565b9093509150811561238f5761227c836121ab565b81546effffffffffffffffffffffffffffff919091166f01000000000000000000000000000000027fffff000000000000000000000000000000ffffffffffffffffffffffffffffff9091161780825560ff7e0100000000000000000000000000000000000000000000000000000000000090910416156122fb575f5ffd5b80547fff00ffffffffffffffffffffffffffffffffffffffffffffffffffffffffffff81167e010000000000000000000000000000000000000000000000000000000000001780835560208601516effffffffffffffffffffffffffffff9283169261237e92918116916f01000000000000000000000000000000900416613044565b612388919061305b565b9250612399565b8215612399575f5ffd5b505b9250929050565b5f60607f00000000000000000000000000000000000000000000000000000000000000006001600160a01b0316866001600160a01b03160361241f5784915083838080601f0160208091040260200160405190810160405280939291908181526020018383808284375f920191909152509293506109c892505050565b5f61242c84860186613416565b9050806080015191506124c36040518060e00160405280835f01516004811115612458576124586132fe565b8152602001896001600160a01b031681526020017f00000000000000000000000000000000000000000000000000000000000000006001600160a01b0316815260200188815260200183602001518152602001428152602001836040015181525082606001516128b5565b9350505094509492505050565b6040517f2e1a7d4d0000000000000000000000000000000000000000000000000000000081526004810183905273c02aaa39b223fe8d0a0e5c4f27ead9083c756cc290632e1a7d4d906024015f604051808303815f87803b158015612533575f5ffd5b505af1158015612545573d5f5f3e3d5ffd5b50506040517fadc9740c000000000000000000000000000000000000000000000000000000008152306004820152739ba021b0a9b958b5e75ce9f6dff97c7ee52cb3e66001600160a01b037f00000000000000000000000000000000000000000000000000000000000000001614602482015273d664b74274dfeb538d9bac494f3a4760828b02b0925063adc9740c915084906044015f604051808303818588803b1580156125f2575f5ffd5b505af1158015612604573d5f5f3e3d5ffd5b50505050505050565b6040516001600160a01b0383811660248301526044820183905261263e91859182169063a9059cbb90606401611dd8565b505050565b5f5f60205f8451602086015f885af180612662576040513d5f823e3d81fd5b50505f513d91508115612679578060011415612686565b6001600160a01b0384163b155b15611e1f576040517f5274afe70000000000000000000000000000000000000000000000000000000081526001600160a01b0385166004820152602401610a89565b5f5f6126d383611312565b9050801561284a576effffffffffffffffffffffffffffff607884901c8116908416815b818111612846576040517efdd58e000000000000000000000000000000000000000000000000000000008152306004820152602481018290525f90735bf2419a33f82f4c1f075b4006d7fc4104c438689062fdd58e90604401602060405180830381865afa15801561276b573d5f5f3e3d5ffd5b505050506040513d601f19601f8201168201806040525081019061278f919061332b565b9050805f0361279e5750612834565b6040517f0dcb8c1a000000000000000000000000000000000000000000000000000000008152600481018390526024810182905230604482015273d664b74274dfeb538d9bac494f3a4760828b02b090630dcb8c1a906064015f604051808303815f87803b15801561280e575f5ffd5b505af1158015612820573d5f5f3e3d5ffd5b50505050808661283091906131de565b9550505b8061283e81613342565b9150506126f7565b5050505b73c02aaa39b223fe8d0a0e5c4f27ead9083c756cc26001600160a01b031663d0e30db0836040518263ffffffff1660e01b81526004015f604051808303818588803b158015612897575f5ffd5b505af11580156128a9573d5f5f3e3d5ffd5b50505050509250929050565b5f5f5f5f73594734c7e06c3d483466adbce401c6bd269746c86001600160a01b031663aaf10f426040518163ffffffff1660e01b8152600401602060405180830381865afa158015612909573d5f5f3e3d5ffd5b505050506040513d601f19601f8201168201806040525081019061292d9190613379565b6001600160a01b0316632ba8c23c60e01b86886040516024016129519291906134e3565b604080517fffffffffffffffffffffffffffffffffffffffffffffffffffffffffffffffe08184030181529181526020820180517bffffffffffffffffffffffffffffffffffffffffffffffffffffffff167fffffffff000000000000000000000000000000000000000000000000000000009094169390931790925290516129da919061359a565b5f60405180830381855af49150503d805f8114612a12576040519150601f19603f3d011682016040523d82523d5f602084013e612a17565b606091505b509150915081612a29573d5f5f3e3d5ffd5b80806020019051810190612a3d9190612ff5565b9097909650945050505050565b5f60208284031215612a5a575f5ffd5b81357fffffffff0000000000000000000000000000000000000000000000000000000081168114611237575f5ffd5b6001600160a01b0381168114612a9d575f5ffd5b50565b5f5f5f5f60808587031215612ab3575f5ffd5b8435612abe81612a89565b93506020850135612ace81612a89565b92506040850135612ade81612a89565b9396929550929360600135925050565b5f5f60408385031215612aff575f5ffd5b8235612b0a81612a89565b91506020830135612b1a81612a89565b809150509250929050565b5f5f83601f840112612b35575f5ffd5b50813567ffffffffffffffff811115612b4c575f5ffd5b60208301915083602082850101111561239b575f5ffd5b5f5f60208385031215612b74575f5ffd5b823567ffffffffffffffff811115612b8a575f5ffd5b61130685828601612b25565b5f5f5f5f5f60808688031215612baa575f5ffd5b8535612bb581612a89565b94506020860135935060408601359250606086013567ffffffffffffffff811115612bde575f5ffd5b612bea88828901612b25565b969995985093965092949392505050565b5f5f5f60608486031215612c0d575f5ffd5b8335612c1881612a89565b92506020840135612c2881612a89565b929592945050506040919091013590565b7f4e487b71000000000000000000000000000000000000000000000000000000005f52604160045260245ffd5b60405160a0810167ffffffffffffffff81118282101715612c8957612c89612c39565b60405290565b604051601f82017fffffffffffffffffffffffffffffffffffffffffffffffffffffffffffffffe016810167ffffffffffffffff81118282101715612cd657612cd6612c39565b604052919050565b5f82601f830112612ced575f5ffd5b813567ffffffffffffffff811115612d0757612d07612c39565b8060051b612d1760208201612c8f565b91825260208185018101929081019086841115612d32575f5ffd5b6020860192505b83831015612d54578235825260209283019290910190612d39565b9695505050505050565b5f67ffffffffffffffff821115612d7757612d77612c39565b50601f017fffffffffffffffffffffffffffffffffffffffffffffffffffffffffffffffe01660200190565b5f82601f830112612db2575f5ffd5b8135612dc5612dc082612d5e565b612c8f565b818152846020838601011115612dd9575f5ffd5b816020850160208301375f918101602001919091529392505050565b5f5f5f5f5f60a08688031215612e09575f5ffd5b8535612e1481612a89565b94506020860135612e2481612a89565b9350604086013567ffffffffffffffff811115612e3f575f5ffd5b612e4b88828901612cde565b935050606086013567ffffffffffffffff811115612e67575f5ffd5b612e7388828901612cde565b925050608086013567ffffffffffffffff811115612e8f575f5ffd5b612e9b88828901612da3565b9150509295509295909350565b5f60208284031215612eb8575f5ffd5b5035919050565b8015158114612a9d575f5ffd5b5f5f60408385031215612edd575f5ffd5b8235612ee881612a89565b91506020830135612b1a81612ebf565b5f60208284031215612f08575f5ffd5b813561123781612a89565b5f5f5f5f60608587031215612f26575f5ffd5b8435612f3181612a89565b935060208501359250604085013567ffffffffffffffff811115612f53575f5ffd5b612f5f87828801612b25565b95989497509550505050565b5f5f5f60608486031215612f7d575f5ffd5b8335612f8881612a89565b95602085013595506040909401359392505050565b5f5f5f5f5f60a08688031215612fb1575f5ffd5b8535612fbc81612a89565b94506020860135612fcc81612a89565b93506040860135925060608601359150608086013567ffffffffffffffff811115612e8f575f5ffd5b5f5f60408385031215613006575f5ffd5b505080516020909101519092909150565b7f4e487b71000000000000000000000000000000000000000000000000000000005f52601160045260245ffd5b80820281158282048414176105d8576105d8613017565b5f8261308e577f4e487b71000000000000000000000000000000000000000000000000000000005f52601260045260245ffd5b500490565b6001815b6001841115611ce5578085048111156130b2576130b2613017565b60018416156130c057908102905b60019390931c928002613097565b5f826130dc575060016105d8565b816130e857505f6105d8565b81600181146130fe576002811461310857613124565b60019150506105d8565b60ff84111561311957613119613017565b50506001821b6105d8565b5060208310610133831016604e8410600b8410161715613147575081810a6105d8565b6131727fffffffffffffffffffffffffffffffffffffffffffffffffffffffffffffffff8484613093565b807fffffffffffffffffffffffffffffffffffffffffffffffffffffffffffffffff048211156131a4576131a4613017565b029392505050565b5f61123783836130ce565b6effffffffffffffffffffffffffffff81811683821601908111156105d8576105d8613017565b808201808211156105d8576105d8613017565b818103818111156105d8576105d8613017565b5f60208284031215613214575f5ffd5b815167ffffffffffffffff81111561322a575f5ffd5b8201601f8101841361323a575f5ffd5b8051613248612dc082612d5e565b81815285602083850101111561325c575f5ffd5b8160208401602083015e5f91810160200191909152949350505050565b5f81518084528060208401602086015e5f6020828601015260207fffffffffffffffffffffffffffffffffffffffffffffffffffffffffffffffe0601f83011685010191505092915050565b602081525f6112376020830184613279565b60058110612a9d575f5ffd5b5f602082840312156132f3575f5ffd5b8151611237816132d7565b7f4e487b71000000000000000000000000000000000000000000000000000000005f52602160045260245ffd5b5f6020828403121561333b575f5ffd5b5051919050565b5f7fffffffffffffffffffffffffffffffffffffffffffffffffffffffffffffffff820361337257613372613017565b5060010190565b5f60208284031215613389575f5ffd5b815161123781612a89565b6effffffffffffffffffffffffffffff82811682821603908111156105d8576105d8613017565b5f602082840312156133cb575f5ffd5b815160ff81168114611237575f5ffd5b5f602082840312156133eb575f5ffd5b815161123781612ebf565b5f61ffff821661ffff810361340d5761340d613017565b60010192915050565b5f60208284031215613426575f5ffd5b813567ffffffffffffffff81111561343c575f5ffd5b820160a0818503121561344d575f5ffd5b613455612c66565b8135613460816132d7565b815260208281013590820152604082013567ffffffffffffffff811115613485575f5ffd5b61349186828501612da3565b604083015250606082013561ffff811681146134ab575f5ffd5b6060820152608082013567ffffffffffffffff8111156134c9575f5ffd5b6134d586828501612da3565b608083015250949350505050565b61ffff83168152604060208201525f825160058110613529577f4e487b71000000000000000000000000000000000000000000000000000000005f52602160045260245ffd5b604083015260208301516001600160a01b03811660608401525060408301516001600160a01b038116608084015250606083015160a0830152608083015160c083015260a083015160e083015260c083015160e0610100840152613591610120840182613279565b95945050505050565b5f82518060208501845e5f92019182525091905056fea164736f6c634300081d000a","linkReferences":{}},"methodIdentifiers":{"STAKING_TOKEN()":"0479d644","WITHDRAW_TOKEN()":"3ed3a054","YIELD_TOKEN()":"544bc96d","canFinalizeWithdrawRequest(uint256)":"c2ded8c1","finalizeAndRedeemWithdrawRequest(address,uint256,uint256)":"ed020beb","finalizeRequestManual(address,address)":"a7b87572","getWithdrawRequest(address,address)":"afbf911a","getWithdrawRequestValue(address,address,address,uint256)":"32df6ff2","initialize(bytes)":"439fab91","initiateWithdraw(address,uint256,uint256,bytes)":"7c86cff5","isApprovedVault(address)":"df78a625","isPendingWithdrawRequest(address,address)":"37504d9c","onERC1155BatchReceived(address,address,uint256[],uint256[],bytes)":"bc197c81","onERC1155Received(address,address,uint256,uint256,bytes)":"f23a6e61","rescueTokens(address,address,address,uint256)":"d5fc623c","setApprovedVault(address,bool)":"d665761a","stakeTokens(address,uint256,bytes)":"e7c35c3c","supportsInterface(bytes4)":"01ffc9a7","tokenizeWithdrawRequest(address,address,uint256)":"838f705b"},"id":97}