{"abi":[{"type":"function","name":"claimRewardTokens","inputs":[],"outputs":[],"stateMutability":"nonpayable"},{"type":"function","name":"getRewardDebt","inputs":[{"name":"rewardToken","type":"address","internalType":"address"},{"name":"account","type":"address","internalType":"address"}],"outputs":[{"name":"","type":"uint256","internalType":"uint256"}],"stateMutability":"view"},{"type":"function","name":"getRewardSettings","inputs":[],"outputs":[{"name":"rewardStates","type":"tuple[]","internalType":"struct VaultRewardState[]","components":[{"name":"rewardToken","type":"address","internalType":"address"},{"name":"lastAccumulatedTime","type":"uint32","internalType":"uint32"},{"name":"endTime","type":"uint32","internalType":"uint32"},{"name":"emissionRatePerYear","type":"uint128","internalType":"uint128"},{"name":"accumulatedRewardPerVaultShare","type":"uint128","internalType":"uint128"}]},{"name":"rewardPool","type":"tuple","internalType":"struct RewardPoolStorage","components":[{"name":"rewardPool","type":"address","internalType":"address"},{"name":"lastClaimTimestamp","type":"uint32","internalType":"uint32"},{"name":"forceClaimAfter","type":"uint32","internalType":"uint32"}]}],"stateMutability":"view"},{"type":"function","name":"migrateRewardPool","inputs":[{"name":"poolToken","type":"address","internalType":"address"},{"name":"newRewardPool","type":"tuple","internalType":"struct RewardPoolStorage","components":[{"name":"rewardPool","type":"address","internalType":"address"},{"name":"lastClaimTimestamp","type":"uint32","internalType":"uint32"},{"name":"forceClaimAfter","type":"uint32","internalType":"uint32"}]}],"outputs":[],"stateMutability":"nonpayable"},{"type":"function","name":"updateAccountRewards","inputs":[{"name":"account","type":"address","internalType":"address"},{"name":"effectiveSupplyBefore","type":"uint256","internalType":"uint256"},{"name":"accountSharesBefore","type":"uint256","internalType":"uint256"},{"name":"accountSharesAfter","type":"uint256","internalType":"uint256"},{"name":"sharesInEscrow","type":"bool","internalType":"bool"}],"outputs":[{"name":"rewards","type":"uint256[]","internalType":"uint256[]"}],"stateMutability":"nonpayable"},{"type":"function","name":"updateRewardToken","inputs":[{"name":"index","type":"uint256","internalType":"uint256"},{"name":"rewardToken","type":"address","internalType":"address"},{"name":"emissionRatePerYear","type":"uint128","internalType":"uint128"},{"name":"endTime","type":"uint32","internalType":"uint32"}],"outputs":[],"stateMutability":"nonpayable"},{"type":"event","name":"VaultRewardTransfer","inputs":[{"name":"token","type":"address","indexed":false,"internalType":"address"},{"name":"account","type":"address","indexed":false,"internalType":"address"},{"name":"amount","type":"uint256","indexed":false,"internalType":"uint256"}],"anonymous":false},{"type":"event","name":"VaultRewardUpdate","inputs":[{"name":"rewardToken","type":"address","indexed":false,"internalType":"address"},{"name":"emissionRatePerYear","type":"uint128","indexed":false,"internalType":"uint128"},{"name":"endTime","type":"uint32","indexed":false,"internalType":"uint32"}],"anonymous":false},{"type":"error","name":"ReentrancyGuardReentrantCall","inputs":[]},{"type":"error","name":"SafeERC20FailedOperation","inputs":[{"name":"token","type":"address","internalType":"address"}]},{"type":"error","name":"Unauthorized","inputs":[{"name":"caller","type":"address","internalType":"address"}]}],"bytecode":{"object":"0x6080604052348015600e575f5ffd5b506123738061001c5f395ff3fe608060405234801561000f575f5ffd5b506004361061006f575f3560e01c806389e53e6b1161004d57806389e53e6b146100b9578063ada98cc3146100cf578063cd05b4e1146100f0575f5ffd5b8063290192151461007357806349ba860d1461008857806371df13da146100b1575b5f5ffd5b610086610081366004611f13565b610103565b005b61009b610096366004611ff7565b6104f4565b6040516100a89190612049565b60405180910390f35b6100866107ab565b6100c161082e565b6040516100a892919061208b565b6100e26100dd36600461216d565b6109a2565b6040519081526020016100a8565b6100866100fe3660046121a4565b6109d0565b735615deb798bb3e4dfa0139dfa1b3d433cc23b72f6001600160a01b031663c4d5608a6040518163ffffffff1660e01b8152600401602060405180830381865afa158015610153573d5f5f3e3d5ffd5b505050506040513d601f19601f820116820180604052508101906101779190612206565b6001600160a01b0316336001600160a01b0316146101c8576040517f8e4a23d60000000000000000000000000000000000000000000000000000000081523360048201526024015b60405180910390fd5b6101d0610f12565b5f306001600160a01b0316638fc470936040518163ffffffff1660e01b8152600401602060405180830381865afa15801561020d573d5f5f3e3d5ffd5b505050506040513d601f19601f820116820180604052508101906102319190612221565b905061032481620f42425b805480602002602001604051908101604052809291908181526020015f905b8282101561031b575f8481526020908190206040805160a0810182526002860290920180546001600160a01b038116845263ffffffff740100000000000000000000000000000000000000008204811685870152780100000000000000000000000000000000000000000000000090910416918301919091526001908101546fffffffffffffffffffffffffffffffff8082166060850152700100000000000000000000000000000000909104166080830152908352909201910161025b565b50505050610f98565b60408051606081018252620f4241546001600160a01b03811680835263ffffffff7401000000000000000000000000000000000000000083048116602085015278010000000000000000000000000000000000000000000000009092049091169282019290925290156103b05761039a8161129b565b80516103b0906001600160a01b038616906113b1565b6040517f70a082310000000000000000000000000000000000000000000000000000000081523060048201525f906001600160a01b038616906370a0823190602401602060405180830381865afa15801561040d573d5f5f3e3d5ffd5b505050506040513d601f19601f820116820180604052508101906104319190612221565b905061043e8582866113d7565b5050620f424180548351604085015163ffffffff9081167801000000000000000000000000000000000000000000000000027fffffffff00000000ffffffff0000000000000000000000000000000000000000429092167401000000000000000000000000000000000000000002919091167fffffffff00000000000000000000000000000000000000000000000000000000909316929092176001600160a01b0390911617179055506104f0611574565b5050565b606081801561050257505f83115b6107a2575f620f4242805480602002602001604051908101604052809291908181526020015f905b828210156105ea575f8481526020908190206040805160a0810182526002860290920180546001600160a01b038116845263ffffffff740100000000000000000000000000000000000000008204811685870152780100000000000000000000000000000000000000000000000090910416918301919091526001908101546fffffffffffffffffffffffffffffffff8082166060850152700100000000000000000000000000000000909104166080830152908352909201910161052a565b5050505090506105fa8682610f98565b805167ffffffffffffffff81111561061457610614611ece565b60405190808252806020026020018201604052801561063d578160200160208202803683370190505b5091505f5b815181101561079f57838015610656575084155b156106c557620f42435f83838151811061067257610672612238565b60200260200101515f01516001600160a01b03166001600160a01b031681526020019081526020015f205f896001600160a01b03166001600160a01b031681526020019081526020015f205f9055610797565b8181815181106106d7576106d7612238565b6020026020010151606001516fffffffffffffffffffffffffffffffff165f1015610720576107208183838151811061071257610712612238565b60200260200101518961159e565b61077882828151811061073557610735612238565b60200260200101515f015189888886868151811061075557610755612238565b6020026020010151608001516fffffffffffffffffffffffffffffffff166116ea565b83828151811061078a5761078a612238565b6020026020010181815250505b600101610642565b50505b95945050505050565b6107b3610f12565b5f306001600160a01b0316638fc470936040518163ffffffff1660e01b8152600401602060405180830381865afa1580156107f0573d5f5f3e3d5ffd5b505050506040513d601f19601f820116820180604052508101906108149190612221565b905061082381620f424261023c565b5061082c611574565b565b60408051606081810183525f8083526020830181905292820192909252620f4242805480602002602001604051908101604052809291908181526020015f905b8282101561092e575f8481526020908190206040805160a0810182526002860290920180546001600160a01b038116845263ffffffff740100000000000000000000000000000000000000008204811685870152780100000000000000000000000000000000000000000000000090910416918301919091526001908101546fffffffffffffffffffffffffffffffff8082166060850152700100000000000000000000000000000000909104166080830152908352909201910161086e565b50505050915061093e620f424190565b6040805160608101825291546001600160a01b038116835263ffffffff740100000000000000000000000000000000000000008204811660208501527801000000000000000000000000000000000000000000000000909104169082015291929050565b6001600160a01b038281165f908152620f424360209081526040808320938516835292905220545b92915050565b735615deb798bb3e4dfa0139dfa1b3d433cc23b72f6001600160a01b031663c4d5608a6040518163ffffffff1660e01b8152600401602060405180830381865afa158015610a20573d5f5f3e3d5ffd5b505050506040513d601f19601f82011682018060405250810190610a449190612206565b6001600160a01b0316336001600160a01b031614610a90576040517f8e4a23d60000000000000000000000000000000000000000000000000000000081523360048201526024016101bf565b5f306001600160a01b0316638fc470936040518163ffffffff1660e01b8152600401602060405180830381865afa158015610acd573d5f5f3e3d5ffd5b505050506040513d601f19601f82011682018060405250810190610af19190612221565b620f42425490915080861015610d42575f620f42428781548110610b1757610b17612238565b5f9182526020918290206040805160a081018252600290930290910180546001600160a01b0380821680865263ffffffff740100000000000000000000000000000000000000008404811697870197909752780100000000000000000000000000000000000000000000000090920490951692840192909252600101546fffffffffffffffffffffffffffffffff808216606085015270010000000000000000000000000000000090910416608083015290925090871614610bd7575f5ffd5b610be287828561159e565b6fffffffffffffffffffffffffffffffff8516606082018190525f03610c0d575f6040820152610c2b565b8363ffffffff164210610c1e575f5ffd5b63ffffffff841660408201525b80620f42428881548110610c4157610c41612238565b5f9182526020918290208351600290920201805492840151604085015163ffffffff9081167801000000000000000000000000000000000000000000000000027fffffffff00000000ffffffffffffffffffffffffffffffffffffffffffffffff9190921674010000000000000000000000000000000000000000027fffffffffffffffff0000000000000000000000000000000000000000000000009095166001600160a01b0390941693909317939093179190911691909117815560608201516080909201516fffffffffffffffffffffffffffffffff9081167001000000000000000000000000000000000292169190911760019091015550610e9e565b80860361006f57620f42426fffffffffffffffffffffffffffffffff851615610d76578363ffffffff164210610d76575f5ffd5b6040805160a0810182526001600160a01b03808916825263ffffffff42811660208085019182528983169585019586526fffffffffffffffffffffffffffffffff808c16606087019081525f608088018181528a5460018181018d559b8352949091209751600290940290970180549451985186167801000000000000000000000000000000000000000000000000027fffffffff00000000ffffffffffffffffffffffffffffffffffffffffffffffff9990961674010000000000000000000000000000000000000000027fffffffffffffffff000000000000000000000000000000000000000000000000909516939096169290921792909217959095169190911782559251915183167001000000000000000000000000000000000291909216179101555b610eab82620f424261023c565b604080516001600160a01b03871681526fffffffffffffffffffffffffffffffff8616602082015263ffffffff85168183015290517f2e290311a3ba8336ce92d662a95ac999a75d66aa3c1358b982b08de12a5762a49181900360600190a1505050505050565b7f9b779b17422d0df92223018b32b4d1fa46e071723d6817e2486d003becc55f005c15610f6b576040517f3ee5aeb500000000000000000000000000000000000000000000000000000000815260040160405180910390fd5b61082c60017f9b779b17422d0df92223018b32b4d1fa46e071723d6817e2486d003becc55f005b90611910565b60408051606081018252620f4241546001600160a01b03811680835263ffffffff740100000000000000000000000000000000000000008304811660208501527801000000000000000000000000000000000000000000000000909204909116928201929092529061100957505050565b8060400151816020015161101d9190612292565b63ffffffff1642101561102f57505050565b5f825167ffffffffffffffff81111561104a5761104a611ece565b604051908082528060200260200182016040528015611073578160200160208202803683370190505b5090505f5b83518110156111445783818151811061109357611093612238565b6020908102919091010151516040517f70a082310000000000000000000000000000000000000000000000000000000081523060048201526001600160a01b03909116906370a0823190602401602060405180830381865afa1580156110fb573d5f5f3e3d5ffd5b505050506040513d601f19601f8201168201806040525081019061111f9190612221565b82828151811061113157611131612238565b6020908102919091010152600101611078565b5061114d611917565b620f424180547fffffffffffffffff00000000ffffffffffffffffffffffffffffffffffffffff167401000000000000000000000000000000000000000063ffffffff4216021790555f5b8351811015611294575f8482815181106111b4576111b4612238565b6020908102919091010151516040517f70a082310000000000000000000000000000000000000000000000000000000081523060048201526001600160a01b03909116906370a0823190602401602060405180830381865afa15801561121c573d5f5f3e3d5ffd5b505050506040513d601f19601f820116820180604052508101906112409190612221565b905061128b8286848151811061125857611258612238565b602002602001015185858151811061127257611272612238565b60200260200101518461128591906122ae565b896119b3565b50600101611198565b5050505050565b80516040517f70a082310000000000000000000000000000000000000000000000000000000081523060048201525f916001600160a01b0316906370a0823190602401602060405180830381865afa1580156112f9573d5f5f3e3d5ffd5b505050506040513d601f19601f8201168201806040525081019061131d9190612221565b82516040517fc32e720200000000000000000000000000000000000000000000000000000000815260048101839052600160248201529192506001600160a01b03169063c32e7202906044016020604051808303815f875af1158015611385573d5f5f3e3d5ffd5b505050506040513d601f19601f820116820180604052508101906113a991906122c1565b6104f0575f5ffd5b6001600160a01b0382166113c3575050565b6104f06001600160a01b038316825f611b17565b5f815f01516001600160a01b031663f10684546040518163ffffffff1660e01b8152600401602060405180830381865afa158015611417573d5f5f3e3d5ffd5b505050506040513d601f19601f8201168201806040525081019061143b9190612221565b90505f825f01516001600160a01b031663570ca7356040518163ffffffff1660e01b8152600401602060405180830381865afa15801561147d573d5f5f3e3d5ffd5b505050506040513d601f19601f820116820180604052508101906114a19190612206565b90506114d76001600160a01b038616827fffffffffffffffffffffffffffffffffffffffffffffffffffffffffffffffff611c26565b8315611294576040517f43a0d0660000000000000000000000000000000000000000000000000000000081526004810183905260248101859052600160448201526001600160a01b038216906343a0d066906064016020604051808303815f875af1158015611548573d5f5f3e3d5ffd5b505050506040513d601f19601f8201168201806040525081019061156c91906122c1565b611294575f5ffd5b61082c5f7f9b779b17422d0df92223018b32b4d1fa46e071723d6817e2486d003becc55f00610f92565b6115b16115ac838342611c52565b611d7c565b6fffffffffffffffffffffffffffffffff1660808301524263ffffffff16602083015281620f424284815481106115ea576115ea612238565b5f9182526020918290208351600290920201805492840151604085015163ffffffff9081167801000000000000000000000000000000000000000000000000027fffffffff00000000ffffffffffffffffffffffffffffffffffffffffffffffff9190921674010000000000000000000000000000000000000000027fffffffffffffffff0000000000000000000000000000000000000000000000009095166001600160a01b0390941693909317939093179190911691909117815560608201516080909201516fffffffffffffffffffffffffffffffff90811670010000000000000000000000000000000002921691909117600190910155505050565b6001600160a01b038581165f908152620f42436020908152604080832093881683529290529081205480670de0b6b3a764000061172785886122dc565b61173191906122f3565b61173b91906122ae565b9150670de0b6b3a764000061175084866122dc565b61175a91906122f3565b6001600160a01b038881165f908152620f424360209081526040808320938b16835292905220558115611906576001600160a01b0387163b15611906576040517fa9059cbb0000000000000000000000000000000000000000000000000000000081526001600160a01b0387811660048301526024820184905288169063a9059cbb906044015f604051808303815f87803b1580156117f7575f5ffd5b505af1925050508015611808575060015b61185a57604080516001600160a01b038981168252881660208201525f8183015290517f5435e767dd2fc4150366680814af79da5bf75525ccbf0dc5c1d53e94aeb5ffb79181900360600190a1611906565b5f611863611d9d565b905080156118bb57604080516001600160a01b03808b168252891660208201529081018490527f5435e767dd2fc4150366680814af79da5bf75525ccbf0dc5c1d53e94aeb5ffb79060600160405180910390a161079f565b604080516001600160a01b038a81168252891660208201525f8183015290517f5435e767dd2fc4150366680814af79da5bf75525ccbf0dc5c1d53e94aeb5ffb79181900360600190a1505b5095945050505050565b80825d5050565b5f620f4241546040517f7050ccd9000000000000000000000000000000000000000000000000000000008152306004820152600160248201526001600160a01b0390911691508190637050ccd9906044016020604051808303815f875af1158015611984573d5f5f3e3d5ffd5b505050506040513d601f19601f820116820180604052508101906119a891906122c1565b6119b0575f5ffd5b50565b8115611b11576119d9816119cf670de0b6b3a7640000856122dc565b6115ac91906122f3565b836080018181516119ea919061232b565b6fffffffffffffffffffffffffffffffff1690525082620f42428581548110611a1557611a15612238565b5f9182526020918290208351600290920201805492840151604085015163ffffffff9081167801000000000000000000000000000000000000000000000000027fffffffff00000000ffffffffffffffffffffffffffffffffffffffffffffffff9190921674010000000000000000000000000000000000000000027fffffffffffffffff0000000000000000000000000000000000000000000000009095166001600160a01b0390941693909317939093179190911691909117815560608201516080909201516fffffffffffffffffffffffffffffffff908116700100000000000000000000000000000000029216919091176001909101555b50505050565b604080516001600160a01b038416602482015260448082018490528251808303909101815260649091019091526020810180517bffffffffffffffffffffffffffffffffffffffffffffffffffffffff167f095ea7b300000000000000000000000000000000000000000000000000000000179052611b968482611dce565b611b1157604080516001600160a01b03851660248201525f6044808301919091528251808303909101815260649091019091526020810180517bffffffffffffffffffffffffffffffffffffffffffffffffffffffff167f095ea7b300000000000000000000000000000000000000000000000000000000179052611c1c908590611e17565b611b118482611e17565b6001600160a01b038316611c3957505050565b611c4d6001600160a01b0384168383611b17565b505050565b5f83606001516fffffffffffffffffffffffffffffffff165f03611c8d575060808301516fffffffffffffffffffffffffffffffff16611d75565b836040015163ffffffff165f10611ca2575f5ffd5b5f846040015163ffffffff168310611cc457846040015163ffffffff16611cc6565b825b90505f81866020015163ffffffff16108015611ce15750845f105b15611d4e575f866020015163ffffffff1683611cfd91906122ae565b9050611d0d866301e133806122dc565b60608801516fffffffffffffffffffffffffffffffff16611d36670de0b6b3a7640000846122dc565b611d4091906122dc565b611d4a91906122f3565b9150505b8086608001516fffffffffffffffffffffffffffffffff16611d709190612353565b925050505b9392505050565b5f6fffffffffffffffffffffffffffffffff821115611d99575f5ffd5b5090565b5f611da6611e9c565b3d8015611db95760208114611dc2575f5ffd5b60019250505090565b60205f833e5051919050565b5f5f5f5f60205f8651602088015f8a5af192503d91505f519050828015611e0d57508115611dff5780600114611e0d565b5f866001600160a01b03163b115b9695505050505050565b5f5f60205f8451602086015f885af180611e36576040513d5f823e3d81fd5b50505f513d91508115611e4d578060011415611e5a565b6001600160a01b0384163b155b15611b11576040517f5274afe70000000000000000000000000000000000000000000000000000000081526001600160a01b03851660048201526024016101bf565b60405180602001604052806001906020820280368337509192915050565b6001600160a01b03811681146119b0575f5ffd5b7f4e487b71000000000000000000000000000000000000000000000000000000005f52604160045260245ffd5b803563ffffffff81168114611f0e575f5ffd5b919050565b5f5f8284036080811215611f25575f5ffd5b8335611f3081611eba565b925060607fffffffffffffffffffffffffffffffffffffffffffffffffffffffffffffffe082011215611f61575f5ffd5b506040516060810181811067ffffffffffffffff82111715611faa577f4e487b71000000000000000000000000000000000000000000000000000000005f52604160045260245ffd5b6040526020840135611fbb81611eba565b8152611fc960408501611efb565b6020820152611fda60608501611efb565b6040820152809150509250929050565b80151581146119b0575f5ffd5b5f5f5f5f5f60a0868803121561200b575f5ffd5b853561201681611eba565b9450602086013593506040860135925060608601359150608086013561203b81611fea565b809150509295509295909350565b602080825282518282018190525f918401906040840190835b81811015612080578351835260209384019390920191600101612062565b509095945050505050565b608080825283519082018190525f90602085019060a0840190835b8181101561212d5783516001600160a01b03815116845263ffffffff602082015116602085015263ffffffff60408201511660408501526fffffffffffffffffffffffffffffffff60608201511660608501526fffffffffffffffffffffffffffffffff60808201511660808501525060a0830192506020840193506001810190506120a6565b50508092505050611d7560208301846001600160a01b03815116825263ffffffff602082015116602083015263ffffffff60408201511660408301525050565b5f5f6040838503121561217e575f5ffd5b823561218981611eba565b9150602083013561219981611eba565b809150509250929050565b5f5f5f5f608085870312156121b7575f5ffd5b8435935060208501356121c981611eba565b925060408501356fffffffffffffffffffffffffffffffff811681146121ed575f5ffd5b91506121fb60608601611efb565b905092959194509250565b5f60208284031215612216575f5ffd5b8151611d7581611eba565b5f60208284031215612231575f5ffd5b5051919050565b7f4e487b71000000000000000000000000000000000000000000000000000000005f52603260045260245ffd5b7f4e487b71000000000000000000000000000000000000000000000000000000005f52601160045260245ffd5b63ffffffff81811683821601908111156109ca576109ca612265565b818103818111156109ca576109ca612265565b5f602082840312156122d1575f5ffd5b8151611d7581611fea565b80820281158282048414176109ca576109ca612265565b5f82612326577f4e487b71000000000000000000000000000000000000000000000000000000005f52601260045260245ffd5b500490565b6fffffffffffffffffffffffffffffffff81811683821601908111156109ca576109ca612265565b808201808211156109ca576109ca61226556fea164736f6c634300081d000a","linkReferences":{}},"methodIdentifiers":{"claimRewardTokens()":"71df13da","getRewardDebt(address,address)":"ada98cc3","getRewardSettings()":"89e53e6b","migrateRewardPool(address,(address,uint32,uint32))":"29019215","updateAccountRewards(address,uint256,uint256,uint256,bool)":"49ba860d","updateRewardToken(uint256,address,uint128,uint32)":"cd05b4e1"},"id":81}