{"abi":[{"type":"function","name":"didInitialize","inputs":[],"outputs":[{"name":"","type":"bool","internalType":"bool"}],"stateMutability":"view"},{"type":"function","name":"doSomething","inputs":[],"outputs":[{"name":"","type":"bool","internalType":"bool"}],"stateMutability":"pure"},{"type":"function","name":"initialize","inputs":[{"name":"data","type":"bytes","internalType":"bytes"}],"outputs":[],"stateMutability":"nonpayable"},{"type":"error","name":"InvalidInitialization","inputs":[]}],"bytecode":{"object":"0x6080604052348015600e575f5ffd5b505f805460ff19166001179055610166806100285f395ff3fe608060405234801561000f575f5ffd5b506004361061003f575f3560e01c8063439fab91146100435780638269267914610058578063920497b11461006f575b5f5ffd5b6100566100513660046100eb565b610080565b005b60015b604051901515815260200160405180910390f35b5f5461005b90610100900460ff1681565b5f5460ff16156100bc576040517ff92ee8a900000000000000000000000000000000000000000000000000000000815260040160405180910390fd5b50505f80547fffffffffffffffffffffffffffffffffffffffffffffffffffffffffffff000016610101179055565b5f5f602083850312156100fc575f5ffd5b823567ffffffffffffffff811115610112575f5ffd5b8301601f81018513610122575f5ffd5b803567ffffffffffffffff811115610138575f5ffd5b856020828401011115610149575f5ffd5b602091909101959094509250505056fea164736f6c634300081d000a","linkReferences":{}},"methodIdentifiers":{"didInitialize()":"920497b1","doSomething()":"82692679","initialize(bytes)":"439fab91"},"id":113}