{"abi":[{"type":"constructor","inputs":[{"name":"_lowerLimitMultiplier","type":"uint256","internalType":"uint256"},{"name":"_upperLimitMultiplier","type":"uint256","internalType":"uint256"},{"name":"_lpToken","type":"address","internalType":"address"},{"name":"_primaryIndex","type":"uint8","internalType":"uint8"},{"name":"description_","type":"string","internalType":"string"},{"name":"sequencerUptimeOracle_","type":"address","internalType":"address"},{"name":"baseToUSDOracle_","type":"address","internalType":"contract AggregatorV2V3Interface"},{"name":"_invertBase","type":"bool","internalType":"bool"},{"name":"_dyAmount","type":"uint256","internalType":"uint256"}],"stateMutability":"nonpayable"},{"type":"function","name":"SEQUENCER_UPTIME_GRACE_PERIOD","inputs":[],"outputs":[{"name":"","type":"uint256","internalType":"uint256"}],"stateMutability":"view"},{"type":"function","name":"decimals","inputs":[],"outputs":[{"name":"","type":"uint8","internalType":"uint8"}],"stateMutability":"view"},{"type":"function","name":"description","inputs":[],"outputs":[{"name":"","type":"string","internalType":"string"}],"stateMutability":"view"},{"type":"function","name":"getAnswer","inputs":[{"name":"","type":"uint256","internalType":"uint256"}],"outputs":[{"name":"","type":"int256","internalType":"int256"}],"stateMutability":"pure"},{"type":"function","name":"getRoundData","inputs":[{"name":"","type":"uint80","internalType":"uint80"}],"outputs":[{"name":"","type":"uint80","internalType":"uint80"},{"name":"","type":"int256","internalType":"int256"},{"name":"","type":"uint256","internalType":"uint256"},{"name":"","type":"uint256","internalType":"uint256"},{"name":"","type":"uint80","internalType":"uint80"}],"stateMutability":"pure"},{"type":"function","name":"getTimestamp","inputs":[{"name":"","type":"uint256","internalType":"uint256"}],"outputs":[{"name":"","type":"uint256","internalType":"uint256"}],"stateMutability":"pure"},{"type":"function","name":"latestAnswer","inputs":[],"outputs":[{"name":"answer","type":"int256","internalType":"int256"}],"stateMutability":"view"},{"type":"function","name":"latestRound","inputs":[],"outputs":[{"name":"roundId","type":"uint256","internalType":"uint256"}],"stateMutability":"view"},{"type":"function","name":"latestRoundData","inputs":[],"outputs":[{"name":"roundId","type":"uint80","internalType":"uint80"},{"name":"answer","type":"int256","internalType":"int256"},{"name":"startedAt","type":"uint256","internalType":"uint256"},{"name":"updatedAt","type":"uint256","internalType":"uint256"},{"name":"answeredInRound","type":"uint80","internalType":"uint80"}],"stateMutability":"view"},{"type":"function","name":"latestTimestamp","inputs":[],"outputs":[{"name":"updatedAt","type":"uint256","internalType":"uint256"}],"stateMutability":"view"},{"type":"function","name":"sequencerUptimeOracle","inputs":[],"outputs":[{"name":"","type":"address","internalType":"contract AggregatorV2V3Interface"}],"stateMutability":"view"},{"type":"function","name":"version","inputs":[],"outputs":[{"name":"","type":"uint256","internalType":"uint256"}],"stateMutability":"view"},{"type":"error","name":"InvalidPrice","inputs":[{"name":"oraclePrice","type":"uint256","internalType":"uint256"},{"name":"spotPrice","type":"uint256","internalType":"uint256"}]}],"bytecode":{"object":"0x610260604052348015610010575f5ffd5b50604051611d96380380611d9683398101604081905261002f9161036e565b670de0b6b3a764000089898989898981815f61004b8382610518565b506001600160a01b031660805250670de0b6b3a7640000861061006c575f5ffd5b84670de0b6b3a76400001061007f575f5ffd5b505060a09490945260c09290925260e0526001600160a01b039081166101005260ff9091166101205260405163c661065760e01b81525f60048201526101109189169063c6610657906024015b602060405180830381865afa1580156100e7573d5f5f3e3d5ffd5b505050506040513d601f19601f8201168201806040525081019061010b91906105d2565b610230565b6001600160a01b039081166101605260405163c661065760e01b8152600160048201526101489189169063c6610657906024016100cc565b6001600160a01b0316610180526101605161016290610263565b60ff166101a0526101805161017690610263565b60ff166101c0526101205161018c906001610608565b60ff16610140526001600160a01b0383166101e0819052821515610200526102208290526040805163313ce56760e01b815290515f929163313ce5679160048083019260209291908290030181865afa1580156101eb573d5f5f3e3d5ffd5b505050506040513d601f19601f8201168201806040525081019061020f9190610621565b905061021c81600a61071d565b610240525061072b98505050505050505050565b5f6001600160a01b03821673eeeeeeeeeeeeeeeeeeeeeeeeeeeeeeeeeeeeeeee1461025b578161025d565b5f5b92915050565b5f6001600160a01b038216158061029657506001600160a01b03821673eeeeeeeeeeeeeeeeeeeeeeeeeeeeeeeeeeeeeeee145b6102ff57816001600160a01b031663313ce5676040518163ffffffff1660e01b8152600401602060405180830381865afa1580156102d6573d5f5f3e3d5ffd5b505050506040513d601f19601f820116820180604052508101906102fa9190610621565b610302565b60125b905060128160ff161115610314575f5ffd5b919050565b6001600160a01b038116811461032d575f5ffd5b50565b805161031481610319565b805160ff81168114610314575f5ffd5b634e487b7160e01b5f52604160045260245ffd5b80518015158114610314575f5ffd5b5f5f5f5f5f5f5f5f5f6101208a8c031215610387575f5ffd5b895160208b015160408c0151919a5098506103a181610319565b96506103af60608b0161033b565b60808b01519096506001600160401b038111156103ca575f5ffd5b8a01601f81018c136103da575f5ffd5b80516001600160401b038111156103f3576103f361034b565b604051601f8201601f19908116603f011681016001600160401b03811182821017156104215761042161034b565b6040528181528282016020018e1015610438575f5ffd5b8160208401602083015e5f6020838301015280975050505061045c60a08b01610330565b935061046a60c08b01610330565b925061047860e08b0161035f565b91505f6101008b01519050809150509295985092959850929598565b600181811c908216806104a857607f821691505b6020821081036104c657634e487b7160e01b5f52602260045260245ffd5b50919050565b601f82111561051357805f5260205f20601f840160051c810160208510156104f15750805b601f840160051c820191505b81811015610510575f81556001016104fd565b50505b505050565b81516001600160401b038111156105315761053161034b565b6105458161053f8454610494565b846104cc565b6020601f821160018114610577575f83156105605750848201515b5f19600385901b1c1916600184901b178455610510565b5f84815260208120601f198516915b828110156105a65787850151825560209485019460019092019101610586565b50848210156105c357868401515f19600387901b60f8161c191681555b50505050600190811b01905550565b5f602082840312156105e2575f5ffd5b81516105ed81610319565b9392505050565b634e487b7160e01b5f52601160045260245ffd5b60ff828116828216039081111561025d5761025d6105f4565b5f60208284031215610631575f5ffd5b6105ed8261033b565b6001815b600184111561067557808504811115610659576106596105f4565b600184161561066757908102905b60019390931c92800261063e565b935093915050565b5f8261068b5750600161025d565b8161069757505f61025d565b81600181146106ad57600281146106b7576106d3565b600191505061025d565b60ff8411156106c8576106c86105f4565b50506001821b61025d565b5060208310610133831016604e8410600b84101617156106f6575081810a61025d565b6107025f19848461063a565b805f1904821115610715576107156105f4565b029392505050565b5f6105ed60ff84168361067d565b60805160a05160c05160e05161010051610120516101405161016051610180516101a0516101c0516101e05161020051610220516102405161156861082e5f395f8181610420015261045401525f8181610a580152610af601525f6103f601525f6102ee01525f61086c01525f61082501525f61094101525f6108d401525f8181610a0a01528181610ace0152610bc701525f81816109be01528181610aa401528181610c2901528181610c690152610d8a01525f81816106990152818161076301528181610b3d01528181610cca0152610fd901525f610e3801525f610df801525f610d3901525f818161018d0152818161049401526104d201526115685ff3fe608060405234801561000f575f5ffd5b50600436106100cf575f3560e01c80639a6fc8f51161007d578063c15ef47a11610058578063c15ef47a14610188578063dc60eac9146101d4578063feaf968c146101dd575f5ffd5b80639a6fc8f514610135578063b5ab58dc1461017a578063b633620c1461017a575f5ffd5b8063668a0f02116100ad578063668a0f02146101105780637284e416146101185780638205bf6a1461012d575f5ffd5b8063313ce567146100d357806350d25bcd146100f257806354fd4d5014610108575b5f5ffd5b6100db601281565b60405160ff90911681526020015b60405180910390f35b6100fa6101e5565b6040519081526020016100e9565b6100fa600181565b6100fa6101f8565b610120610218565b6040516100e9919061111f565b6100fa6102a3565b6101436100cf36600461118c565b6040805169ffffffffffffffffffff968716815260208101959095528401929092526060830152909116608082015260a0016100e9565b6100fa6100cf3660046111ae565b6101af7f000000000000000000000000000000000000000000000000000000000000000081565b60405173ffffffffffffffffffffffffffffffffffffffff90911681526020016100e9565b6100fa610e1081565b6101436102b5565b5f6101ee6102db565b5091949350505050565b5f6102016102db565b505069ffffffffffffffffffff9092169392505050565b5f8054610224906111c5565b80601f0160208091040260200160405190810160405280929190818152602001828054610250906111c5565b801561029b5780601f106102725761010080835404028352916020019161029b565b820191905f5260205f20905b81548152906001019060200180831161027e57829003601f168201915b505050505081565b5f6102ac6102db565b50949350505050565b5f5f5f5f5f6102c2610492565b6102ca6102db565b945094509450945094509091929394565b5f5f5f5f5f5f6102e9610646565b90505f7f000000000000000000000000000000000000000000000000000000000000000073ffffffffffffffffffffffffffffffffffffffff1663feaf968c6040518163ffffffff1660e01b815260040160a060405180830381865afa158015610355573d5f5f3e3d5ffd5b505050506040513d601f19601f820116820180604052508101906103799190611216565b939a50909750955090935090505f81136103f4576040517f08c379a000000000000000000000000000000000000000000000000000000000815260206004820152601460248201527f436861696e6c696e6b2052617465204572726f7200000000000000000000000060448201526064015b60405180910390fd5b7f00000000000000000000000000000000000000000000000000000000000000001561045257806104457f000000000000000000000000000000000000000000000000000000000000000080611297565b61044f919061130f565b90505b7f000000000000000000000000000000000000000000000000000000000000000061047d8284611297565b610487919061130f565b955050509091929394565b7f000000000000000000000000000000000000000000000000000000000000000073ffffffffffffffffffffffffffffffffffffffff1615610644575f5f7f000000000000000000000000000000000000000000000000000000000000000073ffffffffffffffffffffffffffffffffffffffff1663feaf968c6040518163ffffffff1660e01b815260040160a060405180830381865afa158015610539573d5f5f3e3d5ffd5b505050506040513d601f19601f8201168201806040525081019061055d9190611216565b50509250925050815f146105cd576040517f08c379a000000000000000000000000000000000000000000000000000000000815260206004820152600e60248201527f53657175656e63657220446f776e00000000000000000000000000000000000060448201526064016103eb565b6105d78142611376565b610e1010610641576040517f08c379a000000000000000000000000000000000000000000000000000000000815260206004820152601660248201527f53657175656e63657220477261636520506572696f640000000000000000000060448201526064016103eb565b50505b565b6040805160028082526060820183525f9283929190602083019080368337019050506040517f4903b0d10000000000000000000000000000000000000000000000000000000081525f60048201529091507f000000000000000000000000000000000000000000000000000000000000000073ffffffffffffffffffffffffffffffffffffffff1690634903b0d190602401602060405180830381865afa1580156106f3573d5f5f3e3d5ffd5b505050506040513d601f19601f820116820180604052508101906107179190611389565b815f81518110610729576107296113a0565b60209081029190910101526040517f4903b0d1000000000000000000000000000000000000000000000000000000008152600160048201527f000000000000000000000000000000000000000000000000000000000000000073ffffffffffffffffffffffffffffffffffffffff1690634903b0d190602401602060405180830381865afa1580156107bd573d5f5f3e3d5ffd5b505050506040513d601f19601f820116820180604052508101906107e19190611389565b816001815181106107f4576107f46113a0565b6020908102919091010152604080516002808252606082019092525f918160200160208202803683370190505090507f0000000000000000000000000000000000000000000000000000000000000000815f81518110610856576108566113a0565b602002602001019060ff16908160ff16815250507f00000000000000000000000000000000000000000000000000000000000000008160018151811061089e5761089e6113a0565b60ff929092166020928302919091018201526040805160028082526060820183525f9391929091830190803683370190505090507f0000000000000000000000000000000000000000000000000000000000000000815f81518110610905576109056113a0565b602002602001019073ffffffffffffffffffffffffffffffffffffffff16908173ffffffffffffffffffffffffffffffffffffffff16815250507f000000000000000000000000000000000000000000000000000000000000000081600181518110610973576109736113a0565b73ffffffffffffffffffffffffffffffffffffffff929092166020928302919091018201526040805160028082526060820183525f9391929091830190803683370190505090505f837f000000000000000000000000000000000000000000000000000000000000000060ff16815181106109f0576109f06113a0565b6020026020010151600a610a0491906114ee565b90505f847f000000000000000000000000000000000000000000000000000000000000000060ff1681518110610a3c57610a3c6113a0565b6020026020010151600a610a5091906114ee565b9050610a7c817f00000000000000000000000000000000000000000000000000000000000000006114fc565b6040517f5e0d443f0000000000000000000000000000000000000000000000000000000081527f00000000000000000000000000000000000000000000000000000000000000005f90810b60048301527f0000000000000000000000000000000000000000000000000000000000000000900b60248201527f00000000000000000000000000000000000000000000000000000000000000006044820152670de0b6b3a764000090849073ffffffffffffffffffffffffffffffffffffffff7f00000000000000000000000000000000000000000000000000000000000000001690635e0d443f90606401602060405180830381865afa158015610b82573d5f5f3e3d5ffd5b505050506040513d601f19601f82011682018060405250810190610ba69190611389565b610bb091906114fc565b610bba91906114fc565b610bc49190611513565b837f000000000000000000000000000000000000000000000000000000000000000060ff1681518110610bf957610bf96113a0565b602002602001018181525050610c19610c1485878987610c24565b610fa5565b965050505050505090565b5f5f857f000000000000000000000000000000000000000000000000000000000000000060ff1681518110610c5b57610c5b6113a0565b602002602001015190505f857f000000000000000000000000000000000000000000000000000000000000000060ff1681518110610c9b57610c9b6113a0565b6020026020010151600a610caf91906114ee565b90505f610cba610fd6565b90505f5f5b8951811015610f7a577f000000000000000000000000000000000000000000000000000000000000000073ffffffffffffffffffffffffffffffffffffffff168a8281518110610d1157610d116113a0565b602002602001015173ffffffffffffffffffffffffffffffffffffffff160315610f72575f837f00000000000000000000000000000000000000000000000000000000000000008a8481518110610d6a57610d6a6113a0565b6020026020010151610d7c91906114fc565b610d869190611513565b90507f000000000000000000000000000000000000000000000000000000000000000060ff168203610dc357610dbc8184611526565b9250610f70565b5f610de7878d8581518110610dda57610dda6113a0565b6020026020010151611069565b90505f670de0b6b3a7640000610e1d7f0000000000000000000000000000000000000000000000000000000000000000846114fc565b610e279190611513565b90505f670de0b6b3a7640000610e5d7f0000000000000000000000000000000000000000000000000000000000000000856114fc565b610e679190611513565b9050818b8681518110610e7c57610e7c6113a0565b60200260200101511080610ea857508a8581518110610e9d57610e9d6113a0565b602002602001015181105b15610f0557828b8681518110610ec057610ec06113a0565b60200260200101516040517faf608abb0000000000000000000000000000000000000000000000000000000081526004016103eb929190918252602082015260400190565b5f8d8681518110610f1857610f186113a0565b6020026020010151600a610f2c91906114ee565b9050610f3881856114fc565b89610f4b670de0b6b3a7640000886114fc565b610f5591906114fc565b610f5f9190611513565b610f699088611526565b9650505050505b505b600101610cbf565b5082610f8e670de0b6b3a7640000836114fc565b610f989190611513565b9998505050505050505050565b5f7f7fffffffffffffffffffffffffffffffffffffffffffffffffffffffffffffff821115610fd2575f5ffd5b5090565b5f7f000000000000000000000000000000000000000000000000000000000000000073ffffffffffffffffffffffffffffffffffffffff166318160ddd6040518163ffffffff1660e01b8152600401602060405180830381865afa158015611040573d5f5f3e3d5ffd5b505050506040513d601f19601f820116820180604052508101906110649190611389565b905090565b6040517f4c2d8eff00000000000000000000000000000000000000000000000000000000815273ffffffffffffffffffffffffffffffffffffffff8084166004830152821660248201525f90819073594734c7e06c3d483466adbce401c6bd269746c890634c2d8eff906044016040805180830381865afa1580156110f0573d5f5f3e3d5ffd5b505050506040513d601f19601f820116820180604052508101906111149190611539565b509150505b92915050565b602081525f82518060208401528060208501604085015e5f6040828501015260407fffffffffffffffffffffffffffffffffffffffffffffffffffffffffffffffe0601f83011684010191505092915050565b69ffffffffffffffffffff81168114611189575f5ffd5b50565b5f6020828403121561119c575f5ffd5b81356111a781611172565b9392505050565b5f602082840312156111be575f5ffd5b5035919050565b600181811c908216806111d957607f821691505b602082108103611210577f4e487b71000000000000000000000000000000000000000000000000000000005f52602260045260245ffd5b50919050565b5f5f5f5f5f60a0868803121561122a575f5ffd5b855161123581611172565b60208701516040880151606089015160808a01519398509196509450925061125c81611172565b809150509295509295909350565b7f4e487b71000000000000000000000000000000000000000000000000000000005f52601160045260245ffd5b8082025f82127f8000000000000000000000000000000000000000000000000000000000000000841416156112ce576112ce61126a565b81810583148215176111195761111961126a565b7f4e487b71000000000000000000000000000000000000000000000000000000005f52601260045260245ffd5b5f8261131d5761131d6112e2565b7fffffffffffffffffffffffffffffffffffffffffffffffffffffffffffffffff83147f8000000000000000000000000000000000000000000000000000000000000000831416156113715761137161126a565b500590565b818103818111156111195761111961126a565b5f60208284031215611399575f5ffd5b5051919050565b7f4e487b71000000000000000000000000000000000000000000000000000000005f52603260045260245ffd5b6001815b6001841115611408578085048111156113ec576113ec61126a565b60018416156113fa57908102905b60019390931c9280026113d1565b935093915050565b5f8261141e57506001611119565b8161142a57505f611119565b8160018114611440576002811461144a57611466565b6001915050611119565b60ff84111561145b5761145b61126a565b50506001821b611119565b5060208310610133831016604e8410600b8410161715611489575081810a611119565b6114b47fffffffffffffffffffffffffffffffffffffffffffffffffffffffffffffffff84846113cd565b807fffffffffffffffffffffffffffffffffffffffffffffffffffffffffffffffff048211156114e6576114e661126a565b029392505050565b5f6111a760ff841683611410565b80820281158282048414176111195761111961126a565b5f82611521576115216112e2565b500490565b808201808211156111195761111961126a565b5f5f6040838503121561154a575f5ffd5b50508051602090910151909290915056fea164736f6c634300081d000a","linkReferences":{}},"methodIdentifiers":{"SEQUENCER_UPTIME_GRACE_PERIOD()":"dc60eac9","decimals()":"313ce567","description()":"7284e416","getAnswer(uint256)":"b5ab58dc","getRoundData(uint80)":"9a6fc8f5","getTimestamp(uint256)":"b633620c","latestAnswer()":"50d25bcd","latestRound()":"668a0f02","latestRoundData()":"feaf968c","latestTimestamp()":"8205bf6a","sequencerUptimeOracle()":"c15ef47a","version()":"54fd4d50"},"id":75}