{"abi":[{"type":"constructor","inputs":[{"name":"pendleMarket_","type":"address","internalType":"address"},{"name":"baseToUSDOracle_","type":"address","internalType":"contract AggregatorV2V3Interface"},{"name":"invertBase_","type":"bool","internalType":"bool"},{"name":"useSyOracleRate_","type":"bool","internalType":"bool"},{"name":"twapDuration_","type":"uint32","internalType":"uint32"},{"name":"description_","type":"string","internalType":"string"},{"name":"sequencerUptimeOracle_","type":"address","internalType":"address"}],"stateMutability":"nonpayable"},{"type":"function","name":"SEQUENCER_UPTIME_GRACE_PERIOD","inputs":[],"outputs":[{"name":"","type":"uint256","internalType":"uint256"}],"stateMutability":"view"},{"type":"function","name":"baseToUSDDecimals","inputs":[],"outputs":[{"name":"","type":"int256","internalType":"int256"}],"stateMutability":"view"},{"type":"function","name":"baseToUSDOracle","inputs":[],"outputs":[{"name":"","type":"address","internalType":"contract AggregatorV2V3Interface"}],"stateMutability":"view"},{"type":"function","name":"decimals","inputs":[],"outputs":[{"name":"","type":"uint8","internalType":"uint8"}],"stateMutability":"view"},{"type":"function","name":"description","inputs":[],"outputs":[{"name":"","type":"string","internalType":"string"}],"stateMutability":"view"},{"type":"function","name":"getAnswer","inputs":[{"name":"","type":"uint256","internalType":"uint256"}],"outputs":[{"name":"","type":"int256","internalType":"int256"}],"stateMutability":"pure"},{"type":"function","name":"getRoundData","inputs":[{"name":"","type":"uint80","internalType":"uint80"}],"outputs":[{"name":"","type":"uint80","internalType":"uint80"},{"name":"","type":"int256","internalType":"int256"},{"name":"","type":"uint256","internalType":"uint256"},{"name":"","type":"uint256","internalType":"uint256"},{"name":"","type":"uint80","internalType":"uint80"}],"stateMutability":"pure"},{"type":"function","name":"getTimestamp","inputs":[{"name":"","type":"uint256","internalType":"uint256"}],"outputs":[{"name":"","type":"uint256","internalType":"uint256"}],"stateMutability":"pure"},{"type":"function","name":"invertBase","inputs":[],"outputs":[{"name":"","type":"bool","internalType":"bool"}],"stateMutability":"view"},{"type":"function","name":"latestAnswer","inputs":[],"outputs":[{"name":"answer","type":"int256","internalType":"int256"}],"stateMutability":"view"},{"type":"function","name":"latestRound","inputs":[],"outputs":[{"name":"roundId","type":"uint256","internalType":"uint256"}],"stateMutability":"view"},{"type":"function","name":"latestRoundData","inputs":[],"outputs":[{"name":"roundId","type":"uint80","internalType":"uint80"},{"name":"answer","type":"int256","internalType":"int256"},{"name":"startedAt","type":"uint256","internalType":"uint256"},{"name":"updatedAt","type":"uint256","internalType":"uint256"},{"name":"answeredInRound","type":"uint80","internalType":"uint80"}],"stateMutability":"view"},{"type":"function","name":"latestTimestamp","inputs":[],"outputs":[{"name":"updatedAt","type":"uint256","internalType":"uint256"}],"stateMutability":"view"},{"type":"function","name":"pendleMarket","inputs":[],"outputs":[{"name":"","type":"address","internalType":"address"}],"stateMutability":"view"},{"type":"function","name":"ptDecimals","inputs":[],"outputs":[{"name":"","type":"int256","internalType":"int256"}],"stateMutability":"view"},{"type":"function","name":"sequencerUptimeOracle","inputs":[],"outputs":[{"name":"","type":"address","internalType":"contract AggregatorV2V3Interface"}],"stateMutability":"view"},{"type":"function","name":"twapDuration","inputs":[],"outputs":[{"name":"","type":"uint32","internalType":"uint32"}],"stateMutability":"view"},{"type":"function","name":"useSyOracleRate","inputs":[],"outputs":[{"name":"","type":"bool","internalType":"bool"}],"stateMutability":"view"},{"type":"function","name":"version","inputs":[],"outputs":[{"name":"","type":"uint256","internalType":"uint256"}],"stateMutability":"view"}],"bytecode":{"object":"0x610180604052348015610010575f5ffd5b5060405161149f38038061149f83398101604081905261002f91610310565b81815f61003c83826104b5565b506001600160a01b0390811660805288811660a05263ffffffff851660c05285151560e0528716610100819052861515610160526040805163313ce56760e01b815290515f935063313ce567916004808201926020929091908290030181865afa1580156100ac573d5f5f3e3d5ffd5b505050506040513d601f19601f820116820180604052508101906100d0919061056f565b90505f886001600160a01b0316632c8ce6bc6040518163ffffffff1660e01b8152600401606060405180830381865afa15801561010f573d5f5f3e3d5ffd5b505050506040513d601f19601f820116820180604052508101906101339190610596565b509150505f816001600160a01b031663313ce5676040518163ffffffff1660e01b8152600401602060405180830381865afa158015610174573d5f5f3e3d5ffd5b505050506040513d601f19601f82011682018060405250810190610198919061056f565b905060128360ff1611156101aa575f5ffd5b60128160ff1611156101ba575f5ffd5b6101c583600a6106d9565b610120526101d481600a6106d9565b6101405260a05160c05160405162439f4b60e91b81526001600160a01b03909216600483015263ffffffff1660248201525f9081907366a1096c6366b2529274df4f5d8247827fe4cea89063873e960090604401606060405180830381865afa158015610243573d5f5f3e3d5ffd5b505050506040513d601f19601f8201168201806040525081019061026791906106e7565b9250509150811580156102775750805b6102b55760405162461bcd60e51b815260206004820152600b60248201526a13dc9858db1948125b9a5d60aa1b604482015260640160405180910390fd5b50505050505050505050505061072f565b6001600160a01b03811681146102da575f5ffd5b50565b80516102e8816102c6565b919050565b805180151581146102e8575f5ffd5b634e487b7160e01b5f52604160045260245ffd5b5f5f5f5f5f5f5f60e0888a031215610326575f5ffd5b8751610331816102c6565b6020890151909750610342816102c6565b9550610350604089016102ed565b945061035e606089016102ed565b9350608088015163ffffffff81168114610376575f5ffd5b60a08901519093506001600160401b03811115610391575f5ffd5b8801601f81018a136103a1575f5ffd5b80516001600160401b038111156103ba576103ba6102fc565b604051601f8201601f19908116603f011681016001600160401b03811182821017156103e8576103e86102fc565b6040528181528282016020018c10156103ff575f5ffd5b8160208401602083015e5f6020838301015280945050505061042360c089016102dd565b905092959891949750929550565b600181811c9082168061044557607f821691505b60208210810361046357634e487b7160e01b5f52602260045260245ffd5b50919050565b601f8211156104b057805f5260205f20601f840160051c8101602085101561048e5750805b601f840160051c820191505b818110156104ad575f815560010161049a565b50505b505050565b81516001600160401b038111156104ce576104ce6102fc565b6104e2816104dc8454610431565b84610469565b6020601f821160018114610514575f83156104fd5750848201515b5f19600385901b1c1916600184901b1784556104ad565b5f84815260208120601f198516915b828110156105435787850151825560209485019460019092019101610523565b508482101561056057868401515f19600387901b60f8161c191681555b50505050600190811b01905550565b5f6020828403121561057f575f5ffd5b815160ff8116811461058f575f5ffd5b9392505050565b5f5f5f606084860312156105a8575f5ffd5b83516105b3816102c6565b60208501519093506105c4816102c6565b60408501519092506105d5816102c6565b809150509250925092565b634e487b7160e01b5f52601160045260245ffd5b6001815b600184111561062f57808504811115610613576106136105e0565b600184161561062157908102905b60019390931c9280026105f8565b935093915050565b5f82610645575060016106d3565b8161065157505f6106d3565b816001811461066757600281146106715761068d565b60019150506106d3565b60ff841115610682576106826105e0565b50506001821b6106d3565b5060208310610133831016604e8410600b84101617156106b0575081810a6106d3565b6106bc5f1984846105f4565b805f19048211156106cf576106cf6105e0565b0290505b92915050565b5f61058f60ff841683610637565b5f5f5f606084860312156106f9575f5ffd5b610702846102ed565b9250602084015161ffff81168114610718575f5ffd5b9150610726604085016102ed565b90509250925092565b60805160a05160c05160e05161010051610120516101405161016051610cc86107d75f395f818161022e015261059b01525f61015201525f818161033b015281816105c5015261060401525f818161018c015261049301525f818161036b01526107fa01525f81816101d801528181610886015261097701525f818161029a0152818161085a015261094b01525f81816103140152818161064401526106820152610cc85ff3fe608060405234801561000f575f5ffd5b5060043610610149575f3560e01c80638205bf6a116100c7578063c15ef47a1161007d578063dc60eac911610063578063dc60eac91461035d578063fa0d12f614610366578063feaf968c1461038d575f5ffd5b8063c15ef47a1461030f578063d836d4ae14610336575f5ffd5b80639a6fc8f5116100ad5780639a6fc8f5146102bc578063b5ab58dc14610301578063b633620c14610301575f5ffd5b80638205bf6a1461028d57806399d9a71f14610295575f5ffd5b80633e374e161161011c57806354fd4d501161010257806354fd4d5014610268578063668a0f02146102705780637284e41614610278575f5ffd5b80633e374e161461022957806350d25bcd14610260575f5ffd5b806301a7c58c1461014d5780631aafcce31461018757806326d89545146101d3578063313ce5671461020f575b5f5ffd5b6101747f000000000000000000000000000000000000000000000000000000000000000081565b6040519081526020015b60405180910390f35b6101ae7f000000000000000000000000000000000000000000000000000000000000000081565b60405173ffffffffffffffffffffffffffffffffffffffff909116815260200161017e565b6101fa7f000000000000000000000000000000000000000000000000000000000000000081565b60405163ffffffff909116815260200161017e565b610217601281565b60405160ff909116815260200161017e565b6102507f000000000000000000000000000000000000000000000000000000000000000081565b604051901515815260200161017e565b610174610395565b610174600181565b6101746103a8565b6102806103c8565b60405161017e9190610a3c565b610174610453565b6101ae7f000000000000000000000000000000000000000000000000000000000000000081565b6102ca610149366004610aa9565b6040805169ffffffffffffffffffff968716815260208101959095528401929092526060830152909116608082015260a00161017e565b610174610149366004610acb565b6101ae7f000000000000000000000000000000000000000000000000000000000000000081565b6101747f000000000000000000000000000000000000000000000000000000000000000081565b610174610e1081565b6102507f000000000000000000000000000000000000000000000000000000000000000081565b6102ca610465565b5f61039e61048b565b5091949350505050565b5f6103b161048b565b505069ffffffffffffffffffff9092169392505050565b5f80546103d490610ae2565b80601f016020809104026020016040519081016040528092919081815260200182805461040090610ae2565b801561044b5780601f106104225761010080835404028352916020019161044b565b820191905f5260205f20905b81548152906001019060200180831161042e57829003601f168201915b505050505081565b5f61045c61048b565b50949350505050565b5f5f5f5f5f610472610642565b61047a61048b565b945094509450945094509091929394565b5f5f5f5f5f5f7f000000000000000000000000000000000000000000000000000000000000000073ffffffffffffffffffffffffffffffffffffffff1663feaf968c6040518163ffffffff1660e01b815260040160a060405180830381865afa1580156104fa573d5f5f3e3d5ffd5b505050506040513d601f19601f8201168201806040525081019061051e9190610b33565b939950909650945090925090505f8113610599576040517f08c379a000000000000000000000000000000000000000000000000000000000815260206004820152601460248201527f436861696e6c696e6b2052617465204572726f7200000000000000000000000060448201526064015b60405180910390fd5b7f0000000000000000000000000000000000000000000000000000000000000000156105f757806105ea7f000000000000000000000000000000000000000000000000000000000000000080610bb4565b6105f49190610c05565b90505b5f6106006107f6565b90507f000000000000000000000000000000000000000000000000000000000000000061062d8383610bb4565b6106379190610c05565b955050509091929394565b7f000000000000000000000000000000000000000000000000000000000000000073ffffffffffffffffffffffffffffffffffffffff16156107f4575f5f7f000000000000000000000000000000000000000000000000000000000000000073ffffffffffffffffffffffffffffffffffffffff1663feaf968c6040518163ffffffff1660e01b815260040160a060405180830381865afa1580156106e9573d5f5f3e3d5ffd5b505050506040513d601f19601f8201168201806040525081019061070d9190610b33565b50509250925050815f1461077d576040517f08c379a000000000000000000000000000000000000000000000000000000000815260206004820152600e60248201527f53657175656e63657220446f776e0000000000000000000000000000000000006044820152606401610590565b6107878142610c91565b610e10106107f1576040517f08c379a000000000000000000000000000000000000000000000000000000000815260206004820152601660248201527f53657175656e63657220477261636520506572696f64000000000000000000006044820152606401610590565b50505b565b5f5f7f000000000000000000000000000000000000000000000000000000000000000061090e576040517fabca0eab00000000000000000000000000000000000000000000000000000000815273ffffffffffffffffffffffffffffffffffffffff7f000000000000000000000000000000000000000000000000000000000000000016600482015263ffffffff7f00000000000000000000000000000000000000000000000000000000000000001660248201527366a1096c6366b2529274df4f5d8247827fe4cea89063abca0eab90604401602060405180830381865afa1580156108e5573d5f5f3e3d5ffd5b505050506040513d601f19601f820116820180604052508101906109099190610ca4565b6109fa565b6040517fa31426d100000000000000000000000000000000000000000000000000000000815273ffffffffffffffffffffffffffffffffffffffff7f000000000000000000000000000000000000000000000000000000000000000016600482015263ffffffff7f00000000000000000000000000000000000000000000000000000000000000001660248201527366a1096c6366b2529274df4f5d8247827fe4cea89063a31426d190604401602060405180830381865afa1580156109d6573d5f5f3e3d5ffd5b505050506040513d601f19601f820116820180604052508101906109fa9190610ca4565b9050610a0581610a0b565b91505090565b5f7f7fffffffffffffffffffffffffffffffffffffffffffffffffffffffffffffff821115610a38575f5ffd5b5090565b602081525f82518060208401528060208501604085015e5f6040828501015260407fffffffffffffffffffffffffffffffffffffffffffffffffffffffffffffffe0601f83011684010191505092915050565b69ffffffffffffffffffff81168114610aa6575f5ffd5b50565b5f60208284031215610ab9575f5ffd5b8135610ac481610a8f565b9392505050565b5f60208284031215610adb575f5ffd5b5035919050565b600181811c90821680610af657607f821691505b602082108103610b2d577f4e487b71000000000000000000000000000000000000000000000000000000005f52602260045260245ffd5b50919050565b5f5f5f5f5f60a08688031215610b47575f5ffd5b8551610b5281610a8f565b60208701516040880151606089015160808a015193985091965094509250610b7981610a8f565b809150509295509295909350565b7f4e487b71000000000000000000000000000000000000000000000000000000005f52601160045260245ffd5b8082025f82127f800000000000000000000000000000000000000000000000000000000000000084141615610beb57610beb610b87565b8181058314821517610bff57610bff610b87565b92915050565b5f82610c38577f4e487b71000000000000000000000000000000000000000000000000000000005f52601260045260245ffd5b7fffffffffffffffffffffffffffffffffffffffffffffffffffffffffffffffff83147f800000000000000000000000000000000000000000000000000000000000000083141615610c8c57610c8c610b87565b500590565b81810381811115610bff57610bff610b87565b5f60208284031215610cb4575f5ffd5b505191905056fea164736f6c634300081d000a","linkReferences":{}},"methodIdentifiers":{"SEQUENCER_UPTIME_GRACE_PERIOD()":"dc60eac9","baseToUSDDecimals()":"d836d4ae","baseToUSDOracle()":"1aafcce3","decimals()":"313ce567","description()":"7284e416","getAnswer(uint256)":"b5ab58dc","getRoundData(uint80)":"9a6fc8f5","getTimestamp(uint256)":"b633620c","invertBase()":"3e374e16","latestAnswer()":"50d25bcd","latestRound()":"668a0f02","latestRoundData()":"feaf968c","latestTimestamp()":"8205bf6a","pendleMarket()":"99d9a71f","ptDecimals()":"01a7c58c","sequencerUptimeOracle()":"c15ef47a","twapDuration()":"26d89545","useSyOracleRate()":"fa0d12f6","version()":"54fd4d50"},"id":76}