{"abi":[{"type":"constructor","inputs":[{"name":"market","type":"address","internalType":"address"},{"name":"tokenInSY","type":"address","internalType":"address"},{"name":"tokenOutSY","type":"address","internalType":"address"},{"name":"asset","type":"address","internalType":"address"},{"name":"yieldToken","type":"address","internalType":"address"},{"name":"feeRate","type":"uint256","internalType":"uint256"},{"name":"withdrawRequestManager","type":"address","internalType":"contract IWithdrawRequestManager"}],"stateMutability":"nonpayable"},{"type":"function","name":"MARKET","inputs":[],"outputs":[{"name":"","type":"address","internalType":"contract IPMarket"}],"stateMutability":"view"},{"type":"function","name":"TOKEN_IN_SY","inputs":[],"outputs":[{"name":"","type":"address","internalType":"address"}],"stateMutability":"view"},{"type":"function","name":"TOKEN_OUT_SY","inputs":[],"outputs":[{"name":"","type":"address","internalType":"address"}],"stateMutability":"view"},{"type":"function","name":"allowTransfer","inputs":[{"name":"to","type":"address","internalType":"address"},{"name":"amount","type":"uint256","internalType":"uint256"},{"name":"currentAccount","type":"address","internalType":"address"}],"outputs":[],"stateMutability":"nonpayable"},{"type":"function","name":"allowance","inputs":[{"name":"owner","type":"address","internalType":"address"},{"name":"spender","type":"address","internalType":"address"}],"outputs":[{"name":"","type":"uint256","internalType":"uint256"}],"stateMutability":"view"},{"type":"function","name":"approve","inputs":[{"name":"spender","type":"address","internalType":"address"},{"name":"value","type":"uint256","internalType":"uint256"}],"outputs":[{"name":"","type":"bool","internalType":"bool"}],"stateMutability":"nonpayable"},{"type":"function","name":"asset","inputs":[],"outputs":[{"name":"","type":"address","internalType":"address"}],"stateMutability":"view"},{"type":"function","name":"balanceOf","inputs":[{"name":"account","type":"address","internalType":"address"}],"outputs":[{"name":"","type":"uint256","internalType":"uint256"}],"stateMutability":"view"},{"type":"function","name":"burnShares","inputs":[{"name":"sharesOwner","type":"address","internalType":"address"},{"name":"sharesToBurn","type":"uint256","internalType":"uint256"},{"name":"sharesHeld","type":"uint256","internalType":"uint256"},{"name":"redeemData","type":"bytes","internalType":"bytes"}],"outputs":[{"name":"assetsWithdrawn","type":"uint256","internalType":"uint256"}],"stateMutability":"nonpayable"},{"type":"function","name":"clearCurrentAccount","inputs":[],"outputs":[],"stateMutability":"nonpayable"},{"type":"function","name":"collectFees","inputs":[],"outputs":[],"stateMutability":"nonpayable"},{"type":"function","name":"convertSharesToYieldToken","inputs":[{"name":"shares","type":"uint256","internalType":"uint256"}],"outputs":[{"name":"","type":"uint256","internalType":"uint256"}],"stateMutability":"view"},{"type":"function","name":"convertToAssets","inputs":[{"name":"shares","type":"uint256","internalType":"uint256"}],"outputs":[{"name":"","type":"uint256","internalType":"uint256"}],"stateMutability":"view"},{"type":"function","name":"convertToShares","inputs":[{"name":"assets","type":"uint256","internalType":"uint256"}],"outputs":[{"name":"","type":"uint256","internalType":"uint256"}],"stateMutability":"view"},{"type":"function","name":"convertYieldTokenToAsset","inputs":[],"outputs":[{"name":"","type":"uint256","internalType":"uint256"}],"stateMutability":"view"},{"type":"function","name":"convertYieldTokenToShares","inputs":[{"name":"yieldTokens","type":"uint256","internalType":"uint256"}],"outputs":[{"name":"","type":"uint256","internalType":"uint256"}],"stateMutability":"view"},{"type":"function","name":"decimals","inputs":[],"outputs":[{"name":"","type":"uint8","internalType":"uint8"}],"stateMutability":"view"},{"type":"function","name":"effectiveSupply","inputs":[],"outputs":[{"name":"","type":"uint256","internalType":"uint256"}],"stateMutability":"view"},{"type":"function","name":"feeRate","inputs":[],"outputs":[{"name":"","type":"uint256","internalType":"uint256"}],"stateMutability":"view"},{"type":"function","name":"feesAccrued","inputs":[],"outputs":[{"name":"feesAccruedInYieldToken","type":"uint256","internalType":"uint256"}],"stateMutability":"view"},{"type":"function","name":"initialize","inputs":[{"name":"data","type":"bytes","internalType":"bytes"}],"outputs":[],"stateMutability":"nonpayable"},{"type":"function","name":"initiateWithdraw","inputs":[{"name":"account","type":"address","internalType":"address"},{"name":"sharesHeld","type":"uint256","internalType":"uint256"},{"name":"data","type":"bytes","internalType":"bytes"}],"outputs":[{"name":"requestId","type":"uint256","internalType":"uint256"}],"stateMutability":"nonpayable"},{"type":"function","name":"initiateWithdrawNative","inputs":[{"name":"data","type":"bytes","internalType":"bytes"}],"outputs":[{"name":"requestId","type":"uint256","internalType":"uint256"}],"stateMutability":"nonpayable"},{"type":"function","name":"mintShares","inputs":[{"name":"assetAmount","type":"uint256","internalType":"uint256"},{"name":"receiver","type":"address","internalType":"address"},{"name":"depositData","type":"bytes","internalType":"bytes"}],"outputs":[{"name":"sharesMinted","type":"uint256","internalType":"uint256"}],"stateMutability":"nonpayable"},{"type":"function","name":"name","inputs":[],"outputs":[{"name":"","type":"string","internalType":"string"}],"stateMutability":"view"},{"type":"function","name":"postLiquidation","inputs":[{"name":"liquidator","type":"address","internalType":"address"},{"name":"liquidateAccount","type":"address","internalType":"address"},{"name":"sharesToLiquidator","type":"uint256","internalType":"uint256"}],"outputs":[],"stateMutability":"nonpayable"},{"type":"function","name":"preLiquidation","inputs":[{"name":"liquidator","type":"address","internalType":"address"},{"name":"liquidateAccount","type":"address","internalType":"address"},{"name":"sharesToLiquidate","type":"uint256","internalType":"uint256"},{"name":"accountSharesHeld","type":"uint256","internalType":"uint256"}],"outputs":[],"stateMutability":"nonpayable"},{"type":"function","name":"price","inputs":[],"outputs":[{"name":"","type":"uint256","internalType":"uint256"}],"stateMutability":"view"},{"type":"function","name":"price","inputs":[{"name":"borrower","type":"address","internalType":"address"}],"outputs":[{"name":"","type":"uint256","internalType":"uint256"}],"stateMutability":"nonpayable"},{"type":"function","name":"redeemNative","inputs":[{"name":"sharesToRedeem","type":"uint256","internalType":"uint256"},{"name":"redeemData","type":"bytes","internalType":"bytes"}],"outputs":[{"name":"assetsWithdrawn","type":"uint256","internalType":"uint256"}],"stateMutability":"nonpayable"},{"type":"function","name":"symbol","inputs":[],"outputs":[{"name":"","type":"string","internalType":"string"}],"stateMutability":"view"},{"type":"function","name":"totalAssets","inputs":[],"outputs":[{"name":"","type":"uint256","internalType":"uint256"}],"stateMutability":"view"},{"type":"function","name":"totalSupply","inputs":[],"outputs":[{"name":"","type":"uint256","internalType":"uint256"}],"stateMutability":"view"},{"type":"function","name":"transfer","inputs":[{"name":"to","type":"address","internalType":"address"},{"name":"value","type":"uint256","internalType":"uint256"}],"outputs":[{"name":"","type":"bool","internalType":"bool"}],"stateMutability":"nonpayable"},{"type":"function","name":"transferFrom","inputs":[{"name":"from","type":"address","internalType":"address"},{"name":"to","type":"address","internalType":"address"},{"name":"value","type":"uint256","internalType":"uint256"}],"outputs":[{"name":"","type":"bool","internalType":"bool"}],"stateMutability":"nonpayable"},{"type":"function","name":"yieldToken","inputs":[],"outputs":[{"name":"","type":"address","internalType":"address"}],"stateMutability":"view"},{"type":"event","name":"Approval","inputs":[{"name":"owner","type":"address","indexed":true,"internalType":"address"},{"name":"spender","type":"address","indexed":true,"internalType":"address"},{"name":"value","type":"uint256","indexed":false,"internalType":"uint256"}],"anonymous":false},{"type":"event","name":"Transfer","inputs":[{"name":"from","type":"address","indexed":true,"internalType":"address"},{"name":"to","type":"address","indexed":true,"internalType":"address"},{"name":"value","type":"uint256","indexed":false,"internalType":"uint256"}],"anonymous":false},{"type":"event","name":"VaultCreated","inputs":[{"name":"vault","type":"address","indexed":true,"internalType":"address"}],"anonymous":false},{"type":"error","name":"CannotEnterPosition","inputs":[]},{"type":"error","name":"CurrentAccountAlreadySet","inputs":[]},{"type":"error","name":"ERC20InsufficientAllowance","inputs":[{"name":"spender","type":"address","internalType":"address"},{"name":"allowance","type":"uint256","internalType":"uint256"},{"name":"needed","type":"uint256","internalType":"uint256"}]},{"type":"error","name":"ERC20InsufficientBalance","inputs":[{"name":"sender","type":"address","internalType":"address"},{"name":"balance","type":"uint256","internalType":"uint256"},{"name":"needed","type":"uint256","internalType":"uint256"}]},{"type":"error","name":"ERC20InvalidApprover","inputs":[{"name":"approver","type":"address","internalType":"address"}]},{"type":"error","name":"ERC20InvalidReceiver","inputs":[{"name":"receiver","type":"address","internalType":"address"}]},{"type":"error","name":"ERC20InvalidSender","inputs":[{"name":"sender","type":"address","internalType":"address"}]},{"type":"error","name":"ERC20InvalidSpender","inputs":[{"name":"spender","type":"address","internalType":"address"}]},{"type":"error","name":"InsufficientSharesHeld","inputs":[]},{"type":"error","name":"InvalidInitialization","inputs":[]},{"type":"error","name":"ReentrancyGuardReentrantCall","inputs":[]},{"type":"error","name":"SafeERC20FailedOperation","inputs":[{"name":"token","type":"address","internalType":"address"}]},{"type":"error","name":"SlippageTooHigh","inputs":[{"name":"actualTokensOut","type":"uint256","internalType":"uint256"},{"name":"minTokensOut","type":"uint256","internalType":"uint256"}]},{"type":"error","name":"Unauthorized","inputs":[{"name":"caller","type":"address","internalType":"address"}]},{"type":"error","name":"UnauthorizedLendingMarketTransfer","inputs":[{"name":"from","type":"address","internalType":"address"},{"name":"to","type":"address","internalType":"address"},{"name":"value","type":"uint256","internalType":"uint256"}]},{"type":"error","name":"WithdrawRequestNotFinalized","inputs":[{"name":"requestId","type":"uint256","internalType":"uint256"}]}],"bytecode":{"object":"0x610220604052348015610010575f5ffd5b50604051614f5f380380614f5f83398101604081905261002f91610411565b83838383838383856001600160a01b031663313ce5676040518163ffffffff1660e01b8152600401602060405180830381865afa158015610072573d5f5f3e3d5ffd5b505050506040513d601f19601f82011682018060405250810190610096919061049e565b60408051602080820183525f8083528351918201909352828152825460ff19166001179092559060046100c9838261055d565b5060056100d6828261055d565b50505060c08290526001600160a01b03808516608052831660a05260ff81166101005261010284610344565b60ff1661012052505050506001600160a01b03811660e0819052610126575f610188565b60e0516001600160a01b0316633ed3a0546040518163ffffffff1660e01b8152600401602060405180830381865afa158015610164573d5f5f3e3d5ffd5b505050506040513d601f19601f820116820180604052508101906101889190610617565b6001600160a01b03908116610140528b1661016081905260408051630b2339af60e21b815290515f9650869550859450919250632c8ce6bc9160048083019260609291908290030181865afa1580156101e3573d5f5f3e3d5ffd5b505050506040513d601f19601f820116820180604052508101906102079190610632565b6001600160a01b038084166101c0528083166101e0819052818316610200529396509194509250871614610239575f5ffd5b6101c051604051637d2d278360e11b81526001600160a01b038b811660048301529091169063fa5a4f0690602401602060405180830381865afa158015610282573d5f5f3e3d5ffd5b505050506040513d601f19601f820116820180604052508101906102a6919061067c565b6102ae575f5ffd5b6101c051604051633c21b3eb60e11b81526001600160a01b038a811660048301529091169063784367d690602401602060405180830381865afa1580156102f7573d5f5f3e3d5ffd5b505050506040513d601f19601f8201168201806040525081019061031b919061067c565b610323575f5ffd5b5050506001600160a01b039586166101a0525050505016610180525061069b565b5f6001600160a01b038216158061037757506001600160a01b03821673eeeeeeeeeeeeeeeeeeeeeeeeeeeeeeeeeeeeeeee145b6103e057816001600160a01b031663313ce5676040518163ffffffff1660e01b8152600401602060405180830381865afa1580156103b7573d5f5f3e3d5ffd5b505050506040513d601f19601f820116820180604052508101906103db919061049e565b6103e3565b60125b905060128160ff1611156103f5575f5ffd5b919050565b6001600160a01b038116811461040e575f5ffd5b50565b5f5f5f5f5f5f5f60e0888a031215610427575f5ffd5b8751610432816103fa565b6020890151909750610443816103fa565b6040890151909650610454816103fa565b6060890151909550610465816103fa565b6080890151909450610476816103fa565b60a089015160c08a0151919450925061048e816103fa565b8091505092959891949750929550565b5f602082840312156104ae575f5ffd5b815160ff811681146104be575f5ffd5b9392505050565b634e487b7160e01b5f52604160045260245ffd5b600181811c908216806104ed57607f821691505b60208210810361050b57634e487b7160e01b5f52602260045260245ffd5b50919050565b601f82111561055857805f5260205f20601f840160051c810160208510156105365750805b601f840160051c820191505b81811015610555575f8155600101610542565b50505b505050565b81516001600160401b03811115610576576105766104c5565b61058a8161058484546104d9565b84610511565b6020601f8211600181146105bc575f83156105a55750848201515b5f19600385901b1c1916600184901b178455610555565b5f84815260208120601f198516915b828110156105eb57878501518255602094850194600190920191016105cb565b508482101561060857868401515f19600387901b60f8161c191681555b50505050600190811b01905550565b5f60208284031215610627575f5ffd5b81516104be816103fa565b5f5f5f60608486031215610644575f5ffd5b835161064f816103fa565b6020850151909350610660816103fa565b6040850151909250610671816103fa565b809150509250925092565b5f6020828403121561068c575f5ffd5b815180151581146104be575f5ffd5b60805160a05160c05160e05161010051610120516101405161016051610180516101a0516101c0516101e0516102005161471161084e5f395f6135af01525f81816128ad01528181612cc6015281816134d40152818161358701526136d801525f6135d701525f81816103c2015281816129d601528181612a460152612af101525f818161038801528181612e4b0152818161326a015281816132ae015281816135ff015261371c01525f818161056701528181612b1301526136fa01525f818161268e015261272101525f81816114a10152611a6101525f81816114e20152611a2c01525f81816106ca0152818161193e015281816119ad01528181612183015281816121f7015281816124e3015281816125e001528181612e190152612ee801525f8181610450015261206801525f8181610411015281816117e901528181611f4501526122d001525f8181610334015281816106980152818161093801528181610b56015281816118110152818161190b01528181611b6801528181611bc5015281816126b801528181612750015281816129ac01528181612a1a0152818161324001526132da01526147115ff3fe608060405234801561000f575f5ffd5b506004361061024f575f3560e01c80638fc470931161013d578063b35cb45d116100b8578063cc351ac511610088578063e0b4327d1161006e578063e0b4327d14610547578063eb9b19121461054f578063f46f16c214610562575f5ffd5b8063cc351ac5146104fc578063dd62ed3e1461050f575f5ffd5b8063b35cb45d146104c6578063b905a4ff146104ce578063c6e6f592146104e1578063c8796572146104f4575f5ffd5b806398476c2b1161010d578063a035b1fe116100f3578063a035b1fe14610498578063a9059cbb146104a0578063aea91078146104b3575f5ffd5b806398476c2b1461047257806398dce16d14610485575f5ffd5b80638fc470931461043357806394db05951461043b57806395d89b4114610443578063978bbdb91461044b575f5ffd5b806325565931116101cd5780635080cb0e1161019d5780635e074031116101835780635e074031146103bd57806370a08231146103e457806376d5de851461040c575f5ffd5b80635080cb0e1461038357806357831a04146103aa575f5ffd5b8063255659311461030d578063313ce5671461032057806338d52e0f1461032f578063439fab911461036e575f5ffd5b80630db734d411610222578063131b822d11610208578063131b822d146102df57806318160ddd146102f257806323b872dd146102fa575f5ffd5b80630db734d4146102b9578063127af7f9146102cc575f5ffd5b806301e1d1141461025357806306fdde031461026e57806307a2d13a14610283578063095ea7b314610296575b5f5ffd5b61025b610589565b6040519081526020015b60405180910390f35b61027661059b565b6040516102659190613966565b61025b610291366004613978565b61062b565b6102a96102a43660046139a6565b610755565b6040519015158152602001610265565b61025b6102c7366004613a0e565b61076c565b61025b6102da366004613a73565b610993565b61025b6102ed366004613c2c565b610c3c565b60035461025b565b6102a9610308366004613c5e565b610c57565b61025b61031b366004613978565b610c7c565b60405160128152602001610265565b6103567f000000000000000000000000000000000000000000000000000000000000000081565b6040516001600160a01b039091168152602001610265565b61038161037c366004613c9c565b610cbf565b005b6103567f000000000000000000000000000000000000000000000000000000000000000081565b61025b6103b8366004613cdb565b610d33565b6103567f000000000000000000000000000000000000000000000000000000000000000081565b61025b6103f2366004613d1b565b6001600160a01b03165f9081526001602052604090205490565b6103567f000000000000000000000000000000000000000000000000000000000000000081565b61025b610f09565b61025b610f2e565b610276610f44565b61025b7f000000000000000000000000000000000000000000000000000000000000000081565b610381610480366004613d36565b610f53565b610381610493366004613c5e565b611112565b61025b611289565b6102a96104ae3660046139a6565b6112b1565b61025b6104c1366004613d1b565b6112be565b610381611349565b61025b6104dc366004613978565b61146b565b61025b6104ef366004613978565b61149a565b610381611531565b61038161050a366004613d75565b6115be565b61025b61051d366004613db8565b6001600160a01b039182165f90815260026020908152604080832093909416825291909152205490565b61025b6117b9565b61025b61055d366004613def565b61189e565b6103567f000000000000000000000000000000000000000000000000000000000000000081565b5f61059661029160035490565b905090565b6060600680546105aa90613e33565b80601f01602080910402602001604051908101604052809291908181526020018280546105d690613e33565b80156106215780601f106105f857610100808354040283529160200191610621565b820191905f5260205f20905b81548152906001019060200180831161060457829003601f168201915b5050505050905090565b5f805c6001600160a01b03161580159061065357506106536001600160a01b035f5c1661193b565b15610746576040517f32df6ff20000000000000000000000000000000000000000000000000000000081523060048201526001600160a01b035f805c821660248401527f000000000000000000000000000000000000000000000000000000000000000082166044840152606483018590529182917f000000000000000000000000000000000000000000000000000000000000000016906332df6ff2906084016040805180830381865afa15801561070e573d5f5f3e3d5ffd5b505050506040513d601f19601f820116820180604052508101906107329190613e98565b915091508115610743579392505050565b50505b61074f82611a16565b92915050565b5f33610762818585611aad565b5060019392505050565b6040517f46f74dce0000000000000000000000000000000000000000000000000000000081523360048201525f90735615deb798bb3e4dfa0139dfa1b3d433cc23b72f906346f74dce90602401602060405180830381865afa1580156107d4573d5f5f3e3d5ffd5b505050506040513d601f19601f820116820180604052508101906107f89190613ec2565b15155f03610839576040517f8e4a23d60000000000000000000000000000000000000000000000000000000081523360048201526024015b60405180910390fd5b336001805c73ffffffffffffffffffffffffffffffffffffffff19168217905d50855f5c6001600160a01b031661089857805f805c73ffffffffffffffffffffffffffffffffffffffff19166001600160a01b03831617905d506108df565b5f5c6001600160a01b03908116908216146108df576040517f391fea3c00000000000000000000000000000000000000000000000000000000815260040160405180910390fd5b6108e7611abf565b610929868686868080601f0160208091040260200160405190810160405280939291908181526020018383808284375f920191909152508d9250611b47915050565b91506109646001600160a01b037f000000000000000000000000000000000000000000000000000000000000000081169060015c1684611c0d565b61096c611c81565b506001805c73ffffffffffffffffffffffffffffffffffffffff1916905d95945050505050565b6040517f46f74dce0000000000000000000000000000000000000000000000000000000081523360048201525f90735615deb798bb3e4dfa0139dfa1b3d433cc23b72f906346f74dce90602401602060405180830381865afa1580156109fb573d5f5f3e3d5ffd5b505050506040513d601f19601f82011682018060405250810190610a1f9190613ec2565b15155f03610a5b576040517f8e4a23d6000000000000000000000000000000000000000000000000000000008152336004820152602401610830565b336001805c73ffffffffffffffffffffffffffffffffffffffff19168217905d50835f5c6001600160a01b0316610aba57805f805c73ffffffffffffffffffffffffffffffffffffffff19166001600160a01b03831617905d50610b01565b5f5c6001600160a01b0390811690821614610b01576040517f391fea3c00000000000000000000000000000000000000000000000000000000815260040160405180910390fd5b610b09611abf565b610b128561193b565b15610b49576040517f1bb8b5b100000000000000000000000000000000000000000000000000000000815260040160405180910390fd5b610b836001600160a01b037f000000000000000000000000000000000000000000000000000000000000000081169060015c163089611cab565b610bc48685858080601f0160208091040260200160405190810160405280939291908181526020018383808284375f920191909152508a9250611cea915050565b915060015c6001600160a01b03166002805c73ffffffffffffffffffffffffffffffffffffffff19168217905d50818060035d50610c0e856001600160a01b0360015c1684611d7c565b610c16611c81565b506001805c73ffffffffffffffffffffffffffffffffffffffff1916905d949350505050565b335f81815260016020526040812054909161074f9184611e0b565b5f33610c64858285611e86565b610c6f858585611d7c565b60019150505b9392505050565b5f6001610c87610f2e565b610c8f611f15565b610c999190613f08565b610ca39190613f1b565b610cab610f09565b610cb59084613f2e565b61074f9190613f45565b5f5460ff1615610cfb576040517ff92ee8a900000000000000000000000000000000000000000000000000000000815260040160405180910390fd5b5f80547fffffffffffffffffffffffffffffffffffffffffffffffffffffffffffffff00166001179055610d2f8282611fb6565b5050565b6040517f46f74dce0000000000000000000000000000000000000000000000000000000081523360048201525f90735615deb798bb3e4dfa0139dfa1b3d433cc23b72f906346f74dce90602401602060405180830381865afa158015610d9b573d5f5f3e3d5ffd5b505050506040513d601f19601f82011682018060405250810190610dbf9190613ec2565b15155f03610dfb576040517f8e4a23d6000000000000000000000000000000000000000000000000000000008152336004820152602401610830565b336001805c73ffffffffffffffffffffffffffffffffffffffff19168217905d50845f5c6001600160a01b0316610e5a57805f805c73ffffffffffffffffffffffffffffffffffffffff19166001600160a01b03831617905d50610ea1565b5f5c6001600160a01b0390811690821614610ea1576040517f391fea3c00000000000000000000000000000000000000000000000000000000815260040160405180910390fd5b610ee1868686868080601f0160208091040260200160405190810160405280939291908181526020018383808284375f92019190915250611e0b92505050565b9150506001805c73ffffffffffffffffffffffffffffffffffffffff1916905d949350505050565b5f620f4240600a54610f1a60035490565b610f249190613f08565b6105969190613f1b565b5f610f37612043565b6009546105969190613f1b565b6060600780546105aa90613e33565b805f5c6001600160a01b0316610f9157805f805c73ffffffffffffffffffffffffffffffffffffffff19166001600160a01b03831617905d50610fd8565b5f5c6001600160a01b0390811690821614610fd8576040517f391fea3c00000000000000000000000000000000000000000000000000000000815260040160405180910390fd5b6040517f46f74dce000000000000000000000000000000000000000000000000000000008152336004820152735615deb798bb3e4dfa0139dfa1b3d433cc23b72f906346f74dce90602401602060405180830381865afa15801561103e573d5f5f3e3d5ffd5b505050506040513d601f19601f820116820180604052508101906110629190613ec2565b15155f0361109e576040517f8e4a23d6000000000000000000000000000000000000000000000000000000008152336004820152602401610830565b336001805c73ffffffffffffffffffffffffffffffffffffffff19168217905d50836002805c73ffffffffffffffffffffffffffffffffffffffff19166001600160a01b03831617905d50828060035d506001805c73ffffffffffffffffffffffffffffffffffffffff1916905d50505050565b6040517f46f74dce000000000000000000000000000000000000000000000000000000008152336004820152735615deb798bb3e4dfa0139dfa1b3d433cc23b72f906346f74dce90602401602060405180830381865afa158015611178573d5f5f3e3d5ffd5b505050506040513d601f19601f8201168201806040525081019061119c9190613ec2565b15155f036111d8576040517f8e4a23d6000000000000000000000000000000000000000000000000000000008152336004820152602401610830565b336001805c73ffffffffffffffffffffffffffffffffffffffff19168217905d50826002805c73ffffffffffffffffffffffffffffffffffffffff19166001600160a01b03831617905d50808060035d5061123f6001600160a01b0360015c168483611d7c565b61124a838383612180565b505f805c73ffffffffffffffffffffffffffffffffffffffff1916905d6001805c73ffffffffffffffffffffffffffffffffffffffff1916905d505050565b5f6112a2610291620f4240670de0b6b3a7640000613f2e565b6105969064e8d4a51000613f2e565b5f33610762818585611d7c565b5f6001600160a01b03815c81811691849190821673ffffffffffffffffffffffffffffffffffffffff1990911617835d505f611308610291620f4240670de0b6b3a7640000613f2e565b6113179064e8d4a51000613f2e565b9050815f805c73ffffffffffffffffffffffffffffffffffffffff19166001600160a01b03831617905d509392505050565b6040517f46f74dce000000000000000000000000000000000000000000000000000000008152336004820152735615deb798bb3e4dfa0139dfa1b3d433cc23b72f906346f74dce90602401602060405180830381865afa1580156113af573d5f5f3e3d5ffd5b505050506040513d601f19601f820116820180604052508101906113d39190613ec2565b15155f0361140f576040517f8e4a23d6000000000000000000000000000000000000000000000000000000008152336004820152602401610830565b336001805c73ffffffffffffffffffffffffffffffffffffffff19168217905d505f805c73ffffffffffffffffffffffffffffffffffffffff1916905d6001805c73ffffffffffffffffffffffffffffffffffffffff1916905d565b5f611474610f09565b600161147e610f2e565b611486611f15565b6114909190613f08565b610cab9190613f1b565b5f806114c77f0000000000000000000000000000000000000000000000000000000000000000600a614060565b6114cf6117b9565b6114d99190613f2e565b611507601260ff7f000000000000000000000000000000000000000000000000000000000000000016613f1b565b61151290600a61406e565b61151c9085613f2e565b6115269190613f45565b9050610c7581610c7c565b611539612261565b6115b8735615deb798bb3e4dfa0139dfa1b3d433cc23b72f6001600160a01b031663b3f006746040518163ffffffff1660e01b8152600401602060405180830381865afa15801561158c573d5f5f3e3d5ffd5b505050506040513d601f19601f820116820180604052508101906115b09190614079565b6009546122c3565b5f600955565b6040517f46f74dce000000000000000000000000000000000000000000000000000000008152336004820152735615deb798bb3e4dfa0139dfa1b3d433cc23b72f906346f74dce90602401602060405180830381865afa158015611624573d5f5f3e3d5ffd5b505050506040513d601f19601f820116820180604052508101906116489190613ec2565b15155f03611684576040517f8e4a23d6000000000000000000000000000000000000000000000000000000008152336004820152602401610830565b336001805c73ffffffffffffffffffffffffffffffffffffffff19168217905d50825f805c73ffffffffffffffffffffffffffffffffffffffff19166001600160a01b03831617905d506116d78461193b565b1561170e576040517f1bb8b5b100000000000000000000000000000000000000000000000000000000815260040160405180910390fd5b6117178361193b565b801561173857506001600160a01b0384165f90815260016020526040812054115b1561176f576040517f1bb8b5b100000000000000000000000000000000000000000000000000000000815260040160405180910390fd5b336002805c73ffffffffffffffffffffffffffffffffffffffff19168217905d50818060035d506001805c73ffffffffffffffffffffffffffffffffffffffff1916905d50505050565b6040517f4c2d8eff0000000000000000000000000000000000000000000000000000000081526001600160a01b037f0000000000000000000000000000000000000000000000000000000000000000811660048301527f00000000000000000000000000000000000000000000000000000000000000001660248201525f90819073594734c7e06c3d483466adbce401c6bd269746c890634c2d8eff906044016040805180830381865afa158015611873573d5f5f3e3d5ffd5b505050506040513d601f19601f820116820180604052508101906118979190614094565b5092915050565b5f6118a7611abf565b335f90815260016020526040812054908190036118f0576040517f3a513ebe00000000000000000000000000000000000000000000000000000000815260040160405180910390fd5b6118fc84828533611b47565b91506119326001600160a01b037f0000000000000000000000000000000000000000000000000000000000000000163384611c0d565b5061074f611c81565b5f7f00000000000000000000000000000000000000000000000000000000000000006001600160a01b03161580159061074f57506040517f37504d9c0000000000000000000000000000000000000000000000000000000081523060048201526001600160a01b0383811660248301527f000000000000000000000000000000000000000000000000000000000000000016906337504d9c90604401602060405180830381865afa1580156119f2573d5f5f3e3d5ffd5b505050506040513d601f19601f8201168201806040525081019061074f9190613ec2565b5f5f611a218361146b565b9050611a51601260ff7f000000000000000000000000000000000000000000000000000000000000000016613f1b565b611a5c90600a61406e565b611a877f0000000000000000000000000000000000000000000000000000000000000000600a614060565b611a8f6117b9565b611a999084613f2e565b611aa39190613f2e565b610c759190613f45565b611aba83838360016122f7565b505050565b7f9b779b17422d0df92223018b32b4d1fa46e071723d6817e2486d003becc55f005c15611b18576040517f3ee5aeb500000000000000000000000000000000000000000000000000000000815260040160405180910390fd5b611b4560017f9b779b17422d0df92223018b32b4d1fa46e071723d6817e2486d003becc55f005b906123fb565b565b5f845f03611b5657505f611c05565b5f611b608361193b565b90505f611b8c7f0000000000000000000000000000000000000000000000000000000000000000612402565b9050611b96612261565b611ba28785848861249d565b8115611bbf5786600a5f828254611bb99190613f08565b90915550505b5f611be97f0000000000000000000000000000000000000000000000000000000000000000612402565b9050611bf58282613f08565b9350611c0185896127d9565b5050505b949350505050565b6040516001600160a01b03838116602483015260448201839052611aba91859182169063a9059cbb906064015b604051602081830303815290604052915060e01b6020820180517bffffffffffffffffffffffffffffffffffffffffffffffffffffffff8381831617835250505050612826565b611b455f7f9b779b17422d0df92223018b32b4d1fa46e071723d6817e2486d003becc55f00611b3f565b6040516001600160a01b038481166024830152838116604483015260648201839052611ce49186918216906323b872dd90608401611c3a565b50505050565b5f835f03611cf957505f610c75565b611d01612261565b5f611d0a611f15565b9050611d178584866128ab565b5f81611d21611f15565b611d2b9190613f08565b90506001611d37610f2e565b611d419084613f08565b611d4b9190613f1b565b611d53610f09565b611d5d9083613f2e565b611d679190613f45565b9250611d738484612b70565b50509392505050565b6001600160a01b038316611dbe576040517f96c6fd1e0000000000000000000000000000000000000000000000000000000081525f6004820152602401610830565b6001600160a01b038216611e00576040517fec442f050000000000000000000000000000000000000000000000000000000081525f6004820152602401610830565b611aba838383612bb9565b5f825f03611e45576040517f3a513ebe00000000000000000000000000000000000000000000000000000000815260040160405180910390fd5b611e4d612261565b5f611e578461146b565b9050611e6585828686612cc3565b915083600a5f828254611e789190613f1b565b909155509195945050505050565b6001600160a01b038381165f908152600260209081526040808320938616835292905220545f19811015611ce45781811015611f07576040517ffb8f41b20000000000000000000000000000000000000000000000000000000081526001600160a01b03841660048201526024810182905260448101839052606401610830565b611ce484848484035f6122f7565b6040517f70a082310000000000000000000000000000000000000000000000000000000081523060048201525f907f00000000000000000000000000000000000000000000000000000000000000006001600160a01b0316906370a0823190602401602060405180830381865afa158015611f92573d5f5f3e3d5ffd5b505050506040513d601f19601f8201168201806040525081019061059691906140b6565b5f80611fc4838501856140cd565b90925090506006611fd58382614167565b506007611fe28282614167565b50600880547fffffffffffffffffffffffffffffffffffffffffffffffffffffffff00000000164263ffffffff1617905560405130907f2e49a5810fda2439a23771848b4acec786b0a64d4de3d124ac57fc8739c38875905f90a250505050565b6008545f90819061205a9063ffffffff1642613f08565b90505f6301e1338061208c837f0000000000000000000000000000000000000000000000000000000000000000613f2e565b6120969190613f45565b9050805f036120a7575f9250505090565b5f6009546120b3611f15565b6120bd9190613f08565b90505f670de0b6b3a76400006120d4816006613f2e565b6120de9190613f2e565b836120e98180613f2e565b6120f39190613f2e565b6120fd9190613f45565b612110670de0b6b3a76400006002613f2e565b61211a8580613f2e565b6121249190613f45565b61213685670de0b6b3a7640000613f1b565b6121409190613f1b565b61214a9190613f1b565b90505f81612160670de0b6b3a764000085613f2e565b61216a9190613f45565b90506121768184613f08565b9550505050505090565b5f7f00000000000000000000000000000000000000000000000000000000000000006001600160a01b031615610c75576040517f838f705b0000000000000000000000000000000000000000000000000000000081526001600160a01b0384811660048301528581166024830152604482018490527f0000000000000000000000000000000000000000000000000000000000000000169063838f705b906064016020604051808303815f875af115801561223d573d5f5f3e3d5ffd5b505050506040513d601f19601f82011682018060405250810190611c059190613ec2565b6008544263ffffffff9091160361227457565b61227c612043565b60095f82825461228c9190613f1b565b9091555050600880547fffffffffffffffffffffffffffffffffffffffffffffffffffffffff00000000164263ffffffff16179055565b610d2f6001600160a01b037f0000000000000000000000000000000000000000000000000000000000000000168383611c0d565b6001600160a01b038416612339576040517fe602df050000000000000000000000000000000000000000000000000000000081525f6004820152602401610830565b6001600160a01b03831661237b576040517f94280d620000000000000000000000000000000000000000000000000000000081525f6004820152602401610830565b6001600160a01b038085165f9081526002602090815260408083209387168352929052208290558015611ce457826001600160a01b0316846001600160a01b03167f8c5be1e5ebec7d5bd14f71427d1e84f3dd0314c0f7b2291e5b200ac8c7c3b925846040516123ed91815260200190565b60405180910390a350505050565b80825d5050565b5f6001600160a01b03821615612496576040517f70a082310000000000000000000000000000000000000000000000000000000081523060048201526001600160a01b038316906370a0823190602401602060405180830381865afa15801561246d573d5f5f3e3d5ffd5b505050506040513d601f19601f8201168201806040525081019061249191906140b6565b61074f565b4792915050565b81156127bb576040517fafbf911a0000000000000000000000000000000000000000000000000000000081523060048201526001600160a01b0384811660248301525f917f00000000000000000000000000000000000000000000000000000000000000009091169063afbf911a9060440160c060405180830381865afa15801561252a573d5f5f3e3d5ffd5b505050506040513d601f19601f8201168201806040525081019061254e919061425e565b5090505f81604001516effffffffffffffffffffffffffffff168683602001516effffffffffffffffffffffffffffff166125899190613f2e565b6125939190613f45565b6040517fed020beb0000000000000000000000000000000000000000000000000000000081526001600160a01b03878116600483015260248201839052604482018990529192505f9182917f00000000000000000000000000000000000000000000000000000000000000009091169063ed020beb9060640160408051808303815f875af1158015612627573d5f5f3e3d5ffd5b505050506040513d601f19601f8201168201806040525081019061264b9190614320565b915091508061268c5783516040517f4ccb7bc20000000000000000000000000000000000000000000000000000000081526004810191909152602401610830565b7f00000000000000000000000000000000000000000000000000000000000000006001600160a01b03167f00000000000000000000000000000000000000000000000000000000000000006001600160a01b0316146127b2575f858060200190518101906126fa91906143a7565b90505f6040518060e001604052805f600481111561271a5761271a61442e565b81526020017f00000000000000000000000000000000000000000000000000000000000000006001600160a01b031681526020017f00000000000000000000000000000000000000000000000000000000000000006001600160a01b0316815260200185815260200183602001518152602001428152602001836040015181525090506127ad81835f015160ff16612f6d565b505050505b50505050611ce4565b5f6127c58561146b565b90506127d18183613215565b505050505050565b6001600160a01b03821661281b576040517f96c6fd1e0000000000000000000000000000000000000000000000000000000081525f6004820152602401610830565b610d2f825f83612bb9565b5f5f60205f8451602086015f885af180612845576040513d5f823e3d81fd5b50505f513d9150811561285c578060011415612869565b6001600160a01b0384163b155b15611ce4576040517f5274afe70000000000000000000000000000000000000000000000000000000081526001600160a01b0385166004820152602401610830565b7f00000000000000000000000000000000000000000000000000000000000000006001600160a01b0316632f13b60c6040518163ffffffff1660e01b8152600401602060405180830381865afa158015612907573d5f5f3e3d5ffd5b505050506040513d601f19601f8201168201806040525081019061292b9190613ec2565b15612992576040517f08c379a000000000000000000000000000000000000000000000000000000000815260206004820152600760248201527f45787069726564000000000000000000000000000000000000000000000000006044820152606401610830565b5f818060200190518101906129a7919061445b565b90505f7f00000000000000000000000000000000000000000000000000000000000000006001600160a01b03167f00000000000000000000000000000000000000000000000000000000000000006001600160a01b031614612aa1576040805160e0810182525f81526001600160a01b037f000000000000000000000000000000000000000000000000000000000000000081166020808401919091527f0000000000000000000000000000000000000000000000000000000000000000909116828401526060820188905284015160808201524260a08201529083015160c08201528251612a97908290612f6d565b9250612aa4915050565b50835b60608201516040517f94245f2400000000000000000000000000000000000000000000000000000000815273__$688b18f06dbe4d96161c7cdfd79c54f806$__916394245f2491612b3d917f0000000000000000000000000000000000000000000000000000000000000000917f0000000000000000000000000000000000000000000000000000000000000000918791600401614515565b5f6040518083038186803b158015612b53575f5ffd5b505af4158015612b65573d5f5f3e3d5ffd5b505050505050505050565b6001600160a01b038216612bb2576040517fec442f050000000000000000000000000000000000000000000000000000000081525f6004820152602401610830565b610d2f5f83835b6001600160a01b03831615801590612bd957506001600160a01b03821615155b15612cb85760025c6001600160a01b0390811690831614612c40576040517ffd351fc80000000000000000000000000000000000000000000000000000000081526001600160a01b0380851660048301528316602482015260448101829052606401610830565b8060035c1015612c96576040517ffd351fc80000000000000000000000000000000000000000000000000000000081526001600160a01b0380851660048301528316602482015260448101829052606401610830565b6002805c73ffffffffffffffffffffffffffffffffffffffff1916905d5f60035d5b611aba838383613392565b5f7f00000000000000000000000000000000000000000000000000000000000000006001600160a01b0316632f13b60c6040518163ffffffff1660e01b8152600401602060405180830381865afa158015612d20573d5f5f3e3d5ffd5b505050506040513d601f19601f82011682018060405250810190612d449190613ec2565b612dd0576040517f08c379a000000000000000000000000000000000000000000000000000000000815260206004820152602c60248201527f43616e6e6f7420696e69746961746520776974686472617720666f72206e6f6e60448201527f2d657870697265642050547300000000000000000000000000000000000000006064820152608401610830565b5f612de98560405180602001604052805f8152506134d1565b6040517f095ea7b30000000000000000000000000000000000000000000000000000000081526001600160a01b037f000000000000000000000000000000000000000000000000000000000000000081166004830152602482018390529192507f00000000000000000000000000000000000000000000000000000000000000009091169063095ea7b3906044016020604051808303815f875af1158015612e93573d5f5f3e3d5ffd5b505050506040513d601f19601f82011682018060405250810190612eb79190613ec2565b506040517f7c86cff50000000000000000000000000000000000000000000000000000000081526001600160a01b037f00000000000000000000000000000000000000000000000000000000000000001690637c86cff590612f2390899085908990899060040161454b565b6020604051808303815f875af1158015612f3f573d5f5f3e3d5ffd5b505050506040513d601f19601f82011682018060405250810190612f6391906140b6565b9695505050505050565b5f80600484516004811115612f8457612f8461442e565b036130d75760408481015190517f9287d7ac0000000000000000000000000000000000000000000000000000000081526001600160a01b0390911660048201525f90735615deb798bb3e4dfa0139dfa1b3d433cc23b72f90639287d7ac90602401602060405180830381865afa158015613000573d5f5f3e3d5ffd5b505050506040513d601f19601f820116820180604052508101906130249190614079565b905061304c81866060015187602001516001600160a01b03166137879092919063ffffffff16565b806001600160a01b031663e7c35c3c866020015187606001518860c001516040518463ffffffff1660e01b815260040161308893929190614578565b6020604051808303815f875af11580156130a4573d5f5f3e3d5ffd5b505050506040513d601f19601f820116820180604052508101906130c891906140b6565b9150846060015192505061320e565b5f73594734c7e06c3d483466adbce401c6bd269746c86001600160a01b031663aaf10f426040518163ffffffff1660e01b8152600401602060405180830381865afa158015613128573d5f5f3e3d5ffd5b505050506040513d601f19601f8201168201806040525081019061314c9190614079565b90505f6131f082632ba8c23c60e01b878960405160240161316e9291906145a8565b604080517fffffffffffffffffffffffffffffffffffffffffffffffffffffffffffffffe08184030181529190526020810180517bffffffffffffffffffffffffffffffffffffffffffffffffffffffff167fffffffff00000000000000000000000000000000000000000000000000000000909316929092179091526137ae565b9050808060200190518101906132069190614094565b909450925050505b9250929050565b5f5f8280602001905181019061322b9190614656565b90505f61323c8583606001516134d1565b90507f00000000000000000000000000000000000000000000000000000000000000006001600160a01b03167f00000000000000000000000000000000000000000000000000000000000000006001600160a01b031614613338576040805160e0810182525f81526001600160a01b037f000000000000000000000000000000000000000000000000000000000000000081166020808401919091527f0000000000000000000000000000000000000000000000000000000000000000909116828401526060820184905284015160808201524260a08201529083015160c0820152825161332e90829060ff16612f6d565b945061338a915050565b80826020015111156133865760208201516040517f76baadda000000000000000000000000000000000000000000000000000000008152610830918391600401918252602082015260400190565b8092505b505092915050565b6001600160a01b0383166133bc578060035f8282546133b19190613f1b565b909155506134459050565b6001600160a01b0383165f9081526001602052604090205481811015613427576040517fe450d38c0000000000000000000000000000000000000000000000000000000081526001600160a01b03851660048201526024810182905260448101839052606401610830565b6001600160a01b0384165f9081526001602052604090209082900390555b6001600160a01b0382166134615760038054829003905561347f565b6001600160a01b0382165f9081526001602052604090208054820190555b816001600160a01b0316836001600160a01b03167fddf252ad1be2c89b69c2b068fc378daa952ba7f163c4a11628f55a4df523b3ef836040516134c491815260200190565b60405180910390a3505050565b5f7f00000000000000000000000000000000000000000000000000000000000000006001600160a01b0316632f13b60c6040518163ffffffff1660e01b8152600401602060405180830381865afa15801561352e573d5f5f3e3d5ffd5b505050506040513d601f19601f820116820180604052508101906135529190613ec2565b15613690576040517fc64026130000000000000000000000000000000000000000000000000000000081526001600160a01b037f0000000000000000000000000000000000000000000000000000000000000000811660048301527f0000000000000000000000000000000000000000000000000000000000000000811660248301527f0000000000000000000000000000000000000000000000000000000000000000811660448301527f00000000000000000000000000000000000000000000000000000000000000001660648201526084810184905273__$688b18f06dbe4d96161c7cdfd79c54f806$__9063c64026139060a401602060405180830381865af4158015613665573d5f5f3e3d5ffd5b505050506040513d601f19601f8201168201806040525081019061368991906140b6565b905061074f565b6040517f485d384200000000000000000000000000000000000000000000000000000000815273__$688b18f06dbe4d96161c7cdfd79c54f806$__9063485d384290613748907f0000000000000000000000000000000000000000000000000000000000000000907f0000000000000000000000000000000000000000000000000000000000000000907f0000000000000000000000000000000000000000000000000000000000000000908990899060040161469e565b602060405180830381865af4158015613763573d5f5f3e3d5ffd5b505050506040513d601f19601f82011682018060405250810190610c7591906140b6565b6001600160a01b03831661379a57505050565b611aba6001600160a01b0384168383613818565b60605f836001600160a01b0316836040516137c991906146ee565b5f60405180830381855af49150503d805f8114613801576040519150601f19603f3d011682016040523d82523d5f602084013e613806565b606091505b509250905080611897573d5f5f3e3d5ffd5b604080516001600160a01b038416602482015260448082018490528251808303909101815260649091019091526020810180517bffffffffffffffffffffffffffffffffffffffffffffffffffffffff167f095ea7b30000000000000000000000000000000000000000000000000000000017905261389784826138d5565b611ce4576040516001600160a01b0384811660248301525f60448301526138cb91869182169063095ea7b390606401611c3a565b611ce48482612826565b5f5f5f5f60205f8651602088015f8a5af192503d91505f519050828015612f63575081156139065780600114612f63565b50505050506001600160a01b03163b151590565b5f81518084528060208401602086015e5f6020828601015260207fffffffffffffffffffffffffffffffffffffffffffffffffffffffffffffffe0601f83011685010191505092915050565b602081525f610c75602083018461391a565b5f60208284031215613988575f5ffd5b5035919050565b6001600160a01b03811681146139a3575f5ffd5b50565b5f5f604083850312156139b7575f5ffd5b82356139c28161398f565b946020939093013593505050565b5f5f83601f8401126139e0575f5ffd5b50813567ffffffffffffffff8111156139f7575f5ffd5b60208301915083602082850101111561320e575f5ffd5b5f5f5f5f5f60808688031215613a22575f5ffd5b8535613a2d8161398f565b94506020860135935060408601359250606086013567ffffffffffffffff811115613a56575f5ffd5b613a62888289016139d0565b969995985093965092949392505050565b5f5f5f5f60608587031215613a86575f5ffd5b843593506020850135613a988161398f565b9250604085013567ffffffffffffffff811115613ab3575f5ffd5b613abf878288016139d0565b95989497509550505050565b7f4e487b71000000000000000000000000000000000000000000000000000000005f52604160045260245ffd5b6040516060810167ffffffffffffffff81118282101715613b1b57613b1b613acb565b60405290565b6040516080810167ffffffffffffffff81118282101715613b1b57613b1b613acb565b604051601f82017fffffffffffffffffffffffffffffffffffffffffffffffffffffffffffffffe016810167ffffffffffffffff81118282101715613b8b57613b8b613acb565b604052919050565b5f67ffffffffffffffff821115613bac57613bac613acb565b50601f017fffffffffffffffffffffffffffffffffffffffffffffffffffffffffffffffe01660200190565b5f82601f830112613be7575f5ffd5b8135602083015f613bff613bfa84613b93565b613b44565b9050828152858383011115613c12575f5ffd5b828260208301375f92810160200192909252509392505050565b5f60208284031215613c3c575f5ffd5b813567ffffffffffffffff811115613c52575f5ffd5b611c0584828501613bd8565b5f5f5f60608486031215613c70575f5ffd5b8335613c7b8161398f565b92506020840135613c8b8161398f565b929592945050506040919091013590565b5f5f60208385031215613cad575f5ffd5b823567ffffffffffffffff811115613cc3575f5ffd5b613ccf858286016139d0565b90969095509350505050565b5f5f5f5f60608587031215613cee575f5ffd5b8435613cf98161398f565b935060208501359250604085013567ffffffffffffffff811115613ab3575f5ffd5b5f60208284031215613d2b575f5ffd5b8135610c758161398f565b5f5f5f60608486031215613d48575f5ffd5b8335613d538161398f565b9250602084013591506040840135613d6a8161398f565b809150509250925092565b5f5f5f5f60808587031215613d88575f5ffd5b8435613d938161398f565b93506020850135613da38161398f565b93969395505050506040820135916060013590565b5f5f60408385031215613dc9575f5ffd5b8235613dd48161398f565b91506020830135613de48161398f565b809150509250929050565b5f5f60408385031215613e00575f5ffd5b82359150602083013567ffffffffffffffff811115613e1d575f5ffd5b613e2985828601613bd8565b9150509250929050565b600181811c90821680613e4757607f821691505b602082108103613e7e577f4e487b71000000000000000000000000000000000000000000000000000000005f52602260045260245ffd5b50919050565b80518015158114613e93575f5ffd5b919050565b5f5f60408385031215613ea9575f5ffd5b613eb283613e84565b6020939093015192949293505050565b5f60208284031215613ed2575f5ffd5b610c7582613e84565b7f4e487b71000000000000000000000000000000000000000000000000000000005f52601160045260245ffd5b8181038181111561074f5761074f613edb565b8082018082111561074f5761074f613edb565b808202811582820484141761074f5761074f613edb565b5f82613f78577f4e487b71000000000000000000000000000000000000000000000000000000005f52601260045260245ffd5b500490565b6001815b6001841115613fb857808504811115613f9c57613f9c613edb565b6001841615613faa57908102905b60019390931c928002613f81565b935093915050565b5f82613fce5750600161074f565b81613fda57505f61074f565b8160018114613ff05760028114613ffa57614016565b600191505061074f565b60ff84111561400b5761400b613edb565b50506001821b61074f565b5060208310610133831016604e8410600b8410161715614039575081810a61074f565b6140455f198484613f7d565b805f190482111561405857614058613edb565b029392505050565b5f610c7560ff841683613fc0565b5f610c758383613fc0565b5f60208284031215614089575f5ffd5b8151610c758161398f565b5f5f604083850312156140a5575f5ffd5b505080516020909101519092909150565b5f602082840312156140c6575f5ffd5b5051919050565b5f5f604083850312156140de575f5ffd5b823567ffffffffffffffff8111156140f4575f5ffd5b61410085828601613bd8565b925050602083013567ffffffffffffffff811115613e1d575f5ffd5b601f821115611aba57805f5260205f20601f840160051c810160208510156141415750805b601f840160051c820191505b81811015614160575f815560010161414d565b5050505050565b815167ffffffffffffffff81111561418157614181613acb565b6141958161418f8454613e33565b8461411c565b6020601f8211600181146141c7575f83156141b05750848201515b5f19600385901b1c1916600184901b178455614160565b5f848152602081207fffffffffffffffffffffffffffffffffffffffffffffffffffffffffffffffe08516915b8281101561421457878501518255602094850194600190920191016141f4565b508482101561423157868401515f19600387901b60f8161c191681555b50505050600190811b01905550565b80516effffffffffffffffffffffffffffff81168114613e93575f5ffd5b5f5f82840360c0811215614270575f5ffd5b606081121561427d575f5ffd5b614285613af8565b8451815261429560208601614240565b60208201526142a660408601614240565b6040820152925060607fffffffffffffffffffffffffffffffffffffffffffffffffffffffffffffffa0820112156142dc575f5ffd5b506142e5613af8565b6142f160608501614240565b81526142ff60808501614240565b602082015261431060a08501613e84565b6040820152809150509250929050565b5f5f60408385031215614331575f5ffd5b8251915061434160208401613e84565b90509250929050565b805160ff81168114613e93575f5ffd5b5f82601f830112614369575f5ffd5b8151614377613bfa82613b93565b81815284602083860101111561438b575f5ffd5b8160208501602083015e5f918101602001919091529392505050565b5f602082840312156143b7575f5ffd5b815167ffffffffffffffff8111156143cd575f5ffd5b8201606081850312156143de575f5ffd5b6143e6613af8565b6143ef8261434a565b815260208281015190820152604082015167ffffffffffffffff811115614414575f5ffd5b6144208682850161435a565b604083015250949350505050565b7f4e487b71000000000000000000000000000000000000000000000000000000005f52602160045260245ffd5b5f6020828403121561446b575f5ffd5b815167ffffffffffffffff811115614481575f5ffd5b820160808185031215614492575f5ffd5b61449a613b21565b815161ffff811681146144ab575f5ffd5b815260208281015190820152604082015167ffffffffffffffff8111156144d0575f5ffd5b6144dc8682850161435a565b604083015250606082015167ffffffffffffffff8111156144fb575f5ffd5b6145078682850161435a565b606083015250949350505050565b6001600160a01b03851681526001600160a01b0384166020820152826040820152608060608201525f612f63608083018461391a565b6001600160a01b0385168152836020820152826040820152608060608201525f612f63608083018461391a565b6001600160a01b0384168152826020820152606060408201525f61459f606083018461391a565b95945050505050565b61ffff83168152604060208201525f8251600581106145ee577f4e487b71000000000000000000000000000000000000000000000000000000005f52602160045260245ffd5b604083015260208301516001600160a01b03811660608401525060408301516001600160a01b038116608084015250606083015160a0830152608083015160c083015260a083015160e083015260c083015160e061010084015261459f61012084018261391a565b5f60208284031215614666575f5ffd5b815167ffffffffffffffff81111561467c575f5ffd5b82016080818503121561468d575f5ffd5b614695613b21565b6144ab8261434a565b6001600160a01b03861681526001600160a01b03851660208201526001600160a01b038416604082015282606082015260a060808201525f6146e360a083018461391a565b979650505050505050565b5f82518060208501845e5f92019182525091905056fea164736f6c634300081d000a","linkReferences":{"src/staking/PendlePTLib.sol":{"PendlePTLib":[{"start":13087,"length":20},{"start":15995,"length":20},{"start":16134,"length":20}]}}},"methodIdentifiers":{"MARKET()":"f46f16c2","TOKEN_IN_SY()":"5e074031","TOKEN_OUT_SY()":"5080cb0e","allowTransfer(address,uint256,address)":"98476c2b","allowance(address,address)":"dd62ed3e","approve(address,uint256)":"095ea7b3","asset()":"38d52e0f","balanceOf(address)":"70a08231","burnShares(address,uint256,uint256,bytes)":"0db734d4","clearCurrentAccount()":"b35cb45d","collectFees()":"c8796572","convertSharesToYieldToken(uint256)":"b905a4ff","convertToAssets(uint256)":"07a2d13a","convertToShares(uint256)":"c6e6f592","convertYieldTokenToAsset()":"e0b4327d","convertYieldTokenToShares(uint256)":"25565931","decimals()":"313ce567","effectiveSupply()":"8fc47093","feeRate()":"978bbdb9","feesAccrued()":"94db0595","initialize(bytes)":"439fab91","initiateWithdraw(address,uint256,bytes)":"57831a04","initiateWithdrawNative(bytes)":"131b822d","mintShares(uint256,address,bytes)":"127af7f9","name()":"06fdde03","postLiquidation(address,address,uint256)":"98dce16d","preLiquidation(address,address,uint256,uint256)":"cc351ac5","price()":"a035b1fe","price(address)":"aea91078","redeemNative(uint256,bytes)":"eb9b1912","symbol()":"95d89b41","totalAssets()":"01e1d114","totalSupply()":"18160ddd","transfer(address,uint256)":"a9059cbb","transferFrom(address,address,uint256)":"23b872dd","yieldToken()":"76d5de85"},"id":88}