{"abi":[{"type":"constructor","inputs":[{"name":"_token","type":"address","internalType":"contract ERC20"}],"stateMutability":"nonpayable"},{"type":"function","name":"allowance","inputs":[{"name":"owner","type":"address","internalType":"address"},{"name":"spender","type":"address","internalType":"address"}],"outputs":[{"name":"","type":"uint256","internalType":"uint256"}],"stateMutability":"view"},{"type":"function","name":"approve","inputs":[{"name":"spender","type":"address","internalType":"address"},{"name":"value","type":"uint256","internalType":"uint256"}],"outputs":[{"name":"","type":"bool","internalType":"bool"}],"stateMutability":"nonpayable"},{"type":"function","name":"balanceOf","inputs":[{"name":"account","type":"address","internalType":"address"}],"outputs":[{"name":"","type":"uint256","internalType":"uint256"}],"stateMutability":"view"},{"type":"function","name":"decimals","inputs":[],"outputs":[{"name":"","type":"uint8","internalType":"uint8"}],"stateMutability":"view"},{"type":"function","name":"deposit","inputs":[{"name":"amount","type":"uint256","internalType":"uint256"}],"outputs":[],"stateMutability":"nonpayable"},{"type":"function","name":"name","inputs":[],"outputs":[{"name":"","type":"string","internalType":"string"}],"stateMutability":"view"},{"type":"function","name":"symbol","inputs":[],"outputs":[{"name":"","type":"string","internalType":"string"}],"stateMutability":"view"},{"type":"function","name":"token","inputs":[],"outputs":[{"name":"","type":"address","internalType":"contract ERC20"}],"stateMutability":"view"},{"type":"function","name":"tokenPrecision","inputs":[],"outputs":[{"name":"","type":"uint256","internalType":"uint256"}],"stateMutability":"view"},{"type":"function","name":"totalSupply","inputs":[],"outputs":[{"name":"","type":"uint256","internalType":"uint256"}],"stateMutability":"view"},{"type":"function","name":"transfer","inputs":[{"name":"to","type":"address","internalType":"address"},{"name":"value","type":"uint256","internalType":"uint256"}],"outputs":[{"name":"","type":"bool","internalType":"bool"}],"stateMutability":"nonpayable"},{"type":"function","name":"transferFrom","inputs":[{"name":"from","type":"address","internalType":"address"},{"name":"to","type":"address","internalType":"address"},{"name":"value","type":"uint256","internalType":"uint256"}],"outputs":[{"name":"","type":"bool","internalType":"bool"}],"stateMutability":"nonpayable"},{"type":"function","name":"withdraw","inputs":[{"name":"amount","type":"uint256","internalType":"uint256"}],"outputs":[],"stateMutability":"nonpayable"},{"type":"event","name":"Approval","inputs":[{"name":"owner","type":"address","indexed":true,"internalType":"address"},{"name":"spender","type":"address","indexed":true,"internalType":"address"},{"name":"value","type":"uint256","indexed":false,"internalType":"uint256"}],"anonymous":false},{"type":"event","name":"Transfer","inputs":[{"name":"from","type":"address","indexed":true,"internalType":"address"},{"name":"to","type":"address","indexed":true,"internalType":"address"},{"name":"value","type":"uint256","indexed":false,"internalType":"uint256"}],"anonymous":false},{"type":"error","name":"ERC20InsufficientAllowance","inputs":[{"name":"spender","type":"address","internalType":"address"},{"name":"allowance","type":"uint256","internalType":"uint256"},{"name":"needed","type":"uint256","internalType":"uint256"}]},{"type":"error","name":"ERC20InsufficientBalance","inputs":[{"name":"sender","type":"address","internalType":"address"},{"name":"balance","type":"uint256","internalType":"uint256"},{"name":"needed","type":"uint256","internalType":"uint256"}]},{"type":"error","name":"ERC20InvalidApprover","inputs":[{"name":"approver","type":"address","internalType":"address"}]},{"type":"error","name":"ERC20InvalidReceiver","inputs":[{"name":"receiver","type":"address","internalType":"address"}]},{"type":"error","name":"ERC20InvalidSender","inputs":[{"name":"sender","type":"address","internalType":"address"}]},{"type":"error","name":"ERC20InvalidSpender","inputs":[{"name":"spender","type":"address","internalType":"address"}]}],"bytecode":{"object":"0x608060405234801561000f575f5ffd5b506040516111d53803806111d583398101604081905261002e9161029a565b6040518060400160405280601081526020016f04d6f636b5772617070657245524332360841b815250604051806040016040528060038152602001624d574560e81b8152508160039081610082919061035f565b50600461008f828261035f565b5050600580546001600160a01b0319166001600160a01b0384169081179091556040805163313ce56760e01b8152905191925063313ce5679160048083019260209291908290030181865afa1580156100ea573d5f5f3e3d5ffd5b505050506040513d601f19601f8201168201806040525081019061010e9190610419565b61011990600a610532565b600655610131336a084595161401484a000000610137565b50610553565b6001600160a01b0382166101655760405163ec442f0560e01b81525f60048201526024015b60405180910390fd5b6101705f8383610174565b5050565b6001600160a01b03831661019e578060025f8282546101939190610540565b9091555061020e9050565b6001600160a01b0383165f90815260208190526040902054818110156101f05760405163391434e360e21b81526001600160a01b0385166004820152602481018290526044810183905260640161015c565b6001600160a01b0384165f9081526020819052604090209082900390555b6001600160a01b03821661022a57600280548290039055610248565b6001600160a01b0382165f9081526020819052604090208054820190555b816001600160a01b0316836001600160a01b03167fddf252ad1be2c89b69c2b068fc378daa952ba7f163c4a11628f55a4df523b3ef8360405161028d91815260200190565b60405180910390a3505050565b5f602082840312156102aa575f5ffd5b81516001600160a01b03811681146102c0575f5ffd5b9392505050565b634e487b7160e01b5f52604160045260245ffd5b600181811c908216806102ef57607f821691505b60208210810361030d57634e487b7160e01b5f52602260045260245ffd5b50919050565b601f82111561035a57805f5260205f20601f840160051c810160208510156103385750805b601f840160051c820191505b81811015610357575f8155600101610344565b50505b505050565b81516001600160401b03811115610378576103786102c7565b61038c8161038684546102db565b84610313565b6020601f8211600181146103be575f83156103a75750848201515b5f19600385901b1c1916600184901b178455610357565b5f84815260208120601f198516915b828110156103ed57878501518255602094850194600190920191016103cd565b508482101561040a57868401515f19600387901b60f8161c191681555b50505050600190811b01905550565b5f60208284031215610429575f5ffd5b815160ff811681146102c0575f5ffd5b634e487b7160e01b5f52601160045260245ffd5b6001815b60018411156104885780850481111561046c5761046c610439565b600184161561047a57908102905b60019390931c928002610451565b935093915050565b5f8261049e5750600161052c565b816104aa57505f61052c565b81600181146104c057600281146104ca576104e6565b600191505061052c565b60ff8411156104db576104db610439565b50506001821b61052c565b5060208310610133831016604e8410600b8410161715610509575081810a61052c565b6105155f19848461044d565b805f190482111561052857610528610439565b0290505b92915050565b5f6102c060ff841683610490565b8082018082111561052c5761052c610439565b610c75806105605f395ff3fe608060405234801561000f575f5ffd5b50600436106100da575f3560e01c806370a0823111610088578063b5855eca11610063578063b5855eca146101b8578063b6b55f25146101c1578063dd62ed3e146101d4578063fc0c546a14610219575f5ffd5b806370a082311461016857806395d89b411461019d578063a9059cbb146101a5575f5ffd5b806323b872dd116100b857806323b872dd146101315780632e1a7d4d14610144578063313ce56714610159575f5ffd5b806306fdde03146100de578063095ea7b3146100fc57806318160ddd1461011f575b5f5ffd5b6100e661025e565b6040516100f39190610a24565b60405180910390f35b61010f61010a366004610a9f565b6102ee565b60405190151581526020016100f3565b6002545b6040519081526020016100f3565b61010f61013f366004610ac7565b610307565b610157610152366004610b01565b61032a565b005b604051601281526020016100f3565b610123610176366004610b18565b73ffffffffffffffffffffffffffffffffffffffff165f9081526020819052604090205490565b6100e661040e565b61010f6101b3366004610a9f565b61041d565b61012360065481565b6101576101cf366004610b01565b61042a565b6101236101e2366004610b38565b73ffffffffffffffffffffffffffffffffffffffff9182165f90815260016020908152604080832093909416825291909152205490565b6005546102399073ffffffffffffffffffffffffffffffffffffffff1681565b60405173ffffffffffffffffffffffffffffffffffffffff90911681526020016100f3565b60606003805461026d90610b69565b80601f016020809104026020016040519081016040528092919081815260200182805461029990610b69565b80156102e45780601f106102bb576101008083540402835291602001916102e4565b820191905f5260205f20905b8154815290600101906020018083116102c757829003601f168201915b5050505050905090565b5f336102fb8185856104f6565b60019150505b92915050565b5f33610314858285610508565b61031f8585856105db565b506001949350505050565b6103343382610684565b60055460065473ffffffffffffffffffffffffffffffffffffffff9091169063a9059cbb903390670de0b6b3a76400009061036f9086610be7565b6103799190610bfe565b6040517fffffffff0000000000000000000000000000000000000000000000000000000060e085901b16815273ffffffffffffffffffffffffffffffffffffffff909216600483015260248201526044016020604051808303815f875af11580156103e6573d5f5f3e3d5ffd5b505050506040513d601f19601f8201168201806040525081019061040a9190610c36565b5050565b60606004805461026d90610b69565b5f336102fb8185856105db565b6005546040517f23b872dd0000000000000000000000000000000000000000000000000000000081523360048201523060248201526044810183905273ffffffffffffffffffffffffffffffffffffffff909116906323b872dd906064016020604051808303815f875af11580156104a4573d5f5f3e3d5ffd5b505050506040513d601f19601f820116820180604052508101906104c89190610c36565b506104f33360065483670de0b6b3a76400006104e49190610be7565b6104ee9190610bfe565b6106de565b50565b6105038383836001610738565b505050565b73ffffffffffffffffffffffffffffffffffffffff8381165f908152600160209081526040808320938616835292905220547fffffffffffffffffffffffffffffffffffffffffffffffffffffffffffffffff8110156105d557818110156105c7576040517ffb8f41b200000000000000000000000000000000000000000000000000000000815273ffffffffffffffffffffffffffffffffffffffff8416600482015260248101829052604481018390526064015b60405180910390fd5b6105d584848484035f610738565b50505050565b73ffffffffffffffffffffffffffffffffffffffff831661062a576040517f96c6fd1e0000000000000000000000000000000000000000000000000000000081525f60048201526024016105be565b73ffffffffffffffffffffffffffffffffffffffff8216610679576040517fec442f050000000000000000000000000000000000000000000000000000000081525f60048201526024016105be565b61050383838361087d565b73ffffffffffffffffffffffffffffffffffffffff82166106d3576040517f96c6fd1e0000000000000000000000000000000000000000000000000000000081525f60048201526024016105be565b61040a825f8361087d565b73ffffffffffffffffffffffffffffffffffffffff821661072d576040517fec442f050000000000000000000000000000000000000000000000000000000081525f60048201526024016105be565b61040a5f838361087d565b73ffffffffffffffffffffffffffffffffffffffff8416610787576040517fe602df050000000000000000000000000000000000000000000000000000000081525f60048201526024016105be565b73ffffffffffffffffffffffffffffffffffffffff83166107d6576040517f94280d620000000000000000000000000000000000000000000000000000000081525f60048201526024016105be565b73ffffffffffffffffffffffffffffffffffffffff8085165f90815260016020908152604080832093871683529290522082905580156105d5578273ffffffffffffffffffffffffffffffffffffffff168473ffffffffffffffffffffffffffffffffffffffff167f8c5be1e5ebec7d5bd14f71427d1e84f3dd0314c0f7b2291e5b200ac8c7c3b9258460405161086f91815260200190565b60405180910390a350505050565b73ffffffffffffffffffffffffffffffffffffffff83166108b4578060025f8282546108a99190610c55565b909155506109649050565b73ffffffffffffffffffffffffffffffffffffffff83165f9081526020819052604090205481811015610939576040517fe450d38c00000000000000000000000000000000000000000000000000000000815273ffffffffffffffffffffffffffffffffffffffff8516600482015260248101829052604481018390526064016105be565b73ffffffffffffffffffffffffffffffffffffffff84165f9081526020819052604090209082900390555b73ffffffffffffffffffffffffffffffffffffffff821661098d576002805482900390556109b8565b73ffffffffffffffffffffffffffffffffffffffff82165f9081526020819052604090208054820190555b8173ffffffffffffffffffffffffffffffffffffffff168373ffffffffffffffffffffffffffffffffffffffff167fddf252ad1be2c89b69c2b068fc378daa952ba7f163c4a11628f55a4df523b3ef83604051610a1791815260200190565b60405180910390a3505050565b602081525f82518060208401528060208501604085015e5f6040828501015260407fffffffffffffffffffffffffffffffffffffffffffffffffffffffffffffffe0601f83011684010191505092915050565b803573ffffffffffffffffffffffffffffffffffffffff81168114610a9a575f5ffd5b919050565b5f5f60408385031215610ab0575f5ffd5b610ab983610a77565b946020939093013593505050565b5f5f5f60608486031215610ad9575f5ffd5b610ae284610a77565b9250610af060208501610a77565b929592945050506040919091013590565b5f60208284031215610b11575f5ffd5b5035919050565b5f60208284031215610b28575f5ffd5b610b3182610a77565b9392505050565b5f5f60408385031215610b49575f5ffd5b610b5283610a77565b9150610b6060208401610a77565b90509250929050565b600181811c90821680610b7d57607f821691505b602082108103610bb4577f4e487b71000000000000000000000000000000000000000000000000000000005f52602260045260245ffd5b50919050565b7f4e487b71000000000000000000000000000000000000000000000000000000005f52601160045260245ffd5b808202811582820484141761030157610301610bba565b5f82610c31577f4e487b71000000000000000000000000000000000000000000000000000000005f52601260045260245ffd5b500490565b5f60208284031215610c46575f5ffd5b81518015158114610b31575f5ffd5b8082018082111561030157610301610bba56fea164736f6c634300081d000a","linkReferences":{}},"methodIdentifiers":{"allowance(address,address)":"dd62ed3e","approve(address,uint256)":"095ea7b3","balanceOf(address)":"70a08231","decimals()":"313ce567","deposit(uint256)":"b6b55f25","name()":"06fdde03","symbol()":"95d89b41","token()":"fc0c546a","tokenPrecision()":"b5855eca","totalSupply()":"18160ddd","transfer(address,uint256)":"a9059cbb","transferFrom(address,address,uint256)":"23b872dd","withdraw(uint256)":"2e1a7d4d"},"id":103}