{"abi":[{"type":"constructor","inputs":[{"name":"_price","type":"int256","internalType":"int256"}],"stateMutability":"nonpayable"},{"type":"function","name":"SEQUENCER_UPTIME_GRACE_PERIOD","inputs":[],"outputs":[{"name":"","type":"uint256","internalType":"uint256"}],"stateMutability":"view"},{"type":"function","name":"decimals","inputs":[],"outputs":[{"name":"","type":"uint8","internalType":"uint8"}],"stateMutability":"view"},{"type":"function","name":"description","inputs":[],"outputs":[{"name":"","type":"string","internalType":"string"}],"stateMutability":"view"},{"type":"function","name":"getAnswer","inputs":[{"name":"","type":"uint256","internalType":"uint256"}],"outputs":[{"name":"","type":"int256","internalType":"int256"}],"stateMutability":"pure"},{"type":"function","name":"getRoundData","inputs":[{"name":"","type":"uint80","internalType":"uint80"}],"outputs":[{"name":"","type":"uint80","internalType":"uint80"},{"name":"","type":"int256","internalType":"int256"},{"name":"","type":"uint256","internalType":"uint256"},{"name":"","type":"uint256","internalType":"uint256"},{"name":"","type":"uint80","internalType":"uint80"}],"stateMutability":"pure"},{"type":"function","name":"getTimestamp","inputs":[{"name":"","type":"uint256","internalType":"uint256"}],"outputs":[{"name":"","type":"uint256","internalType":"uint256"}],"stateMutability":"pure"},{"type":"function","name":"latestAnswer","inputs":[],"outputs":[{"name":"answer","type":"int256","internalType":"int256"}],"stateMutability":"view"},{"type":"function","name":"latestRound","inputs":[],"outputs":[{"name":"roundId","type":"uint256","internalType":"uint256"}],"stateMutability":"view"},{"type":"function","name":"latestRoundData","inputs":[],"outputs":[{"name":"roundId","type":"uint80","internalType":"uint80"},{"name":"answer","type":"int256","internalType":"int256"},{"name":"startedAt","type":"uint256","internalType":"uint256"},{"name":"updatedAt","type":"uint256","internalType":"uint256"},{"name":"answeredInRound","type":"uint80","internalType":"uint80"}],"stateMutability":"view"},{"type":"function","name":"latestTimestamp","inputs":[],"outputs":[{"name":"updatedAt","type":"uint256","internalType":"uint256"}],"stateMutability":"view"},{"type":"function","name":"price","inputs":[],"outputs":[{"name":"","type":"int256","internalType":"int256"}],"stateMutability":"view"},{"type":"function","name":"sequencerUptimeOracle","inputs":[],"outputs":[{"name":"","type":"address","internalType":"contract AggregatorV2V3Interface"}],"stateMutability":"view"},{"type":"function","name":"setPrice","inputs":[{"name":"_price","type":"int256","internalType":"int256"}],"outputs":[],"stateMutability":"nonpayable"},{"type":"function","name":"version","inputs":[],"outputs":[{"name":"","type":"uint256","internalType":"uint256"}],"stateMutability":"view"}],"bytecode":{"object":"0x60a060405234801561000f575f5ffd5b5060405161080c38038061080c83398101604081905261002e91610071565b60408051808201909152600a8152694d6f636b4f7261636c6560b01b60208201525f8061005b8382610120565b506001600160a01b0316608052506001556101da565b5f60208284031215610081575f5ffd5b5051919050565b634e487b7160e01b5f52604160045260245ffd5b600181811c908216806100b057607f821691505b6020821081036100ce57634e487b7160e01b5f52602260045260245ffd5b50919050565b601f82111561011b57805f5260205f20601f840160051c810160208510156100f95750805b601f840160051c820191505b81811015610118575f8155600101610105565b50505b505050565b81516001600160401b0381111561013957610139610088565b61014d81610147845461009c565b846100d4565b6020601f82116001811461017f575f83156101685750848201515b5f19600385901b1c1916600184901b178455610118565b5f84815260208120601f198516915b828110156101ae578785015182556020948501946001909201910161018e565b50848210156101cb57868401515f19600387901b60f8161c191681555b50505050600190811b01905550565b60805161060c6102005f395f81816101a4015281816102bf01526102fd015261060c5ff3fe608060405234801561000f575f5ffd5b50600436106100e5575f3560e01c8063a035b1fe11610088578063c15ef47a11610063578063c15ef47a1461019f578063dc60eac9146101eb578063f7a30806146101f4578063feaf968c14610209575f5ffd5b8063a035b1fe14610188578063b5ab58dc14610191578063b633620c14610191575f5ffd5b8063668a0f02116100c3578063668a0f02146101225780637284e416146101285780638205bf6a1461013d5780639a6fc8f514610143575f5ffd5b8063313ce567146100e957806350d25bcd1461010857806354fd4d501461011a575b5f5ffd5b6100f1601281565b60405160ff90911681526020015b60405180910390f35b6001545b6040519081526020016100ff565b61010c600181565b5f61010c565b610130610211565b6040516100ff9190610476565b4261010c565b6101516100e53660046104e3565b6040805169ffffffffffffffffffff968716815260208101959095528401929092526060830152909116608082015260a0016100ff565b61010c60015481565b61010c6100e5366004610505565b6101c67f000000000000000000000000000000000000000000000000000000000000000081565b60405173ffffffffffffffffffffffffffffffffffffffff90911681526020016100ff565b61010c610e1081565b610207610202366004610505565b600155565b005b61015161029c565b5f805461021d9061051c565b80601f01602080910402602001604051908101604052809291908181526020018280546102499061051c565b80156102945780601f1061026b57610100808354040283529160200191610294565b820191905f5260205f20905b81548152906001019060200180831161027757829003601f168201915b505050505081565b5f5f5f5f5f6102a96102bd565b50506001545f949093504292508291508490565b7f000000000000000000000000000000000000000000000000000000000000000073ffffffffffffffffffffffffffffffffffffffff1615610474575f5f7f000000000000000000000000000000000000000000000000000000000000000073ffffffffffffffffffffffffffffffffffffffff1663feaf968c6040518163ffffffff1660e01b815260040160a060405180830381865afa158015610364573d5f5f3e3d5ffd5b505050506040513d601f19601f82011682018060405250810190610388919061056d565b50509250925050815f146103fd576040517f08c379a000000000000000000000000000000000000000000000000000000000815260206004820152600e60248201527f53657175656e63657220446f776e00000000000000000000000000000000000060448201526064015b60405180910390fd5b61040781426105c1565b610e1010610471576040517f08c379a000000000000000000000000000000000000000000000000000000000815260206004820152601660248201527f53657175656e63657220477261636520506572696f640000000000000000000060448201526064016103f4565b50505b565b602081525f82518060208401528060208501604085015e5f6040828501015260407fffffffffffffffffffffffffffffffffffffffffffffffffffffffffffffffe0601f83011684010191505092915050565b69ffffffffffffffffffff811681146104e0575f5ffd5b50565b5f602082840312156104f3575f5ffd5b81356104fe816104c9565b9392505050565b5f60208284031215610515575f5ffd5b5035919050565b600181811c9082168061053057607f821691505b602082108103610567577f4e487b71000000000000000000000000000000000000000000000000000000005f52602260045260245ffd5b50919050565b5f5f5f5f5f60a08688031215610581575f5ffd5b855161058c816104c9565b60208701516040880151606089015160808a0151939850919650945092506105b3816104c9565b809150509295509295909350565b818103818111156105f9577f4e487b71000000000000000000000000000000000000000000000000000000005f52601160045260245ffd5b9291505056fea164736f6c634300081d000a","linkReferences":{}},"methodIdentifiers":{"SEQUENCER_UPTIME_GRACE_PERIOD()":"dc60eac9","decimals()":"313ce567","description()":"7284e416","getAnswer(uint256)":"b5ab58dc","getRoundData(uint80)":"9a6fc8f5","getTimestamp(uint256)":"b633620c","latestAnswer()":"50d25bcd","latestRound()":"668a0f02","latestRoundData()":"feaf968c","latestTimestamp()":"8205bf6a","price()":"a035b1fe","sequencerUptimeOracle()":"c15ef47a","setPrice(int256)":"f7a30806","version()":"54fd4d50"},"id":103}