{"abi":[{"type":"constructor","inputs":[{"name":"_asset","type":"address","internalType":"address"},{"name":"_yieldToken","type":"address","internalType":"address"},{"name":"_feeRate","type":"uint256","internalType":"uint256"},{"name":"_rewardManager","type":"address","internalType":"address"}],"stateMutability":"nonpayable"},{"type":"fallback","stateMutability":"nonpayable"},{"type":"function","name":"REWARD_MANAGER","inputs":[],"outputs":[{"name":"","type":"address","internalType":"contract IRewardManager"}],"stateMutability":"view"},{"type":"function","name":"allowTransfer","inputs":[{"name":"to","type":"address","internalType":"address"},{"name":"amount","type":"uint256","internalType":"uint256"},{"name":"currentAccount","type":"address","internalType":"address"}],"outputs":[],"stateMutability":"nonpayable"},{"type":"function","name":"allowance","inputs":[{"name":"owner","type":"address","internalType":"address"},{"name":"spender","type":"address","internalType":"address"}],"outputs":[{"name":"","type":"uint256","internalType":"uint256"}],"stateMutability":"view"},{"type":"function","name":"approve","inputs":[{"name":"spender","type":"address","internalType":"address"},{"name":"value","type":"uint256","internalType":"uint256"}],"outputs":[{"name":"","type":"bool","internalType":"bool"}],"stateMutability":"nonpayable"},{"type":"function","name":"asset","inputs":[],"outputs":[{"name":"","type":"address","internalType":"address"}],"stateMutability":"view"},{"type":"function","name":"balanceOf","inputs":[{"name":"account","type":"address","internalType":"address"}],"outputs":[{"name":"","type":"uint256","internalType":"uint256"}],"stateMutability":"view"},{"type":"function","name":"burnShares","inputs":[{"name":"sharesOwner","type":"address","internalType":"address"},{"name":"sharesToBurn","type":"uint256","internalType":"uint256"},{"name":"sharesHeld","type":"uint256","internalType":"uint256"},{"name":"redeemData","type":"bytes","internalType":"bytes"}],"outputs":[{"name":"assetsWithdrawn","type":"uint256","internalType":"uint256"}],"stateMutability":"nonpayable"},{"type":"function","name":"claimAccountRewards","inputs":[{"name":"account","type":"address","internalType":"address"},{"name":"sharesHeld","type":"uint256","internalType":"uint256"}],"outputs":[{"name":"rewards","type":"uint256[]","internalType":"uint256[]"}],"stateMutability":"nonpayable"},{"type":"function","name":"clearCurrentAccount","inputs":[],"outputs":[],"stateMutability":"nonpayable"},{"type":"function","name":"collectFees","inputs":[],"outputs":[],"stateMutability":"nonpayable"},{"type":"function","name":"convertSharesToYieldToken","inputs":[{"name":"shares","type":"uint256","internalType":"uint256"}],"outputs":[{"name":"","type":"uint256","internalType":"uint256"}],"stateMutability":"view"},{"type":"function","name":"convertToAssets","inputs":[{"name":"shares","type":"uint256","internalType":"uint256"}],"outputs":[{"name":"","type":"uint256","internalType":"uint256"}],"stateMutability":"view"},{"type":"function","name":"convertToShares","inputs":[{"name":"assets","type":"uint256","internalType":"uint256"}],"outputs":[{"name":"","type":"uint256","internalType":"uint256"}],"stateMutability":"view"},{"type":"function","name":"convertYieldTokenToAsset","inputs":[],"outputs":[{"name":"","type":"uint256","internalType":"uint256"}],"stateMutability":"view"},{"type":"function","name":"convertYieldTokenToShares","inputs":[{"name":"yieldTokens","type":"uint256","internalType":"uint256"}],"outputs":[{"name":"","type":"uint256","internalType":"uint256"}],"stateMutability":"view"},{"type":"function","name":"decimals","inputs":[],"outputs":[{"name":"","type":"uint8","internalType":"uint8"}],"stateMutability":"view"},{"type":"function","name":"effectiveSupply","inputs":[],"outputs":[{"name":"","type":"uint256","internalType":"uint256"}],"stateMutability":"view"},{"type":"function","name":"feeRate","inputs":[],"outputs":[{"name":"","type":"uint256","internalType":"uint256"}],"stateMutability":"view"},{"type":"function","name":"feesAccrued","inputs":[],"outputs":[{"name":"feesAccruedInYieldToken","type":"uint256","internalType":"uint256"}],"stateMutability":"view"},{"type":"function","name":"initialize","inputs":[{"name":"data","type":"bytes","internalType":"bytes"}],"outputs":[],"stateMutability":"nonpayable"},{"type":"function","name":"initiateWithdraw","inputs":[{"name":"account","type":"address","internalType":"address"},{"name":"sharesHeld","type":"uint256","internalType":"uint256"},{"name":"data","type":"bytes","internalType":"bytes"}],"outputs":[{"name":"requestId","type":"uint256","internalType":"uint256"}],"stateMutability":"nonpayable"},{"type":"function","name":"initiateWithdrawNative","inputs":[{"name":"data","type":"bytes","internalType":"bytes"}],"outputs":[{"name":"requestId","type":"uint256","internalType":"uint256"}],"stateMutability":"nonpayable"},{"type":"function","name":"mintShares","inputs":[{"name":"assetAmount","type":"uint256","internalType":"uint256"},{"name":"receiver","type":"address","internalType":"address"},{"name":"depositData","type":"bytes","internalType":"bytes"}],"outputs":[{"name":"sharesMinted","type":"uint256","internalType":"uint256"}],"stateMutability":"nonpayable"},{"type":"function","name":"name","inputs":[],"outputs":[{"name":"","type":"string","internalType":"string"}],"stateMutability":"view"},{"type":"function","name":"postLiquidation","inputs":[{"name":"liquidator","type":"address","internalType":"address"},{"name":"liquidateAccount","type":"address","internalType":"address"},{"name":"sharesToLiquidator","type":"uint256","internalType":"uint256"}],"outputs":[],"stateMutability":"nonpayable"},{"type":"function","name":"preLiquidation","inputs":[{"name":"liquidator","type":"address","internalType":"address"},{"name":"liquidateAccount","type":"address","internalType":"address"},{"name":"sharesToLiquidate","type":"uint256","internalType":"uint256"},{"name":"accountSharesHeld","type":"uint256","internalType":"uint256"}],"outputs":[],"stateMutability":"nonpayable"},{"type":"function","name":"price","inputs":[],"outputs":[{"name":"","type":"uint256","internalType":"uint256"}],"stateMutability":"view"},{"type":"function","name":"price","inputs":[{"name":"borrower","type":"address","internalType":"address"}],"outputs":[{"name":"","type":"uint256","internalType":"uint256"}],"stateMutability":"nonpayable"},{"type":"function","name":"redeemNative","inputs":[{"name":"sharesToRedeem","type":"uint256","internalType":"uint256"},{"name":"redeemData","type":"bytes","internalType":"bytes"}],"outputs":[{"name":"assetsWithdrawn","type":"uint256","internalType":"uint256"}],"stateMutability":"nonpayable"},{"type":"function","name":"symbol","inputs":[],"outputs":[{"name":"","type":"string","internalType":"string"}],"stateMutability":"view"},{"type":"function","name":"totalAssets","inputs":[],"outputs":[{"name":"","type":"uint256","internalType":"uint256"}],"stateMutability":"view"},{"type":"function","name":"totalSupply","inputs":[],"outputs":[{"name":"","type":"uint256","internalType":"uint256"}],"stateMutability":"view"},{"type":"function","name":"transfer","inputs":[{"name":"to","type":"address","internalType":"address"},{"name":"value","type":"uint256","internalType":"uint256"}],"outputs":[{"name":"","type":"bool","internalType":"bool"}],"stateMutability":"nonpayable"},{"type":"function","name":"transferFrom","inputs":[{"name":"from","type":"address","internalType":"address"},{"name":"to","type":"address","internalType":"address"},{"name":"value","type":"uint256","internalType":"uint256"}],"outputs":[{"name":"","type":"bool","internalType":"bool"}],"stateMutability":"nonpayable"},{"type":"function","name":"yieldToken","inputs":[],"outputs":[{"name":"","type":"address","internalType":"address"}],"stateMutability":"view"},{"type":"event","name":"Approval","inputs":[{"name":"owner","type":"address","indexed":true,"internalType":"address"},{"name":"spender","type":"address","indexed":true,"internalType":"address"},{"name":"value","type":"uint256","indexed":false,"internalType":"uint256"}],"anonymous":false},{"type":"event","name":"Transfer","inputs":[{"name":"from","type":"address","indexed":true,"internalType":"address"},{"name":"to","type":"address","indexed":true,"internalType":"address"},{"name":"value","type":"uint256","indexed":false,"internalType":"uint256"}],"anonymous":false},{"type":"event","name":"VaultCreated","inputs":[{"name":"vault","type":"address","indexed":true,"internalType":"address"}],"anonymous":false},{"type":"error","name":"CannotEnterPosition","inputs":[]},{"type":"error","name":"CannotLiquidateZeroShares","inputs":[]},{"type":"error","name":"CurrentAccountAlreadySet","inputs":[]},{"type":"error","name":"ERC20InsufficientAllowance","inputs":[{"name":"spender","type":"address","internalType":"address"},{"name":"allowance","type":"uint256","internalType":"uint256"},{"name":"needed","type":"uint256","internalType":"uint256"}]},{"type":"error","name":"ERC20InsufficientBalance","inputs":[{"name":"sender","type":"address","internalType":"address"},{"name":"balance","type":"uint256","internalType":"uint256"},{"name":"needed","type":"uint256","internalType":"uint256"}]},{"type":"error","name":"ERC20InvalidApprover","inputs":[{"name":"approver","type":"address","internalType":"address"}]},{"type":"error","name":"ERC20InvalidReceiver","inputs":[{"name":"receiver","type":"address","internalType":"address"}]},{"type":"error","name":"ERC20InvalidSender","inputs":[{"name":"sender","type":"address","internalType":"address"}]},{"type":"error","name":"ERC20InvalidSpender","inputs":[{"name":"spender","type":"address","internalType":"address"}]},{"type":"error","name":"InsufficientSharesHeld","inputs":[]},{"type":"error","name":"InvalidInitialization","inputs":[]},{"type":"error","name":"ReentrancyGuardReentrantCall","inputs":[]},{"type":"error","name":"SafeERC20FailedOperation","inputs":[{"name":"token","type":"address","internalType":"address"}]},{"type":"error","name":"Unauthorized","inputs":[{"name":"caller","type":"address","internalType":"address"}]},{"type":"error","name":"UnauthorizedLendingMarketTransfer","inputs":[{"name":"from","type":"address","internalType":"address"},{"name":"to","type":"address","internalType":"address"},{"name":"value","type":"uint256","internalType":"uint256"}]}],"bytecode":{"object":"0x610160604052348015610010575f5ffd5b5060405161440f38038061440f83398101604081905261002f9161027c565b83838383866001600160a01b031663313ce5676040518163ffffffff1660e01b8152600401602060405180830381865afa15801561006f573d5f5f3e3d5ffd5b505050506040513d601f19601f8201168201806040525081019061009391906102ce565b60408051602080820183525f8083528351918201909352828152825460ff191660011790925586918691869185919060046100ce838261038d565b5060056100db828261038d565b50505060c08290526001600160a01b03808516608052831660a05260ff811661010052610107846101af565b60ff1661012052505050506001600160a01b0391821661014052506040516324a1f5eb60e21b81529087166004820152735615deb798bb3e4dfa0139dfa1b3d433cc23b72f9350639287d7ac92506024019050602060405180830381865afa158015610175573d5f5f3e3d5ffd5b505050506040513d601f19601f820116820180604052508101906101999190610447565b6001600160a01b031660e0525061046292505050565b5f6001600160a01b03821615806101e257506001600160a01b03821673eeeeeeeeeeeeeeeeeeeeeeeeeeeeeeeeeeeeeeee145b61024b57816001600160a01b031663313ce5676040518163ffffffff1660e01b8152600401602060405180830381865afa158015610222573d5f5f3e3d5ffd5b505050506040513d601f19601f8201168201806040525081019061024691906102ce565b61024e565b60125b905060128160ff161115610260575f5ffd5b919050565b6001600160a01b0381168114610279575f5ffd5b50565b5f5f5f5f6080858703121561028f575f5ffd5b845161029a81610265565b60208601519094506102ab81610265565b6040860151606087015191945092506102c381610265565b939692955090935050565b5f602082840312156102de575f5ffd5b815160ff811681146102ee575f5ffd5b9392505050565b634e487b7160e01b5f52604160045260245ffd5b600181811c9082168061031d57607f821691505b60208210810361033b57634e487b7160e01b5f52602260045260245ffd5b50919050565b601f82111561038857805f5260205f20601f840160051c810160208510156103665750805b601f840160051c820191505b81811015610385575f8155600101610372565b50505b505050565b81516001600160401b038111156103a6576103a66102f5565b6103ba816103b48454610309565b84610341565b6020601f8211600181146103ec575f83156103d55750848201515b5f19600385901b1c1916600184901b178455610385565b5f84815260208120601f198516915b8281101561041b57878501518255602094850194600190920191016103fb565b508482101561043857868401515f19600387901b60f8161c191681555b50505050600190811b01905550565b5f60208284031215610457575f5ffd5b81516102ee81610265565b60805160a05160c05160e051610100516101205161014051613e8a6105855f395f81816102410152818161044201526122a501525f81816116b10152611b9b01525f81816116f20152611b6601525f818161072c015281816107ce01528181611d6901528181611dd801528181612964015281816129d801528181612b2301528181612c28015281816131ef01526132bd01525f81816104f001526122f901525f81816104b101528181611a05015281816121100152818161250601528181612d3401528181612df401528181612eeb01528181612fc1015261322001525f81816103db0152818161079c01528181610a3c01528181610c5a01528181611a2d01528181611b2001528181612682015281816126df0152612f1a0152613e8a5ff3fe608060405234801561000f575f5ffd5b506004361061023f575f3560e01c806376d5de8511610143578063aea91078116100bb578063c87965721161008a578063dd62ed3e1161006f578063dd62ed3e146105af578063e0b4327d146105e7578063eb9b1912146105ef5761023f565b8063c879657214610594578063cc351ac51461059c5761023f565b8063aea9107814610553578063b35cb45d14610566578063b905a4ff1461056e578063c6e6f592146105815761023f565b8063978bbdb91161011257806398dce16d116100f757806398dce16d14610525578063a035b1fe14610538578063a9059cbb146105405761023f565b8063978bbdb9146104eb57806398476c2b146105125761023f565b806376d5de85146104ac5780638fc47093146104d357806394db0595146104db57806395d89b41146104e35761023f565b806323b872dd116101d6578063439fab91116101a55780635932fdba1161018a5780635932fdba1461043d57806366ab3b721461046457806370a08231146104845761023f565b8063439fab911461041557806357831a041461042a5761023f565b806323b872dd146103a157806325565931146103b4578063313ce567146103c757806338d52e0f146103d65761023f565b80630db734d4116102125780630db734d414610360578063127af7f914610373578063131b822d1461038657806318160ddd146103995761023f565b806301e1d114146102fa57806306fdde031461031557806307a2d13a1461032a578063095ea7b31461033d575b7f00000000000000000000000000000000000000000000000000000000000000007fb64579f3000000000000000000000000000000000000000000000000000000005f357fffffffff0000000000000000000000000000000000000000000000000000000016016102ae575f5ffd5b5f6102ee825f368080601f0160208091040260200160405190810160405280939291908181526020018383808284375f9201919091525061060292505050565b90508051602082018181f35b610302610673565b6040519081526020015b60405180910390f35b61031d610685565b60405161030c919061338d565b61030261033836600461339f565b610715565b61035061034b3660046133cd565b610859565b604051901515815260200161030c565b61030261036e36600461343c565b610870565b6103026103813660046134a1565b610a97565b61030261039436600461362e565b610d40565b600354610302565b6103506103af366004613660565b610d5b565b6103026103c236600461339f565b610d80565b6040516012815260200161030c565b6103fd7f000000000000000000000000000000000000000000000000000000000000000081565b6040516001600160a01b03909116815260200161030c565b61042861042336600461369e565b610dc3565b005b6103026104383660046136dd565b610e37565b6103fd7f000000000000000000000000000000000000000000000000000000000000000081565b6104776104723660046133cd565b61100d565b60405161030c919061371d565b61030261049236600461375f565b6001600160a01b03165f9081526001602052604090205490565b6103fd7f000000000000000000000000000000000000000000000000000000000000000081565b610302611119565b61030261113e565b61031d611154565b6103027f000000000000000000000000000000000000000000000000000000000000000081565b61042861052036600461377a565b611163565b610428610533366004613660565b611322565b610302611499565b61035061054e3660046133cd565b6114c1565b61030261056136600461375f565b6114ce565b610428611559565b61030261057c36600461339f565b61167b565b61030261058f36600461339f565b6116aa565b610428611741565b6104286105aa3660046137b9565b6117ce565b6103026105bd3660046137fc565b6001600160a01b039182165f90815260026020908152604080832093909416825291909152205490565b6103026119d5565b6103026105fd366004613833565b611ab3565b60605f836001600160a01b03168360405161061d9190613877565b5f60405180830381855af49150503d805f8114610655576040519150601f19603f3d011682016040523d82523d5f602084013e61065a565b606091505b50925090508061066c573d5f5f3e3d5ffd5b5092915050565b5f61068061033860035490565b905090565b6060600680546106949061388d565b80601f01602080910402602001604051908101604052809291908181526020018280546106c09061388d565b801561070b5780601f106106e25761010080835404028352916020019161070b565b820191905f5260205f20905b8154815290600101906020018083116106ee57829003601f168201915b5050505050905090565b5f805c6001600160a01b03161580159061075757507f00000000000000000000000000000000000000000000000000000000000000006001600160a01b031615155b1561084a576040517f32df6ff20000000000000000000000000000000000000000000000000000000081523060048201526001600160a01b035f805c821660248401527f000000000000000000000000000000000000000000000000000000000000000082166044840152606483018590529182917f000000000000000000000000000000000000000000000000000000000000000016906332df6ff2906084016040805180830381865afa158015610812573d5f5f3e3d5ffd5b505050506040513d601f19601f8201168201806040525081019061083691906138f2565b915091508115610847579392505050565b50505b61085382611b50565b92915050565b5f33610866818585611be7565b5060019392505050565b6040517f46f74dce0000000000000000000000000000000000000000000000000000000081523360048201525f90735615deb798bb3e4dfa0139dfa1b3d433cc23b72f906346f74dce90602401602060405180830381865afa1580156108d8573d5f5f3e3d5ffd5b505050506040513d601f19601f820116820180604052508101906108fc919061391c565b15155f0361093d576040517f8e4a23d60000000000000000000000000000000000000000000000000000000081523360048201526024015b60405180910390fd5b336001805c73ffffffffffffffffffffffffffffffffffffffff19168217905d50855f5c6001600160a01b031661099c57805f805c73ffffffffffffffffffffffffffffffffffffffff19166001600160a01b03831617905d506109e3565b5f5c6001600160a01b03908116908216146109e3576040517f391fea3c00000000000000000000000000000000000000000000000000000000815260040160405180910390fd5b6109eb611bf9565b610a2d868686868080601f0160208091040260200160405190810160405280939291908181526020018383808284375f920191909152508d9250611c81915050565b9150610a686001600160a01b037f000000000000000000000000000000000000000000000000000000000000000081169060015c1684611cc8565b610a70611d3c565b506001805c73ffffffffffffffffffffffffffffffffffffffff1916905d95945050505050565b6040517f46f74dce0000000000000000000000000000000000000000000000000000000081523360048201525f90735615deb798bb3e4dfa0139dfa1b3d433cc23b72f906346f74dce90602401602060405180830381865afa158015610aff573d5f5f3e3d5ffd5b505050506040513d601f19601f82011682018060405250810190610b23919061391c565b15155f03610b5f576040517f8e4a23d6000000000000000000000000000000000000000000000000000000008152336004820152602401610934565b336001805c73ffffffffffffffffffffffffffffffffffffffff19168217905d50835f5c6001600160a01b0316610bbe57805f805c73ffffffffffffffffffffffffffffffffffffffff19166001600160a01b03831617905d50610c05565b5f5c6001600160a01b0390811690821614610c05576040517f391fea3c00000000000000000000000000000000000000000000000000000000815260040160405180910390fd5b610c0d611bf9565b610c1685611d66565b15610c4d576040517f1bb8b5b100000000000000000000000000000000000000000000000000000000815260040160405180910390fd5b610c876001600160a01b037f000000000000000000000000000000000000000000000000000000000000000081169060015c163089611e41565b610cc88685858080601f0160208091040260200160405190810160405280939291908181526020018383808284375f920191909152508a9250611e80915050565b915060015c6001600160a01b03166002805c73ffffffffffffffffffffffffffffffffffffffff19168217905d50818060035d50610d12856001600160a01b0360015c1684611f47565b610d1a611d3c565b506001805c73ffffffffffffffffffffffffffffffffffffffff1916905d949350505050565b335f8181526001602052604081205490916108539184611fd6565b5f33610d68858285612051565b610d73858585611f47565b60019150505b9392505050565b5f6001610d8b61113e565b610d936120e0565b610d9d9190613962565b610da79190613975565b610daf611119565b610db99084613988565b610853919061399f565b5f5460ff1615610dff576040517ff92ee8a900000000000000000000000000000000000000000000000000000000815260040160405180910390fd5b5f80547fffffffffffffffffffffffffffffffffffffffffffffffffffffffffffffff00166001179055610e338282612181565b5050565b6040517f46f74dce0000000000000000000000000000000000000000000000000000000081523360048201525f90735615deb798bb3e4dfa0139dfa1b3d433cc23b72f906346f74dce90602401602060405180830381865afa158015610e9f573d5f5f3e3d5ffd5b505050506040513d601f19601f82011682018060405250810190610ec3919061391c565b15155f03610eff576040517f8e4a23d6000000000000000000000000000000000000000000000000000000008152336004820152602401610934565b336001805c73ffffffffffffffffffffffffffffffffffffffff19168217905d50845f5c6001600160a01b0316610f5e57805f805c73ffffffffffffffffffffffffffffffffffffffff19166001600160a01b03831617905d50610fa5565b5f5c6001600160a01b0390811690821614610fa5576040517f391fea3c00000000000000000000000000000000000000000000000000000000815260040160405180910390fd5b610fe5868686868080601f0160208091040260200160405190810160405280939291908181526020018383808284375f92019190915250611fd692505050565b9150506001805c73ffffffffffffffffffffffffffffffffffffffff1916905d949350505050565b6060611017611bf9565b5f611020611119565b6040517f46f74dce000000000000000000000000000000000000000000000000000000008152336004820152909150735615deb798bb3e4dfa0139dfa1b3d433cc23b72f906346f74dce90602401602060405180830381865afa158015611089573d5f5f3e3d5ffd5b505050506040513d601f19601f820116820180604052508101906110ad919061391c565b6110cc576001600160a01b0384165f9081526001602052604090205492505b8215806110dd57506110dd84611d66565b156110e85750611111565b5f6110f6858386875f61220e565b90508080602001905181019061110c91906139d7565b925050505b610853611d3c565b5f620f4240600a5461112a60035490565b6111349190613962565b6106809190613975565b5f6111476122d4565b6009546106809190613975565b6060600780546106949061388d565b805f5c6001600160a01b03166111a157805f805c73ffffffffffffffffffffffffffffffffffffffff19166001600160a01b03831617905d506111e8565b5f5c6001600160a01b03908116908216146111e8576040517f391fea3c00000000000000000000000000000000000000000000000000000000815260040160405180910390fd5b6040517f46f74dce000000000000000000000000000000000000000000000000000000008152336004820152735615deb798bb3e4dfa0139dfa1b3d433cc23b72f906346f74dce90602401602060405180830381865afa15801561124e573d5f5f3e3d5ffd5b505050506040513d601f19601f82011682018060405250810190611272919061391c565b15155f036112ae576040517f8e4a23d6000000000000000000000000000000000000000000000000000000008152336004820152602401610934565b336001805c73ffffffffffffffffffffffffffffffffffffffff19168217905d50836002805c73ffffffffffffffffffffffffffffffffffffffff19166001600160a01b03831617905d50828060035d506001805c73ffffffffffffffffffffffffffffffffffffffff1916905d50505050565b6040517f46f74dce000000000000000000000000000000000000000000000000000000008152336004820152735615deb798bb3e4dfa0139dfa1b3d433cc23b72f906346f74dce90602401602060405180830381865afa158015611388573d5f5f3e3d5ffd5b505050506040513d601f19601f820116820180604052508101906113ac919061391c565b15155f036113e8576040517f8e4a23d6000000000000000000000000000000000000000000000000000000008152336004820152602401610934565b336001805c73ffffffffffffffffffffffffffffffffffffffff19168217905d50826002805c73ffffffffffffffffffffffffffffffffffffffff19166001600160a01b03831617905d50808060035d5061144f6001600160a01b0360015c168483611f47565b61145a838383612411565b505f805c73ffffffffffffffffffffffffffffffffffffffff1916905d6001805c73ffffffffffffffffffffffffffffffffffffffff1916905d505050565b5f6114b2610338620f4240670de0b6b3a7640000613988565b6106809064e8d4a51000613988565b5f33610866818585611f47565b5f6001600160a01b03815c81811691849190821673ffffffffffffffffffffffffffffffffffffffff1990911617835d505f611518610338620f4240670de0b6b3a7640000613988565b6115279064e8d4a51000613988565b9050815f805c73ffffffffffffffffffffffffffffffffffffffff19166001600160a01b03831617905d509392505050565b6040517f46f74dce000000000000000000000000000000000000000000000000000000008152336004820152735615deb798bb3e4dfa0139dfa1b3d433cc23b72f906346f74dce90602401602060405180830381865afa1580156115bf573d5f5f3e3d5ffd5b505050506040513d601f19601f820116820180604052508101906115e3919061391c565b15155f0361161f576040517f8e4a23d6000000000000000000000000000000000000000000000000000000008152336004820152602401610934565b336001805c73ffffffffffffffffffffffffffffffffffffffff19168217905d505f805c73ffffffffffffffffffffffffffffffffffffffff1916905d6001805c73ffffffffffffffffffffffffffffffffffffffff1916905d565b5f611684611119565b600161168e61113e565b6116966120e0565b6116a09190613962565b610daf9190613975565b5f806116d77f0000000000000000000000000000000000000000000000000000000000000000600a613b66565b6116df6119d5565b6116e99190613988565b611717601260ff7f000000000000000000000000000000000000000000000000000000000000000016613975565b61172290600a613b74565b61172c9085613988565b611736919061399f565b9050610d7981610d80565b611749612497565b6117c8735615deb798bb3e4dfa0139dfa1b3d433cc23b72f6001600160a01b031663b3f006746040518163ffffffff1660e01b8152600401602060405180830381865afa15801561179c573d5f5f3e3d5ffd5b505050506040513d601f19601f820116820180604052508101906117c09190613b7f565b6009546124f9565b5f600955565b6040517f46f74dce000000000000000000000000000000000000000000000000000000008152336004820152735615deb798bb3e4dfa0139dfa1b3d433cc23b72f906346f74dce90602401602060405180830381865afa158015611834573d5f5f3e3d5ffd5b505050506040513d601f19601f82011682018060405250810190611858919061391c565b15155f03611894576040517f8e4a23d6000000000000000000000000000000000000000000000000000000008152336004820152602401610934565b336001805c73ffffffffffffffffffffffffffffffffffffffff19168217905d50825f805c73ffffffffffffffffffffffffffffffffffffffff19166001600160a01b03831617905d506118e784611d66565b1561191e576040517f1bb8b5b100000000000000000000000000000000000000000000000000000000815260040160405180910390fd5b61192783611d66565b801561194857506001600160a01b0384165f90815260016020526040812054115b1561197f576040517f1bb8b5b100000000000000000000000000000000000000000000000000000000815260040160405180910390fd5b61198b8385848461252d565b336002805c73ffffffffffffffffffffffffffffffffffffffff19168217905d50818060035d506001805c73ffffffffffffffffffffffffffffffffffffffff1916905d50505050565b6040517f4c2d8eff0000000000000000000000000000000000000000000000000000000081526001600160a01b037f0000000000000000000000000000000000000000000000000000000000000000811660048301527f00000000000000000000000000000000000000000000000000000000000000001660248201525f90819073594734c7e06c3d483466adbce401c6bd269746c890634c2d8eff906044016040805180830381865afa158015611a8f573d5f5f3e3d5ffd5b505050506040513d601f19601f8201168201806040525081019061066c9190613b9a565b5f611abc611bf9565b335f9081526001602052604081205490819003611b05576040517f3a513ebe00000000000000000000000000000000000000000000000000000000815260040160405180910390fd5b611b1184828533611c81565b9150611b476001600160a01b037f0000000000000000000000000000000000000000000000000000000000000000163384611cc8565b50610853611d3c565b5f5f611b5b8361167b565b9050611b8b601260ff7f000000000000000000000000000000000000000000000000000000000000000016613975565b611b9690600a613b74565b611bc17f0000000000000000000000000000000000000000000000000000000000000000600a613b66565b611bc96119d5565b611bd39084613988565b611bdd9190613988565b610d79919061399f565b611bf48383836001612556565b505050565b7f9b779b17422d0df92223018b32b4d1fa46e071723d6817e2486d003becc55f005c15611c52576040517f3ee5aeb500000000000000000000000000000000000000000000000000000000815260040160405180910390fd5b611c7f60017f9b779b17422d0df92223018b32b4d1fa46e071723d6817e2486d003becc55f005b9061265a565b565b5f5f611c8b611119565b90505f611c9784611d66565b9050611ca587878787612661565b9250611cbd848388611cb78b82613962565b8561220e565b505050949350505050565b6040516001600160a01b03838116602483015260448201839052611bf491859182169063a9059cbb906064015b604051602081830303815290604052915060e01b6020820180517bffffffffffffffffffffffffffffffffffffffffffffffffffffffff8381831617835250505050612723565b611c7f5f7f9b779b17422d0df92223018b32b4d1fa46e071723d6817e2486d003becc55f00611c79565b5f7f00000000000000000000000000000000000000000000000000000000000000006001600160a01b03161580159061085357506040517f37504d9c0000000000000000000000000000000000000000000000000000000081523060048201526001600160a01b0383811660248301527f000000000000000000000000000000000000000000000000000000000000000016906337504d9c90604401602060405180830381865afa158015611e1d573d5f5f3e3d5ffd5b505050506040513d601f19601f82011682018060405250810190610853919061391c565b6040516001600160a01b038481166024830152838116604483015260648201839052611e7a9186918216906323b872dd90608401611cf5565b50505050565b5f5f611e8a611119565b6040517fda3a855f0000000000000000000000000000000000000000000000000000000081526001600160a01b0385811660048301523060248301529192505f9160015c169063da3a855f90604401602060405180830381865afa158015611ef4573d5f5f3e3d5ffd5b505050506040513d601f19601f82011682018060405250810190611f189190613bbc565b9050611f258686866127a8565b9250611f3d848383611f378782613975565b5f61220e565b5050509392505050565b6001600160a01b038316611f89576040517f96c6fd1e0000000000000000000000000000000000000000000000000000000081525f6004820152602401610934565b6001600160a01b038216611fcb576040517fec442f050000000000000000000000000000000000000000000000000000000081525f6004820152602401610934565b611bf4838383612831565b5f825f03612010576040517f3a513ebe00000000000000000000000000000000000000000000000000000000815260040160405180910390fd5b612018612497565b5f6120228461167b565b90506120308582868661293b565b915083600a5f8282546120439190613975565b909155509195945050505050565b6001600160a01b038381165f908152600260209081526040808320938616835292905220545f19811015611e7a57818110156120d2576040517ffb8f41b20000000000000000000000000000000000000000000000000000000081526001600160a01b03841660048201526024810182905260448101839052606401610934565b611e7a84848484035f612556565b6040517f70a082310000000000000000000000000000000000000000000000000000000081523060048201525f907f00000000000000000000000000000000000000000000000000000000000000006001600160a01b0316906370a0823190602401602060405180830381865afa15801561215d573d5f5f3e3d5ffd5b505050506040513d601f19601f820116820180604052508101906106809190613bbc565b5f8061218f83850185613bd3565b909250905060066121a08382613c6d565b5060076121ad8282613c6d565b50600880547fffffffffffffffffffffffffffffffffffffffffffffffffffffffff00000000164263ffffffff1617905560405130907f2e49a5810fda2439a23771848b4acec786b0a64d4de3d124ac57fc8739c38875905f90a250505050565b604080516001600160a01b038716602482015260448101869052606481018590526084810184905282151560a4808301919091528251808303909101815260c49091019091526020810180517bffffffffffffffffffffffffffffffffffffffffffffffffffffffff167f49ba860d000000000000000000000000000000000000000000000000000000001790526060906122ca907f000000000000000000000000000000000000000000000000000000000000000090610602565b9695505050505050565b6008545f9081906122eb9063ffffffff1642613962565b90505f6301e1338061231d837f0000000000000000000000000000000000000000000000000000000000000000613988565b612327919061399f565b9050805f03612338575f9250505090565b5f6009546123446120e0565b61234e9190613962565b90505f670de0b6b3a7640000612365816006613988565b61236f9190613988565b8361237a8180613988565b6123849190613988565b61238e919061399f565b6123a1670de0b6b3a76400006002613988565b6123ab8580613988565b6123b5919061399f565b6123c785670de0b6b3a7640000613975565b6123d19190613975565b6123db9190613975565b90505f816123f1670de0b6b3a764000085613988565b6123fb919061399f565b90506124078184613962565b9550505050505090565b5f5f61241b611119565b9050825f03612456576040517f96efcff800000000000000000000000000000000000000000000000000000000815260040160405180910390fd5b612461858585612961565b915061247b858260045c6124758782613975565b8661220e565b5061248e848260055c6124758782613962565b50509392505050565b6008544263ffffffff909116036124aa57565b6124b26122d4565b60095f8282546124c29190613975565b9091555050600880547fffffffffffffffffffffffffffffffffffffffffffffffffffffffff00000000164263ffffffff16179055565b610e336001600160a01b037f0000000000000000000000000000000000000000000000000000000000000000168383611cc8565b6001600160a01b0383165f908152600160205260409020548060045d50808060055d5050505050565b6001600160a01b038416612598576040517fe602df050000000000000000000000000000000000000000000000000000000081525f6004820152602401610934565b6001600160a01b0383166125da576040517f94280d620000000000000000000000000000000000000000000000000000000081525f6004820152602401610934565b6001600160a01b038085165f9081526002602090815260408083209387168352929052208290558015611e7a57826001600160a01b0316846001600160a01b03167f8c5be1e5ebec7d5bd14f71427d1e84f3dd0314c0f7b2291e5b200ac8c7c3b9258460405161264c91815260200190565b60405180910390a350505050565b80825d5050565b5f845f0361267057505f61271b565b5f61267a83611d66565b90505f6126a67f0000000000000000000000000000000000000000000000000000000000000000612a42565b90506126b0612497565b6126bc87858488612add565b81156126d95786600a5f8282546126d39190613962565b90915550505b5f6127037f0000000000000000000000000000000000000000000000000000000000000000612a42565b905061270f8282613962565b9350611cbd8589612e6e565b949350505050565b5f5f60205f8451602086015f885af180612742576040513d5f823e3d81fd5b50505f513d91508115612759578060011415612766565b6001600160a01b0384163b155b15611e7a576040517f5274afe70000000000000000000000000000000000000000000000000000000081526001600160a01b0385166004820152602401610934565b5f835f036127b757505f610d79565b6127bf612497565b5f6127c86120e0565b90506127d5858486612ebb565b5f816127df6120e0565b6127e99190613962565b905060016127f561113e565b6127ff9084613962565b6128099190613975565b612811611119565b61281b9083613988565b612825919061399f565b925061248e8484613033565b6001600160a01b0383161580159061285157506001600160a01b03821615155b156129305760025c6001600160a01b03908116908316146128b8576040517ffd351fc80000000000000000000000000000000000000000000000000000000081526001600160a01b0380851660048301528316602482015260448101829052606401610934565b8060035c101561290e576040517ffd351fc80000000000000000000000000000000000000000000000000000000081526001600160a01b0380851660048301528316602482015260448101829052606401610934565b6002805c73ffffffffffffffffffffffffffffffffffffffff1916905d5f60035d5b611bf4838383613080565b5f5f612945611119565b9050612954868286875f61220e565b506122ca868686866131bf565b5f7f00000000000000000000000000000000000000000000000000000000000000006001600160a01b031615610d79576040517f838f705b0000000000000000000000000000000000000000000000000000000081526001600160a01b0384811660048301528581166024830152604482018490527f0000000000000000000000000000000000000000000000000000000000000000169063838f705b906064016020604051808303815f875af1158015612a1e573d5f5f3e3d5ffd5b505050506040513d601f19601f8201168201806040525081019061271b919061391c565b5f6001600160a01b03821615612ad6576040517f70a082310000000000000000000000000000000000000000000000000000000081523060048201526001600160a01b038316906370a0823190602401602060405180830381865afa158015612aad573d5f5f3e3d5ffd5b505050506040513d601f19601f82011682018060405250810190612ad19190613bbc565b610853565b4792915050565b8115612db1576040517fafbf911a0000000000000000000000000000000000000000000000000000000081523060048201526001600160a01b0384811660248301525f917f00000000000000000000000000000000000000000000000000000000000000009091169063afbf911a9060440160c060405180830381865afa158015612b6a573d5f5f3e3d5ffd5b505050506040513d601f19601f82011682018060405250810190612b8e9190613d64565b50805190915015612dab575f81604001516effffffffffffffffffffffffffffff168683602001516effffffffffffffffffffffffffffff16612bd19190613988565b612bdb919061399f565b6040517fed020beb0000000000000000000000000000000000000000000000000000000081526001600160a01b03878116600483015260248201839052604482018990529192505f9182917f00000000000000000000000000000000000000000000000000000000000000009091169063ed020beb9060640160408051808303815f875af1158015612c6f573d5f5f3e3d5ffd5b505050506040513d601f19601f82011682018060405250810190612c939190613e26565b9150915080612cfe576040517f08c379a000000000000000000000000000000000000000000000000000000000815260206004820152601e60248201527f57697468647261772072657175657374206e6f742066696e616c697a656400006044820152606401610934565b6040517fc32e720200000000000000000000000000000000000000000000000000000000815260048101839052600160248201527f00000000000000000000000000000000000000000000000000000000000000006001600160a01b03169063c32e7202906044016020604051808303815f875af1158015612d82573d5f5f3e3d5ffd5b505050506040513d601f19601f82011682018060405250810190612da6919061391c565b505050505b50611e7a565b5f612dbb8561167b565b6040517fc32e720200000000000000000000000000000000000000000000000000000000815260048101829052600160248201529091507f00000000000000000000000000000000000000000000000000000000000000006001600160a01b03169063c32e7202906044016020604051808303815f875af1158015612e42573d5f5f3e3d5ffd5b505050506040513d601f19601f82011682018060405250810190612e66919061391c565b505050505050565b6001600160a01b038216612eb0576040517f96c6fd1e0000000000000000000000000000000000000000000000000000000081525f6004820152602401610934565b610e33825f83612831565b6040517f095ea7b30000000000000000000000000000000000000000000000000000000081526001600160a01b037f0000000000000000000000000000000000000000000000000000000000000000811660048301525f1960248301527f0000000000000000000000000000000000000000000000000000000000000000169063095ea7b3906044016020604051808303815f875af1158015612f60573d5f5f3e3d5ffd5b505050506040513d601f19601f82011682018060405250810190612f84919061391c565b506040517f43a0d0660000000000000000000000000000000000000000000000000000000081525f600482015260248101849052600160448201527f00000000000000000000000000000000000000000000000000000000000000006001600160a01b0316906343a0d066906064016020604051808303815f875af115801561300f573d5f5f3e3d5ffd5b505050506040513d601f19601f82011682018060405250810190611e7a919061391c565b6001600160a01b038216613075576040517fec442f050000000000000000000000000000000000000000000000000000000081525f6004820152602401610934565b610e335f8383612831565b6001600160a01b0383166130aa578060035f82825461309f9190613975565b909155506131339050565b6001600160a01b0383165f9081526001602052604090205481811015613115576040517fe450d38c0000000000000000000000000000000000000000000000000000000081526001600160a01b03851660048201526024810182905260448101839052606401610934565b6001600160a01b0384165f9081526001602052604090209082900390555b6001600160a01b03821661314f5760038054829003905561316d565b6001600160a01b0382165f9081526001602052604090208054820190555b816001600160a01b0316836001600160a01b03167fddf252ad1be2c89b69c2b068fc378daa952ba7f163c4a11628f55a4df523b3ef836040516131b291815260200190565b60405180910390a3505050565b6040517f095ea7b30000000000000000000000000000000000000000000000000000000081526001600160a01b037f000000000000000000000000000000000000000000000000000000000000000081166004830152602482018590525f917f00000000000000000000000000000000000000000000000000000000000000009091169063095ea7b3906044016020604051808303815f875af1158015613268573d5f5f3e3d5ffd5b505050506040513d601f19601f8201168201806040525081019061328c919061391c565b506040517f7c86cff50000000000000000000000000000000000000000000000000000000081526001600160a01b037f00000000000000000000000000000000000000000000000000000000000000001690637c86cff5906132f8908890889088908890600401613e50565b6020604051808303815f875af1158015613314573d5f5f3e3d5ffd5b505050506040513d601f19601f820116820180604052508101906133389190613bbc565b95945050505050565b5f81518084528060208401602086015e5f6020828601015260207fffffffffffffffffffffffffffffffffffffffffffffffffffffffffffffffe0601f83011685010191505092915050565b602081525f610d796020830184613341565b5f602082840312156133af575f5ffd5b5035919050565b6001600160a01b03811681146133ca575f5ffd5b50565b5f5f604083850312156133de575f5ffd5b82356133e9816133b6565b946020939093013593505050565b5f5f83601f840112613407575f5ffd5b50813567ffffffffffffffff81111561341e575f5ffd5b602083019150836020828501011115613435575f5ffd5b9250929050565b5f5f5f5f5f60808688031215613450575f5ffd5b853561345b816133b6565b94506020860135935060408601359250606086013567ffffffffffffffff811115613484575f5ffd5b613490888289016133f7565b969995985093965092949392505050565b5f5f5f5f606085870312156134b4575f5ffd5b8435935060208501356134c6816133b6565b9250604085013567ffffffffffffffff8111156134e1575f5ffd5b6134ed878288016133f7565b95989497509550505050565b7f4e487b71000000000000000000000000000000000000000000000000000000005f52604160045260245ffd5b6040516060810167ffffffffffffffff81118282101715613549576135496134f9565b60405290565b604051601f82017fffffffffffffffffffffffffffffffffffffffffffffffffffffffffffffffe016810167ffffffffffffffff81118282101715613596576135966134f9565b604052919050565b5f82601f8301126135ad575f5ffd5b8135602083015f5f67ffffffffffffffff8411156135cd576135cd6134f9565b50601f83017fffffffffffffffffffffffffffffffffffffffffffffffffffffffffffffffe0166020016136008161354f565b915050828152858383011115613614575f5ffd5b828260208301375f92810160200192909252509392505050565b5f6020828403121561363e575f5ffd5b813567ffffffffffffffff811115613654575f5ffd5b61271b8482850161359e565b5f5f5f60608486031215613672575f5ffd5b833561367d816133b6565b9250602084013561368d816133b6565b929592945050506040919091013590565b5f5f602083850312156136af575f5ffd5b823567ffffffffffffffff8111156136c5575f5ffd5b6136d1858286016133f7565b90969095509350505050565b5f5f5f5f606085870312156136f0575f5ffd5b84356136fb816133b6565b935060208501359250604085013567ffffffffffffffff8111156134e1575f5ffd5b602080825282518282018190525f918401906040840190835b81811015613754578351835260209384019390920191600101613736565b509095945050505050565b5f6020828403121561376f575f5ffd5b8135610d79816133b6565b5f5f5f6060848603121561378c575f5ffd5b8335613797816133b6565b92506020840135915060408401356137ae816133b6565b809150509250925092565b5f5f5f5f608085870312156137cc575f5ffd5b84356137d7816133b6565b935060208501356137e7816133b6565b93969395505050506040820135916060013590565b5f5f6040838503121561380d575f5ffd5b8235613818816133b6565b91506020830135613828816133b6565b809150509250929050565b5f5f60408385031215613844575f5ffd5b82359150602083013567ffffffffffffffff811115613861575f5ffd5b61386d8582860161359e565b9150509250929050565b5f82518060208501845e5f920191825250919050565b600181811c908216806138a157607f821691505b6020821081036138d8577f4e487b71000000000000000000000000000000000000000000000000000000005f52602260045260245ffd5b50919050565b805180151581146138ed575f5ffd5b919050565b5f5f60408385031215613903575f5ffd5b61390c836138de565b6020939093015192949293505050565b5f6020828403121561392c575f5ffd5b610d79826138de565b7f4e487b71000000000000000000000000000000000000000000000000000000005f52601160045260245ffd5b8181038181111561085357610853613935565b8082018082111561085357610853613935565b808202811582820484141761085357610853613935565b5f826139d2577f4e487b71000000000000000000000000000000000000000000000000000000005f52601260045260245ffd5b500490565b5f602082840312156139e7575f5ffd5b815167ffffffffffffffff8111156139fd575f5ffd5b8201601f81018413613a0d575f5ffd5b805167ffffffffffffffff811115613a2757613a276134f9565b8060051b613a376020820161354f565b91825260208184018101929081019087841115613a52575f5ffd5b6020850194505b83851015613a7857845180835260209586019590935090910190613a59565b979650505050505050565b6001815b6001841115613abe57808504811115613aa257613aa2613935565b6001841615613ab057908102905b60019390931c928002613a87565b935093915050565b5f82613ad457506001610853565b81613ae057505f610853565b8160018114613af65760028114613b0057613b1c565b6001915050610853565b60ff841115613b1157613b11613935565b50506001821b610853565b5060208310610133831016604e8410600b8410161715613b3f575081810a610853565b613b4b5f198484613a83565b805f1904821115613b5e57613b5e613935565b029392505050565b5f610d7960ff841683613ac6565b5f610d798383613ac6565b5f60208284031215613b8f575f5ffd5b8151610d79816133b6565b5f5f60408385031215613bab575f5ffd5b505080516020909101519092909150565b5f60208284031215613bcc575f5ffd5b5051919050565b5f5f60408385031215613be4575f5ffd5b823567ffffffffffffffff811115613bfa575f5ffd5b613c068582860161359e565b925050602083013567ffffffffffffffff811115613861575f5ffd5b601f821115611bf457805f5260205f20601f840160051c81016020851015613c475750805b601f840160051c820191505b81811015613c66575f8155600101613c53565b5050505050565b815167ffffffffffffffff811115613c8757613c876134f9565b613c9b81613c95845461388d565b84613c22565b6020601f821160018114613ccd575f8315613cb65750848201515b5f19600385901b1c1916600184901b178455613c66565b5f848152602081207fffffffffffffffffffffffffffffffffffffffffffffffffffffffffffffffe08516915b82811015613d1a5787850151825560209485019460019092019101613cfa565b5084821015613d3757868401515f19600387901b60f8161c191681555b50505050600190811b01905550565b80516effffffffffffffffffffffffffffff811681146138ed575f5ffd5b5f5f82840360c0811215613d76575f5ffd5b6060811215613d83575f5ffd5b613d8b613526565b84518152613d9b60208601613d46565b6020820152613dac60408601613d46565b6040820152925060607fffffffffffffffffffffffffffffffffffffffffffffffffffffffffffffffa082011215613de2575f5ffd5b50613deb613526565b613df760608501613d46565b8152613e0560808501613d46565b6020820152613e1660a085016138de565b6040820152809150509250929050565b5f5f60408385031215613e37575f5ffd5b82519150613e47602084016138de565b90509250929050565b6001600160a01b0385168152836020820152826040820152608060608201525f6122ca608083018461334156fea164736f6c634300081d000a","linkReferences":{}},"methodIdentifiers":{"REWARD_MANAGER()":"5932fdba","allowTransfer(address,uint256,address)":"98476c2b","allowance(address,address)":"dd62ed3e","approve(address,uint256)":"095ea7b3","asset()":"38d52e0f","balanceOf(address)":"70a08231","burnShares(address,uint256,uint256,bytes)":"0db734d4","claimAccountRewards(address,uint256)":"66ab3b72","clearCurrentAccount()":"b35cb45d","collectFees()":"c8796572","convertSharesToYieldToken(uint256)":"b905a4ff","convertToAssets(uint256)":"07a2d13a","convertToShares(uint256)":"c6e6f592","convertYieldTokenToAsset()":"e0b4327d","convertYieldTokenToShares(uint256)":"25565931","decimals()":"313ce567","effectiveSupply()":"8fc47093","feeRate()":"978bbdb9","feesAccrued()":"94db0595","initialize(bytes)":"439fab91","initiateWithdraw(address,uint256,bytes)":"57831a04","initiateWithdrawNative(bytes)":"131b822d","mintShares(uint256,address,bytes)":"127af7f9","name()":"06fdde03","postLiquidation(address,address,uint256)":"98dce16d","preLiquidation(address,address,uint256,uint256)":"cc351ac5","price()":"a035b1fe","price(address)":"aea91078","redeemNative(uint256,bytes)":"eb9b1912","symbol()":"95d89b41","totalAssets()":"01e1d114","totalSupply()":"18160ddd","transfer(address,uint256)":"a9059cbb","transferFrom(address,address,uint256)":"23b872dd","yieldToken()":"76d5de85"},"id":103}