{"abi":[{"type":"constructor","inputs":[{"name":"_depositToken","type":"address","internalType":"address"}],"stateMutability":"nonpayable"},{"type":"function","name":"allowance","inputs":[{"name":"owner","type":"address","internalType":"address"},{"name":"spender","type":"address","internalType":"address"}],"outputs":[{"name":"","type":"uint256","internalType":"uint256"}],"stateMutability":"view"},{"type":"function","name":"approve","inputs":[{"name":"spender","type":"address","internalType":"address"},{"name":"value","type":"uint256","internalType":"uint256"}],"outputs":[{"name":"","type":"bool","internalType":"bool"}],"stateMutability":"nonpayable"},{"type":"function","name":"balanceOf","inputs":[{"name":"account","type":"address","internalType":"address"}],"outputs":[{"name":"","type":"uint256","internalType":"uint256"}],"stateMutability":"view"},{"type":"function","name":"decimals","inputs":[],"outputs":[{"name":"","type":"uint8","internalType":"uint8"}],"stateMutability":"view"},{"type":"function","name":"deposit","inputs":[{"name":"","type":"uint256","internalType":"uint256"},{"name":"amount","type":"uint256","internalType":"uint256"},{"name":"","type":"bool","internalType":"bool"}],"outputs":[{"name":"success","type":"bool","internalType":"bool"}],"stateMutability":"nonpayable"},{"type":"function","name":"depositToken","inputs":[],"outputs":[{"name":"","type":"address","internalType":"contract ERC20"}],"stateMutability":"view"},{"type":"function","name":"getReward","inputs":[{"name":"holder","type":"address","internalType":"address"},{"name":"claim","type":"bool","internalType":"bool"}],"outputs":[{"name":"","type":"bool","internalType":"bool"}],"stateMutability":"nonpayable"},{"type":"function","name":"name","inputs":[],"outputs":[{"name":"","type":"string","internalType":"string"}],"stateMutability":"view"},{"type":"function","name":"operator","inputs":[],"outputs":[{"name":"","type":"address","internalType":"address"}],"stateMutability":"view"},{"type":"function","name":"pid","inputs":[],"outputs":[{"name":"","type":"uint256","internalType":"uint256"}],"stateMutability":"pure"},{"type":"function","name":"rewardAmount","inputs":[],"outputs":[{"name":"","type":"uint256","internalType":"uint256"}],"stateMutability":"view"},{"type":"function","name":"rewardToken","inputs":[],"outputs":[{"name":"","type":"address","internalType":"contract ERC20"}],"stateMutability":"view"},{"type":"function","name":"setRewardAmount","inputs":[{"name":"amount","type":"uint256","internalType":"uint256"}],"outputs":[],"stateMutability":"nonpayable"},{"type":"function","name":"symbol","inputs":[],"outputs":[{"name":"","type":"string","internalType":"string"}],"stateMutability":"view"},{"type":"function","name":"totalSupply","inputs":[],"outputs":[{"name":"","type":"uint256","internalType":"uint256"}],"stateMutability":"view"},{"type":"function","name":"transfer","inputs":[{"name":"to","type":"address","internalType":"address"},{"name":"value","type":"uint256","internalType":"uint256"}],"outputs":[{"name":"","type":"bool","internalType":"bool"}],"stateMutability":"nonpayable"},{"type":"function","name":"transferFrom","inputs":[{"name":"from","type":"address","internalType":"address"},{"name":"to","type":"address","internalType":"address"},{"name":"value","type":"uint256","internalType":"uint256"}],"outputs":[{"name":"","type":"bool","internalType":"bool"}],"stateMutability":"nonpayable"},{"type":"function","name":"withdrawAndUnwrap","inputs":[{"name":"amount","type":"uint256","internalType":"uint256"},{"name":"claim","type":"bool","internalType":"bool"}],"outputs":[{"name":"success","type":"bool","internalType":"bool"}],"stateMutability":"nonpayable"},{"type":"event","name":"Approval","inputs":[{"name":"owner","type":"address","indexed":true,"internalType":"address"},{"name":"spender","type":"address","indexed":true,"internalType":"address"},{"name":"value","type":"uint256","indexed":false,"internalType":"uint256"}],"anonymous":false},{"type":"event","name":"Transfer","inputs":[{"name":"from","type":"address","indexed":true,"internalType":"address"},{"name":"to","type":"address","indexed":true,"internalType":"address"},{"name":"value","type":"uint256","indexed":false,"internalType":"uint256"}],"anonymous":false},{"type":"error","name":"ERC20InsufficientAllowance","inputs":[{"name":"spender","type":"address","internalType":"address"},{"name":"allowance","type":"uint256","internalType":"uint256"},{"name":"needed","type":"uint256","internalType":"uint256"}]},{"type":"error","name":"ERC20InsufficientBalance","inputs":[{"name":"sender","type":"address","internalType":"address"},{"name":"balance","type":"uint256","internalType":"uint256"},{"name":"needed","type":"uint256","internalType":"uint256"}]},{"type":"error","name":"ERC20InvalidApprover","inputs":[{"name":"approver","type":"address","internalType":"address"}]},{"type":"error","name":"ERC20InvalidReceiver","inputs":[{"name":"receiver","type":"address","internalType":"address"}]},{"type":"error","name":"ERC20InvalidSender","inputs":[{"name":"sender","type":"address","internalType":"address"}]},{"type":"error","name":"ERC20InvalidSpender","inputs":[{"name":"spender","type":"address","internalType":"address"}]}],"bytecode":{"object":"0x60c060405234801561000f575f5ffd5b50604051611f8f380380611f8f83398101604081905261002e91610123565b6040518060400160405280600e81526020016d135bd8dad4995dd85c99141bdbdb60921b8152506040518060400160405280600381526020016204d52560ec1b815250816003908161008091906101e8565b50600461008d82826101e8565b5050506001600160a01b0381166080526040516100a990610116565b6040808252600f908201526e26b7b1b5a932bbb0b9322a37b5b2b760891b60608201526080602082018190526003908201526213549560ea1b60a082015260c001604051809103905ff080158015610103573d5f5f3e3d5ffd5b506001600160a01b031660a052506102a2565b610d158061127a83390190565b5f60208284031215610133575f5ffd5b81516001600160a01b0381168114610149575f5ffd5b9392505050565b634e487b7160e01b5f52604160045260245ffd5b600181811c9082168061017857607f821691505b60208210810361019657634e487b7160e01b5f52602260045260245ffd5b50919050565b601f8211156101e357805f5260205f20601f840160051c810160208510156101c15750805b601f840160051c820191505b818110156101e0575f81556001016101cd565b50505b505050565b81516001600160401b0381111561020157610201610150565b6102158161020f8454610164565b8461019c565b6020601f821160018114610247575f83156102305750848201515b5f19600385901b1c1916600184901b1784556101e0565b5f84815260208120601f198516915b828110156102765787850151825560209485019460019092019101610256565b508482101561029357868401515f19600387901b60f8161c191681555b50505050600190811b01905550565b60805160a051610f9b6102df5f395f81816102ed01528181610533015261060501525f81816102720152818161041801526106a70152610f9b5ff3fe608060405234801561000f575f5ffd5b506004361061012f575f3560e01c806395d89b41116100ad578063c89039c51161007d578063f106845411610063578063f1068454146102d9578063f7b2a7be146102df578063f7c618c1146102e8575f5ffd5b8063c89039c51461026d578063dd62ed3e14610294575f5ffd5b806395d89b411461022a578063a8a65a7814610232578063a9059cbb14610247578063c32e72021461025a575f5ffd5b8063313ce56711610102578063570ca735116100e8578063570ca735146101bb5780637050ccd9146101e257806370a08231146101f5575f5ffd5b8063313ce5671461019957806343a0d066146101a8575f5ffd5b806306fdde0314610133578063095ea7b31461015157806318160ddd1461017457806323b872dd14610186575b5f5ffd5b61013b61030f565b6040516101489190610cb0565b60405180910390f35b61016461015f366004610d2b565b61039f565b6040519015158152602001610148565b6002545b604051908152602001610148565b610164610194366004610d53565b6103b8565b60405160128152602001610148565b6101646101b6366004610d9d565b6103db565b305b60405173ffffffffffffffffffffffffffffffffffffffff9091168152602001610148565b6101646101f0366004610dd3565b6104cb565b610178610203366004610e08565b73ffffffffffffffffffffffffffffffffffffffff165f9081526020819052604090205490565b61013b6105ad565b610245610240366004610e28565b600555565b005b610164610255366004610d2b565b6105bc565b610164610268366004610e3f565b6105c9565b6101bd7f000000000000000000000000000000000000000000000000000000000000000081565b6101786102a2366004610e62565b73ffffffffffffffffffffffffffffffffffffffff9182165f90815260016020908152604080832093909416825291909152205490565b5f610178565b61017860055481565b6101bd7f000000000000000000000000000000000000000000000000000000000000000081565b60606003805461031e90610e93565b80601f016020809104026020016040519081016040528092919081815260200182805461034a90610e93565b80156103955780601f1061036c57610100808354040283529160200191610395565b820191905f5260205f20905b81548152906001019060200180831161037857829003601f168201915b5050505050905090565b5f336103ac81858561077e565b60019150505b92915050565b5f336103c5858285610790565b6103d0858585610863565b506001949350505050565b6040517f23b872dd000000000000000000000000000000000000000000000000000000008152336004820152306024820152604481018390525f907f000000000000000000000000000000000000000000000000000000000000000073ffffffffffffffffffffffffffffffffffffffff16906323b872dd906064016020604051808303815f875af1158015610473573d5f5f3e3d5ffd5b505050506040513d601f19601f820116820180604052508101906104979190610ee4565b506104c133620f42406104b286670de0b6b3a7640000610f2c565b6104bc9190610f43565b61090c565b5060019392505050565b5f6005545f036104dd575060016103b2565b81156105a1576005546040517fa9059cbb00000000000000000000000000000000000000000000000000000000815273ffffffffffffffffffffffffffffffffffffffff858116600483015260248201929092527f00000000000000000000000000000000000000000000000000000000000000009091169063a9059cbb906044016020604051808303815f875af115801561057b573d5f5f3e3d5ffd5b505050506040513d601f19601f8201168201806040525081019061059f9190610ee4565b505b50505f60055550600190565b60606004805461031e90610e93565b5f336103ac818585610863565b5f8115610686576040517fa9059cbb000000000000000000000000000000000000000000000000000000008152306004820152602481018490527f000000000000000000000000000000000000000000000000000000000000000073ffffffffffffffffffffffffffffffffffffffff169063a9059cbb906044016020604051808303815f875af1158015610660573d5f5f3e3d5ffd5b505050506040513d601f19601f820116820180604052508101906106849190610ee4565b505b610690338461096a565b73ffffffffffffffffffffffffffffffffffffffff7f00000000000000000000000000000000000000000000000000000000000000001663a9059cbb33670de0b6b3a76400006106e387620f4240610f2c565b6106ed9190610f43565b6040517fffffffff0000000000000000000000000000000000000000000000000000000060e085901b16815273ffffffffffffffffffffffffffffffffffffffff909216600483015260248201526044016020604051808303815f875af115801561075a573d5f5f3e3d5ffd5b505050506040513d601f19601f820116820180604052508101906104c19190610ee4565b61078b83838360016109c4565b505050565b73ffffffffffffffffffffffffffffffffffffffff8381165f908152600160209081526040808320938616835292905220547fffffffffffffffffffffffffffffffffffffffffffffffffffffffffffffffff81101561085d578181101561084f576040517ffb8f41b200000000000000000000000000000000000000000000000000000000815273ffffffffffffffffffffffffffffffffffffffff8416600482015260248101829052604481018390526064015b60405180910390fd5b61085d84848484035f6109c4565b50505050565b73ffffffffffffffffffffffffffffffffffffffff83166108b2576040517f96c6fd1e0000000000000000000000000000000000000000000000000000000081525f6004820152602401610846565b73ffffffffffffffffffffffffffffffffffffffff8216610901576040517fec442f050000000000000000000000000000000000000000000000000000000081525f6004820152602401610846565b61078b838383610b09565b73ffffffffffffffffffffffffffffffffffffffff821661095b576040517fec442f050000000000000000000000000000000000000000000000000000000081525f6004820152602401610846565b6109665f8383610b09565b5050565b73ffffffffffffffffffffffffffffffffffffffff82166109b9576040517f96c6fd1e0000000000000000000000000000000000000000000000000000000081525f6004820152602401610846565b610966825f83610b09565b73ffffffffffffffffffffffffffffffffffffffff8416610a13576040517fe602df050000000000000000000000000000000000000000000000000000000081525f6004820152602401610846565b73ffffffffffffffffffffffffffffffffffffffff8316610a62576040517f94280d620000000000000000000000000000000000000000000000000000000081525f6004820152602401610846565b73ffffffffffffffffffffffffffffffffffffffff8085165f908152600160209081526040808320938716835292905220829055801561085d578273ffffffffffffffffffffffffffffffffffffffff168473ffffffffffffffffffffffffffffffffffffffff167f8c5be1e5ebec7d5bd14f71427d1e84f3dd0314c0f7b2291e5b200ac8c7c3b92584604051610afb91815260200190565b60405180910390a350505050565b73ffffffffffffffffffffffffffffffffffffffff8316610b40578060025f828254610b359190610f7b565b90915550610bf09050565b73ffffffffffffffffffffffffffffffffffffffff83165f9081526020819052604090205481811015610bc5576040517fe450d38c00000000000000000000000000000000000000000000000000000000815273ffffffffffffffffffffffffffffffffffffffff851660048201526024810182905260448101839052606401610846565b73ffffffffffffffffffffffffffffffffffffffff84165f9081526020819052604090209082900390555b73ffffffffffffffffffffffffffffffffffffffff8216610c1957600280548290039055610c44565b73ffffffffffffffffffffffffffffffffffffffff82165f9081526020819052604090208054820190555b8173ffffffffffffffffffffffffffffffffffffffff168373ffffffffffffffffffffffffffffffffffffffff167fddf252ad1be2c89b69c2b068fc378daa952ba7f163c4a11628f55a4df523b3ef83604051610ca391815260200190565b60405180910390a3505050565b602081525f82518060208401528060208501604085015e5f6040828501015260407fffffffffffffffffffffffffffffffffffffffffffffffffffffffffffffffe0601f83011684010191505092915050565b803573ffffffffffffffffffffffffffffffffffffffff81168114610d26575f5ffd5b919050565b5f5f60408385031215610d3c575f5ffd5b610d4583610d03565b946020939093013593505050565b5f5f5f60608486031215610d65575f5ffd5b610d6e84610d03565b9250610d7c60208501610d03565b929592945050506040919091013590565b8015158114610d9a575f5ffd5b50565b5f5f5f60608486031215610daf575f5ffd5b83359250602084013591506040840135610dc881610d8d565b809150509250925092565b5f5f60408385031215610de4575f5ffd5b610ded83610d03565b91506020830135610dfd81610d8d565b809150509250929050565b5f60208284031215610e18575f5ffd5b610e2182610d03565b9392505050565b5f60208284031215610e38575f5ffd5b5035919050565b5f5f60408385031215610e50575f5ffd5b823591506020830135610dfd81610d8d565b5f5f60408385031215610e73575f5ffd5b610e7c83610d03565b9150610e8a60208401610d03565b90509250929050565b600181811c90821680610ea757607f821691505b602082108103610ede577f4e487b71000000000000000000000000000000000000000000000000000000005f52602260045260245ffd5b50919050565b5f60208284031215610ef4575f5ffd5b8151610e2181610d8d565b7f4e487b71000000000000000000000000000000000000000000000000000000005f52601160045260245ffd5b80820281158282048414176103b2576103b2610eff565b5f82610f76577f4e487b71000000000000000000000000000000000000000000000000000000005f52601260045260245ffd5b500490565b808201808211156103b2576103b2610eff56fea164736f6c634300081d000a608060405234801561000f575f5ffd5b50604051610d15380380610d1583398101604081905261002e9161026d565b8181600361003c8382610356565b5060046100498282610356565b5050506100663369d3c21bcecceda100000061006d60201b60201c565b5050610435565b6001600160a01b03821661009b5760405163ec442f0560e01b81525f60048201526024015b60405180910390fd5b6100a65f83836100aa565b5050565b6001600160a01b0383166100d4578060025f8282546100c99190610410565b909155506101449050565b6001600160a01b0383165f90815260208190526040902054818110156101265760405163391434e360e21b81526001600160a01b03851660048201526024810182905260448101839052606401610092565b6001600160a01b0384165f9081526020819052604090209082900390555b6001600160a01b0382166101605760028054829003905561017e565b6001600160a01b0382165f9081526020819052604090208054820190555b816001600160a01b0316836001600160a01b03167fddf252ad1be2c89b69c2b068fc378daa952ba7f163c4a11628f55a4df523b3ef836040516101c391815260200190565b60405180910390a3505050565b634e487b7160e01b5f52604160045260245ffd5b5f82601f8301126101f3575f5ffd5b81516001600160401b0381111561020c5761020c6101d0565b604051601f8201601f19908116603f011681016001600160401b038111828210171561023a5761023a6101d0565b604052818152838201602001851015610251575f5ffd5b8160208501602083015e5f918101602001919091529392505050565b5f5f6040838503121561027e575f5ffd5b82516001600160401b03811115610293575f5ffd5b61029f858286016101e4565b602085015190935090506001600160401b038111156102bc575f5ffd5b6102c8858286016101e4565b9150509250929050565b600181811c908216806102e657607f821691505b60208210810361030457634e487b7160e01b5f52602260045260245ffd5b50919050565b601f82111561035157805f5260205f20601f840160051c8101602085101561032f5750805b601f840160051c820191505b8181101561034e575f815560010161033b565b50505b505050565b81516001600160401b0381111561036f5761036f6101d0565b6103838161037d84546102d2565b8461030a565b6020601f8211600181146103b5575f831561039e5750848201515b5f19600385901b1c1916600184901b17845561034e565b5f84815260208120601f198516915b828110156103e457878501518255602094850194600190920191016103c4565b508482101561040157868401515f19600387901b60f8161c191681555b50505050600190811b01905550565b8082018082111561042f57634e487b7160e01b5f52601160045260245ffd5b92915050565b6108d3806104425f395ff3fe608060405234801561000f575f5ffd5b506004361061009f575f3560e01c8063313ce5671161007257806395d89b411161005857806395d89b411461014d578063a9059cbb14610155578063dd62ed3e14610168575f5ffd5b8063313ce5671461010957806370a0823114610118575f5ffd5b806306fdde03146100a3578063095ea7b3146100c157806318160ddd146100e457806323b872dd146100f6575b5f5ffd5b6100ab6101ad565b6040516100b8919061070f565b60405180910390f35b6100d46100cf36600461078a565b61023d565b60405190151581526020016100b8565b6002545b6040519081526020016100b8565b6100d46101043660046107b2565b610256565b604051601281526020016100b8565b6100e86101263660046107ec565b73ffffffffffffffffffffffffffffffffffffffff165f9081526020819052604090205490565b6100ab610279565b6100d461016336600461078a565b610288565b6100e861017636600461080c565b73ffffffffffffffffffffffffffffffffffffffff9182165f90815260016020908152604080832093909416825291909152205490565b6060600380546101bc9061083d565b80601f01602080910402602001604051908101604052809291908181526020018280546101e89061083d565b80156102335780601f1061020a57610100808354040283529160200191610233565b820191905f5260205f20905b81548152906001019060200180831161021657829003601f168201915b5050505050905090565b5f3361024a818585610295565b60019150505b92915050565b5f336102638582856102a7565b61026e85858561037a565b506001949350505050565b6060600480546101bc9061083d565b5f3361024a81858561037a565b6102a28383836001610423565b505050565b73ffffffffffffffffffffffffffffffffffffffff8381165f908152600160209081526040808320938616835292905220547fffffffffffffffffffffffffffffffffffffffffffffffffffffffffffffffff8110156103745781811015610366576040517ffb8f41b200000000000000000000000000000000000000000000000000000000815273ffffffffffffffffffffffffffffffffffffffff8416600482015260248101829052604481018390526064015b60405180910390fd5b61037484848484035f610423565b50505050565b73ffffffffffffffffffffffffffffffffffffffff83166103c9576040517f96c6fd1e0000000000000000000000000000000000000000000000000000000081525f600482015260240161035d565b73ffffffffffffffffffffffffffffffffffffffff8216610418576040517fec442f050000000000000000000000000000000000000000000000000000000081525f600482015260240161035d565b6102a2838383610568565b73ffffffffffffffffffffffffffffffffffffffff8416610472576040517fe602df050000000000000000000000000000000000000000000000000000000081525f600482015260240161035d565b73ffffffffffffffffffffffffffffffffffffffff83166104c1576040517f94280d620000000000000000000000000000000000000000000000000000000081525f600482015260240161035d565b73ffffffffffffffffffffffffffffffffffffffff8085165f9081526001602090815260408083209387168352929052208290558015610374578273ffffffffffffffffffffffffffffffffffffffff168473ffffffffffffffffffffffffffffffffffffffff167f8c5be1e5ebec7d5bd14f71427d1e84f3dd0314c0f7b2291e5b200ac8c7c3b9258460405161055a91815260200190565b60405180910390a350505050565b73ffffffffffffffffffffffffffffffffffffffff831661059f578060025f828254610594919061088e565b9091555061064f9050565b73ffffffffffffffffffffffffffffffffffffffff83165f9081526020819052604090205481811015610624576040517fe450d38c00000000000000000000000000000000000000000000000000000000815273ffffffffffffffffffffffffffffffffffffffff85166004820152602481018290526044810183905260640161035d565b73ffffffffffffffffffffffffffffffffffffffff84165f9081526020819052604090209082900390555b73ffffffffffffffffffffffffffffffffffffffff8216610678576002805482900390556106a3565b73ffffffffffffffffffffffffffffffffffffffff82165f9081526020819052604090208054820190555b8173ffffffffffffffffffffffffffffffffffffffff168373ffffffffffffffffffffffffffffffffffffffff167fddf252ad1be2c89b69c2b068fc378daa952ba7f163c4a11628f55a4df523b3ef8360405161070291815260200190565b60405180910390a3505050565b602081525f82518060208401528060208501604085015e5f6040828501015260407fffffffffffffffffffffffffffffffffffffffffffffffffffffffffffffffe0601f83011684010191505092915050565b803573ffffffffffffffffffffffffffffffffffffffff81168114610785575f5ffd5b919050565b5f5f6040838503121561079b575f5ffd5b6107a483610762565b946020939093013593505050565b5f5f5f606084860312156107c4575f5ffd5b6107cd84610762565b92506107db60208501610762565b929592945050506040919091013590565b5f602082840312156107fc575f5ffd5b61080582610762565b9392505050565b5f5f6040838503121561081d575f5ffd5b61082683610762565b915061083460208401610762565b90509250929050565b600181811c9082168061085157607f821691505b602082108103610888577f4e487b71000000000000000000000000000000000000000000000000000000005f52602260045260245ffd5b50919050565b80820180821115610250577f4e487b71000000000000000000000000000000000000000000000000000000005f52601160045260245ffdfea164736f6c634300081d000a","linkReferences":{}},"methodIdentifiers":{"allowance(address,address)":"dd62ed3e","approve(address,uint256)":"095ea7b3","balanceOf(address)":"70a08231","decimals()":"313ce567","deposit(uint256,uint256,bool)":"43a0d066","depositToken()":"c89039c5","getReward(address,bool)":"7050ccd9","name()":"06fdde03","operator()":"570ca735","pid()":"f1068454","rewardAmount()":"f7b2a7be","rewardToken()":"f7c618c1","setRewardAmount(uint256)":"a8a65a78","symbol()":"95d89b41","totalSupply()":"18160ddd","transfer(address,uint256)":"a9059cbb","transferFrom(address,address,uint256)":"23b872dd","withdrawAndUnwrap(uint256,bool)":"c32e7202"},"id":103}