{"abi":[{"type":"constructor","inputs":[{"name":"_asset","type":"address","internalType":"address"},{"name":"_yieldToken","type":"address","internalType":"address"},{"name":"_feeRate","type":"uint256","internalType":"uint256"}],"stateMutability":"nonpayable"},{"type":"function","name":"allowTransfer","inputs":[{"name":"to","type":"address","internalType":"address"},{"name":"amount","type":"uint256","internalType":"uint256"},{"name":"currentAccount","type":"address","internalType":"address"}],"outputs":[],"stateMutability":"nonpayable"},{"type":"function","name":"allowance","inputs":[{"name":"owner","type":"address","internalType":"address"},{"name":"spender","type":"address","internalType":"address"}],"outputs":[{"name":"","type":"uint256","internalType":"uint256"}],"stateMutability":"view"},{"type":"function","name":"approve","inputs":[{"name":"spender","type":"address","internalType":"address"},{"name":"value","type":"uint256","internalType":"uint256"}],"outputs":[{"name":"","type":"bool","internalType":"bool"}],"stateMutability":"nonpayable"},{"type":"function","name":"asset","inputs":[],"outputs":[{"name":"","type":"address","internalType":"address"}],"stateMutability":"view"},{"type":"function","name":"balanceOf","inputs":[{"name":"account","type":"address","internalType":"address"}],"outputs":[{"name":"","type":"uint256","internalType":"uint256"}],"stateMutability":"view"},{"type":"function","name":"burnShares","inputs":[{"name":"sharesOwner","type":"address","internalType":"address"},{"name":"sharesToBurn","type":"uint256","internalType":"uint256"},{"name":"sharesHeld","type":"uint256","internalType":"uint256"},{"name":"redeemData","type":"bytes","internalType":"bytes"}],"outputs":[{"name":"assetsWithdrawn","type":"uint256","internalType":"uint256"}],"stateMutability":"nonpayable"},{"type":"function","name":"clearCurrentAccount","inputs":[],"outputs":[],"stateMutability":"nonpayable"},{"type":"function","name":"collectFees","inputs":[],"outputs":[],"stateMutability":"nonpayable"},{"type":"function","name":"convertSharesToYieldToken","inputs":[{"name":"shares","type":"uint256","internalType":"uint256"}],"outputs":[{"name":"","type":"uint256","internalType":"uint256"}],"stateMutability":"view"},{"type":"function","name":"convertToAssets","inputs":[{"name":"shares","type":"uint256","internalType":"uint256"}],"outputs":[{"name":"","type":"uint256","internalType":"uint256"}],"stateMutability":"view"},{"type":"function","name":"convertToShares","inputs":[{"name":"assets","type":"uint256","internalType":"uint256"}],"outputs":[{"name":"","type":"uint256","internalType":"uint256"}],"stateMutability":"view"},{"type":"function","name":"convertYieldTokenToAsset","inputs":[],"outputs":[{"name":"","type":"uint256","internalType":"uint256"}],"stateMutability":"view"},{"type":"function","name":"convertYieldTokenToShares","inputs":[{"name":"yieldTokens","type":"uint256","internalType":"uint256"}],"outputs":[{"name":"","type":"uint256","internalType":"uint256"}],"stateMutability":"view"},{"type":"function","name":"decimals","inputs":[],"outputs":[{"name":"","type":"uint8","internalType":"uint8"}],"stateMutability":"view"},{"type":"function","name":"effectiveSupply","inputs":[],"outputs":[{"name":"","type":"uint256","internalType":"uint256"}],"stateMutability":"view"},{"type":"function","name":"feeRate","inputs":[],"outputs":[{"name":"","type":"uint256","internalType":"uint256"}],"stateMutability":"view"},{"type":"function","name":"feesAccrued","inputs":[],"outputs":[{"name":"feesAccruedInYieldToken","type":"uint256","internalType":"uint256"}],"stateMutability":"view"},{"type":"function","name":"initialize","inputs":[{"name":"data","type":"bytes","internalType":"bytes"}],"outputs":[],"stateMutability":"nonpayable"},{"type":"function","name":"initiateWithdraw","inputs":[{"name":"account","type":"address","internalType":"address"},{"name":"sharesHeld","type":"uint256","internalType":"uint256"},{"name":"data","type":"bytes","internalType":"bytes"}],"outputs":[{"name":"requestId","type":"uint256","internalType":"uint256"}],"stateMutability":"nonpayable"},{"type":"function","name":"initiateWithdrawNative","inputs":[{"name":"data","type":"bytes","internalType":"bytes"}],"outputs":[{"name":"requestId","type":"uint256","internalType":"uint256"}],"stateMutability":"nonpayable"},{"type":"function","name":"mintShares","inputs":[{"name":"assetAmount","type":"uint256","internalType":"uint256"},{"name":"receiver","type":"address","internalType":"address"},{"name":"depositData","type":"bytes","internalType":"bytes"}],"outputs":[{"name":"sharesMinted","type":"uint256","internalType":"uint256"}],"stateMutability":"nonpayable"},{"type":"function","name":"name","inputs":[],"outputs":[{"name":"","type":"string","internalType":"string"}],"stateMutability":"view"},{"type":"function","name":"postLiquidation","inputs":[{"name":"liquidator","type":"address","internalType":"address"},{"name":"liquidateAccount","type":"address","internalType":"address"},{"name":"sharesToLiquidator","type":"uint256","internalType":"uint256"}],"outputs":[],"stateMutability":"nonpayable"},{"type":"function","name":"preLiquidation","inputs":[{"name":"liquidator","type":"address","internalType":"address"},{"name":"liquidateAccount","type":"address","internalType":"address"},{"name":"sharesToLiquidate","type":"uint256","internalType":"uint256"},{"name":"accountSharesHeld","type":"uint256","internalType":"uint256"}],"outputs":[],"stateMutability":"nonpayable"},{"type":"function","name":"price","inputs":[],"outputs":[{"name":"","type":"uint256","internalType":"uint256"}],"stateMutability":"view"},{"type":"function","name":"price","inputs":[{"name":"borrower","type":"address","internalType":"address"}],"outputs":[{"name":"","type":"uint256","internalType":"uint256"}],"stateMutability":"nonpayable"},{"type":"function","name":"redeemNative","inputs":[{"name":"sharesToRedeem","type":"uint256","internalType":"uint256"},{"name":"redeemData","type":"bytes","internalType":"bytes"}],"outputs":[{"name":"assetsWithdrawn","type":"uint256","internalType":"uint256"}],"stateMutability":"nonpayable"},{"type":"function","name":"symbol","inputs":[],"outputs":[{"name":"","type":"string","internalType":"string"}],"stateMutability":"view"},{"type":"function","name":"totalAssets","inputs":[],"outputs":[{"name":"","type":"uint256","internalType":"uint256"}],"stateMutability":"view"},{"type":"function","name":"totalSupply","inputs":[],"outputs":[{"name":"","type":"uint256","internalType":"uint256"}],"stateMutability":"view"},{"type":"function","name":"transfer","inputs":[{"name":"to","type":"address","internalType":"address"},{"name":"value","type":"uint256","internalType":"uint256"}],"outputs":[{"name":"","type":"bool","internalType":"bool"}],"stateMutability":"nonpayable"},{"type":"function","name":"transferFrom","inputs":[{"name":"from","type":"address","internalType":"address"},{"name":"to","type":"address","internalType":"address"},{"name":"value","type":"uint256","internalType":"uint256"}],"outputs":[{"name":"","type":"bool","internalType":"bool"}],"stateMutability":"nonpayable"},{"type":"function","name":"transientVariables","inputs":[],"outputs":[{"name":"","type":"address","internalType":"address"},{"name":"","type":"address","internalType":"address"},{"name":"","type":"address","internalType":"address"},{"name":"","type":"uint256","internalType":"uint256"}],"stateMutability":"view"},{"type":"function","name":"yieldToken","inputs":[],"outputs":[{"name":"","type":"address","internalType":"address"}],"stateMutability":"view"},{"type":"event","name":"Approval","inputs":[{"name":"owner","type":"address","indexed":true,"internalType":"address"},{"name":"spender","type":"address","indexed":true,"internalType":"address"},{"name":"value","type":"uint256","indexed":false,"internalType":"uint256"}],"anonymous":false},{"type":"event","name":"Transfer","inputs":[{"name":"from","type":"address","indexed":true,"internalType":"address"},{"name":"to","type":"address","indexed":true,"internalType":"address"},{"name":"value","type":"uint256","indexed":false,"internalType":"uint256"}],"anonymous":false},{"type":"event","name":"VaultCreated","inputs":[{"name":"vault","type":"address","indexed":true,"internalType":"address"}],"anonymous":false},{"type":"error","name":"CannotEnterPosition","inputs":[]},{"type":"error","name":"CurrentAccountAlreadySet","inputs":[]},{"type":"error","name":"ERC20InsufficientAllowance","inputs":[{"name":"spender","type":"address","internalType":"address"},{"name":"allowance","type":"uint256","internalType":"uint256"},{"name":"needed","type":"uint256","internalType":"uint256"}]},{"type":"error","name":"ERC20InsufficientBalance","inputs":[{"name":"sender","type":"address","internalType":"address"},{"name":"balance","type":"uint256","internalType":"uint256"},{"name":"needed","type":"uint256","internalType":"uint256"}]},{"type":"error","name":"ERC20InvalidApprover","inputs":[{"name":"approver","type":"address","internalType":"address"}]},{"type":"error","name":"ERC20InvalidReceiver","inputs":[{"name":"receiver","type":"address","internalType":"address"}]},{"type":"error","name":"ERC20InvalidSender","inputs":[{"name":"sender","type":"address","internalType":"address"}]},{"type":"error","name":"ERC20InvalidSpender","inputs":[{"name":"spender","type":"address","internalType":"address"}]},{"type":"error","name":"InsufficientSharesHeld","inputs":[]},{"type":"error","name":"InvalidInitialization","inputs":[]},{"type":"error","name":"ReentrancyGuardReentrantCall","inputs":[]},{"type":"error","name":"SafeERC20FailedOperation","inputs":[{"name":"token","type":"address","internalType":"address"}]},{"type":"error","name":"Unauthorized","inputs":[{"name":"caller","type":"address","internalType":"address"}]},{"type":"error","name":"UnauthorizedLendingMarketTransfer","inputs":[{"name":"from","type":"address","internalType":"address"},{"name":"to","type":"address","internalType":"address"},{"name":"value","type":"uint256","internalType":"uint256"}]},{"type":"error","name":"WithdrawRequestNotFinalized","inputs":[{"name":"requestId","type":"uint256","internalType":"uint256"}]}],"bytecode":{"object":"0x610160604052348015610010575f5ffd5b5060405161451838038061451883398101604081905261002f91610301565b6040516324a1f5eb60e21b81526001600160a01b0383166004820152839083908390839083908390735615deb798bb3e4dfa0139dfa1b3d433cc23b72f90639287d7ac90602401602060405180830381865afa158015610091573d5f5f3e3d5ffd5b505050506040513d601f19601f820116820180604052508101906100b59190610341565b838383856001600160a01b031663313ce5676040518163ffffffff1660e01b8152600401602060405180830381865afa1580156100f4573d5f5f3e3d5ffd5b505050506040513d601f19601f820116820180604052508101906101189190610363565b60408051602080820183525f8083528351918201909352828152825460ff191660011790925590600461014b838261041b565b506005610158828261041b565b50505060c08290526001600160a01b03808516608052831660a05260ff81166101005261018484610234565b60ff1661012052505050506001600160a01b03811660e08190526101a8575f61020a565b60e0516001600160a01b0316633ed3a0546040518163ffffffff1660e01b8152600401602060405180830381865afa1580156101e6573d5f5f3e3d5ffd5b505050506040513d601f19601f8201168201806040525081019061020a9190610341565b6001600160a01b03166101405250504660011491506102299050575f5ffd5b5050505050506104d5565b5f6001600160a01b038216158061026757506001600160a01b03821673eeeeeeeeeeeeeeeeeeeeeeeeeeeeeeeeeeeeeeee145b6102d057816001600160a01b031663313ce5676040518163ffffffff1660e01b8152600401602060405180830381865afa1580156102a7573d5f5f3e3d5ffd5b505050506040513d601f19601f820116820180604052508101906102cb9190610363565b6102d3565b60125b905060128160ff1611156102e5575f5ffd5b919050565b6001600160a01b03811681146102fe575f5ffd5b50565b5f5f5f60608486031215610313575f5ffd5b835161031e816102ea565b602085015190935061032f816102ea565b80925050604084015190509250925092565b5f60208284031215610351575f5ffd5b815161035c816102ea565b9392505050565b5f60208284031215610373575f5ffd5b815160ff8116811461035c575f5ffd5b634e487b7160e01b5f52604160045260245ffd5b600181811c908216806103ab57607f821691505b6020821081036103c957634e487b7160e01b5f52602260045260245ffd5b50919050565b601f82111561041657805f5260205f20601f840160051c810160208510156103f45750805b601f840160051c820191505b81811015610413575f8155600101610400565b50505b505050565b81516001600160401b0381111561043457610434610383565b610448816104428454610397565b846103cf565b6020601f82116001811461047a575f83156104635750848201515b5f19600385901b1c1916600184901b178455610413565b5f84815260208120601f198516915b828110156104a95787850151825560209485019460019092019101610489565b50848210156104c657868401515f19600387901b60f8161c191681555b50505050600190811b01905550565b60805160a05160c05160e051610100516101205161014051613f196105ff5f395f818161261c01526126af01525f818161142f01526119ef01525f818161147001526119ba01525f8181610658015281816118cc0152818161193b0152818161211101528181612185015281816124710152818161256e015281816128690152818161293301528181612b4f0152612c1d01525f81816104050152611ff601525f81816103c60152818161177701528181611ed30152818161225e01528181612b800152612f8601525f818161030001528181610626015281816108c601528181610ae40152818161179f0152818161189901528181611af601528181611b5301528181612646015281816126de01528181612898015281816129600152612fb50152613f195ff3fe608060405234801561000f575f5ffd5b506004361061021b575f3560e01c80638fc4709311610123578063aea91078116100b8578063c879657211610088578063dd62ed3e1161006e578063dd62ed3e146104c4578063e0b4327d146104fc578063eb9b191214610504575f5ffd5b8063c8796572146104a9578063cc351ac5146104b1575f5ffd5b8063aea9107814610468578063b35cb45d1461047b578063b905a4ff14610483578063c6e6f59214610496575f5ffd5b806398476c2b116100f357806398476c2b1461042757806398dce16d1461043a578063a035b1fe1461044d578063a9059cbb14610455575f5ffd5b80638fc47093146103e857806394db0595146103f057806395d89b41146103f8578063978bbdb914610400575f5ffd5b806323b872dd116101b3578063439fab9111610183578063616252b611610169578063616252b61461036257806370a082311461039957806376d5de85146103c1575f5ffd5b8063439fab911461033a57806357831a041461034f575f5ffd5b806323b872dd146102c657806325565931146102d9578063313ce567146102ec57806338d52e0f146102fb575f5ffd5b80630db734d4116101ee5780630db734d414610285578063127af7f914610298578063131b822d146102ab57806318160ddd146102be575f5ffd5b806301e1d1141461021f57806306fdde031461023a57806307a2d13a1461024f578063095ea7b314610262575b5f5ffd5b610227610517565b6040519081526020015b60405180910390f35b610242610529565b604051610231919061333a565b61022761025d36600461334c565b6105b9565b61027561027036600461337a565b6106e3565b6040519015158152602001610231565b6102276102933660046133e2565b6106fa565b6102276102a6366004613447565b610921565b6102276102b93660046135dd565b610bca565b600354610227565b6102756102d436600461360f565b610be5565b6102276102e736600461334c565b610c0a565b60405160128152602001610231565b6103227f000000000000000000000000000000000000000000000000000000000000000081565b6040516001600160a01b039091168152602001610231565b61034d61034836600461364d565b610c4d565b005b61022761035d36600461368c565b610cc1565b604080516001600160a01b035f5c8116825260015c8116602083015260025c169181019190915260035c6060820152608001610231565b6102276103a73660046136cc565b6001600160a01b03165f9081526001602052604090205490565b6103227f000000000000000000000000000000000000000000000000000000000000000081565b610227610e97565b610227610ebc565b610242610ed2565b6102277f000000000000000000000000000000000000000000000000000000000000000081565b61034d6104353660046136e7565b610ee1565b61034d61044836600461360f565b6110a0565b610227611217565b61027561046336600461337a565b61123f565b6102276104763660046136cc565b61124c565b61034d6112d7565b61022761049136600461334c565b6113f9565b6102276104a436600461334c565b611428565b61034d6114bf565b61034d6104bf366004613726565b61154c565b6102276104d2366004613769565b6001600160a01b039182165f90815260026020908152604080832093909416825291909152205490565b610227611747565b6102276105123660046137a0565b61182c565b5f61052461025d60035490565b905090565b606060068054610538906137e4565b80601f0160208091040260200160405190810160405280929190818152602001828054610564906137e4565b80156105af5780601f10610586576101008083540402835291602001916105af565b820191905f5260205f20905b81548152906001019060200180831161059257829003601f168201915b5050505050905090565b5f805c6001600160a01b0316158015906105e157506105e16001600160a01b035f5c166118c9565b156106d4576040517f32df6ff20000000000000000000000000000000000000000000000000000000081523060048201526001600160a01b035f805c821660248401527f000000000000000000000000000000000000000000000000000000000000000082166044840152606483018590529182917f000000000000000000000000000000000000000000000000000000000000000016906332df6ff2906084016040805180830381865afa15801561069c573d5f5f3e3d5ffd5b505050506040513d601f19601f820116820180604052508101906106c09190613849565b9150915081156106d1579392505050565b50505b6106dd826119a4565b92915050565b5f336106f0818585611a3b565b5060019392505050565b6040517f46f74dce0000000000000000000000000000000000000000000000000000000081523360048201525f90735615deb798bb3e4dfa0139dfa1b3d433cc23b72f906346f74dce90602401602060405180830381865afa158015610762573d5f5f3e3d5ffd5b505050506040513d601f19601f820116820180604052508101906107869190613873565b15155f036107c7576040517f8e4a23d60000000000000000000000000000000000000000000000000000000081523360048201526024015b60405180910390fd5b336001805c73ffffffffffffffffffffffffffffffffffffffff19168217905d50855f5c6001600160a01b031661082657805f805c73ffffffffffffffffffffffffffffffffffffffff19166001600160a01b03831617905d5061086d565b5f5c6001600160a01b039081169082161461086d576040517f391fea3c00000000000000000000000000000000000000000000000000000000815260040160405180910390fd5b610875611a4d565b6108b7868686868080601f0160208091040260200160405190810160405280939291908181526020018383808284375f920191909152508d9250611ad5915050565b91506108f26001600160a01b037f000000000000000000000000000000000000000000000000000000000000000081169060015c1684611b9b565b6108fa611c0f565b506001805c73ffffffffffffffffffffffffffffffffffffffff1916905d95945050505050565b6040517f46f74dce0000000000000000000000000000000000000000000000000000000081523360048201525f90735615deb798bb3e4dfa0139dfa1b3d433cc23b72f906346f74dce90602401602060405180830381865afa158015610989573d5f5f3e3d5ffd5b505050506040513d601f19601f820116820180604052508101906109ad9190613873565b15155f036109e9576040517f8e4a23d60000000000000000000000000000000000000000000000000000000081523360048201526024016107be565b336001805c73ffffffffffffffffffffffffffffffffffffffff19168217905d50835f5c6001600160a01b0316610a4857805f805c73ffffffffffffffffffffffffffffffffffffffff19166001600160a01b03831617905d50610a8f565b5f5c6001600160a01b0390811690821614610a8f576040517f391fea3c00000000000000000000000000000000000000000000000000000000815260040160405180910390fd5b610a97611a4d565b610aa0856118c9565b15610ad7576040517f1bb8b5b100000000000000000000000000000000000000000000000000000000815260040160405180910390fd5b610b116001600160a01b037f000000000000000000000000000000000000000000000000000000000000000081169060015c163089611c39565b610b528685858080601f0160208091040260200160405190810160405280939291908181526020018383808284375f920191909152508a9250611c78915050565b915060015c6001600160a01b03166002805c73ffffffffffffffffffffffffffffffffffffffff19168217905d50818060035d50610b9c856001600160a01b0360015c1684611d0a565b610ba4611c0f565b506001805c73ffffffffffffffffffffffffffffffffffffffff1916905d949350505050565b335f8181526001602052604081205490916106dd9184611d99565b5f33610bf2858285611e14565b610bfd858585611d0a565b60019150505b9392505050565b5f6001610c15610ebc565b610c1d611ea3565b610c2791906138b9565b610c3191906138cc565b610c39610e97565b610c4390846138df565b6106dd91906138f6565b5f5460ff1615610c89576040517ff92ee8a900000000000000000000000000000000000000000000000000000000815260040160405180910390fd5b5f80547fffffffffffffffffffffffffffffffffffffffffffffffffffffffffffffff00166001179055610cbd8282611f44565b5050565b6040517f46f74dce0000000000000000000000000000000000000000000000000000000081523360048201525f90735615deb798bb3e4dfa0139dfa1b3d433cc23b72f906346f74dce90602401602060405180830381865afa158015610d29573d5f5f3e3d5ffd5b505050506040513d601f19601f82011682018060405250810190610d4d9190613873565b15155f03610d89576040517f8e4a23d60000000000000000000000000000000000000000000000000000000081523360048201526024016107be565b336001805c73ffffffffffffffffffffffffffffffffffffffff19168217905d50845f5c6001600160a01b0316610de857805f805c73ffffffffffffffffffffffffffffffffffffffff19166001600160a01b03831617905d50610e2f565b5f5c6001600160a01b0390811690821614610e2f576040517f391fea3c00000000000000000000000000000000000000000000000000000000815260040160405180910390fd5b610e6f868686868080601f0160208091040260200160405190810160405280939291908181526020018383808284375f92019190915250611d9992505050565b9150506001805c73ffffffffffffffffffffffffffffffffffffffff1916905d949350505050565b5f620f4240600a54610ea860035490565b610eb291906138b9565b61052491906138cc565b5f610ec5611fd1565b60095461052491906138cc565b606060078054610538906137e4565b805f5c6001600160a01b0316610f1f57805f805c73ffffffffffffffffffffffffffffffffffffffff19166001600160a01b03831617905d50610f66565b5f5c6001600160a01b0390811690821614610f66576040517f391fea3c00000000000000000000000000000000000000000000000000000000815260040160405180910390fd5b6040517f46f74dce000000000000000000000000000000000000000000000000000000008152336004820152735615deb798bb3e4dfa0139dfa1b3d433cc23b72f906346f74dce90602401602060405180830381865afa158015610fcc573d5f5f3e3d5ffd5b505050506040513d601f19601f82011682018060405250810190610ff09190613873565b15155f0361102c576040517f8e4a23d60000000000000000000000000000000000000000000000000000000081523360048201526024016107be565b336001805c73ffffffffffffffffffffffffffffffffffffffff19168217905d50836002805c73ffffffffffffffffffffffffffffffffffffffff19166001600160a01b03831617905d50828060035d506001805c73ffffffffffffffffffffffffffffffffffffffff1916905d50505050565b6040517f46f74dce000000000000000000000000000000000000000000000000000000008152336004820152735615deb798bb3e4dfa0139dfa1b3d433cc23b72f906346f74dce90602401602060405180830381865afa158015611106573d5f5f3e3d5ffd5b505050506040513d601f19601f8201168201806040525081019061112a9190613873565b15155f03611166576040517f8e4a23d60000000000000000000000000000000000000000000000000000000081523360048201526024016107be565b336001805c73ffffffffffffffffffffffffffffffffffffffff19168217905d50826002805c73ffffffffffffffffffffffffffffffffffffffff19166001600160a01b03831617905d50808060035d506111cd6001600160a01b0360015c168483611d0a565b6111d883838361210e565b505f805c73ffffffffffffffffffffffffffffffffffffffff1916905d6001805c73ffffffffffffffffffffffffffffffffffffffff1916905d505050565b5f61123061025d620f4240670de0b6b3a76400006138df565b6105249064e8d4a510006138df565b5f336106f0818585611d0a565b5f6001600160a01b03815c81811691849190821673ffffffffffffffffffffffffffffffffffffffff1990911617835d505f61129661025d620f4240670de0b6b3a76400006138df565b6112a59064e8d4a510006138df565b9050815f805c73ffffffffffffffffffffffffffffffffffffffff19166001600160a01b03831617905d509392505050565b6040517f46f74dce000000000000000000000000000000000000000000000000000000008152336004820152735615deb798bb3e4dfa0139dfa1b3d433cc23b72f906346f74dce90602401602060405180830381865afa15801561133d573d5f5f3e3d5ffd5b505050506040513d601f19601f820116820180604052508101906113619190613873565b15155f0361139d576040517f8e4a23d60000000000000000000000000000000000000000000000000000000081523360048201526024016107be565b336001805c73ffffffffffffffffffffffffffffffffffffffff19168217905d505f805c73ffffffffffffffffffffffffffffffffffffffff1916905d6001805c73ffffffffffffffffffffffffffffffffffffffff1916905d565b5f611402610e97565b600161140c610ebc565b611414611ea3565b61141e91906138b9565b610c3991906138cc565b5f806114557f0000000000000000000000000000000000000000000000000000000000000000600a613a11565b61145d611747565b61146791906138df565b611495601260ff7f0000000000000000000000000000000000000000000000000000000000000000166138cc565b6114a090600a613a1f565b6114aa90856138df565b6114b491906138f6565b9050610c0381610c0a565b6114c76121ef565b611546735615deb798bb3e4dfa0139dfa1b3d433cc23b72f6001600160a01b031663b3f006746040518163ffffffff1660e01b8152600401602060405180830381865afa15801561151a573d5f5f3e3d5ffd5b505050506040513d601f19601f8201168201806040525081019061153e9190613a2a565b600954612251565b5f600955565b6040517f46f74dce000000000000000000000000000000000000000000000000000000008152336004820152735615deb798bb3e4dfa0139dfa1b3d433cc23b72f906346f74dce90602401602060405180830381865afa1580156115b2573d5f5f3e3d5ffd5b505050506040513d601f19601f820116820180604052508101906115d69190613873565b15155f03611612576040517f8e4a23d60000000000000000000000000000000000000000000000000000000081523360048201526024016107be565b336001805c73ffffffffffffffffffffffffffffffffffffffff19168217905d50825f805c73ffffffffffffffffffffffffffffffffffffffff19166001600160a01b03831617905d50611665846118c9565b1561169c576040517f1bb8b5b100000000000000000000000000000000000000000000000000000000815260040160405180910390fd5b6116a5836118c9565b80156116c657506001600160a01b0384165f90815260016020526040812054115b156116fd576040517f1bb8b5b100000000000000000000000000000000000000000000000000000000815260040160405180910390fd5b336002805c73ffffffffffffffffffffffffffffffffffffffff19168217905d50818060035d506001805c73ffffffffffffffffffffffffffffffffffffffff1916905d50505050565b6040517f4c2d8eff0000000000000000000000000000000000000000000000000000000081526001600160a01b037f0000000000000000000000000000000000000000000000000000000000000000811660048301527f00000000000000000000000000000000000000000000000000000000000000001660248201525f90819073594734c7e06c3d483466adbce401c6bd269746c890634c2d8eff906044016040805180830381865afa158015611801573d5f5f3e3d5ffd5b505050506040513d601f19601f820116820180604052508101906118259190613a45565b5092915050565b5f611835611a4d565b335f908152600160205260408120549081900361187e576040517f3a513ebe00000000000000000000000000000000000000000000000000000000815260040160405180910390fd5b61188a84828533611ad5565b91506118c06001600160a01b037f0000000000000000000000000000000000000000000000000000000000000000163384611b9b565b506106dd611c0f565b5f7f00000000000000000000000000000000000000000000000000000000000000006001600160a01b0316158015906106dd57506040517f37504d9c0000000000000000000000000000000000000000000000000000000081523060048201526001600160a01b0383811660248301527f000000000000000000000000000000000000000000000000000000000000000016906337504d9c90604401602060405180830381865afa158015611980573d5f5f3e3d5ffd5b505050506040513d601f19601f820116820180604052508101906106dd9190613873565b5f5f6119af836113f9565b90506119df601260ff7f0000000000000000000000000000000000000000000000000000000000000000166138cc565b6119ea90600a613a1f565b611a157f0000000000000000000000000000000000000000000000000000000000000000600a613a11565b611a1d611747565b611a2790846138df565b611a3191906138df565b610c0391906138f6565b611a488383836001612285565b505050565b7f9b779b17422d0df92223018b32b4d1fa46e071723d6817e2486d003becc55f005c15611aa6576040517f3ee5aeb500000000000000000000000000000000000000000000000000000000815260040160405180910390fd5b611ad360017f9b779b17422d0df92223018b32b4d1fa46e071723d6817e2486d003becc55f005b90612389565b565b5f845f03611ae457505f611b93565b5f611aee836118c9565b90505f611b1a7f0000000000000000000000000000000000000000000000000000000000000000612390565b9050611b246121ef565b611b308785848861242b565b8115611b4d5786600a5f828254611b4791906138b9565b90915550505b5f611b777f0000000000000000000000000000000000000000000000000000000000000000612390565b9050611b8382826138b9565b9350611b8f8589612767565b5050505b949350505050565b6040516001600160a01b03838116602483015260448201839052611a4891859182169063a9059cbb906064015b604051602081830303815290604052915060e01b6020820180517bffffffffffffffffffffffffffffffffffffffffffffffffffffffff83818316178352505050506127b4565b611ad35f7f9b779b17422d0df92223018b32b4d1fa46e071723d6817e2486d003becc55f00611acd565b6040516001600160a01b038481166024830152838116604483015260648201839052611c729186918216906323b872dd90608401611bc8565b50505050565b5f835f03611c8757505f610c03565b611c8f6121ef565b5f611c98611ea3565b9050611ca5858486612839565b5f81611caf611ea3565b611cb991906138b9565b90506001611cc5610ebc565b611ccf90846138b9565b611cd991906138cc565b611ce1610e97565b611ceb90836138df565b611cf591906138f6565b9250611d0184846129cc565b50509392505050565b6001600160a01b038316611d4c576040517f96c6fd1e0000000000000000000000000000000000000000000000000000000081525f60048201526024016107be565b6001600160a01b038216611d8e576040517fec442f050000000000000000000000000000000000000000000000000000000081525f60048201526024016107be565b611a48838383612a15565b5f825f03611dd3576040517f3a513ebe00000000000000000000000000000000000000000000000000000000815260040160405180910390fd5b611ddb6121ef565b5f611de5846113f9565b9050611df385828686612b1f565b915083600a5f828254611e0691906138cc565b909155509195945050505050565b6001600160a01b038381165f908152600260209081526040808320938616835292905220545f19811015611c725781811015611e95576040517ffb8f41b20000000000000000000000000000000000000000000000000000000081526001600160a01b038416600482015260248101829052604481018390526064016107be565b611c7284848484035f612285565b6040517f70a082310000000000000000000000000000000000000000000000000000000081523060048201525f907f00000000000000000000000000000000000000000000000000000000000000006001600160a01b0316906370a0823190602401602060405180830381865afa158015611f20573d5f5f3e3d5ffd5b505050506040513d601f19601f820116820180604052508101906105249190613a67565b5f80611f5283850185613a7e565b90925090506006611f638382613b18565b506007611f708282613b18565b50600880547fffffffffffffffffffffffffffffffffffffffffffffffffffffffff00000000164263ffffffff1617905560405130907f2e49a5810fda2439a23771848b4acec786b0a64d4de3d124ac57fc8739c38875905f90a250505050565b6008545f908190611fe89063ffffffff16426138b9565b90505f6301e1338061201a837f00000000000000000000000000000000000000000000000000000000000000006138df565b61202491906138f6565b9050805f03612035575f9250505090565b5f600954612041611ea3565b61204b91906138b9565b90505f670de0b6b3a76400006120628160066138df565b61206c91906138df565b8361207781806138df565b61208191906138df565b61208b91906138f6565b61209e670de0b6b3a764000060026138df565b6120a885806138df565b6120b291906138f6565b6120c485670de0b6b3a76400006138cc565b6120ce91906138cc565b6120d891906138cc565b90505f816120ee670de0b6b3a7640000856138df565b6120f891906138f6565b905061210481846138b9565b9550505050505090565b5f7f00000000000000000000000000000000000000000000000000000000000000006001600160a01b031615610c03576040517f838f705b0000000000000000000000000000000000000000000000000000000081526001600160a01b0384811660048301528581166024830152604482018490527f0000000000000000000000000000000000000000000000000000000000000000169063838f705b906064016020604051808303815f875af11580156121cb573d5f5f3e3d5ffd5b505050506040513d601f19601f82011682018060405250810190611b939190613873565b6008544263ffffffff9091160361220257565b61220a611fd1565b60095f82825461221a91906138cc565b9091555050600880547fffffffffffffffffffffffffffffffffffffffffffffffffffffffff00000000164263ffffffff16179055565b610cbd6001600160a01b037f0000000000000000000000000000000000000000000000000000000000000000168383611b9b565b6001600160a01b0384166122c7576040517fe602df050000000000000000000000000000000000000000000000000000000081525f60048201526024016107be565b6001600160a01b038316612309576040517f94280d620000000000000000000000000000000000000000000000000000000081525f60048201526024016107be565b6001600160a01b038085165f9081526002602090815260408083209387168352929052208290558015611c7257826001600160a01b0316846001600160a01b03167f8c5be1e5ebec7d5bd14f71427d1e84f3dd0314c0f7b2291e5b200ac8c7c3b9258460405161237b91815260200190565b60405180910390a350505050565b80825d5050565b5f6001600160a01b03821615612424576040517f70a082310000000000000000000000000000000000000000000000000000000081523060048201526001600160a01b038316906370a0823190602401602060405180830381865afa1580156123fb573d5f5f3e3d5ffd5b505050506040513d601f19601f8201168201806040525081019061241f9190613a67565b6106dd565b4792915050565b8115612749576040517fafbf911a0000000000000000000000000000000000000000000000000000000081523060048201526001600160a01b0384811660248301525f917f00000000000000000000000000000000000000000000000000000000000000009091169063afbf911a9060440160c060405180830381865afa1580156124b8573d5f5f3e3d5ffd5b505050506040513d601f19601f820116820180604052508101906124dc9190613c0f565b5090505f81604001516effffffffffffffffffffffffffffff168683602001516effffffffffffffffffffffffffffff1661251791906138df565b61252191906138f6565b6040517fed020beb0000000000000000000000000000000000000000000000000000000081526001600160a01b03878116600483015260248201839052604482018990529192505f9182917f00000000000000000000000000000000000000000000000000000000000000009091169063ed020beb9060640160408051808303815f875af11580156125b5573d5f5f3e3d5ffd5b505050506040513d601f19601f820116820180604052508101906125d99190613cd1565b915091508061261a5783516040517f4ccb7bc200000000000000000000000000000000000000000000000000000000815260048101919091526024016107be565b7f00000000000000000000000000000000000000000000000000000000000000006001600160a01b03167f00000000000000000000000000000000000000000000000000000000000000006001600160a01b031614612740575f858060200190518101906126889190613cfb565b90505f6040518060e001604052805f60048111156126a8576126a8613dc7565b81526020017f00000000000000000000000000000000000000000000000000000000000000006001600160a01b031681526020017f00000000000000000000000000000000000000000000000000000000000000006001600160a01b03168152602001858152602001836020015181526020014281526020018360400151815250905061273b81835f015160ff16612ca1565b505050505b50505050611c72565b5f612753856113f9565b905061275f8183612f49565b505050505050565b6001600160a01b0382166127a9576040517f96c6fd1e0000000000000000000000000000000000000000000000000000000081525f60048201526024016107be565b610cbd825f83612a15565b5f5f60205f8451602086015f885af1806127d3576040513d5f823e3d81fd5b50505f513d915081156127ea5780600114156127f7565b6001600160a01b0384163b155b15611c72576040517f5274afe70000000000000000000000000000000000000000000000000000000081526001600160a01b03851660048201526024016107be565b6040517f095ea7b30000000000000000000000000000000000000000000000000000000081526001600160a01b037f000000000000000000000000000000000000000000000000000000000000000081166004830152602482018590527f0000000000000000000000000000000000000000000000000000000000000000169063095ea7b3906044016020604051808303815f875af11580156128de573d5f5f3e3d5ffd5b505050506040513d601f19601f820116820180604052508101906129029190613873565b506040517fe7c35c3c0000000000000000000000000000000000000000000000000000000081526001600160a01b037f0000000000000000000000000000000000000000000000000000000000000000169063e7c35c3c9061298c907f00000000000000000000000000000000000000000000000000000000000000009087908690600401613df4565b6020604051808303815f875af11580156129a8573d5f5f3e3d5ffd5b505050506040513d601f19601f82011682018060405250810190611c729190613a67565b6001600160a01b038216612a0e576040517fec442f050000000000000000000000000000000000000000000000000000000081525f60048201526024016107be565b610cbd5f83835b6001600160a01b03831615801590612a3557506001600160a01b03821615155b15612b145760025c6001600160a01b0390811690831614612a9c576040517ffd351fc80000000000000000000000000000000000000000000000000000000081526001600160a01b03808516600483015283166024820152604481018290526064016107be565b8060035c1015612af2576040517ffd351fc80000000000000000000000000000000000000000000000000000000081526001600160a01b03808516600483015283166024820152604481018290526064016107be565b6002805c73ffffffffffffffffffffffffffffffffffffffff1916905d5f60035d5b611a4883838361301c565b6040517f095ea7b30000000000000000000000000000000000000000000000000000000081526001600160a01b037f000000000000000000000000000000000000000000000000000000000000000081166004830152602482018590525f917f00000000000000000000000000000000000000000000000000000000000000009091169063095ea7b3906044016020604051808303815f875af1158015612bc8573d5f5f3e3d5ffd5b505050506040513d601f19601f82011682018060405250810190612bec9190613873565b506040517f7c86cff50000000000000000000000000000000000000000000000000000000081526001600160a01b037f00000000000000000000000000000000000000000000000000000000000000001690637c86cff590612c58908890889088908890600401613e1b565b6020604051808303815f875af1158015612c74573d5f5f3e3d5ffd5b505050506040513d601f19601f82011682018060405250810190612c989190613a67565b95945050505050565b5f80600484516004811115612cb857612cb8613dc7565b03612e0b5760408481015190517f9287d7ac0000000000000000000000000000000000000000000000000000000081526001600160a01b0390911660048201525f90735615deb798bb3e4dfa0139dfa1b3d433cc23b72f90639287d7ac90602401602060405180830381865afa158015612d34573d5f5f3e3d5ffd5b505050506040513d601f19601f82011682018060405250810190612d589190613a2a565b9050612d8081866060015187602001516001600160a01b031661315b9092919063ffffffff16565b806001600160a01b031663e7c35c3c866020015187606001518860c001516040518463ffffffff1660e01b8152600401612dbc93929190613df4565b6020604051808303815f875af1158015612dd8573d5f5f3e3d5ffd5b505050506040513d601f19601f82011682018060405250810190612dfc9190613a67565b91508460600151925050612f42565b5f73594734c7e06c3d483466adbce401c6bd269746c86001600160a01b031663aaf10f426040518163ffffffff1660e01b8152600401602060405180830381865afa158015612e5c573d5f5f3e3d5ffd5b505050506040513d601f19601f82011682018060405250810190612e809190613a2a565b90505f612f2482632ba8c23c60e01b8789604051602401612ea2929190613e48565b604080517fffffffffffffffffffffffffffffffffffffffffffffffffffffffffffffffe08184030181529190526020810180517bffffffffffffffffffffffffffffffffffffffffffffffffffffffff167fffffffff0000000000000000000000000000000000000000000000000000000090931692909217909152613182565b905080806020019051810190612f3a9190613a45565b909450925050505b9250929050565b5f5f82806020019051810190612f5f9190613cfb565b90505f6040518060e001604052805f6004811115612f7f57612f7f613dc7565b81526020017f00000000000000000000000000000000000000000000000000000000000000006001600160a01b031681526020017f00000000000000000000000000000000000000000000000000000000000000006001600160a01b03168152602001868152602001836020015181526020014281526020018360400151815250905061301281835f015160ff16612ca1565b9695505050505050565b6001600160a01b038316613046578060035f82825461303b91906138cc565b909155506130cf9050565b6001600160a01b0383165f90815260016020526040902054818110156130b1576040517fe450d38c0000000000000000000000000000000000000000000000000000000081526001600160a01b038516600482015260248101829052604481018390526064016107be565b6001600160a01b0384165f9081526001602052604090209082900390555b6001600160a01b0382166130eb57600380548290039055613109565b6001600160a01b0382165f9081526001602052604090208054820190555b816001600160a01b0316836001600160a01b03167fddf252ad1be2c89b69c2b068fc378daa952ba7f163c4a11628f55a4df523b3ef8360405161314e91815260200190565b60405180910390a3505050565b6001600160a01b03831661316e57505050565b611a486001600160a01b03841683836131ec565b60605f836001600160a01b03168360405161319d9190613ef6565b5f60405180830381855af49150503d805f81146131d5576040519150601f19603f3d011682016040523d82523d5f602084013e6131da565b606091505b509250905080611825573d5f5f3e3d5ffd5b604080516001600160a01b038416602482015260448082018490528251808303909101815260649091019091526020810180517bffffffffffffffffffffffffffffffffffffffffffffffffffffffff167f095ea7b30000000000000000000000000000000000000000000000000000000017905261326b84826132a9565b611c72576040516001600160a01b0384811660248301525f604483015261329f91869182169063095ea7b390606401611bc8565b611c7284826127b4565b5f5f5f5f60205f8651602088015f8a5af192503d91505f519050828015613012575081156132da5780600114613012565b50505050506001600160a01b03163b151590565b5f81518084528060208401602086015e5f6020828601015260207fffffffffffffffffffffffffffffffffffffffffffffffffffffffffffffffe0601f83011685010191505092915050565b602081525f610c0360208301846132ee565b5f6020828403121561335c575f5ffd5b5035919050565b6001600160a01b0381168114613377575f5ffd5b50565b5f5f6040838503121561338b575f5ffd5b823561339681613363565b946020939093013593505050565b5f5f83601f8401126133b4575f5ffd5b50813567ffffffffffffffff8111156133cb575f5ffd5b602083019150836020828501011115612f42575f5ffd5b5f5f5f5f5f608086880312156133f6575f5ffd5b853561340181613363565b94506020860135935060408601359250606086013567ffffffffffffffff81111561342a575f5ffd5b613436888289016133a4565b969995985093965092949392505050565b5f5f5f5f6060858703121561345a575f5ffd5b84359350602085013561346c81613363565b9250604085013567ffffffffffffffff811115613487575f5ffd5b613493878288016133a4565b95989497509550505050565b7f4e487b71000000000000000000000000000000000000000000000000000000005f52604160045260245ffd5b6040516060810167ffffffffffffffff811182821017156134ef576134ef61349f565b60405290565b604051601f82017fffffffffffffffffffffffffffffffffffffffffffffffffffffffffffffffe016810167ffffffffffffffff8111828210171561353c5761353c61349f565b604052919050565b5f67ffffffffffffffff82111561355d5761355d61349f565b50601f017fffffffffffffffffffffffffffffffffffffffffffffffffffffffffffffffe01660200190565b5f82601f830112613598575f5ffd5b8135602083015f6135b06135ab84613544565b6134f5565b90508281528583830111156135c3575f5ffd5b828260208301375f92810160200192909252509392505050565b5f602082840312156135ed575f5ffd5b813567ffffffffffffffff811115613603575f5ffd5b611b9384828501613589565b5f5f5f60608486031215613621575f5ffd5b833561362c81613363565b9250602084013561363c81613363565b929592945050506040919091013590565b5f5f6020838503121561365e575f5ffd5b823567ffffffffffffffff811115613674575f5ffd5b613680858286016133a4565b90969095509350505050565b5f5f5f5f6060858703121561369f575f5ffd5b84356136aa81613363565b935060208501359250604085013567ffffffffffffffff811115613487575f5ffd5b5f602082840312156136dc575f5ffd5b8135610c0381613363565b5f5f5f606084860312156136f9575f5ffd5b833561370481613363565b925060208401359150604084013561371b81613363565b809150509250925092565b5f5f5f5f60808587031215613739575f5ffd5b843561374481613363565b9350602085013561375481613363565b93969395505050506040820135916060013590565b5f5f6040838503121561377a575f5ffd5b823561378581613363565b9150602083013561379581613363565b809150509250929050565b5f5f604083850312156137b1575f5ffd5b82359150602083013567ffffffffffffffff8111156137ce575f5ffd5b6137da85828601613589565b9150509250929050565b600181811c908216806137f857607f821691505b60208210810361382f577f4e487b71000000000000000000000000000000000000000000000000000000005f52602260045260245ffd5b50919050565b80518015158114613844575f5ffd5b919050565b5f5f6040838503121561385a575f5ffd5b61386383613835565b6020939093015192949293505050565b5f60208284031215613883575f5ffd5b610c0382613835565b7f4e487b71000000000000000000000000000000000000000000000000000000005f52601160045260245ffd5b818103818111156106dd576106dd61388c565b808201808211156106dd576106dd61388c565b80820281158282048414176106dd576106dd61388c565b5f82613929577f4e487b71000000000000000000000000000000000000000000000000000000005f52601260045260245ffd5b500490565b6001815b60018411156139695780850481111561394d5761394d61388c565b600184161561395b57908102905b60019390931c928002613932565b935093915050565b5f8261397f575060016106dd565b8161398b57505f6106dd565b81600181146139a157600281146139ab576139c7565b60019150506106dd565b60ff8411156139bc576139bc61388c565b50506001821b6106dd565b5060208310610133831016604e8410600b84101617156139ea575081810a6106dd565b6139f65f19848461392e565b805f1904821115613a0957613a0961388c565b029392505050565b5f610c0360ff841683613971565b5f610c038383613971565b5f60208284031215613a3a575f5ffd5b8151610c0381613363565b5f5f60408385031215613a56575f5ffd5b505080516020909101519092909150565b5f60208284031215613a77575f5ffd5b5051919050565b5f5f60408385031215613a8f575f5ffd5b823567ffffffffffffffff811115613aa5575f5ffd5b613ab185828601613589565b925050602083013567ffffffffffffffff8111156137ce575f5ffd5b601f821115611a4857805f5260205f20601f840160051c81016020851015613af25750805b601f840160051c820191505b81811015613b11575f8155600101613afe565b5050505050565b815167ffffffffffffffff811115613b3257613b3261349f565b613b4681613b4084546137e4565b84613acd565b6020601f821160018114613b78575f8315613b615750848201515b5f19600385901b1c1916600184901b178455613b11565b5f848152602081207fffffffffffffffffffffffffffffffffffffffffffffffffffffffffffffffe08516915b82811015613bc55787850151825560209485019460019092019101613ba5565b5084821015613be257868401515f19600387901b60f8161c191681555b50505050600190811b01905550565b80516effffffffffffffffffffffffffffff81168114613844575f5ffd5b5f5f82840360c0811215613c21575f5ffd5b6060811215613c2e575f5ffd5b613c366134cc565b84518152613c4660208601613bf1565b6020820152613c5760408601613bf1565b6040820152925060607fffffffffffffffffffffffffffffffffffffffffffffffffffffffffffffffa082011215613c8d575f5ffd5b50613c966134cc565b613ca260608501613bf1565b8152613cb060808501613bf1565b6020820152613cc160a08501613835565b6040820152809150509250929050565b5f5f60408385031215613ce2575f5ffd5b82519150613cf260208401613835565b90509250929050565b5f60208284031215613d0b575f5ffd5b815167ffffffffffffffff811115613d21575f5ffd5b820160608185031215613d32575f5ffd5b613d3a6134cc565b815160ff81168114613d4a575f5ffd5b815260208281015190820152604082015167ffffffffffffffff811115613d6f575f5ffd5b80830192505084601f830112613d83575f5ffd5b8151613d916135ab82613544565b818152866020838601011115613da5575f5ffd5b8160208501602083015e5f918101602001919091526040820152949350505050565b7f4e487b71000000000000000000000000000000000000000000000000000000005f52602160045260245ffd5b6001600160a01b0384168152826020820152606060408201525f612c9860608301846132ee565b6001600160a01b0385168152836020820152826040820152608060608201525f61301260808301846132ee565b61ffff83168152604060208201525f825160058110613e8e577f4e487b71000000000000000000000000000000000000000000000000000000005f52602160045260245ffd5b604083015260208301516001600160a01b03811660608401525060408301516001600160a01b038116608084015250606083015160a0830152608083015160c083015260a083015160e083015260c083015160e0610100840152612c986101208401826132ee565b5f82518060208501845e5f92019182525091905056fea164736f6c634300081d000a","linkReferences":{}},"methodIdentifiers":{"allowTransfer(address,uint256,address)":"98476c2b","allowance(address,address)":"dd62ed3e","approve(address,uint256)":"095ea7b3","asset()":"38d52e0f","balanceOf(address)":"70a08231","burnShares(address,uint256,uint256,bytes)":"0db734d4","clearCurrentAccount()":"b35cb45d","collectFees()":"c8796572","convertSharesToYieldToken(uint256)":"b905a4ff","convertToAssets(uint256)":"07a2d13a","convertToShares(uint256)":"c6e6f592","convertYieldTokenToAsset()":"e0b4327d","convertYieldTokenToShares(uint256)":"25565931","decimals()":"313ce567","effectiveSupply()":"8fc47093","feeRate()":"978bbdb9","feesAccrued()":"94db0595","initialize(bytes)":"439fab91","initiateWithdraw(address,uint256,bytes)":"57831a04","initiateWithdrawNative(bytes)":"131b822d","mintShares(uint256,address,bytes)":"127af7f9","name()":"06fdde03","postLiquidation(address,address,uint256)":"98dce16d","preLiquidation(address,address,uint256,uint256)":"cc351ac5","price()":"a035b1fe","price(address)":"aea91078","redeemNative(uint256,bytes)":"eb9b1912","symbol()":"95d89b41","totalAssets()":"01e1d114","totalSupply()":"18160ddd","transfer(address,uint256)":"a9059cbb","transferFrom(address,address,uint256)":"23b872dd","transientVariables()":"616252b6","yieldToken()":"76d5de85"},"id":103}