{"abi":[{"type":"constructor","inputs":[{"name":"_asset","type":"address","internalType":"address"},{"name":"_yieldToken","type":"address","internalType":"address"},{"name":"_feeRate","type":"uint256","internalType":"uint256"}],"stateMutability":"nonpayable"},{"type":"function","name":"allowTransfer","inputs":[{"name":"to","type":"address","internalType":"address"},{"name":"amount","type":"uint256","internalType":"uint256"},{"name":"currentAccount","type":"address","internalType":"address"}],"outputs":[],"stateMutability":"nonpayable"},{"type":"function","name":"allowance","inputs":[{"name":"owner","type":"address","internalType":"address"},{"name":"spender","type":"address","internalType":"address"}],"outputs":[{"name":"","type":"uint256","internalType":"uint256"}],"stateMutability":"view"},{"type":"function","name":"approve","inputs":[{"name":"spender","type":"address","internalType":"address"},{"name":"value","type":"uint256","internalType":"uint256"}],"outputs":[{"name":"","type":"bool","internalType":"bool"}],"stateMutability":"nonpayable"},{"type":"function","name":"asset","inputs":[],"outputs":[{"name":"","type":"address","internalType":"address"}],"stateMutability":"view"},{"type":"function","name":"balanceOf","inputs":[{"name":"account","type":"address","internalType":"address"}],"outputs":[{"name":"","type":"uint256","internalType":"uint256"}],"stateMutability":"view"},{"type":"function","name":"burnShares","inputs":[{"name":"sharesOwner","type":"address","internalType":"address"},{"name":"sharesToBurn","type":"uint256","internalType":"uint256"},{"name":"sharesHeld","type":"uint256","internalType":"uint256"},{"name":"redeemData","type":"bytes","internalType":"bytes"}],"outputs":[{"name":"assetsWithdrawn","type":"uint256","internalType":"uint256"}],"stateMutability":"nonpayable"},{"type":"function","name":"clearCurrentAccount","inputs":[],"outputs":[],"stateMutability":"nonpayable"},{"type":"function","name":"collectFees","inputs":[],"outputs":[],"stateMutability":"nonpayable"},{"type":"function","name":"convertSharesToYieldToken","inputs":[{"name":"shares","type":"uint256","internalType":"uint256"}],"outputs":[{"name":"","type":"uint256","internalType":"uint256"}],"stateMutability":"view"},{"type":"function","name":"convertToAssets","inputs":[{"name":"shares","type":"uint256","internalType":"uint256"}],"outputs":[{"name":"","type":"uint256","internalType":"uint256"}],"stateMutability":"view"},{"type":"function","name":"convertToShares","inputs":[{"name":"assets","type":"uint256","internalType":"uint256"}],"outputs":[{"name":"","type":"uint256","internalType":"uint256"}],"stateMutability":"view"},{"type":"function","name":"convertYieldTokenToAsset","inputs":[],"outputs":[{"name":"","type":"uint256","internalType":"uint256"}],"stateMutability":"view"},{"type":"function","name":"convertYieldTokenToShares","inputs":[{"name":"yieldTokens","type":"uint256","internalType":"uint256"}],"outputs":[{"name":"","type":"uint256","internalType":"uint256"}],"stateMutability":"view"},{"type":"function","name":"decimals","inputs":[],"outputs":[{"name":"","type":"uint8","internalType":"uint8"}],"stateMutability":"view"},{"type":"function","name":"effectiveSupply","inputs":[],"outputs":[{"name":"","type":"uint256","internalType":"uint256"}],"stateMutability":"view"},{"type":"function","name":"feeRate","inputs":[],"outputs":[{"name":"","type":"uint256","internalType":"uint256"}],"stateMutability":"view"},{"type":"function","name":"feesAccrued","inputs":[],"outputs":[{"name":"feesAccruedInYieldToken","type":"uint256","internalType":"uint256"}],"stateMutability":"view"},{"type":"function","name":"initialize","inputs":[{"name":"data","type":"bytes","internalType":"bytes"}],"outputs":[],"stateMutability":"nonpayable"},{"type":"function","name":"initiateWithdraw","inputs":[{"name":"account","type":"address","internalType":"address"},{"name":"sharesHeld","type":"uint256","internalType":"uint256"},{"name":"data","type":"bytes","internalType":"bytes"}],"outputs":[{"name":"requestId","type":"uint256","internalType":"uint256"}],"stateMutability":"nonpayable"},{"type":"function","name":"initiateWithdrawNative","inputs":[{"name":"data","type":"bytes","internalType":"bytes"}],"outputs":[{"name":"requestId","type":"uint256","internalType":"uint256"}],"stateMutability":"nonpayable"},{"type":"function","name":"mintShares","inputs":[{"name":"assetAmount","type":"uint256","internalType":"uint256"},{"name":"receiver","type":"address","internalType":"address"},{"name":"depositData","type":"bytes","internalType":"bytes"}],"outputs":[{"name":"sharesMinted","type":"uint256","internalType":"uint256"}],"stateMutability":"nonpayable"},{"type":"function","name":"name","inputs":[],"outputs":[{"name":"","type":"string","internalType":"string"}],"stateMutability":"view"},{"type":"function","name":"postLiquidation","inputs":[{"name":"liquidator","type":"address","internalType":"address"},{"name":"liquidateAccount","type":"address","internalType":"address"},{"name":"sharesToLiquidator","type":"uint256","internalType":"uint256"}],"outputs":[],"stateMutability":"nonpayable"},{"type":"function","name":"preLiquidation","inputs":[{"name":"liquidator","type":"address","internalType":"address"},{"name":"liquidateAccount","type":"address","internalType":"address"},{"name":"sharesToLiquidate","type":"uint256","internalType":"uint256"},{"name":"accountSharesHeld","type":"uint256","internalType":"uint256"}],"outputs":[],"stateMutability":"nonpayable"},{"type":"function","name":"price","inputs":[],"outputs":[{"name":"","type":"uint256","internalType":"uint256"}],"stateMutability":"view"},{"type":"function","name":"price","inputs":[{"name":"borrower","type":"address","internalType":"address"}],"outputs":[{"name":"","type":"uint256","internalType":"uint256"}],"stateMutability":"nonpayable"},{"type":"function","name":"redeemNative","inputs":[{"name":"sharesToRedeem","type":"uint256","internalType":"uint256"},{"name":"redeemData","type":"bytes","internalType":"bytes"}],"outputs":[{"name":"assetsWithdrawn","type":"uint256","internalType":"uint256"}],"stateMutability":"nonpayable"},{"type":"function","name":"symbol","inputs":[],"outputs":[{"name":"","type":"string","internalType":"string"}],"stateMutability":"view"},{"type":"function","name":"totalAssets","inputs":[],"outputs":[{"name":"","type":"uint256","internalType":"uint256"}],"stateMutability":"view"},{"type":"function","name":"totalSupply","inputs":[],"outputs":[{"name":"","type":"uint256","internalType":"uint256"}],"stateMutability":"view"},{"type":"function","name":"transfer","inputs":[{"name":"to","type":"address","internalType":"address"},{"name":"value","type":"uint256","internalType":"uint256"}],"outputs":[{"name":"","type":"bool","internalType":"bool"}],"stateMutability":"nonpayable"},{"type":"function","name":"transferFrom","inputs":[{"name":"from","type":"address","internalType":"address"},{"name":"to","type":"address","internalType":"address"},{"name":"value","type":"uint256","internalType":"uint256"}],"outputs":[{"name":"","type":"bool","internalType":"bool"}],"stateMutability":"nonpayable"},{"type":"function","name":"transientVariables","inputs":[],"outputs":[{"name":"","type":"address","internalType":"address"},{"name":"","type":"address","internalType":"address"},{"name":"","type":"address","internalType":"address"},{"name":"","type":"uint256","internalType":"uint256"}],"stateMutability":"view"},{"type":"function","name":"yieldToken","inputs":[],"outputs":[{"name":"","type":"address","internalType":"address"}],"stateMutability":"view"},{"type":"event","name":"Approval","inputs":[{"name":"owner","type":"address","indexed":true,"internalType":"address"},{"name":"spender","type":"address","indexed":true,"internalType":"address"},{"name":"value","type":"uint256","indexed":false,"internalType":"uint256"}],"anonymous":false},{"type":"event","name":"Transfer","inputs":[{"name":"from","type":"address","indexed":true,"internalType":"address"},{"name":"to","type":"address","indexed":true,"internalType":"address"},{"name":"value","type":"uint256","indexed":false,"internalType":"uint256"}],"anonymous":false},{"type":"event","name":"VaultCreated","inputs":[{"name":"vault","type":"address","indexed":true,"internalType":"address"}],"anonymous":false},{"type":"error","name":"CannotEnterPosition","inputs":[]},{"type":"error","name":"CurrentAccountAlreadySet","inputs":[]},{"type":"error","name":"ERC20InsufficientAllowance","inputs":[{"name":"spender","type":"address","internalType":"address"},{"name":"allowance","type":"uint256","internalType":"uint256"},{"name":"needed","type":"uint256","internalType":"uint256"}]},{"type":"error","name":"ERC20InsufficientBalance","inputs":[{"name":"sender","type":"address","internalType":"address"},{"name":"balance","type":"uint256","internalType":"uint256"},{"name":"needed","type":"uint256","internalType":"uint256"}]},{"type":"error","name":"ERC20InvalidApprover","inputs":[{"name":"approver","type":"address","internalType":"address"}]},{"type":"error","name":"ERC20InvalidReceiver","inputs":[{"name":"receiver","type":"address","internalType":"address"}]},{"type":"error","name":"ERC20InvalidSender","inputs":[{"name":"sender","type":"address","internalType":"address"}]},{"type":"error","name":"ERC20InvalidSpender","inputs":[{"name":"spender","type":"address","internalType":"address"}]},{"type":"error","name":"InsufficientSharesHeld","inputs":[]},{"type":"error","name":"InvalidInitialization","inputs":[]},{"type":"error","name":"ReentrancyGuardReentrantCall","inputs":[]},{"type":"error","name":"SafeERC20FailedOperation","inputs":[{"name":"token","type":"address","internalType":"address"}]},{"type":"error","name":"Unauthorized","inputs":[{"name":"caller","type":"address","internalType":"address"}]},{"type":"error","name":"UnauthorizedLendingMarketTransfer","inputs":[{"name":"from","type":"address","internalType":"address"},{"name":"to","type":"address","internalType":"address"},{"name":"value","type":"uint256","internalType":"uint256"}]}],"bytecode":{"object":"0x610140604052348015610010575f5ffd5b5060405161342e38038061342e83398101604081905261002f916101de565b828282846001600160a01b031663313ce5676040518163ffffffff1660e01b8152600401602060405180830381865afa15801561006e573d5f5f3e3d5ffd5b505050506040513d601f19601f820116820180604052508101906100929190610217565b60408051602080820183525f8083528351918201909352828152825460ff19166001179092559060046100c583826102d6565b5060056100d282826102d6565b50505060c08290526001600160a01b03808516608052831660a05260ff8116610100526100fe84610112565b60ff16610120525061039095505050505050565b5f6001600160a01b038216158061014557506001600160a01b03821673eeeeeeeeeeeeeeeeeeeeeeeeeeeeeeeeeeeeeeee145b6101ae57816001600160a01b031663313ce5676040518163ffffffff1660e01b8152600401602060405180830381865afa158015610185573d5f5f3e3d5ffd5b505050506040513d601f19601f820116820180604052508101906101a99190610217565b6101b1565b60125b905060128160ff1611156101c3575f5ffd5b919050565b80516001600160a01b03811681146101c3575f5ffd5b5f5f5f606084860312156101f0575f5ffd5b6101f9846101c8565b9250610207602085016101c8565b9150604084015190509250925092565b5f60208284031215610227575f5ffd5b815160ff81168114610237575f5ffd5b9392505050565b634e487b7160e01b5f52604160045260245ffd5b600181811c9082168061026657607f821691505b60208210810361028457634e487b7160e01b5f52602260045260245ffd5b50919050565b601f8211156102d157805f5260205f20601f840160051c810160208510156102af5750805b601f840160051c820191505b818110156102ce575f81556001016102bb565b50505b505050565b81516001600160401b038111156102ef576102ef61023e565b610303816102fd8454610252565b8461028a565b6020601f821160018114610335575f831561031e5750848201515b5f19600385901b1c1916600184901b1784556102ce565b5f84815260208120601f198516915b828110156103645787850151825560209485019460019092019101610344565b508482101561038157868401515f19600387901b60f8161c191681555b50505050600190811b01905550565b60805160a05160c05160e0516101005161012051612fe061044e5f395f8181610604015261139701525f81816105cf01526113d801525f8181611a320152611aa101525f81816104050152611ebc01525f81816103c6015281816116df01528181611d99015281816120430152818161224c015281816123b4015261247d01525f81816103000152818161083c01528181610a5a0152818161170701528181611801015281816118ec0152818161194901526123e30152612fe05ff3fe608060405234801561000f575f5ffd5b506004361061021b575f3560e01c80638fc4709311610123578063aea91078116100b8578063c879657211610088578063dd62ed3e1161006e578063dd62ed3e146104c4578063e0b4327d146104fc578063eb9b191214610504575f5ffd5b8063c8796572146104a9578063cc351ac5146104b1575f5ffd5b8063aea9107814610468578063b35cb45d1461047b578063b905a4ff14610483578063c6e6f59214610496575f5ffd5b806398476c2b116100f357806398476c2b1461042757806398dce16d1461043a578063a035b1fe1461044d578063a9059cbb14610455575f5ffd5b80638fc47093146103e857806394db0595146103f057806395d89b41146103f8578063978bbdb914610400575f5ffd5b806323b872dd116101b3578063439fab9111610183578063616252b611610169578063616252b61461036257806370a082311461039957806376d5de85146103c1575f5ffd5b8063439fab911461033a57806357831a041461034f575f5ffd5b806323b872dd146102c657806325565931146102d9578063313ce567146102ec57806338d52e0f146102fb575f5ffd5b80630db734d4116101ee5780630db734d414610285578063127af7f914610298578063131b822d146102ab57806318160ddd146102be575f5ffd5b806301e1d1141461021f57806306fdde031461023a57806307a2d13a1461024f578063095ea7b314610262575b5f5ffd5b610227610517565b6040519081526020015b60405180910390f35b610242610529565b604051610231919061276e565b61022761025d3660046127c1565b6105b9565b6102756102703660046127ef565b610657565b6040519015158152602001610231565b61022761029336600461285e565b610670565b6102276102a63660046128c3565b610897565b6102276102b93660046129f7565b610b40565b600354610227565b6102756102d4366004612a29565b610b5b565b6102276102e73660046127c1565b610b7e565b60405160128152602001610231565b6103227f000000000000000000000000000000000000000000000000000000000000000081565b6040516001600160a01b039091168152602001610231565b61034d610348366004612a67565b610bc1565b005b61022761035d366004612aa6565b610c35565b604080516001600160a01b035f5c8116825260015c8116602083015260025c169181019190915260035c6060820152608001610231565b6102276103a7366004612ae6565b6001600160a01b03165f9081526001602052604090205490565b6103227f000000000000000000000000000000000000000000000000000000000000000081565b610227610e0b565b610227610e30565b610242610e46565b6102277f000000000000000000000000000000000000000000000000000000000000000081565b61034d610435366004612b01565b610e55565b61034d610448366004612a29565b611014565b61022761117f565b6102756104633660046127ef565b6111a7565b610227610476366004612ae6565b6111b4565b61034d61123f565b6102276104913660046127c1565b611361565b6102276104a43660046127c1565b611390565b61034d611427565b61034d6104bf366004612b40565b6114b4565b6102276104d2366004612b83565b6001600160a01b039182165f90815260026020908152604080832093909416825291909152205490565b6102276116af565b610227610512366004612bba565b611794565b5f61052461025d60035490565b905090565b60606006805461053890612bfe565b80601f016020809104026020016040519081016040528092919081815260200182805461056490612bfe565b80156105af5780601f10610586576101008083540402835291602001916105af565b820191905f5260205f20905b81548152906001019060200180831161059257829003601f168201915b5050505050905090565b5f5f6105c483611361565b90506105f4601260ff7f000000000000000000000000000000000000000000000000000000000000000016612c7c565b6105ff90600a612d72565b61062a7f0000000000000000000000000000000000000000000000000000000000000000600a612d7d565b6106326116af565b61063c9084612d8b565b6106469190612d8b565b6106509190612da2565b9392505050565b5f33610664818585611831565b60019150505b92915050565b6040517f46f74dce0000000000000000000000000000000000000000000000000000000081523360048201525f90735615deb798bb3e4dfa0139dfa1b3d433cc23b72f906346f74dce90602401602060405180830381865afa1580156106d8573d5f5f3e3d5ffd5b505050506040513d601f19601f820116820180604052508101906106fc9190612dda565b15155f0361073d576040517f8e4a23d60000000000000000000000000000000000000000000000000000000081523360048201526024015b60405180910390fd5b336001805c73ffffffffffffffffffffffffffffffffffffffff19168217905d50855f5c6001600160a01b031661079c57805f805c73ffffffffffffffffffffffffffffffffffffffff19166001600160a01b03831617905d506107e3565b5f5c6001600160a01b03908116908216146107e3576040517f391fea3c00000000000000000000000000000000000000000000000000000000815260040160405180910390fd5b6107eb611843565b61082d868686868080601f0160208091040260200160405190810160405280939291908181526020018383808284375f920191909152508d92506118cb915050565b91506108686001600160a01b037f000000000000000000000000000000000000000000000000000000000000000081169060015c1684611991565b610870611a05565b506001805c73ffffffffffffffffffffffffffffffffffffffff1916905d95945050505050565b6040517f46f74dce0000000000000000000000000000000000000000000000000000000081523360048201525f90735615deb798bb3e4dfa0139dfa1b3d433cc23b72f906346f74dce90602401602060405180830381865afa1580156108ff573d5f5f3e3d5ffd5b505050506040513d601f19601f820116820180604052508101906109239190612dda565b15155f0361095f576040517f8e4a23d6000000000000000000000000000000000000000000000000000000008152336004820152602401610734565b336001805c73ffffffffffffffffffffffffffffffffffffffff19168217905d50835f5c6001600160a01b03166109be57805f805c73ffffffffffffffffffffffffffffffffffffffff19166001600160a01b03831617905d50610a05565b5f5c6001600160a01b0390811690821614610a05576040517f391fea3c00000000000000000000000000000000000000000000000000000000815260040160405180910390fd5b610a0d611843565b610a1685611a2f565b15610a4d576040517f1bb8b5b100000000000000000000000000000000000000000000000000000000815260040160405180910390fd5b610a876001600160a01b037f000000000000000000000000000000000000000000000000000000000000000081169060015c163089611b0a565b610ac88685858080601f0160208091040260200160405190810160405280939291908181526020018383808284375f920191909152508a9250611b49915050565b915060015c6001600160a01b03166002805c73ffffffffffffffffffffffffffffffffffffffff19168217905d50818060035d50610b12856001600160a01b0360015c1684611bdb565b610b1a611a05565b506001805c73ffffffffffffffffffffffffffffffffffffffff1916905d949350505050565b335f81815260016020526040812054909161066a9184611c6a565b5f33610b68858285611cda565b610b73858585611bdb565b506001949350505050565b5f6001610b89610e30565b610b91611d69565b610b9b9190612df9565b610ba59190612c7c565b610bad610e0b565b610bb79084612d8b565b61066a9190612da2565b5f5460ff1615610bfd576040517ff92ee8a900000000000000000000000000000000000000000000000000000000815260040160405180910390fd5b5f80547fffffffffffffffffffffffffffffffffffffffffffffffffffffffffffffff00166001179055610c318282611e0a565b5050565b6040517f46f74dce0000000000000000000000000000000000000000000000000000000081523360048201525f90735615deb798bb3e4dfa0139dfa1b3d433cc23b72f906346f74dce90602401602060405180830381865afa158015610c9d573d5f5f3e3d5ffd5b505050506040513d601f19601f82011682018060405250810190610cc19190612dda565b15155f03610cfd576040517f8e4a23d6000000000000000000000000000000000000000000000000000000008152336004820152602401610734565b336001805c73ffffffffffffffffffffffffffffffffffffffff19168217905d50845f5c6001600160a01b0316610d5c57805f805c73ffffffffffffffffffffffffffffffffffffffff19166001600160a01b03831617905d50610da3565b5f5c6001600160a01b0390811690821614610da3576040517f391fea3c00000000000000000000000000000000000000000000000000000000815260040160405180910390fd5b610de3868686868080601f0160208091040260200160405190810160405280939291908181526020018383808284375f92019190915250611c6a92505050565b9150506001805c73ffffffffffffffffffffffffffffffffffffffff1916905d949350505050565b5f620f4240600a54610e1c60035490565b610e269190612df9565b6105249190612c7c565b5f610e39611e97565b6009546105249190612c7c565b60606007805461053890612bfe565b805f5c6001600160a01b0316610e9357805f805c73ffffffffffffffffffffffffffffffffffffffff19166001600160a01b03831617905d50610eda565b5f5c6001600160a01b0390811690821614610eda576040517f391fea3c00000000000000000000000000000000000000000000000000000000815260040160405180910390fd5b6040517f46f74dce000000000000000000000000000000000000000000000000000000008152336004820152735615deb798bb3e4dfa0139dfa1b3d433cc23b72f906346f74dce90602401602060405180830381865afa158015610f40573d5f5f3e3d5ffd5b505050506040513d601f19601f82011682018060405250810190610f649190612dda565b15155f03610fa0576040517f8e4a23d6000000000000000000000000000000000000000000000000000000008152336004820152602401610734565b336001805c73ffffffffffffffffffffffffffffffffffffffff19168217905d50836002805c73ffffffffffffffffffffffffffffffffffffffff19166001600160a01b03831617905d50828060035d506001805c73ffffffffffffffffffffffffffffffffffffffff1916905d50505050565b6040517f46f74dce000000000000000000000000000000000000000000000000000000008152336004820152735615deb798bb3e4dfa0139dfa1b3d433cc23b72f906346f74dce90602401602060405180830381865afa15801561107a573d5f5f3e3d5ffd5b505050506040513d601f19601f8201168201806040525081019061109e9190612dda565b15155f036110da576040517f8e4a23d6000000000000000000000000000000000000000000000000000000008152336004820152602401610734565b336001805c73ffffffffffffffffffffffffffffffffffffffff19168217905d50826002805c73ffffffffffffffffffffffffffffffffffffffff19166001600160a01b03831617905d50808060035d506111416001600160a01b0360015c168483611bdb565b5f805c73ffffffffffffffffffffffffffffffffffffffff1916905d6001805c73ffffffffffffffffffffffffffffffffffffffff1916905d505050565b5f61119861025d620f4240670de0b6b3a7640000612d8b565b6105249064e8d4a51000612d8b565b5f33610664818585611bdb565b5f6001600160a01b03815c81811691849190821673ffffffffffffffffffffffffffffffffffffffff1990911617835d505f6111fe61025d620f4240670de0b6b3a7640000612d8b565b61120d9064e8d4a51000612d8b565b9050815f805c73ffffffffffffffffffffffffffffffffffffffff19166001600160a01b03831617905d509392505050565b6040517f46f74dce000000000000000000000000000000000000000000000000000000008152336004820152735615deb798bb3e4dfa0139dfa1b3d433cc23b72f906346f74dce90602401602060405180830381865afa1580156112a5573d5f5f3e3d5ffd5b505050506040513d601f19601f820116820180604052508101906112c99190612dda565b15155f03611305576040517f8e4a23d6000000000000000000000000000000000000000000000000000000008152336004820152602401610734565b336001805c73ffffffffffffffffffffffffffffffffffffffff19168217905d505f805c73ffffffffffffffffffffffffffffffffffffffff1916905d6001805c73ffffffffffffffffffffffffffffffffffffffff1916905d565b5f61136a610e0b565b6001611374610e30565b61137c611d69565b6113869190612df9565b610bad9190612c7c565b5f806113bd7f0000000000000000000000000000000000000000000000000000000000000000600a612d7d565b6113c56116af565b6113cf9190612d8b565b6113fd601260ff7f000000000000000000000000000000000000000000000000000000000000000016612c7c565b61140890600a612d72565b6114129085612d8b565b61141c9190612da2565b905061065081610b7e565b61142f611fd4565b6114ae735615deb798bb3e4dfa0139dfa1b3d433cc23b72f6001600160a01b031663b3f006746040518163ffffffff1660e01b8152600401602060405180830381865afa158015611482573d5f5f3e3d5ffd5b505050506040513d601f19601f820116820180604052508101906114a69190612e0c565b600954612036565b5f600955565b6040517f46f74dce000000000000000000000000000000000000000000000000000000008152336004820152735615deb798bb3e4dfa0139dfa1b3d433cc23b72f906346f74dce90602401602060405180830381865afa15801561151a573d5f5f3e3d5ffd5b505050506040513d601f19601f8201168201806040525081019061153e9190612dda565b15155f0361157a576040517f8e4a23d6000000000000000000000000000000000000000000000000000000008152336004820152602401610734565b336001805c73ffffffffffffffffffffffffffffffffffffffff19168217905d50825f805c73ffffffffffffffffffffffffffffffffffffffff19166001600160a01b03831617905d506115cd84611a2f565b15611604576040517f1bb8b5b100000000000000000000000000000000000000000000000000000000815260040160405180910390fd5b61160d83611a2f565b801561162e57506001600160a01b0384165f90815260016020526040812054115b15611665576040517f1bb8b5b100000000000000000000000000000000000000000000000000000000815260040160405180910390fd5b336002805c73ffffffffffffffffffffffffffffffffffffffff19168217905d50818060035d506001805c73ffffffffffffffffffffffffffffffffffffffff1916905d50505050565b6040517f4c2d8eff0000000000000000000000000000000000000000000000000000000081526001600160a01b037f0000000000000000000000000000000000000000000000000000000000000000811660048301527f00000000000000000000000000000000000000000000000000000000000000001660248201525f90819073594734c7e06c3d483466adbce401c6bd269746c890634c2d8eff906044016040805180830381865afa158015611769573d5f5f3e3d5ffd5b505050506040513d601f19601f8201168201806040525081019061178d9190612e27565b5092915050565b5f61179d611843565b335f90815260016020526040812054908190036117e6576040517f3a513ebe00000000000000000000000000000000000000000000000000000000815260040160405180910390fd5b6117f2848285336118cb565b91506118286001600160a01b037f0000000000000000000000000000000000000000000000000000000000000000163384611991565b5061066a611a05565b61183e838383600161206a565b505050565b7f9b779b17422d0df92223018b32b4d1fa46e071723d6817e2486d003becc55f005c1561189c576040517f3ee5aeb500000000000000000000000000000000000000000000000000000000815260040160405180910390fd5b6118c960017f9b779b17422d0df92223018b32b4d1fa46e071723d6817e2486d003becc55f005b9061216e565b565b5f845f036118da57505f611989565b5f6118e483611a2f565b90505f6119107f0000000000000000000000000000000000000000000000000000000000000000612175565b905061191a611fd4565b61192687858488612210565b81156119435786600a5f82825461193d9190612df9565b90915550505b5f61196d7f0000000000000000000000000000000000000000000000000000000000000000612175565b90506119798282612df9565b935061198585896122b2565b5050505b949350505050565b6040516001600160a01b0383811660248301526044820183905261183e91859182169063a9059cbb906064015b604051602081830303815290604052915060e01b6020820180517bffffffffffffffffffffffffffffffffffffffffffffffffffffffff83818316178352505050506122ff565b6118c95f7f9b779b17422d0df92223018b32b4d1fa46e071723d6817e2486d003becc55f006118c3565b5f7f00000000000000000000000000000000000000000000000000000000000000006001600160a01b03161580159061066a57506040517f37504d9c0000000000000000000000000000000000000000000000000000000081523060048201526001600160a01b0383811660248301527f000000000000000000000000000000000000000000000000000000000000000016906337504d9c90604401602060405180830381865afa158015611ae6573d5f5f3e3d5ffd5b505050506040513d601f19601f8201168201806040525081019061066a9190612dda565b6040516001600160a01b038481166024830152838116604483015260648201839052611b439186918216906323b872dd906084016119be565b50505050565b5f835f03611b5857505f610650565b611b60611fd4565b5f611b69611d69565b9050611b76858486612384565b5f81611b80611d69565b611b8a9190612df9565b90506001611b96610e30565b611ba09084612df9565b611baa9190612c7c565b611bb2610e0b565b611bbc9083612d8b565b611bc69190612da2565b9250611bd284846124e1565b50509392505050565b6001600160a01b038316611c1d576040517f96c6fd1e0000000000000000000000000000000000000000000000000000000081525f6004820152602401610734565b6001600160a01b038216611c5f576040517fec442f050000000000000000000000000000000000000000000000000000000081525f6004820152602401610734565b61183e83838361252a565b5f825f03611ca4576040517f3a513ebe00000000000000000000000000000000000000000000000000000000815260040160405180910390fd5b611cac611fd4565b5f611cb684611361565b90505f915083600a5f828254611ccc9190612c7c565b909155509195945050505050565b6001600160a01b038381165f908152600260209081526040808320938616835292905220545f19811015611b435781811015611d5b576040517ffb8f41b20000000000000000000000000000000000000000000000000000000081526001600160a01b03841660048201526024810182905260448101839052606401610734565b611b4384848484035f61206a565b6040517f70a082310000000000000000000000000000000000000000000000000000000081523060048201525f907f00000000000000000000000000000000000000000000000000000000000000006001600160a01b0316906370a0823190602401602060405180830381865afa158015611de6573d5f5f3e3d5ffd5b505050506040513d601f19601f820116820180604052508101906105249190612e49565b5f80611e1883850185612e60565b90925090506006611e298382612efa565b506007611e368282612efa565b50600880547fffffffffffffffffffffffffffffffffffffffffffffffffffffffff00000000164263ffffffff1617905560405130907f2e49a5810fda2439a23771848b4acec786b0a64d4de3d124ac57fc8739c38875905f90a250505050565b6008545f908190611eae9063ffffffff1642612df9565b90505f6301e13380611ee0837f0000000000000000000000000000000000000000000000000000000000000000612d8b565b611eea9190612da2565b9050805f03611efb575f9250505090565b5f600954611f07611d69565b611f119190612df9565b90505f670de0b6b3a7640000611f28816006612d8b565b611f329190612d8b565b83611f3d8180612d8b565b611f479190612d8b565b611f519190612da2565b611f64670de0b6b3a76400006002612d8b565b611f6e8580612d8b565b611f789190612da2565b611f8a85670de0b6b3a7640000612c7c565b611f949190612c7c565b611f9e9190612c7c565b90505f81611fb4670de0b6b3a764000085612d8b565b611fbe9190612da2565b9050611fca8184612df9565b9550505050505090565b6008544263ffffffff90911603611fe757565b611fef611e97565b60095f828254611fff9190612c7c565b9091555050600880547fffffffffffffffffffffffffffffffffffffffffffffffffffffffff00000000164263ffffffff16179055565b610c316001600160a01b037f0000000000000000000000000000000000000000000000000000000000000000168383611991565b6001600160a01b0384166120ac576040517fe602df050000000000000000000000000000000000000000000000000000000081525f6004820152602401610734565b6001600160a01b0383166120ee576040517f94280d620000000000000000000000000000000000000000000000000000000081525f6004820152602401610734565b6001600160a01b038085165f9081526002602090815260408083209387168352929052208290558015611b4357826001600160a01b0316846001600160a01b03167f8c5be1e5ebec7d5bd14f71427d1e84f3dd0314c0f7b2291e5b200ac8c7c3b9258460405161216091815260200190565b60405180910390a350505050565b80825d5050565b5f6001600160a01b03821615612209576040517f70a082310000000000000000000000000000000000000000000000000000000081523060048201526001600160a01b038316906370a0823190602401602060405180830381865afa1580156121e0573d5f5f3e3d5ffd5b505050506040513d601f19601f820116820180604052508101906122049190612e49565b61066a565b4792915050565b5f61221a85611361565b6040517f2e1a7d4d000000000000000000000000000000000000000000000000000000008152600481018290529091507f00000000000000000000000000000000000000000000000000000000000000006001600160a01b031690632e1a7d4d906024015f604051808303815f87803b158015612295575f5ffd5b505af11580156122a7573d5f5f3e3d5ffd5b505050505050505050565b6001600160a01b0382166122f4576040517f96c6fd1e0000000000000000000000000000000000000000000000000000000081525f6004820152602401610734565b610c31825f8361252a565b5f5f60205f8451602086015f885af18061231e576040513d5f823e3d81fd5b50505f513d91508115612335578060011415612342565b6001600160a01b0384163b155b15611b43576040517f5274afe70000000000000000000000000000000000000000000000000000000081526001600160a01b0385166004820152602401610734565b6040517f095ea7b30000000000000000000000000000000000000000000000000000000081526001600160a01b037f0000000000000000000000000000000000000000000000000000000000000000811660048301525f1960248301527f0000000000000000000000000000000000000000000000000000000000000000169063095ea7b3906044016020604051808303815f875af1158015612429573d5f5f3e3d5ffd5b505050506040513d601f19601f8201168201806040525081019061244d9190612dda565b506040517fb6b55f25000000000000000000000000000000000000000000000000000000008152600481018490527f00000000000000000000000000000000000000000000000000000000000000006001600160a01b03169063b6b55f25906024015f604051808303815f87803b1580156124c6575f5ffd5b505af11580156124d8573d5f5f3e3d5ffd5b50505050505050565b6001600160a01b038216612523576040517fec442f050000000000000000000000000000000000000000000000000000000081525f6004820152602401610734565b610c315f83835b6001600160a01b0383161580159061254a57506001600160a01b03821615155b156126295760025c6001600160a01b03908116908316146125b1576040517ffd351fc80000000000000000000000000000000000000000000000000000000081526001600160a01b0380851660048301528316602482015260448101829052606401610734565b8060035c1015612607576040517ffd351fc80000000000000000000000000000000000000000000000000000000081526001600160a01b0380851660048301528316602482015260448101829052606401610734565b6002805c73ffffffffffffffffffffffffffffffffffffffff1916905d5f60035d5b61183e8383836001600160a01b038316612659578060035f82825461264e9190612c7c565b909155506126e29050565b6001600160a01b0383165f90815260016020526040902054818110156126c4576040517fe450d38c0000000000000000000000000000000000000000000000000000000081526001600160a01b03851660048201526024810182905260448101839052606401610734565b6001600160a01b0384165f9081526001602052604090209082900390555b6001600160a01b0382166126fe5760038054829003905561271c565b6001600160a01b0382165f9081526001602052604090208054820190555b816001600160a01b0316836001600160a01b03167fddf252ad1be2c89b69c2b068fc378daa952ba7f163c4a11628f55a4df523b3ef8360405161276191815260200190565b60405180910390a3505050565b602081525f82518060208401528060208501604085015e5f6040828501015260407fffffffffffffffffffffffffffffffffffffffffffffffffffffffffffffffe0601f83011684010191505092915050565b5f602082840312156127d1575f5ffd5b5035919050565b6001600160a01b03811681146127ec575f5ffd5b50565b5f5f60408385031215612800575f5ffd5b823561280b816127d8565b946020939093013593505050565b5f5f83601f840112612829575f5ffd5b50813567ffffffffffffffff811115612840575f5ffd5b602083019150836020828501011115612857575f5ffd5b9250929050565b5f5f5f5f5f60808688031215612872575f5ffd5b853561287d816127d8565b94506020860135935060408601359250606086013567ffffffffffffffff8111156128a6575f5ffd5b6128b288828901612819565b969995985093965092949392505050565b5f5f5f5f606085870312156128d6575f5ffd5b8435935060208501356128e8816127d8565b9250604085013567ffffffffffffffff811115612903575f5ffd5b61290f87828801612819565b95989497509550505050565b7f4e487b71000000000000000000000000000000000000000000000000000000005f52604160045260245ffd5b5f82601f830112612957575f5ffd5b8135602083015f5f67ffffffffffffffff8411156129775761297761291b565b506040517fffffffffffffffffffffffffffffffffffffffffffffffffffffffffffffffe0601f85018116603f0116810181811067ffffffffffffffff821117156129c4576129c461291b565b6040528381529050808284018710156129db575f5ffd5b838360208301375f602085830101528094505050505092915050565b5f60208284031215612a07575f5ffd5b813567ffffffffffffffff811115612a1d575f5ffd5b61198984828501612948565b5f5f5f60608486031215612a3b575f5ffd5b8335612a46816127d8565b92506020840135612a56816127d8565b929592945050506040919091013590565b5f5f60208385031215612a78575f5ffd5b823567ffffffffffffffff811115612a8e575f5ffd5b612a9a85828601612819565b90969095509350505050565b5f5f5f5f60608587031215612ab9575f5ffd5b8435612ac4816127d8565b935060208501359250604085013567ffffffffffffffff811115612903575f5ffd5b5f60208284031215612af6575f5ffd5b8135610650816127d8565b5f5f5f60608486031215612b13575f5ffd5b8335612b1e816127d8565b9250602084013591506040840135612b35816127d8565b809150509250925092565b5f5f5f5f60808587031215612b53575f5ffd5b8435612b5e816127d8565b93506020850135612b6e816127d8565b93969395505050506040820135916060013590565b5f5f60408385031215612b94575f5ffd5b8235612b9f816127d8565b91506020830135612baf816127d8565b809150509250929050565b5f5f60408385031215612bcb575f5ffd5b82359150602083013567ffffffffffffffff811115612be8575f5ffd5b612bf485828601612948565b9150509250929050565b600181811c90821680612c1257607f821691505b602082108103612c49577f4e487b71000000000000000000000000000000000000000000000000000000005f52602260045260245ffd5b50919050565b7f4e487b71000000000000000000000000000000000000000000000000000000005f52601160045260245ffd5b8082018082111561066a5761066a612c4f565b6001815b6001841115612cca57808504811115612cae57612cae612c4f565b6001841615612cbc57908102905b60019390931c928002612c93565b935093915050565b5f82612ce05750600161066a565b81612cec57505f61066a565b8160018114612d025760028114612d0c57612d28565b600191505061066a565b60ff841115612d1d57612d1d612c4f565b50506001821b61066a565b5060208310610133831016604e8410600b8410161715612d4b575081810a61066a565b612d575f198484612c8f565b805f1904821115612d6a57612d6a612c4f565b029392505050565b5f6106508383612cd2565b5f61065060ff841683612cd2565b808202811582820484141761066a5761066a612c4f565b5f82612dd5577f4e487b71000000000000000000000000000000000000000000000000000000005f52601260045260245ffd5b500490565b5f60208284031215612dea575f5ffd5b81518015158114610650575f5ffd5b8181038181111561066a5761066a612c4f565b5f60208284031215612e1c575f5ffd5b8151610650816127d8565b5f5f60408385031215612e38575f5ffd5b505080516020909101519092909150565b5f60208284031215612e59575f5ffd5b5051919050565b5f5f60408385031215612e71575f5ffd5b823567ffffffffffffffff811115612e87575f5ffd5b612e9385828601612948565b925050602083013567ffffffffffffffff811115612be8575f5ffd5b601f82111561183e57805f5260205f20601f840160051c81016020851015612ed45750805b601f840160051c820191505b81811015612ef3575f8155600101612ee0565b5050505050565b815167ffffffffffffffff811115612f1457612f1461291b565b612f2881612f228454612bfe565b84612eaf565b6020601f821160018114612f5a575f8315612f435750848201515b5f19600385901b1c1916600184901b178455612ef3565b5f848152602081207fffffffffffffffffffffffffffffffffffffffffffffffffffffffffffffffe08516915b82811015612fa75787850151825560209485019460019092019101612f87565b5084821015612fc457868401515f19600387901b60f8161c191681555b50505050600190811b0190555056fea164736f6c634300081d000a","linkReferences":{}},"methodIdentifiers":{"allowTransfer(address,uint256,address)":"98476c2b","allowance(address,address)":"dd62ed3e","approve(address,uint256)":"095ea7b3","asset()":"38d52e0f","balanceOf(address)":"70a08231","burnShares(address,uint256,uint256,bytes)":"0db734d4","clearCurrentAccount()":"b35cb45d","collectFees()":"c8796572","convertSharesToYieldToken(uint256)":"b905a4ff","convertToAssets(uint256)":"07a2d13a","convertToShares(uint256)":"c6e6f592","convertYieldTokenToAsset()":"e0b4327d","convertYieldTokenToShares(uint256)":"25565931","decimals()":"313ce567","effectiveSupply()":"8fc47093","feeRate()":"978bbdb9","feesAccrued()":"94db0595","initialize(bytes)":"439fab91","initiateWithdraw(address,uint256,bytes)":"57831a04","initiateWithdrawNative(bytes)":"131b822d","mintShares(uint256,address,bytes)":"127af7f9","name()":"06fdde03","postLiquidation(address,address,uint256)":"98dce16d","preLiquidation(address,address,uint256,uint256)":"cc351ac5","price()":"a035b1fe","price(address)":"aea91078","redeemNative(uint256,bytes)":"eb9b1912","symbol()":"95d89b41","totalAssets()":"01e1d114","totalSupply()":"18160ddd","transfer(address,uint256)":"a9059cbb","transferFrom(address,address,uint256)":"23b872dd","transientVariables()":"616252b6","yieldToken()":"76d5de85"},"id":103}