{"abi":[{"type":"constructor","inputs":[{"name":"_logic","type":"address","internalType":"address"},{"name":"_data","type":"bytes","internalType":"bytes"}],"stateMutability":"nonpayable"},{"type":"fallback","stateMutability":"payable"},{"type":"receive","stateMutability":"payable"},{"type":"function","name":"UPGRADE_DELAY","inputs":[],"outputs":[{"name":"","type":"uint32","internalType":"uint32"}],"stateMutability":"view"},{"type":"function","name":"executeUpgrade","inputs":[{"name":"data","type":"bytes","internalType":"bytes"}],"outputs":[],"stateMutability":"nonpayable"},{"type":"function","name":"getImplementation","inputs":[],"outputs":[{"name":"","type":"address","internalType":"address"}],"stateMutability":"view"},{"type":"function","name":"initiateUpgrade","inputs":[{"name":"_newImplementation","type":"address","internalType":"address"}],"outputs":[],"stateMutability":"nonpayable"},{"type":"function","name":"isPaused","inputs":[],"outputs":[{"name":"","type":"bool","internalType":"bool"}],"stateMutability":"view"},{"type":"function","name":"newImplementation","inputs":[],"outputs":[{"name":"","type":"address","internalType":"address"}],"stateMutability":"view"},{"type":"function","name":"pause","inputs":[],"outputs":[],"stateMutability":"nonpayable"},{"type":"function","name":"unpause","inputs":[],"outputs":[],"stateMutability":"nonpayable"},{"type":"function","name":"upgradeValidAt","inputs":[],"outputs":[{"name":"","type":"uint32","internalType":"uint32"}],"stateMutability":"view"},{"type":"function","name":"whitelistSelectors","inputs":[{"name":"selectors","type":"bytes4[]","internalType":"bytes4[]"},{"name":"isWhitelisted","type":"bool","internalType":"bool"}],"outputs":[],"stateMutability":"nonpayable"},{"type":"function","name":"whitelistedSelectors","inputs":[{"name":"","type":"bytes4","internalType":"bytes4"}],"outputs":[{"name":"","type":"bool","internalType":"bool"}],"stateMutability":"view"},{"type":"event","name":"UpgradeInitiated","inputs":[{"name":"newImplementation","type":"address","indexed":true,"internalType":"address"},{"name":"upgradeValidAt","type":"uint32","indexed":false,"internalType":"uint32"}],"anonymous":false},{"type":"event","name":"Upgraded","inputs":[{"name":"implementation","type":"address","indexed":true,"internalType":"address"}],"anonymous":false},{"type":"error","name":"AddressEmptyCode","inputs":[{"name":"target","type":"address","internalType":"address"}]},{"type":"error","name":"ERC1967InvalidImplementation","inputs":[{"name":"implementation","type":"address","internalType":"address"}]},{"type":"error","name":"ERC1967NonPayable","inputs":[]},{"type":"error","name":"FailedCall","inputs":[]},{"type":"error","name":"InvalidUpgrade","inputs":[]},{"type":"error","name":"Paused","inputs":[]},{"type":"error","name":"Unauthorized","inputs":[{"name":"caller","type":"address","internalType":"address"}]}],"bytecode":{"object":"0x608060405234801561000f575f5ffd5b5060405161147638038061147683398101604081905261002e9161024c565b818161003a8282610043565b50505050610331565b61004c826100a1565b6040516001600160a01b038316907fbc7cd75a20ee27fd9adebab32041f755214dbc6bffa90cc0225b39da2e5c2d3b905f90a280511561009557610090828261011c565b505050565b61009d61018f565b5050565b806001600160a01b03163b5f036100db57604051634c9c8ce360e01b81526001600160a01b03821660048201526024015b60405180910390fd5b7f360894a13ba1a3210667c828492db98dca3e2076cc3735a920a3ca505d382bbc80546001600160a01b0319166001600160a01b0392909216919091179055565b60605f5f846001600160a01b031684604051610138919061031b565b5f60405180830381855af49150503d805f8114610170576040519150601f19603f3d011682016040523d82523d5f602084013e610175565b606091505b5090925090506101868583836101b0565b95945050505050565b34156101ae5760405163b398979f60e01b815260040160405180910390fd5b565b6060826101c5576101c08261020f565b610208565b81511580156101dc57506001600160a01b0384163b155b1561020557604051639996b31560e01b81526001600160a01b03851660048201526024016100d2565b50805b9392505050565b80511561021f5780518082602001fd5b60405163d6bda27560e01b815260040160405180910390fd5b634e487b7160e01b5f52604160045260245ffd5b5f5f6040838503121561025d575f5ffd5b82516001600160a01b0381168114610273575f5ffd5b60208401519092506001600160401b0381111561028e575f5ffd5b8301601f8101851361029e575f5ffd5b80516001600160401b038111156102b7576102b7610238565b604051601f8201601f19908116603f011681016001600160401b03811182821017156102e5576102e5610238565b6040528181528282016020018710156102fc575f5ffd5b8160208401602083015e5f602083830101528093505050509250929050565b5f82518060208501845e5f920191825250919050565b6111388061033e5f395ff3fe6080604052600436106100bf575f3560e01c8063629379e411610073578063aaf10f421161004d578063aaf10f4214610259578063b187bd261461026d578063b9ff0a39146102b2576100c6565b8063629379e4146101965780638456cb59146101e45780638b677b03146101f8576100c6565b8063479aa927116100a4578063479aa9271461010357806347fe8b1d14610122578063524f783a14610152576100c6565b806308490e80146100d05780633f4ba83a146100ef576100c6565b366100c657005b6100ce6102d1565b005b3480156100db575f5ffd5b506100ce6100ea366004610f1d565b610391565b3480156100fa575f5ffd5b506100ce61052e565b34801561010e575f5ffd5b506100ce61011d366004610fc4565b61064f565b34801561012d575f5ffd5b5061013862093a8081565b60405163ffffffff90911681526020015b60405180910390f35b34801561015d575f5ffd5b50700100000000000000000000000000000001546101389074010000000000000000000000000000000000000000900463ffffffff1681565b3480156101a1575f5ffd5b506101d46101b0366004610fdf565b7001000000000000000000000000000000006020525f908152604090205460ff1681565b6040519015158152602001610149565b3480156101ef575f5ffd5b506100ce610887565b348015610203575f5ffd5b50700100000000000000000000000000000001546102349073ffffffffffffffffffffffffffffffffffffffff1681565b60405173ffffffffffffffffffffffffffffffffffffffff9091168152602001610149565b348015610264575f5ffd5b506102346109c3565b348015610278575f5ffd5b50700100000000000000000000000000000001546101d4907801000000000000000000000000000000000000000000000000900460ff1681565b3480156102bd575f5ffd5b506100ce6102cc36600461101e565b6109d1565b700100000000000000000000000000000001547801000000000000000000000000000000000000000000000000900460ff16801561035057505f80357fffffffff00000000000000000000000000000000000000000000000000000000168152700100000000000000000000000000000000602052604090205460ff16155b15610387576040517f9e87fac800000000000000000000000000000000000000000000000000000000815260040160405180910390fd5b61038f610beb565b565b735615deb798bb3e4dfa0139dfa1b3d433cc23b72f73ffffffffffffffffffffffffffffffffffffffff16632f11d6536040518163ffffffff1660e01b8152600401602060405180830381865afa1580156103ee573d5f5f3e3d5ffd5b505050506040513d601f19601f82011682018060405250810190610412919061108c565b73ffffffffffffffffffffffffffffffffffffffff163373ffffffffffffffffffffffffffffffffffffffff161461047d576040517f8e4a23d60000000000000000000000000000000000000000000000000000000081523360048201526024015b60405180910390fd5b5f5b8281101561052857817001000000000000000000000000000000005f8686858181106104ad576104ad6110a7565b90506020020160208101906104c29190610fdf565b7fffffffff0000000000000000000000000000000000000000000000000000000016815260208101919091526040015f2080547fffffffffffffffffffffffffffffffffffffffffffffffffffffffffffffff001691151591909117905560010161047f565b50505050565b735615deb798bb3e4dfa0139dfa1b3d433cc23b72f73ffffffffffffffffffffffffffffffffffffffff16632f11d6536040518163ffffffff1660e01b8152600401602060405180830381865afa15801561058b573d5f5f3e3d5ffd5b505050506040513d601f19601f820116820180604052508101906105af919061108c565b73ffffffffffffffffffffffffffffffffffffffff163373ffffffffffffffffffffffffffffffffffffffff1614610615576040517f8e4a23d6000000000000000000000000000000000000000000000000000000008152336004820152602401610474565b70010000000000000000000000000000000180547fffffffffffffff00ffffffffffffffffffffffffffffffffffffffffffffffff169055565b735615deb798bb3e4dfa0139dfa1b3d433cc23b72f73ffffffffffffffffffffffffffffffffffffffff1663c4d5608a6040518163ffffffff1660e01b8152600401602060405180830381865afa1580156106ac573d5f5f3e3d5ffd5b505050506040513d601f19601f820116820180604052508101906106d0919061108c565b73ffffffffffffffffffffffffffffffffffffffff163373ffffffffffffffffffffffffffffffffffffffff1614610736576040517f8e4a23d6000000000000000000000000000000000000000000000000000000008152336004820152602401610474565b70010000000000000000000000000000000180547fffffffffffffffffffffffff00000000000000000000000000000000000000001673ffffffffffffffffffffffffffffffffffffffff83169081179091556107ca5770010000000000000000000000000000000180547fffffffffffffffff00000000ffffffffffffffffffffffffffffffffffffffff169055610808565b6107d762093a80426110d4565b70010000000000000000000000000000000160146101000a81548163ffffffff021916908363ffffffff1602179055505b700100000000000000000000000000000001546040517401000000000000000000000000000000000000000090910463ffffffff16815273ffffffffffffffffffffffffffffffffffffffff8216907f902b264a1c29d614597a352703ecefc3b9029ace9f396848eda14aee6151f5c59060200160405180910390a250565b735615deb798bb3e4dfa0139dfa1b3d433cc23b72f73ffffffffffffffffffffffffffffffffffffffff16632f11d6536040518163ffffffff1660e01b8152600401602060405180830381865afa1580156108e4573d5f5f3e3d5ffd5b505050506040513d601f19601f82011682018060405250810190610908919061108c565b73ffffffffffffffffffffffffffffffffffffffff163373ffffffffffffffffffffffffffffffffffffffff161461096e576040517f8e4a23d6000000000000000000000000000000000000000000000000000000008152336004820152602401610474565b70010000000000000000000000000000000180547fffffffffffffff00ffffffffffffffffffffffffffffffffffffffffffffffff167801000000000000000000000000000000000000000000000000179055565b5f6109cc610bfb565b905090565b735615deb798bb3e4dfa0139dfa1b3d433cc23b72f73ffffffffffffffffffffffffffffffffffffffff1663c4d5608a6040518163ffffffff1660e01b8152600401602060405180830381865afa158015610a2e573d5f5f3e3d5ffd5b505050506040513d601f19601f82011682018060405250810190610a52919061108c565b73ffffffffffffffffffffffffffffffffffffffff163373ffffffffffffffffffffffffffffffffffffffff1614610ab8576040517f8e4a23d6000000000000000000000000000000000000000000000000000000008152336004820152602401610474565b7001000000000000000000000000000000015474010000000000000000000000000000000000000000900463ffffffff16421015610b22576040517f4be85dc000000000000000000000000000000000000000000000000000000000815260040160405180910390fd5b7001000000000000000000000000000000015473ffffffffffffffffffffffffffffffffffffffff16610b81576040517f4be85dc000000000000000000000000000000000000000000000000000000000815260040160405180910390fd5b70010000000000000000000000000000000154604080516020601f8501819004810282018101909252838152610be79273ffffffffffffffffffffffffffffffffffffffff169185908590819084018382808284375f92019190915250610c3a92505050565b5050565b61038f610bf6610bfb565b610ca1565b5f6109cc7f360894a13ba1a3210667c828492db98dca3e2076cc3735a920a3ca505d382bbc5473ffffffffffffffffffffffffffffffffffffffff1690565b610c4382610cbf565b60405173ffffffffffffffffffffffffffffffffffffffff8316907fbc7cd75a20ee27fd9adebab32041f755214dbc6bffa90cc0225b39da2e5c2d3b905f90a2805115610c9957610c948282610d8d565b505050565b610be7610e0e565b365f5f375f5f365f845af43d5f5f3e808015610cbb573d5ff35b3d5ffd5b8073ffffffffffffffffffffffffffffffffffffffff163b5f03610d27576040517f4c9c8ce300000000000000000000000000000000000000000000000000000000815273ffffffffffffffffffffffffffffffffffffffff82166004820152602401610474565b7f360894a13ba1a3210667c828492db98dca3e2076cc3735a920a3ca505d382bbc80547fffffffffffffffffffffffff00000000000000000000000000000000000000001673ffffffffffffffffffffffffffffffffffffffff92909216919091179055565b60605f5f8473ffffffffffffffffffffffffffffffffffffffff1684604051610db69190611115565b5f60405180830381855af49150503d805f8114610dee576040519150601f19603f3d011682016040523d82523d5f602084013e610df3565b606091505b5091509150610e03858383610e46565b925050505b92915050565b341561038f576040517fb398979f00000000000000000000000000000000000000000000000000000000815260040160405180910390fd5b606082610e5b57610e5682610ed8565b610ed1565b8151158015610e7f575073ffffffffffffffffffffffffffffffffffffffff84163b155b15610ece576040517f9996b31500000000000000000000000000000000000000000000000000000000815273ffffffffffffffffffffffffffffffffffffffff85166004820152602401610474565b50805b9392505050565b805115610ee85780518082602001fd5b6040517fd6bda27500000000000000000000000000000000000000000000000000000000815260040160405180910390fd5b50565b5f5f5f60408486031215610f2f575f5ffd5b833567ffffffffffffffff811115610f45575f5ffd5b8401601f81018613610f55575f5ffd5b803567ffffffffffffffff811115610f6b575f5ffd5b8660208260051b8401011115610f7f575f5ffd5b6020918201945092508401358015158114610f98575f5ffd5b809150509250925092565b73ffffffffffffffffffffffffffffffffffffffff81168114610f1a575f5ffd5b5f60208284031215610fd4575f5ffd5b8135610ed181610fa3565b5f60208284031215610fef575f5ffd5b81357fffffffff0000000000000000000000000000000000000000000000000000000081168114610ed1575f5ffd5b5f5f6020838503121561102f575f5ffd5b823567ffffffffffffffff811115611045575f5ffd5b8301601f81018513611055575f5ffd5b803567ffffffffffffffff81111561106b575f5ffd5b85602082840101111561107c575f5ffd5b6020919091019590945092505050565b5f6020828403121561109c575f5ffd5b8151610ed181610fa3565b7f4e487b71000000000000000000000000000000000000000000000000000000005f52603260045260245ffd5b63ffffffff8181168382160190811115610e08577f4e487b71000000000000000000000000000000000000000000000000000000005f52601160045260245ffd5b5f82518060208501845e5f92019182525091905056fea164736f6c634300081d000a","linkReferences":{}},"methodIdentifiers":{"UPGRADE_DELAY()":"47fe8b1d","executeUpgrade(bytes)":"b9ff0a39","getImplementation()":"aaf10f42","initiateUpgrade(address)":"479aa927","isPaused()":"b187bd26","newImplementation()":"8b677b03","pause()":"8456cb59","unpause()":"3f4ba83a","upgradeValidAt()":"524f783a","whitelistSelectors(bytes4[],bool)":"08490e80","whitelistedSelectors(bytes4)":"629379e4"},"id":79}