{"abi":[{"type":"function","name":"acceptPauseAdmin","inputs":[],"outputs":[],"stateMutability":"nonpayable"},{"type":"function","name":"acceptUpgradeOwnership","inputs":[],"outputs":[],"stateMutability":"nonpayable"},{"type":"function","name":"clearPosition","inputs":[{"name":"account","type":"address","internalType":"address"},{"name":"vault","type":"address","internalType":"address"}],"outputs":[],"stateMutability":"nonpayable"},{"type":"function","name":"feeReceiver","inputs":[],"outputs":[{"name":"","type":"address","internalType":"address"}],"stateMutability":"view"},{"type":"function","name":"getVaultPosition","inputs":[{"name":"account","type":"address","internalType":"address"},{"name":"vault","type":"address","internalType":"address"}],"outputs":[{"name":"","type":"tuple","internalType":"struct VaultPosition","components":[{"name":"lendingRouter","type":"address","internalType":"address"},{"name":"lastEntryTime","type":"uint32","internalType":"uint32"}]}],"stateMutability":"view"},{"type":"function","name":"getWithdrawRequestManager","inputs":[{"name":"yieldToken","type":"address","internalType":"address"}],"outputs":[{"name":"","type":"address","internalType":"contract IWithdrawRequestManager"}],"stateMutability":"view"},{"type":"function","name":"initialize","inputs":[{"name":"data","type":"bytes","internalType":"bytes"}],"outputs":[],"stateMutability":"nonpayable"},{"type":"function","name":"isLendingRouter","inputs":[{"name":"lendingRouter","type":"address","internalType":"address"}],"outputs":[{"name":"","type":"bool","internalType":"bool"}],"stateMutability":"view"},{"type":"function","name":"lendingRouters","inputs":[{"name":"lendingRouter","type":"address","internalType":"address"}],"outputs":[{"name":"isLendingRouter","type":"bool","internalType":"bool"}],"stateMutability":"view"},{"type":"function","name":"pauseAdmin","inputs":[],"outputs":[{"name":"","type":"address","internalType":"address"}],"stateMutability":"view"},{"type":"function","name":"pendingPauseAdmin","inputs":[],"outputs":[{"name":"","type":"address","internalType":"address"}],"stateMutability":"view"},{"type":"function","name":"pendingUpgradeAdmin","inputs":[],"outputs":[{"name":"","type":"address","internalType":"address"}],"stateMutability":"view"},{"type":"function","name":"setLendingRouter","inputs":[{"name":"lendingRouter","type":"address","internalType":"address"}],"outputs":[],"stateMutability":"nonpayable"},{"type":"function","name":"setPosition","inputs":[{"name":"account","type":"address","internalType":"address"},{"name":"vault","type":"address","internalType":"address"}],"outputs":[],"stateMutability":"nonpayable"},{"type":"function","name":"setWhitelistedVault","inputs":[{"name":"vault","type":"address","internalType":"address"},{"name":"isWhitelisted","type":"bool","internalType":"bool"}],"outputs":[],"stateMutability":"nonpayable"},{"type":"function","name":"setWithdrawRequestManager","inputs":[{"name":"withdrawRequestManager","type":"address","internalType":"address"}],"outputs":[],"stateMutability":"nonpayable"},{"type":"function","name":"transferFeeReceiver","inputs":[{"name":"_newFeeReceiver","type":"address","internalType":"address"}],"outputs":[],"stateMutability":"nonpayable"},{"type":"function","name":"transferPauseAdmin","inputs":[{"name":"_newPauseAdmin","type":"address","internalType":"address"}],"outputs":[],"stateMutability":"nonpayable"},{"type":"function","name":"transferUpgradeAdmin","inputs":[{"name":"_newUpgradeAdmin","type":"address","internalType":"address"}],"outputs":[],"stateMutability":"nonpayable"},{"type":"function","name":"upgradeAdmin","inputs":[],"outputs":[{"name":"","type":"address","internalType":"address"}],"stateMutability":"view"},{"type":"function","name":"whitelistedVaults","inputs":[{"name":"vault","type":"address","internalType":"address"}],"outputs":[{"name":"isWhitelisted","type":"bool","internalType":"bool"}],"stateMutability":"view"},{"type":"function","name":"withdrawRequestManagers","inputs":[{"name":"token","type":"address","internalType":"address"}],"outputs":[{"name":"withdrawRequestManager","type":"address","internalType":"address"}],"stateMutability":"view"},{"type":"event","name":"AccountPositionCleared","inputs":[{"name":"account","type":"address","indexed":true,"internalType":"address"},{"name":"vault","type":"address","indexed":true,"internalType":"address"},{"name":"lendingRouter","type":"address","indexed":true,"internalType":"address"}],"anonymous":false},{"type":"event","name":"AccountPositionCreated","inputs":[{"name":"account","type":"address","indexed":true,"internalType":"address"},{"name":"vault","type":"address","indexed":true,"internalType":"address"},{"name":"lendingRouter","type":"address","indexed":true,"internalType":"address"}],"anonymous":false},{"type":"event","name":"FeeReceiverTransferred","inputs":[{"name":"newFeeReceiver","type":"address","indexed":true,"internalType":"address"}],"anonymous":false},{"type":"event","name":"LendingRouterSet","inputs":[{"name":"lendingRouter","type":"address","indexed":true,"internalType":"address"}],"anonymous":false},{"type":"event","name":"PauseAdminTransferred","inputs":[{"name":"newPauseAdmin","type":"address","indexed":true,"internalType":"address"}],"anonymous":false},{"type":"event","name":"PendingPauseAdminSet","inputs":[{"name":"newPendingPauseAdmin","type":"address","indexed":true,"internalType":"address"}],"anonymous":false},{"type":"event","name":"PendingUpgradeAdminSet","inputs":[{"name":"newPendingUpgradeAdmin","type":"address","indexed":true,"internalType":"address"}],"anonymous":false},{"type":"event","name":"UpgradeAdminTransferred","inputs":[{"name":"newUpgradeAdmin","type":"address","indexed":true,"internalType":"address"}],"anonymous":false},{"type":"event","name":"WhitelistedVault","inputs":[{"name":"vault","type":"address","indexed":true,"internalType":"address"},{"name":"isWhitelisted","type":"bool","indexed":false,"internalType":"bool"}],"anonymous":false},{"type":"event","name":"WithdrawRequestManagerSet","inputs":[{"name":"yieldToken","type":"address","indexed":true,"internalType":"address"},{"name":"withdrawRequestManager","type":"address","indexed":true,"internalType":"address"}],"anonymous":false},{"type":"error","name":"CannotEnterPosition","inputs":[]},{"type":"error","name":"InvalidInitialization","inputs":[]},{"type":"error","name":"InvalidVault","inputs":[{"name":"vault","type":"address","internalType":"address"}]},{"type":"error","name":"Unauthorized","inputs":[{"name":"caller","type":"address","internalType":"address"}]}],"bytecode":{"object":"0x6080604052348015600e575f5ffd5b505f805460ff191660011790556111e6806100285f395ff3fe608060405234801561000f575f5ffd5b5060043610610179575f3560e01c806353352848116100d2578063c0e1877711610088578063d23076a911610063578063d23076a914610476578063de6750a214610489578063e3fdddbf146104a9575f5ffd5b8063c0e187771461042c578063c4d5608a1461043f578063c599a31714610463575f5ffd5b80637e124598116100b85780637e124598146103c15780639287d7ac146103d4578063b3f006741461040c575f5ffd5b80635335284814610397578063574b76751461039f575f5ffd5b80632b0fdbe411610132578063439fab911161010d578063439fab911461034457806344f793a41461035757806346f74dce1461035f575f5ffd5b80632b0fdbe4146102df5780632f11d6531461031157806342d90a8514610331575f5ffd5b80631404297c116101625780631404297c146101f157806324a2352614610211578063268b4bae14610224575f5ffd5b80630e3cf1921461017d5780630ffd849b146101dc575b5f5ffd5b6101b261018b36600461107f565b60056020525f908152604090205473ffffffffffffffffffffffffffffffffffffffff1681565b60405173ffffffffffffffffffffffffffffffffffffffff90911681526020015b60405180910390f35b6101ef6101ea3660046110a1565b6104bc565b005b6003546101b29073ffffffffffffffffffffffffffffffffffffffff1681565b6101ef61021f36600461107f565b610592565b6102a86102323660046110a1565b6040805180820182525f808252602091820181905273ffffffffffffffffffffffffffffffffffffffff94851681526008825282812093851681529281529181902081518083019092525492831681527401000000000000000000000000000000000000000090920463ffffffff169082015290565b60408051825173ffffffffffffffffffffffffffffffffffffffff16815260209283015163ffffffff1692810192909252016101d3565b6103016102ed36600461107f565b60066020525f908152604090205460ff1681565b60405190151581526020016101d3565b6002546101b29073ffffffffffffffffffffffffffffffffffffffff1681565b6101ef61033f36600461107f565b610657565b6101ef6103523660046110d8565b61084d565b6101ef6108c1565b61030161036d36600461107f565b73ffffffffffffffffffffffffffffffffffffffff165f9081526006602052604090205460ff1690565b6101ef6109b9565b6103016103ad36600461107f565b60076020525f908152604090205460ff1681565b6101ef6103cf3660046110a1565b610a84565b6101b26103e236600461107f565b73ffffffffffffffffffffffffffffffffffffffff9081165f908152600560205260409020541690565b6004546101b29073ffffffffffffffffffffffffffffffffffffffff1681565b6101ef61043a36600461107f565b610c8d565b5f546101b290610100900473ffffffffffffffffffffffffffffffffffffffff1681565b6101ef610471366004611146565b610d5a565b6101ef61048436600461107f565b610e3a565b6001546101b29073ffffffffffffffffffffffffffffffffffffffff1681565b6101ef6104b736600461107f565b610eff565b335f9081526006602052604090205460ff1661050b576040517f8e4a23d60000000000000000000000000000000000000000000000000000000081523360048201526024015b60405180910390fd5b73ffffffffffffffffffffffffffffffffffffffff8083165f8181526008602090815260408083209486168084529490915280822080547fffffffffffffffff00000000000000000000000000000000000000000000000016905551339392917f4393a60e4be5ed8f6267136e94e28287c0baede4c821b81e548534200e76143591a45050565b5f54610100900473ffffffffffffffffffffffffffffffffffffffff1633146105e9576040517f8e4a23d6000000000000000000000000000000000000000000000000000000008152336004820152602401610502565b600380547fffffffffffffffffffffffff00000000000000000000000000000000000000001673ffffffffffffffffffffffffffffffffffffffff83169081179091556040517f3eb547386bebe7024b48bba40965ca12d91bb4920ab550631bb5c68d53000457905f90a250565b5f54610100900473ffffffffffffffffffffffffffffffffffffffff1633146106ae576040517f8e4a23d6000000000000000000000000000000000000000000000000000000008152336004820152602401610502565b5f8173ffffffffffffffffffffffffffffffffffffffff1663544bc96d6040518163ffffffff1660e01b8152600401602060405180830381865afa1580156106f8573d5f5f3e3d5ffd5b505050506040513d601f19601f8201168201806040525081019061071c9190611176565b73ffffffffffffffffffffffffffffffffffffffff8082165f9081526005602052604090205491925016156107d2576040517f08c379a0000000000000000000000000000000000000000000000000000000008152602060048201526024808201527f57697468647261772072657175657374206d616e6167657220616c726561647960448201527f20736574000000000000000000000000000000000000000000000000000000006064820152608401610502565b73ffffffffffffffffffffffffffffffffffffffff8181165f8181526005602052604080822080547fffffffffffffffffffffffff0000000000000000000000000000000000000000169487169485179055517f5863d372c31b246d66dd6b3f2c671cc385be8253db8ed05c3b64af939e14fd229190a35050565b5f5460ff1615610889576040517ff92ee8a900000000000000000000000000000000000000000000000000000000815260040160405180910390fd5b5f80547fffffffffffffffffffffffffffffffffffffffffffffffffffffffffffffff001660011790556108bd8282610fc4565b5050565b60015473ffffffffffffffffffffffffffffffffffffffff163314610914576040517f8e4a23d6000000000000000000000000000000000000000000000000000000008152336004820152602401610502565b600180545f805473ffffffffffffffffffffffffffffffffffffffff8084166101009081027fffffffffffffffffffffff0000000000000000000000000000000000000000ff909316929092178084557fffffffffffffffffffffffff00000000000000000000000000000000000000009094169094556040519204909216917fc544fb6c26f1d02b272cd0a9ce13884d31956089ca92b900532d8809b184f5f691a2565b60035473ffffffffffffffffffffffffffffffffffffffff163314610a0c576040517f8e4a23d6000000000000000000000000000000000000000000000000000000008152336004820152602401610502565b600380546002805473ffffffffffffffffffffffffffffffffffffffff83167fffffffffffffffffffffffff000000000000000000000000000000000000000091821681179092559091169091556040517f0747663027b579be7c04a2d02455e056a51eac65315c40ee9a101334c44f4b1b905f90a2565b335f9081526006602052604090205460ff16610ace576040517f8e4a23d6000000000000000000000000000000000000000000000000000000008152336004820152602401610502565b73ffffffffffffffffffffffffffffffffffffffff8083165f908152600860209081526040808320858516845290915290208054909116610b365780547fffffffffffffffffffffffff00000000000000000000000000000000000000001633178155610b86565b805473ffffffffffffffffffffffffffffffffffffffff163314610b86576040517f1bb8b5b100000000000000000000000000000000000000000000000000000000815260040160405180910390fd5b73ffffffffffffffffffffffffffffffffffffffff82165f9081526007602052604090205460ff16610bfc576040517faf7301ae00000000000000000000000000000000000000000000000000000000815273ffffffffffffffffffffffffffffffffffffffff83166004820152602401610502565b80547fffffffffffffffff00000000ffffffffffffffffffffffffffffffffffffffff16740100000000000000000000000000000000000000004263ffffffff1602178155604051339073ffffffffffffffffffffffffffffffffffffffff84811691908616907fb28175f1446fafab01434642191e59721d55b00e2091f822438369d59cee1d44905f90a4505050565b5f54610100900473ffffffffffffffffffffffffffffffffffffffff163314610ce4576040517f8e4a23d6000000000000000000000000000000000000000000000000000000008152336004820152602401610502565b73ffffffffffffffffffffffffffffffffffffffff81165f8181526006602052604080822080547fffffffffffffffffffffffffffffffffffffffffffffffffffffffffffffff00166001179055517fc081d98566f35e7683ac546bdfb0b8b5f18a5ebeeeea752c606cb8b431322ae09190a250565b5f54610100900473ffffffffffffffffffffffffffffffffffffffff163314610db1576040517f8e4a23d6000000000000000000000000000000000000000000000000000000008152336004820152602401610502565b73ffffffffffffffffffffffffffffffffffffffff82165f8181526007602090815260409182902080547fffffffffffffffffffffffffffffffffffffffffffffffffffffffffffffff001685151590811790915591519182527f535a127f1000c5fa3267e0a84f04d11295bf38e2ad4d65355edfc9718a661e65910160405180910390a25050565b5f54610100900473ffffffffffffffffffffffffffffffffffffffff163314610e91576040517f8e4a23d6000000000000000000000000000000000000000000000000000000008152336004820152602401610502565b600480547fffffffffffffffffffffffff00000000000000000000000000000000000000001673ffffffffffffffffffffffffffffffffffffffff83169081179091556040517f9d3399a615bc3ef494206004e5200db55c84cd27ffb171ab21d6ec30874cd64f905f90a250565b5f54610100900473ffffffffffffffffffffffffffffffffffffffff163314610f56576040517f8e4a23d6000000000000000000000000000000000000000000000000000000008152336004820152602401610502565b600180547fffffffffffffffffffffffff00000000000000000000000000000000000000001673ffffffffffffffffffffffffffffffffffffffff83169081179091556040517f3d9b809bebb45f1a9f55a39850242ca5e2cff3a27358b7826ca96632f6c7e532905f90a250565b5f8080610fd384860186611191565b5f805473ffffffffffffffffffffffffffffffffffffffff948516610100027fffffffffffffffffffffff0000000000000000000000000000000000000000ff909116179055600280549284167fffffffffffffffffffffffff0000000000000000000000000000000000000000938416179055600480549190931691161790555050505050565b73ffffffffffffffffffffffffffffffffffffffff8116811461107c575f5ffd5b50565b5f6020828403121561108f575f5ffd5b813561109a8161105b565b9392505050565b5f5f604083850312156110b2575f5ffd5b82356110bd8161105b565b915060208301356110cd8161105b565b809150509250929050565b5f5f602083850312156110e9575f5ffd5b823567ffffffffffffffff8111156110ff575f5ffd5b8301601f8101851361110f575f5ffd5b803567ffffffffffffffff811115611125575f5ffd5b856020828401011115611136575f5ffd5b6020919091019590945092505050565b5f5f60408385031215611157575f5ffd5b82356111628161105b565b9150602083013580151581146110cd575f5ffd5b5f60208284031215611186575f5ffd5b815161109a8161105b565b5f5f5f606084860312156111a3575f5ffd5b83356111ae8161105b565b925060208401356111be8161105b565b915060408401356111ce8161105b565b80915050925092509256fea164736f6c634300081d000a","linkReferences":{}},"methodIdentifiers":{"acceptPauseAdmin()":"53352848","acceptUpgradeOwnership()":"44f793a4","clearPosition(address,address)":"0ffd849b","feeReceiver()":"b3f00674","getVaultPosition(address,address)":"268b4bae","getWithdrawRequestManager(address)":"9287d7ac","initialize(bytes)":"439fab91","isLendingRouter(address)":"46f74dce","lendingRouters(address)":"2b0fdbe4","pauseAdmin()":"2f11d653","pendingPauseAdmin()":"1404297c","pendingUpgradeAdmin()":"de6750a2","setLendingRouter(address)":"c0e18777","setPosition(address,address)":"7e124598","setWhitelistedVault(address,bool)":"c599a317","setWithdrawRequestManager(address)":"42d90a85","transferFeeReceiver(address)":"d23076a9","transferPauseAdmin(address)":"24a23526","transferUpgradeAdmin(address)":"e3fdddbf","upgradeAdmin()":"c4d5608a","whitelistedVaults(address)":"574b7675","withdrawRequestManagers(address)":"0e3cf192"},"id":77}