{"abi":[{"type":"constructor","inputs":[{"name":"_maxPoolShare","type":"uint256","internalType":"uint256"},{"name":"_asset","type":"address","internalType":"address"},{"name":"_yieldToken","type":"address","internalType":"address"},{"name":"_feeRate","type":"uint256","internalType":"uint256"},{"name":"_rewardManager","type":"address","internalType":"address"},{"name":"params","type":"tuple","internalType":"struct DeploymentParams","components":[{"name":"pool","type":"address","internalType":"address"},{"name":"poolToken","type":"address","internalType":"address"},{"name":"gauge","type":"address","internalType":"address"},{"name":"convexRewardPool","type":"address","internalType":"address"},{"name":"curveInterface","type":"uint8","internalType":"enum CurveInterface"}]},{"name":"_withdrawRequestManager","type":"address","internalType":"contract IWithdrawRequestManager"}],"stateMutability":"nonpayable"},{"type":"fallback","stateMutability":"nonpayable"},{"type":"function","name":"REWARD_MANAGER","inputs":[],"outputs":[{"name":"","type":"address","internalType":"contract IRewardManager"}],"stateMutability":"view"},{"type":"function","name":"allowTransfer","inputs":[{"name":"to","type":"address","internalType":"address"},{"name":"amount","type":"uint256","internalType":"uint256"},{"name":"currentAccount","type":"address","internalType":"address"}],"outputs":[],"stateMutability":"nonpayable"},{"type":"function","name":"allowance","inputs":[{"name":"owner","type":"address","internalType":"address"},{"name":"spender","type":"address","internalType":"address"}],"outputs":[{"name":"","type":"uint256","internalType":"uint256"}],"stateMutability":"view"},{"type":"function","name":"approve","inputs":[{"name":"spender","type":"address","internalType":"address"},{"name":"value","type":"uint256","internalType":"uint256"}],"outputs":[{"name":"","type":"bool","internalType":"bool"}],"stateMutability":"nonpayable"},{"type":"function","name":"asset","inputs":[],"outputs":[{"name":"","type":"address","internalType":"address"}],"stateMutability":"view"},{"type":"function","name":"balanceOf","inputs":[{"name":"account","type":"address","internalType":"address"}],"outputs":[{"name":"","type":"uint256","internalType":"uint256"}],"stateMutability":"view"},{"type":"function","name":"burnShares","inputs":[{"name":"sharesOwner","type":"address","internalType":"address"},{"name":"sharesToBurn","type":"uint256","internalType":"uint256"},{"name":"sharesHeld","type":"uint256","internalType":"uint256"},{"name":"redeemData","type":"bytes","internalType":"bytes"}],"outputs":[{"name":"assetsWithdrawn","type":"uint256","internalType":"uint256"}],"stateMutability":"nonpayable"},{"type":"function","name":"claimAccountRewards","inputs":[{"name":"account","type":"address","internalType":"address"},{"name":"sharesHeld","type":"uint256","internalType":"uint256"}],"outputs":[{"name":"rewards","type":"uint256[]","internalType":"uint256[]"}],"stateMutability":"nonpayable"},{"type":"function","name":"clearCurrentAccount","inputs":[],"outputs":[],"stateMutability":"nonpayable"},{"type":"function","name":"collectFees","inputs":[],"outputs":[],"stateMutability":"nonpayable"},{"type":"function","name":"convertSharesToYieldToken","inputs":[{"name":"shares","type":"uint256","internalType":"uint256"}],"outputs":[{"name":"","type":"uint256","internalType":"uint256"}],"stateMutability":"view"},{"type":"function","name":"convertToAssets","inputs":[{"name":"shares","type":"uint256","internalType":"uint256"}],"outputs":[{"name":"","type":"uint256","internalType":"uint256"}],"stateMutability":"view"},{"type":"function","name":"convertToShares","inputs":[{"name":"assets","type":"uint256","internalType":"uint256"}],"outputs":[{"name":"","type":"uint256","internalType":"uint256"}],"stateMutability":"view"},{"type":"function","name":"convertYieldTokenToAsset","inputs":[],"outputs":[{"name":"","type":"uint256","internalType":"uint256"}],"stateMutability":"view"},{"type":"function","name":"convertYieldTokenToShares","inputs":[{"name":"yieldTokens","type":"uint256","internalType":"uint256"}],"outputs":[{"name":"","type":"uint256","internalType":"uint256"}],"stateMutability":"view"},{"type":"function","name":"decimals","inputs":[],"outputs":[{"name":"","type":"uint8","internalType":"uint8"}],"stateMutability":"view"},{"type":"function","name":"effectiveSupply","inputs":[],"outputs":[{"name":"","type":"uint256","internalType":"uint256"}],"stateMutability":"view"},{"type":"function","name":"feeRate","inputs":[],"outputs":[{"name":"","type":"uint256","internalType":"uint256"}],"stateMutability":"view"},{"type":"function","name":"feesAccrued","inputs":[],"outputs":[{"name":"feesAccruedInYieldToken","type":"uint256","internalType":"uint256"}],"stateMutability":"view"},{"type":"function","name":"initialize","inputs":[{"name":"data","type":"bytes","internalType":"bytes"}],"outputs":[],"stateMutability":"nonpayable"},{"type":"function","name":"initiateWithdraw","inputs":[{"name":"account","type":"address","internalType":"address"},{"name":"sharesHeld","type":"uint256","internalType":"uint256"},{"name":"data","type":"bytes","internalType":"bytes"}],"outputs":[{"name":"requestId","type":"uint256","internalType":"uint256"}],"stateMutability":"nonpayable"},{"type":"function","name":"initiateWithdrawNative","inputs":[{"name":"data","type":"bytes","internalType":"bytes"}],"outputs":[{"name":"requestId","type":"uint256","internalType":"uint256"}],"stateMutability":"nonpayable"},{"type":"function","name":"mintShares","inputs":[{"name":"assetAmount","type":"uint256","internalType":"uint256"},{"name":"receiver","type":"address","internalType":"address"},{"name":"depositData","type":"bytes","internalType":"bytes"}],"outputs":[{"name":"sharesMinted","type":"uint256","internalType":"uint256"}],"stateMutability":"nonpayable"},{"type":"function","name":"name","inputs":[],"outputs":[{"name":"","type":"string","internalType":"string"}],"stateMutability":"view"},{"type":"function","name":"postLiquidation","inputs":[{"name":"liquidator","type":"address","internalType":"address"},{"name":"liquidateAccount","type":"address","internalType":"address"},{"name":"sharesToLiquidator","type":"uint256","internalType":"uint256"}],"outputs":[],"stateMutability":"nonpayable"},{"type":"function","name":"preLiquidation","inputs":[{"name":"liquidator","type":"address","internalType":"address"},{"name":"liquidateAccount","type":"address","internalType":"address"},{"name":"sharesToLiquidate","type":"uint256","internalType":"uint256"},{"name":"accountSharesHeld","type":"uint256","internalType":"uint256"}],"outputs":[],"stateMutability":"nonpayable"},{"type":"function","name":"price","inputs":[],"outputs":[{"name":"","type":"uint256","internalType":"uint256"}],"stateMutability":"view"},{"type":"function","name":"price","inputs":[{"name":"borrower","type":"address","internalType":"address"}],"outputs":[{"name":"","type":"uint256","internalType":"uint256"}],"stateMutability":"nonpayable"},{"type":"function","name":"redeemNative","inputs":[{"name":"sharesToRedeem","type":"uint256","internalType":"uint256"},{"name":"redeemData","type":"bytes","internalType":"bytes"}],"outputs":[{"name":"assetsWithdrawn","type":"uint256","internalType":"uint256"}],"stateMutability":"nonpayable"},{"type":"function","name":"symbol","inputs":[],"outputs":[{"name":"","type":"string","internalType":"string"}],"stateMutability":"view"},{"type":"function","name":"totalAssets","inputs":[],"outputs":[{"name":"","type":"uint256","internalType":"uint256"}],"stateMutability":"view"},{"type":"function","name":"totalSupply","inputs":[],"outputs":[{"name":"","type":"uint256","internalType":"uint256"}],"stateMutability":"view"},{"type":"function","name":"transfer","inputs":[{"name":"to","type":"address","internalType":"address"},{"name":"value","type":"uint256","internalType":"uint256"}],"outputs":[{"name":"","type":"bool","internalType":"bool"}],"stateMutability":"nonpayable"},{"type":"function","name":"transferFrom","inputs":[{"name":"from","type":"address","internalType":"address"},{"name":"to","type":"address","internalType":"address"},{"name":"value","type":"uint256","internalType":"uint256"}],"outputs":[{"name":"","type":"bool","internalType":"bool"}],"stateMutability":"nonpayable"},{"type":"function","name":"yieldToken","inputs":[],"outputs":[{"name":"","type":"address","internalType":"address"}],"stateMutability":"view"},{"type":"event","name":"Approval","inputs":[{"name":"owner","type":"address","indexed":true,"internalType":"address"},{"name":"spender","type":"address","indexed":true,"internalType":"address"},{"name":"value","type":"uint256","indexed":false,"internalType":"uint256"}],"anonymous":false},{"type":"event","name":"Transfer","inputs":[{"name":"from","type":"address","indexed":true,"internalType":"address"},{"name":"to","type":"address","indexed":true,"internalType":"address"},{"name":"value","type":"uint256","indexed":false,"internalType":"uint256"}],"anonymous":false},{"type":"event","name":"VaultCreated","inputs":[{"name":"vault","type":"address","indexed":true,"internalType":"address"}],"anonymous":false},{"type":"error","name":"AssetRemaining","inputs":[{"name":"assetRemaining","type":"uint256","internalType":"uint256"}]},{"type":"error","name":"CannotEnterPosition","inputs":[]},{"type":"error","name":"CannotLiquidateZeroShares","inputs":[]},{"type":"error","name":"CurrentAccountAlreadySet","inputs":[]},{"type":"error","name":"ERC20InsufficientAllowance","inputs":[{"name":"spender","type":"address","internalType":"address"},{"name":"allowance","type":"uint256","internalType":"uint256"},{"name":"needed","type":"uint256","internalType":"uint256"}]},{"type":"error","name":"ERC20InsufficientBalance","inputs":[{"name":"sender","type":"address","internalType":"address"},{"name":"balance","type":"uint256","internalType":"uint256"},{"name":"needed","type":"uint256","internalType":"uint256"}]},{"type":"error","name":"ERC20InvalidApprover","inputs":[{"name":"approver","type":"address","internalType":"address"}]},{"type":"error","name":"ERC20InvalidReceiver","inputs":[{"name":"receiver","type":"address","internalType":"address"}]},{"type":"error","name":"ERC20InvalidSender","inputs":[{"name":"sender","type":"address","internalType":"address"}]},{"type":"error","name":"ERC20InvalidSpender","inputs":[{"name":"spender","type":"address","internalType":"address"}]},{"type":"error","name":"InsufficientSharesHeld","inputs":[]},{"type":"error","name":"InvalidInitialization","inputs":[]},{"type":"error","name":"PoolShareTooHigh","inputs":[{"name":"poolClaim","type":"uint256","internalType":"uint256"},{"name":"maxSupplyThreshold","type":"uint256","internalType":"uint256"}]},{"type":"error","name":"ReentrancyGuardReentrantCall","inputs":[]},{"type":"error","name":"SafeERC20FailedOperation","inputs":[{"name":"token","type":"address","internalType":"address"}]},{"type":"error","name":"Unauthorized","inputs":[{"name":"caller","type":"address","internalType":"address"}]},{"type":"error","name":"UnauthorizedLendingMarketTransfer","inputs":[{"name":"from","type":"address","internalType":"address"},{"name":"to","type":"address","internalType":"address"},{"name":"value","type":"uint256","internalType":"uint256"}]}],"bytecode":{"object":"0x610220604052348015610010575f5ffd5b5060405161847138038061847183398101604081905261002f91610406565b868686868660128685858585858484848360405180602001604052805f81525060405180602001604052805f81525060015f5f6101000a81548160ff0219169083151502179055508160049081610086919061058a565b506005610093828261058a565b50505060c08290526001600160a01b03808516608052831660a05260ff8116610100526100bf846102cc565b60ff1661012052505050506001600160a01b0391821661014052506101609a909a52505050861660e05250505050602084015182166101a05250825160405163c661065760e01b81525f600482015261016592919091169063c6610657906024015b602060405180830381865afa15801561013c573d5f5f3e3d5ffd5b505050506040513d601f19601f820116820180604052508101906101609190610644565b610382565b6001600160a01b039081166101e052825160405163c661065760e01b8152600160048201526101a192919091169063c661065790602401610121565b6001600160a01b03908116610200526101e051811690871614806101f657506101e0516001600160a01b03161580156101f657506001600160a01b03861673c02aaa39b223fe8d0a0e5c4f27ead9083c756cc2145b61026057856001600160a01b0316610200516001600160a01b0316148061024e5750610200516001600160a01b031615801561024e57506001600160a01b03861673c02aaa39b223fe8d0a0e5c4f27ead9083c756cc2145b6102595760ff610262565b6001610262565b5f5b60ff166101c08160ff16815250506101e05161020051876101c0518560405161028a906103b5565b610298959493929190610666565b604051809103905ff0801580156102b1573d5f5f3e3d5ffd5b506001600160a01b0316610180525061071d95505050505050565b5f6001600160a01b03821615806102ff57506001600160a01b03821673eeeeeeeeeeeeeeeeeeeeeeeeeeeeeeeeeeeeeeee145b61036857816001600160a01b031663313ce5676040518163ffffffff1660e01b8152600401602060405180830381865afa15801561033f573d5f5f3e3d5ffd5b505050506040513d601f19601f8201168201806040525081019061036391906106fd565b61036b565b60125b905060128160ff16111561037d575f5ffd5b919050565b5f6001600160a01b03821673eeeeeeeeeeeeeeeeeeeeeeeeeeeeeeeeeeeeeeee146103ad57816103af565b5f5b92915050565b6132c2806151af83390190565b6001600160a01b03811681146103d6575f5ffd5b50565b805161037d816103c2565b634e487b7160e01b5f52604160045260245ffd5b80516003811061037d575f5ffd5b5f5f5f5f5f5f5f87890361016081121561041e575f5ffd5b885160208a0151909850610431816103c2565b60408a0151909750610442816103c2565b60608a015160808b0151919750955061045a816103c2565b935060a0609f198201121561046d575f5ffd5b5060405160a081016001600160401b0381118282101715610490576104906103e4565b60405260a08901516104a1816103c2565b81526104af60c08a016103d9565b60208201526104c060e08a016103d9565b60408201526104d26101008a016103d9565b60608201526104e46101208a016103f8565b608082015291506104f861014089016103d9565b905092959891949750929550565b600181811c9082168061051a57607f821691505b60208210810361053857634e487b7160e01b5f52602260045260245ffd5b50919050565b601f82111561058557805f5260205f20601f840160051c810160208510156105635750805b601f840160051c820191505b81811015610582575f815560010161056f565b50505b505050565b81516001600160401b038111156105a3576105a36103e4565b6105b7816105b18454610506565b8461053e565b6020601f8211600181146105e9575f83156105d25750848201515b5f19600385901b1c1916600184901b178455610582565b5f84815260208120601f198516915b8281101561061857878501518255602094850194600190920191016105f8565b508482101561063557868401515f19600387901b60f8161c191681555b50505050600190811b01905550565b5f60208284031215610654575f5ffd5b815161065f816103c2565b9392505050565b6001600160a01b03868116825285811660208084019190915285821660408085019190915260ff86166060808601919091528551841660808087019190915292860151841660a086015290850151831660c085015284015190911660e0830152820151610120820190600381106106eb57634e487b7160e01b5f52602160045260245ffd5b80610100840152509695505050505050565b5f6020828403121561070d575f5ffd5b815160ff8116811461065f575f5ffd5b60805160a05160c05160e05161010051610120516101405161016051610180516101a0516101c0516101e0516102005161493d6108725f395f6130c501525f61307201525f8181612cc70152818161332d0152818161346d015261349901525f61381f01525f81816107aa01528181611b5301528181612456015281816129a9015281816129fc01528181612a6701528181612edd01528181612f8601528181612ffa015261352401525f61356a01525f818161024101528181610442015261215e01525f818161167a0152611c0901525f81816116bb0152611bd401525f50505f81816104f0015261223701525f81816104b1015281816119ce01526120a301525f81816103db0152818161077b01528181610a0501528181610c23015281816119f601528181611ae9015281816125e00152818161263d015281816131220152818161322d01526133a5015261493d5ff3fe608060405234801561000f575f5ffd5b506004361061023f575f3560e01c806376d5de8511610143578063aea91078116100bb578063c87965721161008a578063dd62ed3e1161006f578063dd62ed3e146105af578063e0b4327d146105e7578063eb9b1912146105ef5761023f565b8063c879657214610594578063cc351ac51461059c5761023f565b8063aea9107814610553578063b35cb45d14610566578063b905a4ff1461056e578063c6e6f592146105815761023f565b8063978bbdb91161011257806398dce16d116100f757806398dce16d14610525578063a035b1fe14610538578063a9059cbb146105405761023f565b8063978bbdb9146104eb57806398476c2b146105125761023f565b806376d5de85146104ac5780638fc47093146104d357806394db0595146104db57806395d89b41146104e35761023f565b806323b872dd116101d6578063439fab91116101a55780635932fdba1161018a5780635932fdba1461043d57806366ab3b721461046457806370a08231146104845761023f565b8063439fab911461041557806357831a041461042a5761023f565b806323b872dd146103a157806325565931146103b4578063313ce567146103c757806338d52e0f146103d65761023f565b80630db734d4116102125780630db734d414610360578063127af7f914610373578063131b822d1461038657806318160ddd146103995761023f565b806301e1d114146102fa57806306fdde031461031557806307a2d13a1461032a578063095ea7b31461033d575b7f00000000000000000000000000000000000000000000000000000000000000007fb64579f3000000000000000000000000000000000000000000000000000000005f357fffffffff0000000000000000000000000000000000000000000000000000000016016102ae575f5ffd5b5f6102ee825f368080601f0160208091040260200160405190810160405280939291908181526020018383808284375f9201919091525061060292505050565b90508051602082018181f35b610302610673565b6040519081526020015b60405180910390f35b61031d610685565b60405161030c91906139c8565b6103026103383660046139da565b610715565b61035061034b366004613a05565b610822565b604051901515815260200161030c565b61030261036e366004613a6d565b610839565b610302610381366004613ad2565b610a60565b610302610394366004613c4f565b610d09565b600354610302565b6103506103af366004613c81565b610d24565b6103026103c23660046139da565b610d49565b6040516012815260200161030c565b6103fd7f000000000000000000000000000000000000000000000000000000000000000081565b6040516001600160a01b03909116815260200161030c565b610428610423366004613cbf565b610d8c565b005b610302610438366004613cf2565b610e00565b6103fd7f000000000000000000000000000000000000000000000000000000000000000081565b610477610472366004613a05565b610fd6565b60405161030c9190613d6c565b610302610492366004613d7e565b6001600160a01b03165f9081526001602052604090205490565b6103fd7f000000000000000000000000000000000000000000000000000000000000000081565b6103026110e2565b610302611107565b61031d61111d565b6103027f000000000000000000000000000000000000000000000000000000000000000081565b610428610520366004613d99565b61112c565b610428610533366004613c81565b6112eb565b610302611462565b61035061054e366004613a05565b61148a565b610302610561366004613d7e565b611497565b610428611522565b61030261057c3660046139da565b611644565b61030261058f3660046139da565b611673565b61042861170a565b6104286105aa366004613dd8565b611797565b6103026105bd366004613e1b565b6001600160a01b039182165f90815260026020908152604080832093909416825291909152205490565b61030261199e565b6103026105fd366004613e52565b611a7c565b60605f836001600160a01b03168360405161061d9190613e96565b5f60405180830381855af49150503d805f8114610655576040519150601f19603f3d011682016040523d82523d5f602084013e61065a565b606091505b50925090508061066c573d5f5f3e3d5ffd5b5092915050565b5f61068061033860035490565b905090565b60606006805461069490613eac565b80601f01602080910402602001604051908101604052809291908181526020018280546106c090613eac565b801561070b5780601f106106e25761010080835404028352916020019161070b565b820191905f5260205f20905b8154815290600101906020018083116106ee57829003601f168201915b5050505050905090565b5f805c6001600160a01b03161580159061073d575061073d6001600160a01b035f5c16611b19565b15610819576040517fc31f413c0000000000000000000000000000000000000000000000000000000081526001600160a01b035f5c811660048301527f000000000000000000000000000000000000000000000000000000000000000081166024830152604482018490527f0000000000000000000000000000000000000000000000000000000000000000169063c31f413c90606401602060405180830381865afa1580156107ef573d5f5f3e3d5ffd5b505050506040513d601f19601f820116820180604052508101906108139190613efd565b92915050565b61081382611bbe565b5f3361082f818585611c55565b5060019392505050565b6040517f46f74dce0000000000000000000000000000000000000000000000000000000081523360048201525f90735615deb798bb3e4dfa0139dfa1b3d433cc23b72f906346f74dce90602401602060405180830381865afa1580156108a1573d5f5f3e3d5ffd5b505050506040513d601f19601f820116820180604052508101906108c59190613f14565b15155f03610906576040517f8e4a23d60000000000000000000000000000000000000000000000000000000081523360048201526024015b60405180910390fd5b336001805c73ffffffffffffffffffffffffffffffffffffffff19168217905d50855f5c6001600160a01b031661096557805f805c73ffffffffffffffffffffffffffffffffffffffff19166001600160a01b03831617905d506109ac565b5f5c6001600160a01b03908116908216146109ac576040517f391fea3c00000000000000000000000000000000000000000000000000000000815260040160405180910390fd5b6109b4611c67565b6109f6868686868080601f0160208091040260200160405190810160405280939291908181526020018383808284375f920191909152508d9250611cef915050565b9150610a316001600160a01b037f000000000000000000000000000000000000000000000000000000000000000081169060015c1684611d36565b610a39611daa565b506001805c73ffffffffffffffffffffffffffffffffffffffff1916905d95945050505050565b6040517f46f74dce0000000000000000000000000000000000000000000000000000000081523360048201525f90735615deb798bb3e4dfa0139dfa1b3d433cc23b72f906346f74dce90602401602060405180830381865afa158015610ac8573d5f5f3e3d5ffd5b505050506040513d601f19601f82011682018060405250810190610aec9190613f14565b15155f03610b28576040517f8e4a23d60000000000000000000000000000000000000000000000000000000081523360048201526024016108fd565b336001805c73ffffffffffffffffffffffffffffffffffffffff19168217905d50835f5c6001600160a01b0316610b8757805f805c73ffffffffffffffffffffffffffffffffffffffff19166001600160a01b03831617905d50610bce565b5f5c6001600160a01b0390811690821614610bce576040517f391fea3c00000000000000000000000000000000000000000000000000000000815260040160405180910390fd5b610bd6611c67565b610bdf85611b19565b15610c16576040517f1bb8b5b100000000000000000000000000000000000000000000000000000000815260040160405180910390fd5b610c506001600160a01b037f000000000000000000000000000000000000000000000000000000000000000081169060015c163089611dd4565b610c918685858080601f0160208091040260200160405190810160405280939291908181526020018383808284375f920191909152508a9250611e13915050565b915060015c6001600160a01b03166002805c73ffffffffffffffffffffffffffffffffffffffff19168217905d50818060035d50610cdb856001600160a01b0360015c1684611eda565b610ce3611daa565b506001805c73ffffffffffffffffffffffffffffffffffffffff1916905d949350505050565b335f8181526001602052604081205490916108139184611f69565b5f33610d31858285611fe4565b610d3c858585611eda565b60019150505b9392505050565b5f6001610d54611107565b610d5c612073565b610d669190613f60565b610d709190613f73565b610d786110e2565b610d829084613f86565b6108139190613f9d565b5f5460ff1615610dc8576040517ff92ee8a900000000000000000000000000000000000000000000000000000000815260040160405180910390fd5b5f80547fffffffffffffffffffffffffffffffffffffffffffffffffffffffffffffff00166001179055610dfc8282612114565b5050565b6040517f46f74dce0000000000000000000000000000000000000000000000000000000081523360048201525f90735615deb798bb3e4dfa0139dfa1b3d433cc23b72f906346f74dce90602401602060405180830381865afa158015610e68573d5f5f3e3d5ffd5b505050506040513d601f19601f82011682018060405250810190610e8c9190613f14565b15155f03610ec8576040517f8e4a23d60000000000000000000000000000000000000000000000000000000081523360048201526024016108fd565b336001805c73ffffffffffffffffffffffffffffffffffffffff19168217905d50845f5c6001600160a01b0316610f2757805f805c73ffffffffffffffffffffffffffffffffffffffff19166001600160a01b03831617905d50610f6e565b5f5c6001600160a01b0390811690821614610f6e576040517f391fea3c00000000000000000000000000000000000000000000000000000000815260040160405180910390fd5b610fae868686868080601f0160208091040260200160405190810160405280939291908181526020018383808284375f92019190915250611f6992505050565b9150506001805c73ffffffffffffffffffffffffffffffffffffffff1916905d949350505050565b6060610fe0611c67565b5f610fe96110e2565b6040517f46f74dce000000000000000000000000000000000000000000000000000000008152336004820152909150735615deb798bb3e4dfa0139dfa1b3d433cc23b72f906346f74dce90602401602060405180830381865afa158015611052573d5f5f3e3d5ffd5b505050506040513d601f19601f820116820180604052508101906110769190613f14565b611095576001600160a01b0384165f9081526001602052604090205492505b8215806110a657506110a684611b19565b156110b157506110da565b5f6110bf858386875f612126565b9050808060200190518101906110d5919061405d565b925050505b610813611daa565b5f620f4240600a546110f360035490565b6110fd9190613f60565b6106809190613f73565b5f611110612212565b6009546106809190613f73565b60606007805461069490613eac565b805f5c6001600160a01b031661116a57805f805c73ffffffffffffffffffffffffffffffffffffffff19166001600160a01b03831617905d506111b1565b5f5c6001600160a01b03908116908216146111b1576040517f391fea3c00000000000000000000000000000000000000000000000000000000815260040160405180910390fd5b6040517f46f74dce000000000000000000000000000000000000000000000000000000008152336004820152735615deb798bb3e4dfa0139dfa1b3d433cc23b72f906346f74dce90602401602060405180830381865afa158015611217573d5f5f3e3d5ffd5b505050506040513d601f19601f8201168201806040525081019061123b9190613f14565b15155f03611277576040517f8e4a23d60000000000000000000000000000000000000000000000000000000081523360048201526024016108fd565b336001805c73ffffffffffffffffffffffffffffffffffffffff19168217905d50836002805c73ffffffffffffffffffffffffffffffffffffffff19166001600160a01b03831617905d50828060035d506001805c73ffffffffffffffffffffffffffffffffffffffff1916905d50505050565b6040517f46f74dce000000000000000000000000000000000000000000000000000000008152336004820152735615deb798bb3e4dfa0139dfa1b3d433cc23b72f906346f74dce90602401602060405180830381865afa158015611351573d5f5f3e3d5ffd5b505050506040513d601f19601f820116820180604052508101906113759190613f14565b15155f036113b1576040517f8e4a23d60000000000000000000000000000000000000000000000000000000081523360048201526024016108fd565b336001805c73ffffffffffffffffffffffffffffffffffffffff19168217905d50826002805c73ffffffffffffffffffffffffffffffffffffffff19166001600160a01b03831617905d50808060035d506114186001600160a01b0360015c168483611eda565b61142383838361234f565b505f805c73ffffffffffffffffffffffffffffffffffffffff1916905d6001805c73ffffffffffffffffffffffffffffffffffffffff1916905d505050565b5f61147b610338620f4240670de0b6b3a7640000613f86565b6106809064e8d4a51000613f86565b5f3361082f818585611eda565b5f6001600160a01b03815c81811691849190821673ffffffffffffffffffffffffffffffffffffffff1990911617835d505f6114e1610338620f4240670de0b6b3a7640000613f86565b6114f09064e8d4a51000613f86565b9050815f805c73ffffffffffffffffffffffffffffffffffffffff19166001600160a01b03831617905d509392505050565b6040517f46f74dce000000000000000000000000000000000000000000000000000000008152336004820152735615deb798bb3e4dfa0139dfa1b3d433cc23b72f906346f74dce90602401602060405180830381865afa158015611588573d5f5f3e3d5ffd5b505050506040513d601f19601f820116820180604052508101906115ac9190613f14565b15155f036115e8576040517f8e4a23d60000000000000000000000000000000000000000000000000000000081523360048201526024016108fd565b336001805c73ffffffffffffffffffffffffffffffffffffffff19168217905d505f805c73ffffffffffffffffffffffffffffffffffffffff1916905d6001805c73ffffffffffffffffffffffffffffffffffffffff1916905d565b5f61164d6110e2565b6001611657611107565b61165f612073565b6116699190613f60565b610d789190613f73565b5f806116a07f0000000000000000000000000000000000000000000000000000000000000000600a614172565b6116a861199e565b6116b29190613f86565b6116e0601260ff7f000000000000000000000000000000000000000000000000000000000000000016613f73565b6116eb90600a614180565b6116f59085613f86565b6116ff9190613f9d565b9050610d4281610d49565b6117126123d5565b611791735615deb798bb3e4dfa0139dfa1b3d433cc23b72f6001600160a01b031663b3f006746040518163ffffffff1660e01b8152600401602060405180830381865afa158015611765573d5f5f3e3d5ffd5b505050506040513d601f19601f82011682018060405250810190611789919061418b565b600954612437565b5f600955565b6040517f46f74dce000000000000000000000000000000000000000000000000000000008152336004820152735615deb798bb3e4dfa0139dfa1b3d433cc23b72f906346f74dce90602401602060405180830381865afa1580156117fd573d5f5f3e3d5ffd5b505050506040513d601f19601f820116820180604052508101906118219190613f14565b15155f0361185d576040517f8e4a23d60000000000000000000000000000000000000000000000000000000081523360048201526024016108fd565b336001805c73ffffffffffffffffffffffffffffffffffffffff19168217905d50825f805c73ffffffffffffffffffffffffffffffffffffffff19166001600160a01b03831617905d506118b084611b19565b156118e7576040517f1bb8b5b100000000000000000000000000000000000000000000000000000000815260040160405180910390fd5b6118f083611b19565b801561191157506001600160a01b0384165f90815260016020526040812054115b15611948576040517f1bb8b5b100000000000000000000000000000000000000000000000000000000815260040160405180910390fd5b611954838584846124a0565b336002805c73ffffffffffffffffffffffffffffffffffffffff19168217905d50818060035d506001805c73ffffffffffffffffffffffffffffffffffffffff1916905d50505050565b6040517f4c2d8eff0000000000000000000000000000000000000000000000000000000081526001600160a01b037f0000000000000000000000000000000000000000000000000000000000000000811660048301527f00000000000000000000000000000000000000000000000000000000000000001660248201525f90819073594734c7e06c3d483466adbce401c6bd269746c890634c2d8eff906044016040805180830381865afa158015611a58573d5f5f3e3d5ffd5b505050506040513d601f19601f8201168201806040525081019061066c91906141a6565b5f611a85611c67565b335f9081526001602052604081205490819003611ace576040517f3a513ebe00000000000000000000000000000000000000000000000000000000815260040160405180910390fd5b611ada84828533611cef565b9150611b106001600160a01b037f0000000000000000000000000000000000000000000000000000000000000000163384611d36565b50610813611daa565b6040517f3159bc160000000000000000000000000000000000000000000000000000000081526001600160a01b0382811660048301525f917f000000000000000000000000000000000000000000000000000000000000000090911690633159bc1690602401602060405180830381865afa158015611b9a573d5f5f3e3d5ffd5b505050506040513d601f19601f820116820180604052508101906108139190613f14565b5f5f611bc983611644565b9050611bf9601260ff7f000000000000000000000000000000000000000000000000000000000000000016613f73565b611c0490600a614180565b611c2f7f0000000000000000000000000000000000000000000000000000000000000000600a614172565b611c3761199e565b611c419084613f86565b611c4b9190613f86565b610d429190613f9d565b611c6283838360016124b4565b505050565b7f9b779b17422d0df92223018b32b4d1fa46e071723d6817e2486d003becc55f005c15611cc0576040517f3ee5aeb500000000000000000000000000000000000000000000000000000000815260040160405180910390fd5b611ced60017f9b779b17422d0df92223018b32b4d1fa46e071723d6817e2486d003becc55f005b906125b8565b565b5f5f611cf96110e2565b90505f611d0584611b19565b9050611d13878787876125bf565b9250611d2b848388611d258b82613f60565b85612126565b505050949350505050565b6040516001600160a01b03838116602483015260448201839052611c6291859182169063a9059cbb906064015b604051602081830303815290604052915060e01b6020820180517bffffffffffffffffffffffffffffffffffffffffffffffffffffffff8381831617835250505050612681565b611ced5f7f9b779b17422d0df92223018b32b4d1fa46e071723d6817e2486d003becc55f00611ce7565b6040516001600160a01b038481166024830152838116604483015260648201839052611e0d9186918216906323b872dd90608401611d63565b50505050565b5f5f611e1d6110e2565b6040517fda3a855f0000000000000000000000000000000000000000000000000000000081526001600160a01b0385811660048301523060248301529192505f9160015c169063da3a855f90604401602060405180830381865afa158015611e87573d5f5f3e3d5ffd5b505050506040513d601f19601f82011682018060405250810190611eab9190613efd565b9050611eb8868686612706565b9250611ed0848383611eca8782613f73565b5f612126565b5050509392505050565b6001600160a01b038316611f1c576040517f96c6fd1e0000000000000000000000000000000000000000000000000000000081525f60048201526024016108fd565b6001600160a01b038216611f5e576040517fec442f050000000000000000000000000000000000000000000000000000000081525f60048201526024016108fd565b611c6283838361278f565b5f825f03611fa3576040517f3a513ebe00000000000000000000000000000000000000000000000000000000815260040160405180910390fd5b611fab6123d5565b5f611fb584611644565b9050611fc385828686612899565b915083600a5f828254611fd69190613f73565b909155509195945050505050565b6001600160a01b038381165f908152600260209081526040808320938616835292905220545f19811015611e0d5781811015612065576040517ffb8f41b20000000000000000000000000000000000000000000000000000000081526001600160a01b038416600482015260248101829052604481018390526064016108fd565b611e0d84848484035f6124b4565b6040517f70a082310000000000000000000000000000000000000000000000000000000081523060048201525f907f00000000000000000000000000000000000000000000000000000000000000006001600160a01b0316906370a0823190602401602060405180830381865afa1580156120f0573d5f5f3e3d5ffd5b505050506040513d601f19601f820116820180604052508101906106809190613efd565b61211e82826128bf565b610dfc61294c565b6040516001600160a01b038616602482015260448101859052606481018490526084810183905281151560a4820152606090612208907f0000000000000000000000000000000000000000000000000000000000000000907f49ba860d000000000000000000000000000000000000000000000000000000009060c4015b60408051601f198184030181529190526020810180517bffffffffffffffffffffffffffffffffffffffffffffffffffffffff167fffffffff0000000000000000000000000000000000000000000000000000000090931692909217909152610602565b9695505050505050565b6008545f9081906122299063ffffffff1642613f60565b90505f6301e1338061225b837f0000000000000000000000000000000000000000000000000000000000000000613f86565b6122659190613f9d565b9050805f03612276575f9250505090565b5f600954612282612073565b61228c9190613f60565b90505f670de0b6b3a76400006122a3816006613f86565b6122ad9190613f86565b836122b88180613f86565b6122c29190613f86565b6122cc9190613f9d565b6122df670de0b6b3a76400006002613f86565b6122e98580613f86565b6122f39190613f9d565b61230585670de0b6b3a7640000613f73565b61230f9190613f73565b6123199190613f73565b90505f8161232f670de0b6b3a764000085613f86565b6123399190613f9d565b90506123458184613f60565b9550505050505090565b5f5f6123596110e2565b9050825f03612394576040517f96efcff800000000000000000000000000000000000000000000000000000000815260040160405180910390fd5b61239f8585856129d1565b91506123b9858260045c6123b38782613f73565b86612126565b506123cc848260055c6123b38782613f60565b50509392505050565b6008544263ffffffff909116036123e857565b6123f0612212565b60095f8282546124009190613f73565b9091555050600880547fffffffffffffffffffffffffffffffffffffffffffffffffffffffff00000000164263ffffffff16179055565b6040516001600160a01b038316602482015260448101829052611c62907f0000000000000000000000000000000000000000000000000000000000000000907fd421295400000000000000000000000000000000000000000000000000000000906064016121a4565b6124a8612a65565b611e0d84848484612acf565b6001600160a01b0384166124f6576040517fe602df050000000000000000000000000000000000000000000000000000000081525f60048201526024016108fd565b6001600160a01b038316612538576040517f94280d620000000000000000000000000000000000000000000000000000000081525f60048201526024016108fd565b6001600160a01b038085165f9081526002602090815260408083209387168352929052208290558015611e0d57826001600160a01b0316846001600160a01b03167f8c5be1e5ebec7d5bd14f71427d1e84f3dd0314c0f7b2291e5b200ac8c7c3b925846040516125aa91815260200190565b60405180910390a350505050565b80825d5050565b5f845f036125ce57505f612679565b5f6125d883611b19565b90505f6126047f0000000000000000000000000000000000000000000000000000000000000000612af8565b905061260e6123d5565b61261a87858488612b93565b81156126375786600a5f8282546126319190613f60565b90915550505b5f6126617f0000000000000000000000000000000000000000000000000000000000000000612af8565b905061266d8282613f60565b9350611d2b8589612c1d565b949350505050565b5f5f60205f8451602086015f885af1806126a0576040513d5f823e3d81fd5b50505f513d915081156126b75780600114156126c4565b6001600160a01b0384163b155b15611e0d576040517f5274afe70000000000000000000000000000000000000000000000000000000081526001600160a01b03851660048201526024016108fd565b5f835f0361271557505f610d42565b61271d6123d5565b5f612726612073565b9050612733858486612c6a565b5f8161273d612073565b6127479190613f60565b90506001612753611107565b61275d9084613f60565b6127679190613f73565b61276f6110e2565b6127799083613f86565b6127839190613f9d565b92506123cc8484612d22565b6001600160a01b038316158015906127af57506001600160a01b03821615155b1561288e5760025c6001600160a01b0390811690831614612816576040517ffd351fc80000000000000000000000000000000000000000000000000000000081526001600160a01b03808516600483015283166024820152604481018290526064016108fd565b8060035c101561286c576040517ffd351fc80000000000000000000000000000000000000000000000000000000081526001600160a01b03808516600483015283166024820152604481018290526064016108fd565b6002805c73ffffffffffffffffffffffffffffffffffffffff1916905d5f60035d5b611c62838383612d6f565b5f5f6128a36110e2565b90506128b2868286875f612126565b5061220886868686612eae565b5f806128cd838501856141c8565b909250905060066128de838261425b565b5060076128eb828261425b565b50600880547fffffffffffffffffffffffffffffffffffffffffffffffffffffffff00000000164263ffffffff1617905560405130907f2e49a5810fda2439a23771848b4acec786b0a64d4de3d124ac57fc8739c38875905f90a250505050565b6040805160048152602481019091526020810180517bffffffffffffffffffffffffffffffffffffffffffffffffffffffff167f9e8fac86000000000000000000000000000000000000000000000000000000001790526129ce907f000000000000000000000000000000000000000000000000000000000000000090610602565b50565b6040516001600160a01b03808416602483015284166044820152606481018290525f908190612a46907f0000000000000000000000000000000000000000000000000000000000000000907f838f705b00000000000000000000000000000000000000000000000000000000906084016121a4565b905080806020019051810190612a5c9190613f14565b95945050505050565b7f00000000000000000000000000000000000000000000000000000000000000006001600160a01b0316634e134d0b6040518163ffffffff1660e01b81526004015f604051808303815f87803b158015612abd575f5ffd5b505af1158015611e0d573d5f5f3e3d5ffd5b6001600160a01b0383165f908152600160205260409020548060045d50808060055d5050505050565b5f6001600160a01b03821615612b8c576040517f70a082310000000000000000000000000000000000000000000000000000000081523060048201526001600160a01b038316906370a0823190602401602060405180830381865afa158015612b63573d5f5f3e3d5ffd5b505050506040513d601f19601f82011682018060405250810190612b879190613efd565b610813565b4792915050565b5f81806020019051810190612ba8919061445e565b905060605f60608515612bcc57612bbf8789612f60565b9093505f92509050612bfd565b6020840151511591505f612bdf89611644565b9050612bef81865f015185612ff2565b9350612bf961304c565b9150505b81612c1357612c1181848660200151613114565b505b5050505050505050565b6001600160a01b038216612c5f576040517f96c6fd1e0000000000000000000000000000000000000000000000000000000081525f60048201526024016108fd565b610dfc825f8361278f565b5f81806020019051810190612c7f91906144f5565b6040805160028082526060820183529293505f92909160208301908036833750505060208301515190915015612cc357612cbe858284602001516132c7565b612d06565b84817f000000000000000000000000000000000000000000000000000000000000000060ff1681518110612cf957612cf9614551565b6020026020010181815250505b612d1381835f015161351f565b612d1b61355e565b5050505050565b6001600160a01b038216612d64576040517fec442f050000000000000000000000000000000000000000000000000000000081525f60048201526024016108fd565b610dfc5f838361278f565b6001600160a01b038316612d99578060035f828254612d8e9190613f73565b90915550612e229050565b6001600160a01b0383165f9081526001602052604090205481811015612e04576040517fe450d38c0000000000000000000000000000000000000000000000000000000081526001600160a01b038516600482015260248101829052604481018390526064016108fd565b6001600160a01b0384165f9081526001602052604090209082900390555b6001600160a01b038216612e3e57600380548290039055612e5c565b6001600160a01b0382165f9081526001602052604090208054820190555b816001600160a01b0316836001600160a01b03167fddf252ad1be2c89b69c2b068fc378daa952ba7f163c4a11628f55a4df523b3ef83604051612ea191815260200190565b60405180910390a3505050565b5f5f82806020019051810190612ec4919061457e565b90505f612ed586835f01515f612ff2565b90505f612f1f7f0000000000000000000000000000000000000000000000000000000000000000632745554660e01b8a898688602001516040516024016121a49493929190614690565b90505f81806020019051810190612f36919061405d565b9050805f81518110612f4a57612f4a614551565b6020026020010151945050505050949350505050565b6040516001600160a01b03831660248201526044810182905260609081905f90612fd0907f0000000000000000000000000000000000000000000000000000000000000000907ff7cd58c400000000000000000000000000000000000000000000000000000000906064016121a4565b905080806020019051810190612fe6919061471c565b90969095509350505050565b60605f6130367f0000000000000000000000000000000000000000000000000000000000000000638f2ff74a60e01b8787876040516024016121a4939291906147e3565b905080806020019051810190612a5c919061405d565b60408051600280825260608083018452925f9291906020830190803683370190505090507f0000000000000000000000000000000000000000000000000000000000000000815f815181106130a3576130a3614551565b60200260200101906001600160a01b031690816001600160a01b0316815250507f0000000000000000000000000000000000000000000000000000000000000000816001815181106130f7576130f7614551565b6001600160a01b0390921660209283029190910190910152919050565b5f5f5b83518110156132bf577f00000000000000000000000000000000000000000000000000000000000000006001600160a01b031685828151811061315c5761315c614551565b60200260200101516001600160a01b03160361319e5783818151811061318457613184614551565b6020026020010151826131979190613f73565b91506132b7565b5f8382815181106131b1576131b1614551565b602002602001015190505f8583815181106131ce576131ce614551565b602002602001015111156132b5575f6040518060e00160405280836040015160048111156131fe576131fe61480d565b815260200188858151811061321557613215614551565b60200260200101516001600160a01b031681526020017f00000000000000000000000000000000000000000000000000000000000000006001600160a01b0316815260200187858151811061326c5761326c614551565b6020026020010151815260200183606001518152602001428152602001836080015181525090505f6132a28284602001516135f6565b91506132b090508186613f73565b945050505b505b600101613117565b509392505050565b5f6132d061304c565b905061331f6040805160e08101909152805f81526020015f6001600160a01b031681526020015f6001600160a01b031681526020015f81526020015f81526020015f8152602001606081525090565b845f5b8551811015613468577f000000000000000000000000000000000000000000000000000000000000000060ff168114613460575f85828151811061336857613368614551565b602002602001015190505f815f0151111561345e576040518060e001604052808260400151600481111561339e5761339e61480d565b81526020017f00000000000000000000000000000000000000000000000000000000000000006001600160a01b031681526020018684815181106133e4576133e4614551565b60200260200101516001600160a01b03168152602001825f0151815260200182606001518152602001428152602001826080015181525093505f5f61342d8684602001516135f6565b915091508089858151811061344457613444614551565b60209081029190910101526134598286613f60565b945050505b505b600101613322565b5084517f000000000000000000000000000000000000000000000000000000000000000060ff1610156134dc5780857f000000000000000000000000000000000000000000000000000000000000000060ff16815181106134cb576134cb614551565b602002602001018181525050613517565b8015613517576040517fe8ff3c51000000000000000000000000000000000000000000000000000000008152600481018290526024016108fd565b505050505050565b611c627f0000000000000000000000000000000000000000000000000000000000000000636e0bd5e760e01b84846040516024016121a492919061483a565b5f670de0b6b3a76400007f000000000000000000000000000000000000000000000000000000000000000061359161381c565b61359b9190613f86565b6135a59190613f9d565b90505f6135b0612073565b905080821015610dfc576040517f286bebbc00000000000000000000000000000000000000000000000000000000815260048101829052602481018390526044016108fd565b5f8060048451600481111561360d5761360d61480d565b036137605760408481015190517f9287d7ac0000000000000000000000000000000000000000000000000000000081526001600160a01b0390911660048201525f90735615deb798bb3e4dfa0139dfa1b3d433cc23b72f90639287d7ac90602401602060405180830381865afa158015613689573d5f5f3e3d5ffd5b505050506040513d601f19601f820116820180604052508101906136ad919061418b565b90506136d581866060015187602001516001600160a01b03166138799092919063ffffffff16565b806001600160a01b031663e7c35c3c866020015187606001518860c001516040518463ffffffff1660e01b81526004016137119392919061485b565b6020604051808303815f875af115801561372d573d5f5f3e3d5ffd5b505050506040513d601f19601f820116820180604052508101906137519190613efd565b91508460600151925050613815565b5f73594734c7e06c3d483466adbce401c6bd269746c86001600160a01b031663aaf10f426040518163ffffffff1660e01b8152600401602060405180830381865afa1580156137b1573d5f5f3e3d5ffd5b505050506040513d601f19601f820116820180604052508101906137d5919061418b565b90505f6137f782632ba8c23c60e01b87896040516024016121a4929190614882565b90508080602001905181019061380d91906141a6565b909450925050505b9250929050565b5f7f00000000000000000000000000000000000000000000000000000000000000006001600160a01b03166318160ddd6040518163ffffffff1660e01b8152600401602060405180830381865afa1580156120f0573d5f5f3e3d5ffd5b6001600160a01b03831661388c57505050565b604080516001600160a01b03848116602483015260448083018590528351808403909101815260649092019092526020810180517bffffffffffffffffffffffffffffffffffffffffffffffffffffffff167f095ea7b300000000000000000000000000000000000000000000000000000000179052611c6291851690849084906139178482613955565b611e0d576040516001600160a01b0384811660248301525f604483015261394b91869182169063095ea7b390606401611d63565b611e0d8482612681565b5f5f5f5f60205f8651602088015f8a5af192503d91505f519050828015612208575081156139865780600114612208565b50505050506001600160a01b03163b151590565b5f81518084528060208401602086015e5f602082860101526020601f19601f83011685010191505092915050565b602081525f610d42602083018461399a565b5f602082840312156139ea575f5ffd5b5035919050565b6001600160a01b03811681146129ce575f5ffd5b5f5f60408385031215613a16575f5ffd5b8235613a21816139f1565b946020939093013593505050565b5f5f83601f840112613a3f575f5ffd5b50813567ffffffffffffffff811115613a56575f5ffd5b602083019150836020828501011115613815575f5ffd5b5f5f5f5f5f60808688031215613a81575f5ffd5b8535613a8c816139f1565b94506020860135935060408601359250606086013567ffffffffffffffff811115613ab5575f5ffd5b613ac188828901613a2f565b969995985093965092949392505050565b5f5f5f5f60608587031215613ae5575f5ffd5b843593506020850135613af7816139f1565b9250604085013567ffffffffffffffff811115613b12575f5ffd5b613b1e87828801613a2f565b95989497509550505050565b7f4e487b71000000000000000000000000000000000000000000000000000000005f52604160045260245ffd5b60405160a0810167ffffffffffffffff81118282101715613b7a57613b7a613b2a565b60405290565b6040805190810167ffffffffffffffff81118282101715613b7a57613b7a613b2a565b604051601f8201601f1916810167ffffffffffffffff81118282101715613bcc57613bcc613b2a565b604052919050565b5f67ffffffffffffffff821115613bed57613bed613b2a565b50601f01601f191660200190565b5f82601f830112613c0a575f5ffd5b8135602083015f613c22613c1d84613bd4565b613ba3565b9050828152858383011115613c35575f5ffd5b828260208301375f92810160200192909252509392505050565b5f60208284031215613c5f575f5ffd5b813567ffffffffffffffff811115613c75575f5ffd5b61267984828501613bfb565b5f5f5f60608486031215613c93575f5ffd5b8335613c9e816139f1565b92506020840135613cae816139f1565b929592945050506040919091013590565b5f5f60208385031215613cd0575f5ffd5b823567ffffffffffffffff811115613ce6575f5ffd5b612fe685828601613a2f565b5f5f5f5f60608587031215613d05575f5ffd5b8435613d10816139f1565b935060208501359250604085013567ffffffffffffffff811115613b12575f5ffd5b5f8151808452602084019350602083015f5b82811015613d62578151865260209586019590910190600101613d44565b5093949350505050565b602081525f610d426020830184613d32565b5f60208284031215613d8e575f5ffd5b8135610d42816139f1565b5f5f5f60608486031215613dab575f5ffd5b8335613db6816139f1565b9250602084013591506040840135613dcd816139f1565b809150509250925092565b5f5f5f5f60808587031215613deb575f5ffd5b8435613df6816139f1565b93506020850135613e06816139f1565b93969395505050506040820135916060013590565b5f5f60408385031215613e2c575f5ffd5b8235613e37816139f1565b91506020830135613e47816139f1565b809150509250929050565b5f5f60408385031215613e63575f5ffd5b82359150602083013567ffffffffffffffff811115613e80575f5ffd5b613e8c85828601613bfb565b9150509250929050565b5f82518060208501845e5f920191825250919050565b600181811c90821680613ec057607f821691505b602082108103613ef7577f4e487b71000000000000000000000000000000000000000000000000000000005f52602260045260245ffd5b50919050565b5f60208284031215613f0d575f5ffd5b5051919050565b5f60208284031215613f24575f5ffd5b81518015158114610d42575f5ffd5b7f4e487b71000000000000000000000000000000000000000000000000000000005f52601160045260245ffd5b8181038181111561081357610813613f33565b8082018082111561081357610813613f33565b808202811582820484141761081357610813613f33565b5f82613fd0577f4e487b71000000000000000000000000000000000000000000000000000000005f52601260045260245ffd5b500490565b5f67ffffffffffffffff821115613fee57613fee613b2a565b5060051b60200190565b5f82601f830112614007575f5ffd5b8151614015613c1d82613fd5565b8082825260208201915060208360051b860101925085831115614036575f5ffd5b602085015b8381101561405357805183526020928301920161403b565b5095945050505050565b5f6020828403121561406d575f5ffd5b815167ffffffffffffffff811115614083575f5ffd5b61267984828501613ff8565b6001815b60018411156140ca578085048111156140ae576140ae613f33565b60018416156140bc57908102905b60019390931c928002614093565b935093915050565b5f826140e057506001610813565b816140ec57505f610813565b8160018114614102576002811461410c57614128565b6001915050610813565b60ff84111561411d5761411d613f33565b50506001821b610813565b5060208310610133831016604e8410600b841016171561414b575081810a610813565b6141575f19848461408f565b805f190482111561416a5761416a613f33565b029392505050565b5f610d4260ff8416836140d2565b5f610d4283836140d2565b5f6020828403121561419b575f5ffd5b8151610d42816139f1565b5f5f604083850312156141b7575f5ffd5b505080516020909101519092909150565b5f5f604083850312156141d9575f5ffd5b823567ffffffffffffffff8111156141ef575f5ffd5b6141fb85828601613bfb565b925050602083013567ffffffffffffffff811115613e80575f5ffd5b601f821115611c6257805f5260205f20601f840160051c8101602085101561423c5750805b601f840160051c820191505b81811015612d1b575f8155600101614248565b815167ffffffffffffffff81111561427557614275613b2a565b614289816142838454613eac565b84614217565b6020601f8211600181146142bb575f83156142a45750848201515b5f19600385901b1c1916600184901b178455612d1b565b5f84815260208120601f198516915b828110156142ea57878501518255602094850194600190920191016142ca565b508482101561430757868401515f19600387901b60f8161c191681555b50505050600190811b01905550565b5f82601f830112614325575f5ffd5b8151614333613c1d82613bd4565b818152846020838601011115614347575f5ffd5b8160208501602083015e5f918101602001919091529392505050565b5f82601f830112614372575f5ffd5b8151614380613c1d82613fd5565b8082825260208201915060208360051b8601019250858311156143a1575f5ffd5b602085015b8381101561405357805167ffffffffffffffff8111156143c4575f5ffd5b860160a0818903601f190112156143d9575f5ffd5b6143e1613b57565b60208201518152604082015161ffff811681146143fc575f5ffd5b6020820152606082015160058110614412575f5ffd5b60408201526080820151606082015260a082015167ffffffffffffffff81111561443a575f5ffd5b6144498a602083860101614316565b608083015250845250602092830192016143a6565b5f6020828403121561446e575f5ffd5b815167ffffffffffffffff811115614484575f5ffd5b820160408185031215614495575f5ffd5b61449d613b80565b815167ffffffffffffffff8111156144b3575f5ffd5b6144bf86828501613ff8565b825250602082015167ffffffffffffffff8111156144db575f5ffd5b6144e786828501614363565b602083015250949350505050565b5f60208284031215614505575f5ffd5b815167ffffffffffffffff81111561451b575f5ffd5b82016040818503121561452c575f5ffd5b614534613b80565b81518152602082015167ffffffffffffffff8111156144db575f5ffd5b7f4e487b71000000000000000000000000000000000000000000000000000000005f52603260045260245ffd5b5f6020828403121561458e575f5ffd5b815167ffffffffffffffff8111156145a4575f5ffd5b8201604081850312156145b5575f5ffd5b6145bd613b80565b815167ffffffffffffffff8111156145d3575f5ffd5b6145df86828501613ff8565b825250602082015167ffffffffffffffff8111156145fb575f5ffd5b80830192505084601f83011261460f575f5ffd5b815161461d613c1d82613fd5565b8082825260208201915060208360051b86010192508783111561463e575f5ffd5b602085015b8381101561467f57805167ffffffffffffffff811115614661575f5ffd5b6146708a6020838a0101614316565b84525060209283019201614643565b506020840152509095945050505050565b6001600160a01b0385168152836020820152608060408201525f6146b76080830185613d32565b828103606084015280845180835260208301915060208160051b840101602087015f5b8381101561470c57601f198684030185526146f683835161399a565b60209586019590935091909101906001016146da565b50909a9950505050505050505050565b5f5f6040838503121561472d575f5ffd5b825167ffffffffffffffff811115614743575f5ffd5b61474f85828601613ff8565b925050602083015167ffffffffffffffff81111561476b575f5ffd5b8301601f8101851361477b575f5ffd5b8051614789613c1d82613fd5565b8082825260208201915060208360051b8501019250878311156147aa575f5ffd5b6020840193505b828410156147d55783516147c4816139f1565b8252602093840193909101906147b1565b809450505050509250929050565b838152606060208201525f6147fb6060830185613d32565b90508215156040830152949350505050565b7f4e487b71000000000000000000000000000000000000000000000000000000005f52602160045260245ffd5b604081525f61484c6040830185613d32565b90508260208301529392505050565b6001600160a01b0384168152826020820152606060408201525f612a5c606083018461399a565b61ffff83168152604060208201525f8251600581106148c8577f4e487b71000000000000000000000000000000000000000000000000000000005f52602160045260245ffd5b604083015260208301516001600160a01b03811660608401525060408301516001600160a01b038116608084015250606083015160a0830152608083015160c083015260a083015160e083015260c083015160e0610100840152612a5c61012084018261399a56fea164736f6c634300081d000a6101e0604052348015610010575f5ffd5b506040516132c23803806132c283398101604081905261002f916101e1565b6001600160a01b03808616610180528481166101a0528381166101605260ff8316610140528151811660809081526040830151821660c052602083015190911660a0528101516002811115610086576100866102d7565b6101c081600281111561009b5761009b6102d7565b90525060608101516001600160a01b0316610100525f804660011480156100cd5750610100516001600160a01b031615155b1561019d57610100516001600160a01b031663570ca7356040518163ffffffff1660e01b8152600401602060405180830381865afa158015610111573d5f5f3e3d5ffd5b505050506040513d601f19601f8201168201806040525081019061013591906102eb565b9150610100516001600160a01b031663f10684546040518163ffffffff1660e01b8152600401602060405180830381865afa158015610176573d5f5f3e3d5ffd5b505050506040513d601f19601f8201168201806040525081019061019a919061030b565b90505b610120526001600160a01b031660e052506103229350505050565b80516001600160a01b03811681146101ce575f5ffd5b919050565b8051600381106101ce575f5ffd5b5f5f5f5f5f8587036101208112156101f7575f5ffd5b610200876101b8565b955061020e602088016101b8565b945061021c604088016101b8565b9350606087015160ff81168114610231575f5ffd5b925060a0607f1982011215610244575f5ffd5b5060405160a081016001600160401b038111828210171561027357634e487b7160e01b5f52604160045260245ffd5b604052610282608088016101b8565b815261029060a088016101b8565b60208201526102a160c088016101b8565b60408201526102b260e088016101b8565b60608201526102c461010088016101d3565b6080820152809150509295509295909350565b634e487b7160e01b5f52602160045260245ffd5b5f602082840312156102fb575f5ffd5b610304826101b8565b9392505050565b5f6020828403121561031b575f5ffd5b5051919050565b60805160a05160c05160e05161010051610120516101405161016051610180516101a0516101c051612dfa6104c85f395f818161060b015281816106ee015281816107a701528181611512015281816116690152818161175401528181611a9601528181611ad101528181611d3a0152611eca01525f81816108cb01528181610c4f01528181610d63015281816114920152818161204601526121ac01525f818161087c01528181610b9f01528181610d0e0152818161143f01528181611fff015261214001525f610b7001525f8181611b3a01528181611b5c01528181611c0a01528181611c7f0152611ca101525f61184d01525f818161196901526119ce01525f8181610dad01528181610e09015281816117f8015261188301525f8181610e60015281816119300152611a3401525f8181610de701528181610e3e015261102001525f8181610670015281816107250152818161080c01528181610d3001528181610d8501528181611577015281816116ce015281816117b901528181611b0a01528181611c4f01528181611d9f01528181611f3101526120b80152612dfa5ff3fe6080604052600436106100b0575f3560e01c80638f2ff74a11610066578063c31f413c1161004c578063c31f413c146101a6578063d4212954146101d3578063f7cd58c4146101f2575f5ffd5b80638f2ff74a146101735780639e8fac8614610192575f5ffd5b80634e134d0b116100965780634e134d0b1461011f5780636e0bd5e714610135578063838f705b14610154575f5ffd5b806327455546146100bb5780633159bc16146100f0575f5ffd5b366100b757005b5f5ffd5b3480156100c6575f5ffd5b506100da6100d5366004612517565b61021f565b6040516100e791906125dc565b60405180910390f35b3480156100fb575f5ffd5b5061010f61010a3660046125ee565b610476565b60405190151581526020016100e7565b34801561012a575f5ffd5b50610133610600565b005b348015610140575f5ffd5b5061013361014f36600461273b565b610879565b34801561015f575f5ffd5b5061010f61016e36600461277d565b6109b2565b34801561017e575f5ffd5b506100da61018d3660046127c8565b610b35565b34801561019d575f5ffd5b50610133610d01565b3480156101b1575f5ffd5b506101c56101c036600461277d565b610e86565b6040519081526020016100e7565b3480156101de575f5ffd5b506101336101ed36600461281f565b61100a565b3480156101fd575f5ffd5b5061021161020c36600461281f565b611047565b6040516100e7929190612849565b60605f61022a611419565b90508467ffffffffffffffff81111561024557610245612609565b60405190808252806020026020018201604052801561026e578160200160208202803683370190505b5091505f5b8581101561046a5786868281811061028d5761028d6128aa565b905060200201355f0315610462575f735615deb798bb3e4dfa0139dfa1b3d433cc23b72f6001600160a01b0316639287d7ac8484815181106102d1576102d16128aa565b60200260200101516040518263ffffffff1660e01b815260040161030491906001600160a01b0391909116815260200190565b602060405180830381865afa15801561031f573d5f5f3e3d5ffd5b505050506040513d601f19601f8201168201806040525081019061034391906128d7565b90506103948189898581811061035b5761035b6128aa565b90506020020135858581518110610374576103746128aa565b60200260200101516001600160a01b03166114e19092919063ffffffff16565b806001600160a01b0316637c86cff58b8a8a868181106103b6576103b66128aa565b905060200201358c8a8a888181106103d0576103d06128aa565b90506020028101906103e291906128f2565b6040518663ffffffff1660e01b8152600401610402959493929190612953565b6020604051808303815f875af115801561041e573d5f5f3e3d5ffd5b505050506040513d601f19601f8201168201806040525081019061044291906129bd565b848381518110610454576104546128aa565b602002602001018181525050505b600101610273565b50509695505050505050565b5f5f610480611419565b90505f5b81518110156105f7575f735615deb798bb3e4dfa0139dfa1b3d433cc23b72f6001600160a01b0316639287d7ac8484815181106104c3576104c36128aa565b60200260200101516040518263ffffffff1660e01b81526004016104f691906001600160a01b0391909116815260200190565b602060405180830381865afa158015610511573d5f5f3e3d5ffd5b505050506040513d601f19601f8201168201806040525081019061053591906128d7565b90506001600160a01b03811661054b57506105ef565b6040517fafbf911a0000000000000000000000000000000000000000000000000000000081523360048201526001600160a01b0386811660248301525f919083169063afbf911a9060440160c060405180830381865afa1580156105b1573d5f5f3e3d5ffd5b505050506040513d601f19601f820116820180604052508101906105d591906129f7565b508051909150156105ec5750600195945050505050565b50505b600101610484565b505f9392505050565b61060861249d565b5f7f0000000000000000000000000000000000000000000000000000000000000000600281111561063b5761063b612abb565b036106ea576040517f5b36389c0000000000000000000000000000000000000000000000000000000081526001600160a01b037f00000000000000000000000000000000000000000000000000000000000000001690635b36389c906106a7905f908590600401612b0a565b60408051808303815f875af11580156106c2573d5f5f3e3d5ffd5b505050506040513d601f19601f820116820180604052508101906106e69190612b1e565b5050565b60027f0000000000000000000000000000000000000000000000000000000000000000600281111561071e5761071e612abb565b036107a3577f00000000000000000000000000000000000000000000000000000000000000006001600160a01b03166318160ddd6040518163ffffffff1660e01b8152600401602060405180830381865afa15801561077f573d5f5f3e3d5ffd5b505050506040513d601f19601f820116820180604052508101906106e691906129bd565b60017f000000000000000000000000000000000000000000000000000000000000000060028111156107d7576107d7612abb565b036100b7576040517f1808e84a0000000000000000000000000000000000000000000000000000000081526001600160a01b037f00000000000000000000000000000000000000000000000000000000000000001690631808e84a9061084890600190859082903090600401612b9a565b5f604051808303815f87803b15801561085f575f5ffd5b505af1158015610871573d5f5f3e3d5ffd5b505050505b50565b5f7f00000000000000000000000000000000000000000000000000000000000000006001600160a01b03166108c957825f815181106108ba576108ba6128aa565b60200260200101519050610915565b7f00000000000000000000000000000000000000000000000000000000000000006001600160a01b0316610915578260018151811061090a5761090a6128aa565b602002602001015190505b8015610995576040517f2e1a7d4d0000000000000000000000000000000000000000000000000000000081526004810182905273c02aaa39b223fe8d0a0e5c4f27ead9083c756cc290632e1a7d4d906024015f604051808303815f87803b15801561097e575f5ffd5b505af1158015610990573d5f5f3e3d5ffd5b505050505b5f6109a184848461150d565b90506109ac816117f6565b50505050565b5f5f6109bc611419565b90505f5b8151811015610b2c575f735615deb798bb3e4dfa0139dfa1b3d433cc23b72f6001600160a01b0316639287d7ac8484815181106109ff576109ff6128aa565b60200260200101516040518263ffffffff1660e01b8152600401610a3291906001600160a01b0391909116815260200190565b602060405180830381865afa158015610a4d573d5f5f3e3d5ffd5b505050506040513d601f19601f82011682018060405250810190610a7191906128d7565b90506001600160a01b038116610a875750610b24565b6040517f838f705b0000000000000000000000000000000000000000000000000000000081526001600160a01b03888116600483015287811660248301526044820187905282169063838f705b906064016020604051808303815f875af1158015610af4573d5f5f3e3d5ffd5b505050506040513d601f19601f82011682018060405250810190610b189190612bce565b80610b205750835b9350505b6001016109c0565b50509392505050565b6060610b4084611967565b610b4b848484611a6b565b90507fffffffffffffffffffffffff3fd555c64ddc0172f5f1a3b0d81526f7c38a933e7f00000000000000000000000000000000000000000000000000000000000000006001600160a01b031601610cfa577f00000000000000000000000000000000000000000000000000000000000000006001600160a01b0316610c4d5773c02aaa39b223fe8d0a0e5c4f27ead9083c756cc26001600160a01b031663d0e30db0825f81518110610c0057610c006128aa565b60200260200101516040518263ffffffff1660e01b81526004015f604051808303818588803b158015610c31575f5ffd5b505af1158015610c43573d5f5f3e3d5ffd5b5050505050610cfa565b7f00000000000000000000000000000000000000000000000000000000000000006001600160a01b0316610cfa5773c02aaa39b223fe8d0a0e5c4f27ead9083c756cc26001600160a01b031663d0e30db082600181518110610cb157610cb16128aa565b60200260200101516040518263ffffffff1660e01b81526004015f604051808303818588803b158015610ce2575f5ffd5b505af1158015610cf4573d5f5f3e3d5ffd5b50505050505b9392505050565b610d566001600160a01b037f0000000000000000000000000000000000000000000000000000000000000000167f00000000000000000000000000000000000000000000000000000000000000005f196114e1565b610dab6001600160a01b037f0000000000000000000000000000000000000000000000000000000000000000167f00000000000000000000000000000000000000000000000000000000000000005f196114e1565b7f00000000000000000000000000000000000000000000000000000000000000006001600160a01b031615610e3157610e2f6001600160a01b037f0000000000000000000000000000000000000000000000000000000000000000167f00000000000000000000000000000000000000000000000000000000000000005f196114e1565b565b610e2f6001600160a01b037f0000000000000000000000000000000000000000000000000000000000000000167f00000000000000000000000000000000000000000000000000000000000000005f196114e1565b5f5f610e90611419565b90505f5b8151811015610b2c575f735615deb798bb3e4dfa0139dfa1b3d433cc23b72f6001600160a01b0316639287d7ac848481518110610ed357610ed36128aa565b60200260200101516040518263ffffffff1660e01b8152600401610f0691906001600160a01b0391909116815260200190565b602060405180830381865afa158015610f21573d5f5f3e3d5ffd5b505050506040513d601f19601f82011682018060405250810190610f4591906128d7565b6040517f32df6ff20000000000000000000000000000000000000000000000000000000081523360048201526001600160a01b0389811660248301528881166044830152606482018890529192505f918291908416906332df6ff2906084016040805180830381865afa158015610fbe573d5f5f3e3d5ffd5b505050506040513d601f19601f82011682018060405250810190610fe29190612be9565b9150915081610fef575f5ffd5b610ff98187612c42565b95505060019092019150610e949050565b61101381611967565b6106e66001600160a01b037f0000000000000000000000000000000000000000000000000000000000000000168383612202565b6060805f611053611419565b9050805167ffffffffffffffff81111561106f5761106f612609565b604051908082528060200260200182016040528015611098578160200160208202803683370190505b509250805167ffffffffffffffff8111156110b5576110b5612609565b6040519080825280602002602001820160405280156110de578160200160208202803683370190505b50604080516060810182525f808252602082018190529181018290529193505b825181101561140f575f735615deb798bb3e4dfa0139dfa1b3d433cc23b72f6001600160a01b0316639287d7ac85848151811061113d5761113d6128aa565b60200260200101516040518263ffffffff1660e01b815260040161117091906001600160a01b0391909116815260200190565b602060405180830381865afa15801561118b573d5f5f3e3d5ffd5b505050506040513d601f19601f820116820180604052508101906111af91906128d7565b6040517fafbf911a0000000000000000000000000000000000000000000000000000000081523060048201526001600160a01b038a811660248301529192509082169063afbf911a9060440160c060405180830381865afa158015611216573d5f5f3e3d5ffd5b505050506040513d601f19601f8201168201806040525081019061123a91906129f7565b50809350505f83604001516effffffffffffffffffffffffffffff168885602001516effffffffffffffffffffffffffffff166112779190612c55565b6112819190612c6c565b6040517fed020beb0000000000000000000000000000000000000000000000000000000081526001600160a01b038b8116600483015260248201839052604482018b90529192505f9184169063ed020beb9060640160408051808303815f875af11580156112f1573d5f5f3e3d5ffd5b505050506040513d601f19601f820116820180604052508101906113159190612ca4565b898681518110611327576113276128aa565b60200260200101819350828152505050806113795784516040517f4ccb7bc200000000000000000000000000000000000000000000000000000000815260048101919091526024015b60405180910390fd5b826001600160a01b0316633ed3a0546040518163ffffffff1660e01b8152600401602060405180830381865afa1580156113b5573d5f5f3e3d5ffd5b505050506040513d601f19601f820116820180604052508101906113d991906128d7565b8785815181106113eb576113eb6128aa565b6001600160a01b0392909216602092830291909101909101525050506001016110fe565b5050509250929050565b60408051600280825260608083018452925f9291906020830190803683370190505090507f0000000000000000000000000000000000000000000000000000000000000000815f81518110611470576114706128aa565b60200260200101906001600160a01b031690816001600160a01b0316815250507f0000000000000000000000000000000000000000000000000000000000000000816001815181106114c4576114c46128aa565b6001600160a01b0390921660209283029190910190910152919050565b6001600160a01b0383166114f457505050565b6115086001600160a01b0384168383612276565b505050565b5f60027f0000000000000000000000000000000000000000000000000000000000000000600281111561154257611542612abb565b036115f8576040517fb72df5de0000000000000000000000000000000000000000000000000000000081526001600160a01b037f0000000000000000000000000000000000000000000000000000000000000000169063b72df5de9084906115b09088908890600401612cd3565b60206040518083038185885af11580156115cc573d5f5f3e3d5ffd5b50505050506040513d601f19601f820116820180604052508101906115f191906129bd565b9050610cfa565b61160061249d565b845f81518110611612576116126128aa565b6020026020010151815f6002811061162c5761162c6128aa565b6020020152845185906001908110611646576116466128aa565b602002602001015181600160028110611661576116616128aa565b60200201525f7f0000000000000000000000000000000000000000000000000000000000000000600281111561169957611699612abb565b03611750576040517f0b4c7e4d0000000000000000000000000000000000000000000000000000000081526001600160a01b037f00000000000000000000000000000000000000000000000000000000000000001690630b4c7e4d9085906117079085908990600401612cf4565b60206040518083038185885af1158015611723573d5f5f3e3d5ffd5b50505050506040513d601f19601f8201168201806040525081019061174891906129bd565b915050610cfa565b60017f0000000000000000000000000000000000000000000000000000000000000000600281111561178457611784612abb565b036100b7576040517fee22be230000000000000000000000000000000000000000000000000000000081526001600160a01b037f0000000000000000000000000000000000000000000000000000000000000000169063ee22be23908590611707908590899084151590600401612d0f565b7f00000000000000000000000000000000000000000000000000000000000000006001600160a01b031615611901576040517f43a0d0660000000000000000000000000000000000000000000000000000000081527f0000000000000000000000000000000000000000000000000000000000000000600482015260248101829052600160448201525f907f00000000000000000000000000000000000000000000000000000000000000006001600160a01b0316906343a0d066906064015b6020604051808303815f875af11580156118d2573d5f5f3e3d5ffd5b505050506040513d601f19601f820116820180604052508101906118f69190612bce565b9050806106e6575f5ffd5b6040517fb6b55f25000000000000000000000000000000000000000000000000000000008152600481018290527f00000000000000000000000000000000000000000000000000000000000000006001600160a01b03169063b6b55f2590602401610848565b7f00000000000000000000000000000000000000000000000000000000000000006001600160a01b031615611a05576040517fc32e7202000000000000000000000000000000000000000000000000000000008152600481018290525f60248201819052907f00000000000000000000000000000000000000000000000000000000000000006001600160a01b03169063c32e7202906044016118b6565b6040517f2e1a7d4d000000000000000000000000000000000000000000000000000000008152600481018290527f00000000000000000000000000000000000000000000000000000000000000006001600160a01b031690632e1a7d4d90602401610848565b60608115611d365760408051600280825260608201835290916020830190803683370190505090505f7f00000000000000000000000000000000000000000000000000000000000000006002811115611ac657611ac6612abb565b1480611b03575060027f00000000000000000000000000000000000000000000000000000000000000006002811115611b0157611b01612abb565b145b15611c4d577f00000000000000000000000000000000000000000000000000000000000000006001600160a01b0316631a4d01d2857f0000000000000000000000000000000000000000000000000000000000000000867f000000000000000000000000000000000000000000000000000000000000000060ff1681518110611b8e57611b8e6128aa565b60200260200101516040518463ffffffff1660e01b8152600401611bc7939291909283525f9190910b6020830152604082015260600190565b6020604051808303815f875af1158015611be3573d5f5f3e3d5ffd5b505050506040513d601f19601f82011682018060405250810190611c0791906129bd565b817f000000000000000000000000000000000000000000000000000000000000000060ff1681518110611c3c57611c3c6128aa565b602002602001018181525050610cfa565b7f00000000000000000000000000000000000000000000000000000000000000006001600160a01b03166307329bcd857f0000000000000000000000000000000000000000000000000000000000000000867f000000000000000000000000000000000000000000000000000000000000000060ff1681518110611cd357611cd36128aa565b60209081029190910101516040517fffffffff0000000000000000000000000000000000000000000000000000000060e086901b168152600481019390935260ff909116602483015260448201526001606482015230608482015260a401611bc7565b60027f00000000000000000000000000000000000000000000000000000000000000006002811115611d6a57611d6a612abb565b03611e36576040517fd40ddb8c0000000000000000000000000000000000000000000000000000000081526001600160a01b037f0000000000000000000000000000000000000000000000000000000000000000169063d40ddb8c90611dd69087908790600401612d33565b5f604051808303815f875af1158015611df1573d5f5f3e3d5ffd5b505050506040513d5f823e601f3d9081017fffffffffffffffffffffffffffffffffffffffffffffffffffffffffffffffe01682016040526115f19190810190612d53565b611e3e61249d565b835f81518110611e5057611e506128aa565b6020026020010151815f60028110611e6a57611e6a6128aa565b6020020152835184906001908110611e8457611e846128aa565b602002602001015181600160028110611e9f57611e9f6128aa565b602002015260408051600280825260608201909252908160200160208202803683370190505091505f7f00000000000000000000000000000000000000000000000000000000000000006002811115611efa57611efa612abb565b03611ffa576040517f5b36389c0000000000000000000000000000000000000000000000000000000081525f906001600160a01b037f00000000000000000000000000000000000000000000000000000000000000001690635b36389c90611f689089908690600401612b0a565b60408051808303815f875af1158015611f83573d5f5f3e3d5ffd5b505050506040513d601f19601f82011682018060405250810190611fa79190612b1e565b9050805f6020020151835f81518110611fc257611fc26128aa565b6020908102919091010152806001602002015183600181518110611fe857611fe86128aa565b602002602001018181525050506121fa565b6120237f0000000000000000000000000000000000000000000000000000000000000000612333565b825f81518110612035576120356128aa565b60200260200101818152505061206a7f0000000000000000000000000000000000000000000000000000000000000000612333565b8260018151811061207d5761207d6128aa565b60209081029190910101526040517f1808e84a0000000000000000000000000000000000000000000000000000000081526001600160a01b037f00000000000000000000000000000000000000000000000000000000000000001690631808e84a906120f490889085906001903090600401612b9a565b5f604051808303815f87803b15801561210b575f5ffd5b505af115801561211d573d5f5f3e3d5ffd5b50505050815f81518110612133576121336128aa565b60200260200101516121647f0000000000000000000000000000000000000000000000000000000000000000612333565b61216e9190612dda565b825f81518110612180576121806128aa565b6020026020010181815250508160018151811061219f5761219f6128aa565b60200260200101516121d07f0000000000000000000000000000000000000000000000000000000000000000612333565b6121da9190612dda565b826001815181106121ed576121ed6128aa565b6020026020010181815250505b509392505050565b6040516001600160a01b0383811660248301526044820183905261150891859182169063a9059cbb906064015b604051602081830303815290604052915060e01b6020820180517bffffffffffffffffffffffffffffffffffffffffffffffffffffffff83818316178352505050506123cf565b604080516001600160a01b038416602482015260448082018490528251808303909101815260649091019091526020810180517bffffffffffffffffffffffffffffffffffffffffffffffffffffffff167f095ea7b3000000000000000000000000000000000000000000000000000000001790526122f58482612454565b6109ac576040516001600160a01b0384811660248301525f604483015261232991869182169063095ea7b39060640161222f565b6109ac84826123cf565b5f6001600160a01b038216156123c7576040517f70a082310000000000000000000000000000000000000000000000000000000081523060048201526001600160a01b038316906370a0823190602401602060405180830381865afa15801561239e573d5f5f3e3d5ffd5b505050506040513d601f19601f820116820180604052508101906123c291906129bd565b6123c9565b475b92915050565b5f5f60205f8451602086015f885af1806123ee576040513d5f823e3d81fd5b50505f513d91508115612405578060011415612412565b6001600160a01b0384163b155b156109ac576040517f5274afe70000000000000000000000000000000000000000000000000000000081526001600160a01b0385166004820152602401611370565b5f5f5f5f60205f8651602088015f8a5af192503d91505f519050828015612493575081156124855780600114612493565b5f866001600160a01b03163b115b9695505050505050565b60405180604001604052806002906020820280368337509192915050565b6001600160a01b0381168114610876575f5ffd5b5f5f83601f8401126124df575f5ffd5b50813567ffffffffffffffff8111156124f6575f5ffd5b6020830191508360208260051b8501011115612510575f5ffd5b9250929050565b5f5f5f5f5f5f6080878903121561252c575f5ffd5b8635612537816124bb565b955060208701359450604087013567ffffffffffffffff811115612559575f5ffd5b61256589828a016124cf565b909550935050606087013567ffffffffffffffff811115612584575f5ffd5b61259089828a016124cf565b979a9699509497509295939492505050565b5f8151808452602084019350602083015f5b828110156125d25781518652602095860195909101906001016125b4565b5093949350505050565b602081525f610cfa60208301846125a2565b5f602082840312156125fe575f5ffd5b8135610cfa816124bb565b7f4e487b71000000000000000000000000000000000000000000000000000000005f52604160045260245ffd5b6040516060810167ffffffffffffffff8111828210171561265957612659612609565b60405290565b604051601f82017fffffffffffffffffffffffffffffffffffffffffffffffffffffffffffffffe016810167ffffffffffffffff811182821017156126a6576126a6612609565b604052919050565b5f67ffffffffffffffff8211156126c7576126c7612609565b5060051b60200190565b5f82601f8301126126e0575f5ffd5b81356126f36126ee826126ae565b61265f565b8082825260208201915060208360051b860101925085831115612714575f5ffd5b602085015b83811015612731578035835260209283019201612719565b5095945050505050565b5f5f6040838503121561274c575f5ffd5b823567ffffffffffffffff811115612762575f5ffd5b61276e858286016126d1565b95602094909401359450505050565b5f5f5f6060848603121561278f575f5ffd5b833561279a816124bb565b925060208401356127aa816124bb565b929592945050506040919091013590565b8015158114610876575f5ffd5b5f5f5f606084860312156127da575f5ffd5b83359250602084013567ffffffffffffffff8111156127f7575f5ffd5b612803868287016126d1565b9250506040840135612814816127bb565b809150509250925092565b5f5f60408385031215612830575f5ffd5b823561283b816124bb565b946020939093013593505050565b604081525f61285b60408301856125a2565b82810360208401528084518083526020830191506020860192505f5b8181101561289e5783516001600160a01b0316835260209384019390920191600101612877565b50909695505050505050565b7f4e487b71000000000000000000000000000000000000000000000000000000005f52603260045260245ffd5b5f602082840312156128e7575f5ffd5b8151610cfa816124bb565b5f5f83357fffffffffffffffffffffffffffffffffffffffffffffffffffffffffffffffe1843603018112612925575f5ffd5b83018035915067ffffffffffffffff82111561293f575f5ffd5b602001915036819003821315612510575f5ffd5b6001600160a01b038616815284602082015283604082015260806060820152816080820152818360a08301375f81830160a090810191909152601f9092017fffffffffffffffffffffffffffffffffffffffffffffffffffffffffffffffe0160101949350505050565b5f602082840312156129cd575f5ffd5b5051919050565b80516effffffffffffffffffffffffffffff811681146129f2575f5ffd5b919050565b5f5f82840360c0811215612a09575f5ffd5b6060811215612a16575f5ffd5b612a1e612636565b84518152612a2e602086016129d4565b6020820152612a3f604086016129d4565b6040820152925060607fffffffffffffffffffffffffffffffffffffffffffffffffffffffffffffffa082011215612a75575f5ffd5b50612a7e612636565b612a8a606085016129d4565b8152612a98608085016129d4565b602082015260a0840151612aab816127bb565b6040820152919491935090915050565b7f4e487b71000000000000000000000000000000000000000000000000000000005f52602160045260245ffd5b805f5b60028110156109ac578151845260209384019390910190600101612aeb565b82815260608101610cfa6020830184612ae8565b5f60408284031215612b2e575f5ffd5b82601f830112612b3c575f5ffd5b6040805190810167ffffffffffffffff81118282101715612b5f57612b5f612609565b8060405250806040840185811115612b75575f5ffd5b845b81811015612b8f578051835260209283019201612b77565b509195945050505050565b84815260a08101612bae6020830186612ae8565b83151560608301526001600160a01b038316608083015295945050505050565b5f60208284031215612bde575f5ffd5b8151610cfa816127bb565b5f5f60408385031215612bfa575f5ffd5b8251612c05816127bb565b6020939093015192949293505050565b7f4e487b71000000000000000000000000000000000000000000000000000000005f52601160045260245ffd5b808201808211156123c9576123c9612c15565b80820281158282048414176123c9576123c9612c15565b5f82612c9f577f4e487b71000000000000000000000000000000000000000000000000000000005f52601260045260245ffd5b500490565b5f5f60408385031215612cb5575f5ffd5b82516020840151909250612cc8816127bb565b809150509250929050565b604081525f612ce560408301856125a2565b90508260208301529392505050565b60608101612d028285612ae8565b8260408301529392505050565b60808101612d1d8286612ae8565b8360408301528215156060830152949350505050565b828152604060208201525f612d4b60408301846125a2565b949350505050565b5f60208284031215612d63575f5ffd5b815167ffffffffffffffff811115612d79575f5ffd5b8201601f81018413612d89575f5ffd5b8051612d976126ee826126ae565b8082825260208201915060208360051b850101925086831115612db8575f5ffd5b6020840193505b82841015612493578351825260209384019390910190612dbf565b818103818111156123c9576123c9612c1556fea164736f6c634300081d000a","linkReferences":{}},"methodIdentifiers":{"REWARD_MANAGER()":"5932fdba","allowTransfer(address,uint256,address)":"98476c2b","allowance(address,address)":"dd62ed3e","approve(address,uint256)":"095ea7b3","asset()":"38d52e0f","balanceOf(address)":"70a08231","burnShares(address,uint256,uint256,bytes)":"0db734d4","claimAccountRewards(address,uint256)":"66ab3b72","clearCurrentAccount()":"b35cb45d","collectFees()":"c8796572","convertSharesToYieldToken(uint256)":"b905a4ff","convertToAssets(uint256)":"07a2d13a","convertToShares(uint256)":"c6e6f592","convertYieldTokenToAsset()":"e0b4327d","convertYieldTokenToShares(uint256)":"25565931","decimals()":"313ce567","effectiveSupply()":"8fc47093","feeRate()":"978bbdb9","feesAccrued()":"94db0595","initialize(bytes)":"439fab91","initiateWithdraw(address,uint256,bytes)":"57831a04","initiateWithdrawNative(bytes)":"131b822d","mintShares(uint256,address,bytes)":"127af7f9","name()":"06fdde03","postLiquidation(address,address,uint256)":"98dce16d","preLiquidation(address,address,uint256,uint256)":"cc351ac5","price()":"a035b1fe","price(address)":"aea91078","redeemNative(uint256,bytes)":"eb9b1912","symbol()":"95d89b41","totalAssets()":"01e1d114","totalSupply()":"18160ddd","transfer(address,uint256)":"a9059cbb","transferFrom(address,address,uint256)":"23b872dd","yieldToken()":"76d5de85"},"id":86}