{"abi":[{"type":"constructor","inputs":[{"name":"_token1","type":"address","internalType":"address"},{"name":"_token2","type":"address","internalType":"address"},{"name":"_asset","type":"address","internalType":"address"},{"name":"_primaryIndex","type":"uint8","internalType":"uint8"},{"name":"params","type":"tuple","internalType":"struct DeploymentParams","components":[{"name":"pool","type":"address","internalType":"address"},{"name":"poolToken","type":"address","internalType":"address"},{"name":"gauge","type":"address","internalType":"address"},{"name":"convexRewardPool","type":"address","internalType":"address"},{"name":"curveInterface","type":"uint8","internalType":"enum CurveInterface"}]}],"stateMutability":"nonpayable"},{"type":"receive","stateMutability":"payable"},{"type":"function","name":"checkReentrancyContext","inputs":[],"outputs":[],"stateMutability":"nonpayable"},{"type":"function","name":"finalizeAndRedeemWithdrawRequest","inputs":[{"name":"sharesOwner","type":"address","internalType":"address"},{"name":"sharesToRedeem","type":"uint256","internalType":"uint256"}],"outputs":[{"name":"exitBalances","type":"uint256[]","internalType":"uint256[]"},{"name":"withdrawTokens","type":"address[]","internalType":"contract ERC20[]"}],"stateMutability":"nonpayable"},{"type":"function","name":"getWithdrawRequestValue","inputs":[{"name":"account","type":"address","internalType":"address"},{"name":"asset","type":"address","internalType":"address"},{"name":"shares","type":"uint256","internalType":"uint256"}],"outputs":[{"name":"totalValue","type":"uint256","internalType":"uint256"}],"stateMutability":"view"},{"type":"function","name":"hasPendingWithdrawals","inputs":[{"name":"account","type":"address","internalType":"address"}],"outputs":[{"name":"","type":"bool","internalType":"bool"}],"stateMutability":"view"},{"type":"function","name":"initialApproveTokens","inputs":[],"outputs":[],"stateMutability":"nonpayable"},{"type":"function","name":"initiateWithdraw","inputs":[{"name":"account","type":"address","internalType":"address"},{"name":"sharesHeld","type":"uint256","internalType":"uint256"},{"name":"exitBalances","type":"uint256[]","internalType":"uint256[]"},{"name":"withdrawData","type":"bytes[]","internalType":"bytes[]"}],"outputs":[{"name":"requestIds","type":"uint256[]","internalType":"uint256[]"}],"stateMutability":"nonpayable"},{"type":"function","name":"joinPoolAndStake","inputs":[{"name":"_amounts","type":"uint256[]","internalType":"uint256[]"},{"name":"minPoolClaim","type":"uint256","internalType":"uint256"}],"outputs":[],"stateMutability":"nonpayable"},{"type":"function","name":"tokenizeWithdrawRequest","inputs":[{"name":"liquidateAccount","type":"address","internalType":"address"},{"name":"liquidator","type":"address","internalType":"address"},{"name":"sharesToLiquidator","type":"uint256","internalType":"uint256"}],"outputs":[{"name":"didTokenize","type":"bool","internalType":"bool"}],"stateMutability":"nonpayable"},{"type":"function","name":"transferYieldTokenToOwner","inputs":[{"name":"owner","type":"address","internalType":"address"},{"name":"yieldTokens","type":"uint256","internalType":"uint256"}],"outputs":[],"stateMutability":"nonpayable"},{"type":"function","name":"unstakeAndExitPool","inputs":[{"name":"poolClaim","type":"uint256","internalType":"uint256"},{"name":"_minAmounts","type":"uint256[]","internalType":"uint256[]"},{"name":"isSingleSided","type":"bool","internalType":"bool"}],"outputs":[{"name":"exitBalances","type":"uint256[]","internalType":"uint256[]"}],"stateMutability":"nonpayable"},{"type":"error","name":"SafeERC20FailedOperation","inputs":[{"name":"token","type":"address","internalType":"address"}]},{"type":"error","name":"WithdrawRequestNotFinalized","inputs":[{"name":"requestId","type":"uint256","internalType":"uint256"}]}],"bytecode":{"object":"0x6101e0604052348015610010575f5ffd5b506040516132c23803806132c283398101604081905261002f916101e1565b6001600160a01b03808616610180528481166101a0528381166101605260ff8316610140528151811660809081526040830151821660c052602083015190911660a0528101516002811115610086576100866102d7565b6101c081600281111561009b5761009b6102d7565b90525060608101516001600160a01b0316610100525f804660011480156100cd5750610100516001600160a01b031615155b1561019d57610100516001600160a01b031663570ca7356040518163ffffffff1660e01b8152600401602060405180830381865afa158015610111573d5f5f3e3d5ffd5b505050506040513d601f19601f8201168201806040525081019061013591906102eb565b9150610100516001600160a01b031663f10684546040518163ffffffff1660e01b8152600401602060405180830381865afa158015610176573d5f5f3e3d5ffd5b505050506040513d601f19601f8201168201806040525081019061019a919061030b565b90505b610120526001600160a01b031660e052506103229350505050565b80516001600160a01b03811681146101ce575f5ffd5b919050565b8051600381106101ce575f5ffd5b5f5f5f5f5f8587036101208112156101f7575f5ffd5b610200876101b8565b955061020e602088016101b8565b945061021c604088016101b8565b9350606087015160ff81168114610231575f5ffd5b925060a0607f1982011215610244575f5ffd5b5060405160a081016001600160401b038111828210171561027357634e487b7160e01b5f52604160045260245ffd5b604052610282608088016101b8565b815261029060a088016101b8565b60208201526102a160c088016101b8565b60408201526102b260e088016101b8565b60608201526102c461010088016101d3565b6080820152809150509295509295909350565b634e487b7160e01b5f52602160045260245ffd5b5f602082840312156102fb575f5ffd5b610304826101b8565b9392505050565b5f6020828403121561031b575f5ffd5b5051919050565b60805160a05160c05160e05161010051610120516101405161016051610180516101a0516101c051612dfa6104c85f395f818161060b015281816106ee015281816107a701528181611512015281816116690152818161175401528181611a9601528181611ad101528181611d3a0152611eca01525f81816108cb01528181610c4f01528181610d63015281816114920152818161204601526121ac01525f818161087c01528181610b9f01528181610d0e0152818161143f01528181611fff015261214001525f610b7001525f8181611b3a01528181611b5c01528181611c0a01528181611c7f0152611ca101525f61184d01525f818161196901526119ce01525f8181610dad01528181610e09015281816117f8015261188301525f8181610e60015281816119300152611a3401525f8181610de701528181610e3e015261102001525f8181610670015281816107250152818161080c01528181610d3001528181610d8501528181611577015281816116ce015281816117b901528181611b0a01528181611c4f01528181611d9f01528181611f3101526120b80152612dfa5ff3fe6080604052600436106100b0575f3560e01c80638f2ff74a11610066578063c31f413c1161004c578063c31f413c146101a6578063d4212954146101d3578063f7cd58c4146101f2575f5ffd5b80638f2ff74a146101735780639e8fac8614610192575f5ffd5b80634e134d0b116100965780634e134d0b1461011f5780636e0bd5e714610135578063838f705b14610154575f5ffd5b806327455546146100bb5780633159bc16146100f0575f5ffd5b366100b757005b5f5ffd5b3480156100c6575f5ffd5b506100da6100d5366004612517565b61021f565b6040516100e791906125dc565b60405180910390f35b3480156100fb575f5ffd5b5061010f61010a3660046125ee565b610476565b60405190151581526020016100e7565b34801561012a575f5ffd5b50610133610600565b005b348015610140575f5ffd5b5061013361014f36600461273b565b610879565b34801561015f575f5ffd5b5061010f61016e36600461277d565b6109b2565b34801561017e575f5ffd5b506100da61018d3660046127c8565b610b35565b34801561019d575f5ffd5b50610133610d01565b3480156101b1575f5ffd5b506101c56101c036600461277d565b610e86565b6040519081526020016100e7565b3480156101de575f5ffd5b506101336101ed36600461281f565b61100a565b3480156101fd575f5ffd5b5061021161020c36600461281f565b611047565b6040516100e7929190612849565b60605f61022a611419565b90508467ffffffffffffffff81111561024557610245612609565b60405190808252806020026020018201604052801561026e578160200160208202803683370190505b5091505f5b8581101561046a5786868281811061028d5761028d6128aa565b905060200201355f0315610462575f735615deb798bb3e4dfa0139dfa1b3d433cc23b72f6001600160a01b0316639287d7ac8484815181106102d1576102d16128aa565b60200260200101516040518263ffffffff1660e01b815260040161030491906001600160a01b0391909116815260200190565b602060405180830381865afa15801561031f573d5f5f3e3d5ffd5b505050506040513d601f19601f8201168201806040525081019061034391906128d7565b90506103948189898581811061035b5761035b6128aa565b90506020020135858581518110610374576103746128aa565b60200260200101516001600160a01b03166114e19092919063ffffffff16565b806001600160a01b0316637c86cff58b8a8a868181106103b6576103b66128aa565b905060200201358c8a8a888181106103d0576103d06128aa565b90506020028101906103e291906128f2565b6040518663ffffffff1660e01b8152600401610402959493929190612953565b6020604051808303815f875af115801561041e573d5f5f3e3d5ffd5b505050506040513d601f19601f8201168201806040525081019061044291906129bd565b848381518110610454576104546128aa565b602002602001018181525050505b600101610273565b50509695505050505050565b5f5f610480611419565b90505f5b81518110156105f7575f735615deb798bb3e4dfa0139dfa1b3d433cc23b72f6001600160a01b0316639287d7ac8484815181106104c3576104c36128aa565b60200260200101516040518263ffffffff1660e01b81526004016104f691906001600160a01b0391909116815260200190565b602060405180830381865afa158015610511573d5f5f3e3d5ffd5b505050506040513d601f19601f8201168201806040525081019061053591906128d7565b90506001600160a01b03811661054b57506105ef565b6040517fafbf911a0000000000000000000000000000000000000000000000000000000081523360048201526001600160a01b0386811660248301525f919083169063afbf911a9060440160c060405180830381865afa1580156105b1573d5f5f3e3d5ffd5b505050506040513d601f19601f820116820180604052508101906105d591906129f7565b508051909150156105ec5750600195945050505050565b50505b600101610484565b505f9392505050565b61060861249d565b5f7f0000000000000000000000000000000000000000000000000000000000000000600281111561063b5761063b612abb565b036106ea576040517f5b36389c0000000000000000000000000000000000000000000000000000000081526001600160a01b037f00000000000000000000000000000000000000000000000000000000000000001690635b36389c906106a7905f908590600401612b0a565b60408051808303815f875af11580156106c2573d5f5f3e3d5ffd5b505050506040513d601f19601f820116820180604052508101906106e69190612b1e565b5050565b60027f0000000000000000000000000000000000000000000000000000000000000000600281111561071e5761071e612abb565b036107a3577f00000000000000000000000000000000000000000000000000000000000000006001600160a01b03166318160ddd6040518163ffffffff1660e01b8152600401602060405180830381865afa15801561077f573d5f5f3e3d5ffd5b505050506040513d601f19601f820116820180604052508101906106e691906129bd565b60017f000000000000000000000000000000000000000000000000000000000000000060028111156107d7576107d7612abb565b036100b7576040517f1808e84a0000000000000000000000000000000000000000000000000000000081526001600160a01b037f00000000000000000000000000000000000000000000000000000000000000001690631808e84a9061084890600190859082903090600401612b9a565b5f604051808303815f87803b15801561085f575f5ffd5b505af1158015610871573d5f5f3e3d5ffd5b505050505b50565b5f7f00000000000000000000000000000000000000000000000000000000000000006001600160a01b03166108c957825f815181106108ba576108ba6128aa565b60200260200101519050610915565b7f00000000000000000000000000000000000000000000000000000000000000006001600160a01b0316610915578260018151811061090a5761090a6128aa565b602002602001015190505b8015610995576040517f2e1a7d4d0000000000000000000000000000000000000000000000000000000081526004810182905273c02aaa39b223fe8d0a0e5c4f27ead9083c756cc290632e1a7d4d906024015f604051808303815f87803b15801561097e575f5ffd5b505af1158015610990573d5f5f3e3d5ffd5b505050505b5f6109a184848461150d565b90506109ac816117f6565b50505050565b5f5f6109bc611419565b90505f5b8151811015610b2c575f735615deb798bb3e4dfa0139dfa1b3d433cc23b72f6001600160a01b0316639287d7ac8484815181106109ff576109ff6128aa565b60200260200101516040518263ffffffff1660e01b8152600401610a3291906001600160a01b0391909116815260200190565b602060405180830381865afa158015610a4d573d5f5f3e3d5ffd5b505050506040513d601f19601f82011682018060405250810190610a7191906128d7565b90506001600160a01b038116610a875750610b24565b6040517f838f705b0000000000000000000000000000000000000000000000000000000081526001600160a01b03888116600483015287811660248301526044820187905282169063838f705b906064016020604051808303815f875af1158015610af4573d5f5f3e3d5ffd5b505050506040513d601f19601f82011682018060405250810190610b189190612bce565b80610b205750835b9350505b6001016109c0565b50509392505050565b6060610b4084611967565b610b4b848484611a6b565b90507fffffffffffffffffffffffff3fd555c64ddc0172f5f1a3b0d81526f7c38a933e7f00000000000000000000000000000000000000000000000000000000000000006001600160a01b031601610cfa577f00000000000000000000000000000000000000000000000000000000000000006001600160a01b0316610c4d5773c02aaa39b223fe8d0a0e5c4f27ead9083c756cc26001600160a01b031663d0e30db0825f81518110610c0057610c006128aa565b60200260200101516040518263ffffffff1660e01b81526004015f604051808303818588803b158015610c31575f5ffd5b505af1158015610c43573d5f5f3e3d5ffd5b5050505050610cfa565b7f00000000000000000000000000000000000000000000000000000000000000006001600160a01b0316610cfa5773c02aaa39b223fe8d0a0e5c4f27ead9083c756cc26001600160a01b031663d0e30db082600181518110610cb157610cb16128aa565b60200260200101516040518263ffffffff1660e01b81526004015f604051808303818588803b158015610ce2575f5ffd5b505af1158015610cf4573d5f5f3e3d5ffd5b50505050505b9392505050565b610d566001600160a01b037f0000000000000000000000000000000000000000000000000000000000000000167f00000000000000000000000000000000000000000000000000000000000000005f196114e1565b610dab6001600160a01b037f0000000000000000000000000000000000000000000000000000000000000000167f00000000000000000000000000000000000000000000000000000000000000005f196114e1565b7f00000000000000000000000000000000000000000000000000000000000000006001600160a01b031615610e3157610e2f6001600160a01b037f0000000000000000000000000000000000000000000000000000000000000000167f00000000000000000000000000000000000000000000000000000000000000005f196114e1565b565b610e2f6001600160a01b037f0000000000000000000000000000000000000000000000000000000000000000167f00000000000000000000000000000000000000000000000000000000000000005f196114e1565b5f5f610e90611419565b90505f5b8151811015610b2c575f735615deb798bb3e4dfa0139dfa1b3d433cc23b72f6001600160a01b0316639287d7ac848481518110610ed357610ed36128aa565b60200260200101516040518263ffffffff1660e01b8152600401610f0691906001600160a01b0391909116815260200190565b602060405180830381865afa158015610f21573d5f5f3e3d5ffd5b505050506040513d601f19601f82011682018060405250810190610f4591906128d7565b6040517f32df6ff20000000000000000000000000000000000000000000000000000000081523360048201526001600160a01b0389811660248301528881166044830152606482018890529192505f918291908416906332df6ff2906084016040805180830381865afa158015610fbe573d5f5f3e3d5ffd5b505050506040513d601f19601f82011682018060405250810190610fe29190612be9565b9150915081610fef575f5ffd5b610ff98187612c42565b95505060019092019150610e949050565b61101381611967565b6106e66001600160a01b037f0000000000000000000000000000000000000000000000000000000000000000168383612202565b6060805f611053611419565b9050805167ffffffffffffffff81111561106f5761106f612609565b604051908082528060200260200182016040528015611098578160200160208202803683370190505b509250805167ffffffffffffffff8111156110b5576110b5612609565b6040519080825280602002602001820160405280156110de578160200160208202803683370190505b50604080516060810182525f808252602082018190529181018290529193505b825181101561140f575f735615deb798bb3e4dfa0139dfa1b3d433cc23b72f6001600160a01b0316639287d7ac85848151811061113d5761113d6128aa565b60200260200101516040518263ffffffff1660e01b815260040161117091906001600160a01b0391909116815260200190565b602060405180830381865afa15801561118b573d5f5f3e3d5ffd5b505050506040513d601f19601f820116820180604052508101906111af91906128d7565b6040517fafbf911a0000000000000000000000000000000000000000000000000000000081523060048201526001600160a01b038a811660248301529192509082169063afbf911a9060440160c060405180830381865afa158015611216573d5f5f3e3d5ffd5b505050506040513d601f19601f8201168201806040525081019061123a91906129f7565b50809350505f83604001516effffffffffffffffffffffffffffff168885602001516effffffffffffffffffffffffffffff166112779190612c55565b6112819190612c6c565b6040517fed020beb0000000000000000000000000000000000000000000000000000000081526001600160a01b038b8116600483015260248201839052604482018b90529192505f9184169063ed020beb9060640160408051808303815f875af11580156112f1573d5f5f3e3d5ffd5b505050506040513d601f19601f820116820180604052508101906113159190612ca4565b898681518110611327576113276128aa565b60200260200101819350828152505050806113795784516040517f4ccb7bc200000000000000000000000000000000000000000000000000000000815260048101919091526024015b60405180910390fd5b826001600160a01b0316633ed3a0546040518163ffffffff1660e01b8152600401602060405180830381865afa1580156113b5573d5f5f3e3d5ffd5b505050506040513d601f19601f820116820180604052508101906113d991906128d7565b8785815181106113eb576113eb6128aa565b6001600160a01b0392909216602092830291909101909101525050506001016110fe565b5050509250929050565b60408051600280825260608083018452925f9291906020830190803683370190505090507f0000000000000000000000000000000000000000000000000000000000000000815f81518110611470576114706128aa565b60200260200101906001600160a01b031690816001600160a01b0316815250507f0000000000000000000000000000000000000000000000000000000000000000816001815181106114c4576114c46128aa565b6001600160a01b0390921660209283029190910190910152919050565b6001600160a01b0383166114f457505050565b6115086001600160a01b0384168383612276565b505050565b5f60027f0000000000000000000000000000000000000000000000000000000000000000600281111561154257611542612abb565b036115f8576040517fb72df5de0000000000000000000000000000000000000000000000000000000081526001600160a01b037f0000000000000000000000000000000000000000000000000000000000000000169063b72df5de9084906115b09088908890600401612cd3565b60206040518083038185885af11580156115cc573d5f5f3e3d5ffd5b50505050506040513d601f19601f820116820180604052508101906115f191906129bd565b9050610cfa565b61160061249d565b845f81518110611612576116126128aa565b6020026020010151815f6002811061162c5761162c6128aa565b6020020152845185906001908110611646576116466128aa565b602002602001015181600160028110611661576116616128aa565b60200201525f7f0000000000000000000000000000000000000000000000000000000000000000600281111561169957611699612abb565b03611750576040517f0b4c7e4d0000000000000000000000000000000000000000000000000000000081526001600160a01b037f00000000000000000000000000000000000000000000000000000000000000001690630b4c7e4d9085906117079085908990600401612cf4565b60206040518083038185885af1158015611723573d5f5f3e3d5ffd5b50505050506040513d601f19601f8201168201806040525081019061174891906129bd565b915050610cfa565b60017f0000000000000000000000000000000000000000000000000000000000000000600281111561178457611784612abb565b036100b7576040517fee22be230000000000000000000000000000000000000000000000000000000081526001600160a01b037f0000000000000000000000000000000000000000000000000000000000000000169063ee22be23908590611707908590899084151590600401612d0f565b7f00000000000000000000000000000000000000000000000000000000000000006001600160a01b031615611901576040517f43a0d0660000000000000000000000000000000000000000000000000000000081527f0000000000000000000000000000000000000000000000000000000000000000600482015260248101829052600160448201525f907f00000000000000000000000000000000000000000000000000000000000000006001600160a01b0316906343a0d066906064015b6020604051808303815f875af11580156118d2573d5f5f3e3d5ffd5b505050506040513d601f19601f820116820180604052508101906118f69190612bce565b9050806106e6575f5ffd5b6040517fb6b55f25000000000000000000000000000000000000000000000000000000008152600481018290527f00000000000000000000000000000000000000000000000000000000000000006001600160a01b03169063b6b55f2590602401610848565b7f00000000000000000000000000000000000000000000000000000000000000006001600160a01b031615611a05576040517fc32e7202000000000000000000000000000000000000000000000000000000008152600481018290525f60248201819052907f00000000000000000000000000000000000000000000000000000000000000006001600160a01b03169063c32e7202906044016118b6565b6040517f2e1a7d4d000000000000000000000000000000000000000000000000000000008152600481018290527f00000000000000000000000000000000000000000000000000000000000000006001600160a01b031690632e1a7d4d90602401610848565b60608115611d365760408051600280825260608201835290916020830190803683370190505090505f7f00000000000000000000000000000000000000000000000000000000000000006002811115611ac657611ac6612abb565b1480611b03575060027f00000000000000000000000000000000000000000000000000000000000000006002811115611b0157611b01612abb565b145b15611c4d577f00000000000000000000000000000000000000000000000000000000000000006001600160a01b0316631a4d01d2857f0000000000000000000000000000000000000000000000000000000000000000867f000000000000000000000000000000000000000000000000000000000000000060ff1681518110611b8e57611b8e6128aa565b60200260200101516040518463ffffffff1660e01b8152600401611bc7939291909283525f9190910b6020830152604082015260600190565b6020604051808303815f875af1158015611be3573d5f5f3e3d5ffd5b505050506040513d601f19601f82011682018060405250810190611c0791906129bd565b817f000000000000000000000000000000000000000000000000000000000000000060ff1681518110611c3c57611c3c6128aa565b602002602001018181525050610cfa565b7f00000000000000000000000000000000000000000000000000000000000000006001600160a01b03166307329bcd857f0000000000000000000000000000000000000000000000000000000000000000867f000000000000000000000000000000000000000000000000000000000000000060ff1681518110611cd357611cd36128aa565b60209081029190910101516040517fffffffff0000000000000000000000000000000000000000000000000000000060e086901b168152600481019390935260ff909116602483015260448201526001606482015230608482015260a401611bc7565b60027f00000000000000000000000000000000000000000000000000000000000000006002811115611d6a57611d6a612abb565b03611e36576040517fd40ddb8c0000000000000000000000000000000000000000000000000000000081526001600160a01b037f0000000000000000000000000000000000000000000000000000000000000000169063d40ddb8c90611dd69087908790600401612d33565b5f604051808303815f875af1158015611df1573d5f5f3e3d5ffd5b505050506040513d5f823e601f3d9081017fffffffffffffffffffffffffffffffffffffffffffffffffffffffffffffffe01682016040526115f19190810190612d53565b611e3e61249d565b835f81518110611e5057611e506128aa565b6020026020010151815f60028110611e6a57611e6a6128aa565b6020020152835184906001908110611e8457611e846128aa565b602002602001015181600160028110611e9f57611e9f6128aa565b602002015260408051600280825260608201909252908160200160208202803683370190505091505f7f00000000000000000000000000000000000000000000000000000000000000006002811115611efa57611efa612abb565b03611ffa576040517f5b36389c0000000000000000000000000000000000000000000000000000000081525f906001600160a01b037f00000000000000000000000000000000000000000000000000000000000000001690635b36389c90611f689089908690600401612b0a565b60408051808303815f875af1158015611f83573d5f5f3e3d5ffd5b505050506040513d601f19601f82011682018060405250810190611fa79190612b1e565b9050805f6020020151835f81518110611fc257611fc26128aa565b6020908102919091010152806001602002015183600181518110611fe857611fe86128aa565b602002602001018181525050506121fa565b6120237f0000000000000000000000000000000000000000000000000000000000000000612333565b825f81518110612035576120356128aa565b60200260200101818152505061206a7f0000000000000000000000000000000000000000000000000000000000000000612333565b8260018151811061207d5761207d6128aa565b60209081029190910101526040517f1808e84a0000000000000000000000000000000000000000000000000000000081526001600160a01b037f00000000000000000000000000000000000000000000000000000000000000001690631808e84a906120f490889085906001903090600401612b9a565b5f604051808303815f87803b15801561210b575f5ffd5b505af115801561211d573d5f5f3e3d5ffd5b50505050815f81518110612133576121336128aa565b60200260200101516121647f0000000000000000000000000000000000000000000000000000000000000000612333565b61216e9190612dda565b825f81518110612180576121806128aa565b6020026020010181815250508160018151811061219f5761219f6128aa565b60200260200101516121d07f0000000000000000000000000000000000000000000000000000000000000000612333565b6121da9190612dda565b826001815181106121ed576121ed6128aa565b6020026020010181815250505b509392505050565b6040516001600160a01b0383811660248301526044820183905261150891859182169063a9059cbb906064015b604051602081830303815290604052915060e01b6020820180517bffffffffffffffffffffffffffffffffffffffffffffffffffffffff83818316178352505050506123cf565b604080516001600160a01b038416602482015260448082018490528251808303909101815260649091019091526020810180517bffffffffffffffffffffffffffffffffffffffffffffffffffffffff167f095ea7b3000000000000000000000000000000000000000000000000000000001790526122f58482612454565b6109ac576040516001600160a01b0384811660248301525f604483015261232991869182169063095ea7b39060640161222f565b6109ac84826123cf565b5f6001600160a01b038216156123c7576040517f70a082310000000000000000000000000000000000000000000000000000000081523060048201526001600160a01b038316906370a0823190602401602060405180830381865afa15801561239e573d5f5f3e3d5ffd5b505050506040513d601f19601f820116820180604052508101906123c291906129bd565b6123c9565b475b92915050565b5f5f60205f8451602086015f885af1806123ee576040513d5f823e3d81fd5b50505f513d91508115612405578060011415612412565b6001600160a01b0384163b155b156109ac576040517f5274afe70000000000000000000000000000000000000000000000000000000081526001600160a01b0385166004820152602401611370565b5f5f5f5f60205f8651602088015f8a5af192503d91505f519050828015612493575081156124855780600114612493565b5f866001600160a01b03163b115b9695505050505050565b60405180604001604052806002906020820280368337509192915050565b6001600160a01b0381168114610876575f5ffd5b5f5f83601f8401126124df575f5ffd5b50813567ffffffffffffffff8111156124f6575f5ffd5b6020830191508360208260051b8501011115612510575f5ffd5b9250929050565b5f5f5f5f5f5f6080878903121561252c575f5ffd5b8635612537816124bb565b955060208701359450604087013567ffffffffffffffff811115612559575f5ffd5b61256589828a016124cf565b909550935050606087013567ffffffffffffffff811115612584575f5ffd5b61259089828a016124cf565b979a9699509497509295939492505050565b5f8151808452602084019350602083015f5b828110156125d25781518652602095860195909101906001016125b4565b5093949350505050565b602081525f610cfa60208301846125a2565b5f602082840312156125fe575f5ffd5b8135610cfa816124bb565b7f4e487b71000000000000000000000000000000000000000000000000000000005f52604160045260245ffd5b6040516060810167ffffffffffffffff8111828210171561265957612659612609565b60405290565b604051601f82017fffffffffffffffffffffffffffffffffffffffffffffffffffffffffffffffe016810167ffffffffffffffff811182821017156126a6576126a6612609565b604052919050565b5f67ffffffffffffffff8211156126c7576126c7612609565b5060051b60200190565b5f82601f8301126126e0575f5ffd5b81356126f36126ee826126ae565b61265f565b8082825260208201915060208360051b860101925085831115612714575f5ffd5b602085015b83811015612731578035835260209283019201612719565b5095945050505050565b5f5f6040838503121561274c575f5ffd5b823567ffffffffffffffff811115612762575f5ffd5b61276e858286016126d1565b95602094909401359450505050565b5f5f5f6060848603121561278f575f5ffd5b833561279a816124bb565b925060208401356127aa816124bb565b929592945050506040919091013590565b8015158114610876575f5ffd5b5f5f5f606084860312156127da575f5ffd5b83359250602084013567ffffffffffffffff8111156127f7575f5ffd5b612803868287016126d1565b9250506040840135612814816127bb565b809150509250925092565b5f5f60408385031215612830575f5ffd5b823561283b816124bb565b946020939093013593505050565b604081525f61285b60408301856125a2565b82810360208401528084518083526020830191506020860192505f5b8181101561289e5783516001600160a01b0316835260209384019390920191600101612877565b50909695505050505050565b7f4e487b71000000000000000000000000000000000000000000000000000000005f52603260045260245ffd5b5f602082840312156128e7575f5ffd5b8151610cfa816124bb565b5f5f83357fffffffffffffffffffffffffffffffffffffffffffffffffffffffffffffffe1843603018112612925575f5ffd5b83018035915067ffffffffffffffff82111561293f575f5ffd5b602001915036819003821315612510575f5ffd5b6001600160a01b038616815284602082015283604082015260806060820152816080820152818360a08301375f81830160a090810191909152601f9092017fffffffffffffffffffffffffffffffffffffffffffffffffffffffffffffffe0160101949350505050565b5f602082840312156129cd575f5ffd5b5051919050565b80516effffffffffffffffffffffffffffff811681146129f2575f5ffd5b919050565b5f5f82840360c0811215612a09575f5ffd5b6060811215612a16575f5ffd5b612a1e612636565b84518152612a2e602086016129d4565b6020820152612a3f604086016129d4565b6040820152925060607fffffffffffffffffffffffffffffffffffffffffffffffffffffffffffffffa082011215612a75575f5ffd5b50612a7e612636565b612a8a606085016129d4565b8152612a98608085016129d4565b602082015260a0840151612aab816127bb565b6040820152919491935090915050565b7f4e487b71000000000000000000000000000000000000000000000000000000005f52602160045260245ffd5b805f5b60028110156109ac578151845260209384019390910190600101612aeb565b82815260608101610cfa6020830184612ae8565b5f60408284031215612b2e575f5ffd5b82601f830112612b3c575f5ffd5b6040805190810167ffffffffffffffff81118282101715612b5f57612b5f612609565b8060405250806040840185811115612b75575f5ffd5b845b81811015612b8f578051835260209283019201612b77565b509195945050505050565b84815260a08101612bae6020830186612ae8565b83151560608301526001600160a01b038316608083015295945050505050565b5f60208284031215612bde575f5ffd5b8151610cfa816127bb565b5f5f60408385031215612bfa575f5ffd5b8251612c05816127bb565b6020939093015192949293505050565b7f4e487b71000000000000000000000000000000000000000000000000000000005f52601160045260245ffd5b808201808211156123c9576123c9612c15565b80820281158282048414176123c9576123c9612c15565b5f82612c9f577f4e487b71000000000000000000000000000000000000000000000000000000005f52601260045260245ffd5b500490565b5f5f60408385031215612cb5575f5ffd5b82516020840151909250612cc8816127bb565b809150509250929050565b604081525f612ce560408301856125a2565b90508260208301529392505050565b60608101612d028285612ae8565b8260408301529392505050565b60808101612d1d8286612ae8565b8360408301528215156060830152949350505050565b828152604060208201525f612d4b60408301846125a2565b949350505050565b5f60208284031215612d63575f5ffd5b815167ffffffffffffffff811115612d79575f5ffd5b8201601f81018413612d89575f5ffd5b8051612d976126ee826126ae565b8082825260208201915060208360051b850101925086831115612db8575f5ffd5b6020840193505b82841015612493578351825260209384019390910190612dbf565b818103818111156123c9576123c9612c1556fea164736f6c634300081d000a","linkReferences":{}},"methodIdentifiers":{"checkReentrancyContext()":"4e134d0b","finalizeAndRedeemWithdrawRequest(address,uint256)":"f7cd58c4","getWithdrawRequestValue(address,address,uint256)":"c31f413c","hasPendingWithdrawals(address)":"3159bc16","initialApproveTokens()":"9e8fac86","initiateWithdraw(address,uint256,uint256[],bytes[])":"27455546","joinPoolAndStake(uint256[],uint256)":"6e0bd5e7","tokenizeWithdrawRequest(address,address,uint256)":"838f705b","transferYieldTokenToOwner(address,uint256)":"d4212954","unstakeAndExitPool(uint256,uint256[],bool)":"8f2ff74a"},"id":86}