{"abi":[{"type":"function","name":"allocateAndEnterPosition","inputs":[{"name":"onBehalf","type":"address","internalType":"address"},{"name":"vault","type":"address","internalType":"address"},{"name":"depositAssetAmount","type":"uint256","internalType":"uint256"},{"name":"borrowAmount","type":"uint256","internalType":"uint256"},{"name":"depositData","type":"bytes","internalType":"bytes"},{"name":"allocationData","type":"tuple[]","internalType":"struct MorphoAllocation[]","components":[{"name":"vault","type":"address","internalType":"address"},{"name":"feeAmount","type":"uint256","internalType":"uint256"},{"name":"withdrawals","type":"tuple[]","internalType":"struct Withdrawal[]","components":[{"name":"marketParams","type":"tuple","internalType":"struct MarketParams","components":[{"name":"loanToken","type":"address","internalType":"address"},{"name":"collateralToken","type":"address","internalType":"address"},{"name":"oracle","type":"address","internalType":"address"},{"name":"irm","type":"address","internalType":"address"},{"name":"lltv","type":"uint256","internalType":"uint256"}]},{"name":"amount","type":"uint128","internalType":"uint128"}]}]}],"outputs":[],"stateMutability":"payable"},{"type":"function","name":"allocateAndMigratePosition","inputs":[{"name":"onBehalf","type":"address","internalType":"address"},{"name":"vault","type":"address","internalType":"address"},{"name":"migrateFrom","type":"address","internalType":"address"},{"name":"allocationData","type":"tuple[]","internalType":"struct MorphoAllocation[]","components":[{"name":"vault","type":"address","internalType":"address"},{"name":"feeAmount","type":"uint256","internalType":"uint256"},{"name":"withdrawals","type":"tuple[]","internalType":"struct Withdrawal[]","components":[{"name":"marketParams","type":"tuple","internalType":"struct MarketParams","components":[{"name":"loanToken","type":"address","internalType":"address"},{"name":"collateralToken","type":"address","internalType":"address"},{"name":"oracle","type":"address","internalType":"address"},{"name":"irm","type":"address","internalType":"address"},{"name":"lltv","type":"uint256","internalType":"uint256"}]},{"name":"amount","type":"uint128","internalType":"uint128"}]}]}],"outputs":[],"stateMutability":"payable"},{"type":"function","name":"balanceOfCollateral","inputs":[{"name":"account","type":"address","internalType":"address"},{"name":"vault","type":"address","internalType":"address"}],"outputs":[{"name":"collateralBalance","type":"uint256","internalType":"uint256"}],"stateMutability":"view"},{"type":"function","name":"claimRewards","inputs":[{"name":"vault","type":"address","internalType":"address"}],"outputs":[{"name":"rewards","type":"uint256[]","internalType":"uint256[]"}],"stateMutability":"nonpayable"},{"type":"function","name":"enterPosition","inputs":[{"name":"onBehalf","type":"address","internalType":"address"},{"name":"vault","type":"address","internalType":"address"},{"name":"depositAssetAmount","type":"uint256","internalType":"uint256"},{"name":"borrowAmount","type":"uint256","internalType":"uint256"},{"name":"depositData","type":"bytes","internalType":"bytes"}],"outputs":[],"stateMutability":"nonpayable"},{"type":"function","name":"exitPosition","inputs":[{"name":"onBehalf","type":"address","internalType":"address"},{"name":"vault","type":"address","internalType":"address"},{"name":"receiver","type":"address","internalType":"address"},{"name":"sharesToRedeem","type":"uint256","internalType":"uint256"},{"name":"assetToRepay","type":"uint256","internalType":"uint256"},{"name":"redeemData","type":"bytes","internalType":"bytes"}],"outputs":[],"stateMutability":"nonpayable"},{"type":"function","name":"forceWithdraw","inputs":[{"name":"account","type":"address","internalType":"address"},{"name":"vault","type":"address","internalType":"address"},{"name":"data","type":"bytes","internalType":"bytes"}],"outputs":[{"name":"requestId","type":"uint256","internalType":"uint256"}],"stateMutability":"nonpayable"},{"type":"function","name":"healthFactor","inputs":[{"name":"borrower","type":"address","internalType":"address"},{"name":"vault","type":"address","internalType":"address"}],"outputs":[{"name":"borrowed","type":"uint256","internalType":"uint256"},{"name":"collateralValue","type":"uint256","internalType":"uint256"},{"name":"maxBorrow","type":"uint256","internalType":"uint256"}],"stateMutability":"nonpayable"},{"type":"function","name":"initializeMarket","inputs":[{"name":"vault","type":"address","internalType":"address"},{"name":"irm","type":"address","internalType":"address"},{"name":"lltv","type":"uint256","internalType":"uint256"}],"outputs":[],"stateMutability":"nonpayable"},{"type":"function","name":"initiateWithdraw","inputs":[{"name":"onBehalf","type":"address","internalType":"address"},{"name":"vault","type":"address","internalType":"address"},{"name":"data","type":"bytes","internalType":"bytes"}],"outputs":[{"name":"requestId","type":"uint256","internalType":"uint256"}],"stateMutability":"nonpayable"},{"type":"function","name":"isApproved","inputs":[{"name":"user","type":"address","internalType":"address"},{"name":"operator","type":"address","internalType":"address"}],"outputs":[{"name":"","type":"bool","internalType":"bool"}],"stateMutability":"view"},{"type":"function","name":"liquidate","inputs":[{"name":"liquidateAccount","type":"address","internalType":"address"},{"name":"vault","type":"address","internalType":"address"},{"name":"sharesToLiquidate","type":"uint256","internalType":"uint256"},{"name":"debtToRepay","type":"uint256","internalType":"uint256"}],"outputs":[{"name":"sharesToLiquidator","type":"uint256","internalType":"uint256"}],"stateMutability":"nonpayable"},{"type":"function","name":"marketParams","inputs":[{"name":"vault","type":"address","internalType":"address"}],"outputs":[{"name":"","type":"tuple","internalType":"struct MarketParams","components":[{"name":"loanToken","type":"address","internalType":"address"},{"name":"collateralToken","type":"address","internalType":"address"},{"name":"oracle","type":"address","internalType":"address"},{"name":"irm","type":"address","internalType":"address"},{"name":"lltv","type":"uint256","internalType":"uint256"}]}],"stateMutability":"view"},{"type":"function","name":"migratePosition","inputs":[{"name":"onBehalf","type":"address","internalType":"address"},{"name":"vault","type":"address","internalType":"address"},{"name":"migrateFrom","type":"address","internalType":"address"}],"outputs":[],"stateMutability":"nonpayable"},{"type":"function","name":"onMorphoFlashLoan","inputs":[{"name":"assets","type":"uint256","internalType":"uint256"},{"name":"data","type":"bytes","internalType":"bytes"}],"outputs":[],"stateMutability":"nonpayable"},{"type":"function","name":"onMorphoLiquidate","inputs":[{"name":"repaidAssets","type":"uint256","internalType":"uint256"},{"name":"data","type":"bytes","internalType":"bytes"}],"outputs":[],"stateMutability":"nonpayable"},{"type":"function","name":"onMorphoRepay","inputs":[{"name":"assetToRepay","type":"uint256","internalType":"uint256"},{"name":"data","type":"bytes","internalType":"bytes"}],"outputs":[],"stateMutability":"nonpayable"},{"type":"function","name":"setApproval","inputs":[{"name":"operator","type":"address","internalType":"address"},{"name":"approved","type":"bool","internalType":"bool"}],"outputs":[],"stateMutability":"nonpayable"},{"type":"error","name":"CannotEnterPosition","inputs":[]},{"type":"error","name":"CannotExitPositionWithinCooldownPeriod","inputs":[]},{"type":"error","name":"CannotForceWithdraw","inputs":[{"name":"account","type":"address","internalType":"address"}]},{"type":"error","name":"CannotLiquidateZeroShares","inputs":[]},{"type":"error","name":"InsufficientAssetsForRepayment","inputs":[{"name":"assetsToRepay","type":"uint256","internalType":"uint256"},{"name":"assetsWithdrawn","type":"uint256","internalType":"uint256"}]},{"type":"error","name":"InsufficientSharesHeld","inputs":[]},{"type":"error","name":"InvalidLendingRouter","inputs":[]},{"type":"error","name":"LiquidatorHasPosition","inputs":[]},{"type":"error","name":"NoExistingPosition","inputs":[]},{"type":"error","name":"NotAuthorized","inputs":[{"name":"operator","type":"address","internalType":"address"},{"name":"user","type":"address","internalType":"address"}]},{"type":"error","name":"SafeERC20FailedOperation","inputs":[{"name":"token","type":"address","internalType":"address"}]}],"bytecode":{"object":"0x6080604052348015600e575f5ffd5b50613fda8061001c5f395ff3fe608060405260043610610123575f3560e01c8063c139cc98116100a1578063db9b717011610071578063ef5cfb8c11610057578063ef5cfb8c14610339578063ef9a0b6114610365578063f7d6f6da14610384575f5ffd5b8063db9b7170146102fb578063de13c6171461031a575f5ffd5b8063c139cc9814610272578063cf7ea19614610291578063da35e283146102b0578063da3a855f146102dc575f5ffd5b80634fb2a320116100f6578063a389783e116100dc578063a389783e14610205578063c0b5de7614610234578063c134257414610253575f5ffd5b80634fb2a320146101ac578063576f5c40146101cb575f5ffd5b806305b4591c146101275780631e164b631461014857806331f570721461015b5780634a7f87e81461017a575b5f5ffd5b348015610132575f5ffd5b50610146610141366004612e67565b610397565b005b610146610156366004612f07565b6104a8565b348015610166575f5ffd5b50610146610175366004612e67565b61057f565b348015610185575f5ffd5b50610199610194366004612f7e565b610722565b6040519081526020015b60405180910390f35b3480156101b7575f5ffd5b506101466101c6366004612fdf565b6107de565b3480156101d6575f5ffd5b506101ea6101e536600461301d565b610989565b604080519384526020840192909252908201526060016101a3565b348015610210575f5ffd5b5061022461021f36600461301d565b610cc2565b60405190151581526020016101a3565b34801561023f575f5ffd5b5061019961024e366004612f7e565b610cef565b34801561025e575f5ffd5b5061019961026d366004613054565b610da0565b34801561027d575f5ffd5b5061014661028c366004613097565b6110b2565b34801561029c575f5ffd5b506101466102ab366004612e67565b6112e8565b3480156102bb575f5ffd5b506102cf6102ca3660046130df565b61135e565b6040516101a39190613101565b3480156102e7575f5ffd5b506101996102f636600461301d565b611470565b348015610306575f5ffd5b5061014661031536600461316b565b611543565b348015610325575f5ffd5b50610146610334366004613197565b6115e9565b348015610344575f5ffd5b506103586103533660046130df565b6116df565b6040516101a3919061320e565b348015610370575f5ffd5b5061014661037f366004613250565b611781565b6101466103923660046132d9565b6119e2565b3373bbbbbbbbbb9cc5e90e3b3af64bdaf62c37eeffcb146103b6575f5ffd5b5f8080808080806103c9888a018a613449565b96509650965096509650965096505f6103f2888888856103e9575f6103eb565b885b8888611abf565b905081156104125761040f6001600160a01b03871686308e611c1c565b50895b8a81101561045b576040517f1a389e7b000000000000000000000000000000000000000000000000000000008152600481018c9052602481018290526044015b60405180910390fd5b8a81036104726001600160a01b0388168783611c9e565b61049a6001600160a01b03881673bbbbbbbbbb9cc5e90e3b3af64bdaf62c37eeffcb8e611cd4565b505050505050505050505050565b8484336001600160a01b038316148015906104ca57506104c88233610cc2565b155b15610512576040517fc55ddc970000000000000000000000000000000000000000000000000000000081523360048201526001600160a01b0383166024820152604401610452565b61051d868585611cfb565b6105288787876110b2565b806001600160a01b031663b35cb45d6040518163ffffffff1660e01b81526004015f604051808303815f87803b158015610560575f5ffd5b505af1158015610572573d5f5f3e3d5ffd5b5050505050505050505050565b3373bbbbbbbbbb9cc5e90e3b3af64bdaf62c37eeffcb1461059e575f5ffd5b5f80808080806105b0878901896134e9565b9550955095509550955095506105d5868686868d6105ce91906135a3565b8686611eac565b506040805160a080820183525f8083526020808401829052838501829052606080850183905260809485018390526001600160a01b038b811680855260018085528886208951808b018b5281548516815291015481860190815289519788018a528d8416885294870182905286890191909152511690840152519282019290925291517f50d8cd4b00000000000000000000000000000000000000000000000000000000815273bbbbbbbbbb9cc5e90e3b3af64bdaf62c37eeffcb916350d8cd4b916106ac9185918f91908d9030906004016135b6565b60408051808303815f875af11580156106c7573d5f5f3e3d5ffd5b505050506040513d601f19601f820116820180604052508101906106eb9190613641565b5061071690506001600160a01b03861673bbbbbbbbbb9cc5e90e3b3af64bdaf62c37eeffcb8c611cd4565b50505050505050505050565b5f5f5f61072f8787610989565b9250509150808211610778576040517f535afa470000000000000000000000000000000000000000000000000000000081526001600160a01b0388166004820152602401610452565b61078486888787612134565b9250856001600160a01b031663b35cb45d6040518163ffffffff1660e01b81526004015f604051808303815f87803b1580156107be575f5ffd5b505af11580156107d0573d5f5f3e3d5ffd5b505050505050949350505050565b336001600160a01b0316735615deb798bb3e4dfa0139dfa1b3d433cc23b72f6001600160a01b031663c4d5608a6040518163ffffffff1660e01b8152600401602060405180830381865afa158015610838573d5f5f3e3d5ffd5b505050506040513d601f19601f8201168201806040525081019061085c9190613663565b6001600160a01b03161461086e575f5ffd5b6001600160a01b038381165f908152600160205260409020541615610891575f5ffd5b6001600160a01b0383165f9081526001602081905260409091200154156108b6575f5ffd5b6040805180820182526001600160a01b03848116825260208083018581528783165f90815260019283905294909420925183547fffffffffffffffffffffffff0000000000000000000000000000000000000000169216919091178255915191015573bbbbbbbbbb9cc5e90e3b3af64bdaf62c37eeffcb638c1358a261093b8561135e565b6040518263ffffffff1660e01b81526004016109579190613101565b5f604051808303815f87803b15801561096e575f5ffd5b505af1158015610980573d5f5f3e3d5ffd5b50505050505050565b5f5f5f5f6109968561135e565b90505f6109a282612206565b6040517f151c1ade00000000000000000000000000000000000000000000000000000000815290915073bbbbbbbbbb9cc5e90e3b3af64bdaf62c37eeffcb9063151c1ade906109f5908590600401613101565b5f604051808303815f87803b158015610a0c575f5ffd5b505af1158015610a1e573d5f5f3e3d5ffd5b50506040517f93c52062000000000000000000000000000000000000000000000000000000008152600481018490526001600160a01b038a1660248201525f925073bbbbbbbbbb9cc5e90e3b3af64bdaf62c37eeffcb91506393c5206290604401606060405180830381865afa158015610a9a573d5f5f3e3d5ffd5b505050506040513d601f19601f82011682018060405250810190610abe919061369b565b6040517f5c60e39a000000000000000000000000000000000000000000000000000000008152600481018490529091505f9073bbbbbbbbbb9cc5e90e3b3af64bdaf62c37eeffcb90635c60e39a9060240160c060405180830381865afa158015610b2a573d5f5f3e3d5ffd5b505050506040513d601f19601f82011682018060405250810190610b4e9190613704565b60208301519091506fffffffffffffffffffffffffffffffff1615610bcd5780606001516fffffffffffffffffffffffffffffffff1681604001516fffffffffffffffffffffffffffffffff1683602001516fffffffffffffffffffffffffffffffff16610bbc91906137af565b610bc691906137c6565b9650610bd1565b5f96505b6040517faea910780000000000000000000000000000000000000000000000000000000081526001600160a01b038a811660048301526ec097ce7bc90715b34b9f100000000091908a169063aea91078906024016020604051808303815f875af1158015610c41573d5f5f3e3d5ffd5b505050506040513d601f19601f82011682018060405250810190610c6591906137fe565b83604001516fffffffffffffffffffffffffffffffff16610c8691906137af565b610c9091906137c6565b9550670de0b6b3a7640000846080015187610cab91906137af565b610cb591906137c6565b9450505050509250925092565b6001600160a01b038083165f908152602081815260408083209385168352929052205460ff165b92915050565b5f8484336001600160a01b03831614801590610d125750610d108233610cc2565b155b15610d5a576040517fc55ddc970000000000000000000000000000000000000000000000000000000081523360048201526001600160a01b0383166024820152604401610452565b610d6686888787612134565b9250806001600160a01b031663b35cb45d6040518163ffffffff1660e01b81526004015f604051808303815f87803b1580156107be575f5ffd5b5f825f03610dda576040517f96efcff800000000000000000000000000000000000000000000000000000000815260040160405180910390fd5b6040517f268b4bae00000000000000000000000000000000000000000000000000000000815233600482018190526001600160a01b0386166024830152905f90735615deb798bb3e4dfa0139dfa1b3d433cc23b72f9063268b4bae906044016040805180830381865afa158015610e53573d5f5f3e3d5ffd5b505050506040513d601f19601f82011682018060405250810190610e779190613815565b80519091506001600160a01b031615610ebc576040517fb11aae4800000000000000000000000000000000000000000000000000000000815260040160405180910390fd5b5f610ec78888611470565b9050805f03610f02576040517f3a513ebe00000000000000000000000000000000000000000000000000000000815260040160405180910390fd5b6040517fcc351ac50000000000000000000000000000000000000000000000000000000081526001600160a01b0384811660048301528981166024830152604482018890526064820183905288169063cc351ac5906084015f604051808303815f87803b158015610f71575f5ffd5b505af1158015610f83573d5f5f3e3d5ffd5b50505050610f9483888a8989612235565b6040517f98dce16d0000000000000000000000000000000000000000000000000000000081526001600160a01b0385811660048301528a8116602483015260448201839052919550908816906398dce16d906064015f604051808303815f87803b158015611000575f5ffd5b505af1158015611012573d5f5f3e3d5ffd5b505050508084036110a7576040517f0ffd849b0000000000000000000000000000000000000000000000000000000081526001600160a01b03808a16600483015288166024820152735615deb798bb3e4dfa0139dfa1b3d433cc23b72f90630ffd849b906044015f604051808303815f87803b158015611090575f5ffd5b505af11580156110a2573d5f5f3e3d5ffd5b505050505b505050949350505050565b8282336001600160a01b038316148015906110d457506110d28233610cc2565b155b1561111c576040517fc55ddc970000000000000000000000000000000000000000000000000000000081523360048201526001600160a01b0383166024820152604401610452565b6040517f46f74dce0000000000000000000000000000000000000000000000000000000081526001600160a01b0384166004820152735615deb798bb3e4dfa0139dfa1b3d433cc23b72f906346f74dce90602401602060405180830381865afa15801561118b573d5f5f3e3d5ffd5b505050506040513d601f19601f820116820180604052508101906111af919061387c565b6111e5576040517f5ea7f17e00000000000000000000000000000000000000000000000000000000815260040160405180910390fd5b6040517f576f5c400000000000000000000000000000000000000000000000000000000081526001600160a01b03868116600483015285811660248301525f919085169063576f5c40906044016060604051808303815f875af115801561124e573d5f5f3e3d5ffd5b505050506040513d601f19601f820116820180604052508101906112729190613897565b5050905061129286865f8460405180602001604052805f8152508961230e565b50806001600160a01b031663b35cb45d6040518163ffffffff1660e01b81526004015f604051808303815f87803b1580156112cb575f5ffd5b505af11580156112dd573d5f5f3e3d5ffd5b505050505050505050565b3373bbbbbbbbbb9cc5e90e3b3af64bdaf62c37eeffcb14611307575f5ffd5b5f806113158385018561301d565b909250905061132f6001600160a01b038316823088611c1c565b6113576001600160a01b03831673bbbbbbbbbb9cc5e90e3b3af64bdaf62c37eeffcb87611cd4565b5050505050565b6040805160a0810182525f80825260208201819052918101829052606081018290526080810191909152610ce982836001600160a01b03166338d52e0f6040518163ffffffff1660e01b8152600401602060405180830381865afa1580156113c8573d5f5f3e3d5ffd5b505050506040513d601f19601f820116820180604052508101906113ec9190613663565b6040805160a080820183525f8083526020808401829052838501829052606080850183905260809485018390526001600160a01b039788168084526001808452938790208751808901895281548b16815294015484840190815287519586018852978916855291840182905294830152519094169184019190915290519082015290565b5f5f61147b8361135e565b905073bbbbbbbbbb9cc5e90e3b3af64bdaf62c37eeffcb6393c520626114a083612206565b6040517fffffffff0000000000000000000000000000000000000000000000000000000060e084901b16815260048101919091526001600160a01b0387166024820152604401606060405180830381865afa158015611501573d5f5f3e3d5ffd5b505050506040513d601f19601f82011682018060405250810190611525919061369b565b604001516fffffffffffffffffffffffffffffffff16949350505050565b336001600160a01b03831603611596576040517fc55ddc970000000000000000000000000000000000000000000000000000000081523360048201526001600160a01b0383166024820152604401610452565b335f908152602081815260408083206001600160a01b039590951683529390529190912080547fffffffffffffffffffffffffffffffffffffffffffffffffffffffffffffff0016911515919091179055565b8585336001600160a01b0383161480159061160b57506116098233610cc2565b155b15611653576040517fc55ddc970000000000000000000000000000000000000000000000000000000081523360048201526001600160a01b0383166024820152604401610452565b6116958888888888888080601f0160208091040260200160405190810160405280939291908181526020018383808284375f920182905250925061230e915050565b806001600160a01b031663b35cb45d6040518163ffffffff1660e01b81526004015f604051808303815f87803b1580156116cd575f5ffd5b505af115801561049a573d5f5f3e3d5ffd5b6060816001600160a01b03166366ab3b72336116fb3386611470565b6040517fffffffff0000000000000000000000000000000000000000000000000000000060e085901b1681526001600160a01b03909216600483015260248201526044015f604051808303815f875af115801561175a573d5f5f3e3d5ffd5b505050506040513d5f823e601f3d908101601f19168201604052610ce991908101906138c2565b8686336001600160a01b038316148015906117a357506117a18233610cc2565b155b156117eb576040517fc55ddc970000000000000000000000000000000000000000000000000000000081523360048201526001600160a01b0383166024820152604401610452565b6117f589896124e5565b5f886001600160a01b03166338d52e0f6040518163ffffffff1660e01b8152600401602060405180830381865afa158015611832573d5f5f3e3d5ffd5b505050506040513d601f19601f820116820180604052508101906118569190613663565b905085156118735761186e8a8a838b8b8b8b8b612618565b6118ee565b5f61187d89612850565b611887575f611889565b885b90505f6118cf8c8c85858d8c8c8080601f0160208091040260200160405190810160405280939291908181526020018383808284375f92019190915250611abf92505050565b905080156118eb576118eb6001600160a01b0384168b83611c9e565b50505b6118f88a8a611470565b5f03611988576040517f0ffd849b0000000000000000000000000000000000000000000000000000000081526001600160a01b03808c1660048301528a166024820152735615deb798bb3e4dfa0139dfa1b3d433cc23b72f90630ffd849b906044015f604051808303815f87803b158015611971575f5ffd5b505af1158015611983573d5f5f3e3d5ffd5b505050505b50806001600160a01b031663b35cb45d6040518163ffffffff1660e01b81526004015f604051808303815f87803b1580156119c1575f5ffd5b505af11580156119d3573d5f5f3e3d5ffd5b50505050505050505050505050565b8787336001600160a01b03831614801590611a045750611a028233610cc2565b155b15611a4c576040517fc55ddc970000000000000000000000000000000000000000000000000000000081523360048201526001600160a01b0383166024820152604401610452565b611a57898585611cfb565b611a658a8a8a8a8a8a6115e9565b806001600160a01b031663b35cb45d6040518163ffffffff1660e01b81526004015f604051808303815f87803b158015611a9d575f5ffd5b505af1158015611aaf573d5f5f3e3d5ffd5b5050505050505050505050505050565b5f806001600160a01b03851615611ad65784611ad8565b875b90505f611ae58989611470565b6040517f98476c2b0000000000000000000000000000000000000000000000000000000081526001600160a01b038481166004830152602482018890528b81166044830152919250908916906398476c2b906064015f604051808303815f87803b158015611b51575f5ffd5b505af1158015611b63573d5f5f3e3d5ffd5b50505050611b748888878c866128ee565b6001600160a01b038616611c10576040517f0db734d40000000000000000000000000000000000000000000000000000000081526001600160a01b03891690630db734d490611bcd908c90899086908a9060040161399c565b6020604051808303815f875af1158015611be9573d5f5f3e3d5ffd5b505050506040513d601f19601f82011682018060405250810190611c0d91906137fe565b92505b50509695505050505050565b6040516001600160a01b038481166024830152838116604483015260648201839052611c989186918216906323b872dd906084015b604051602081830303815290604052915060e01b6020820180517bffffffffffffffffffffffffffffffffffffffffffffffffffffffff83818316178352505050506129f0565b50505050565b6040516001600160a01b03838116602483015260448201839052611ccf91859182169063a9059cbb90606401611c51565b505050565b6001600160a01b038316611ce757505050565b611ccf6001600160a01b0384168383612a75565b5f611d058461135e565b90505f805b83811015611e425773fd32fa2ca22c76dd6e550706ad913fc6ce91c75d63833947fd868684818110611d3e57611d3e6139c9565b9050602002810190611d5091906139f6565b60200135878785818110611d6657611d666139c9565b9050602002810190611d7891906139f6565b611d869060208101906130df565b888886818110611d9857611d986139c9565b9050602002810190611daa91906139f6565b611db8906040810190613a32565b886040518663ffffffff1660e01b8152600401611dd89493929190613a95565b5f604051808303818588803b158015611def575f5ffd5b505af1158015611e01573d5f5f3e3d5ffd5b5050505050848482818110611e1857611e186139c9565b9050602002810190611e2a91906139f6565b611e389060200135836135a3565b9150600101611d0a565b50803414611357576040517f08c379a000000000000000000000000000000000000000000000000000000000815260206004820152601760248201527f496e73756666696369656e742066656520616d6f756e740000000000000000006044820152606401610452565b5f6001600160a01b0382161561200857611ed06001600160a01b0386168386611cd4565b6040517fda3a855f0000000000000000000000000000000000000000000000000000000081526001600160a01b038881166004830152878116602483015283169063da3a855f90604401602060405180830381865afa158015611f35573d5f5f3e3d5ffd5b505050506040513d601f19601f82011682018060405250810190611f5991906137fe565b604080516020810182525f815290517fef9a0b610000000000000000000000000000000000000000000000000000000081529192506001600160a01b0384169163ef9a0b6191611fd6918b918b91309188917fffffffffffffffffffffffffffffffffffffffffffffffffffffffffffffffff9190600401613bd5565b5f604051808303815f87803b158015611fed575f5ffd5b505af1158015611fff573d5f5f3e3d5ffd5b5050505061211e565b6040517f095ea7b30000000000000000000000000000000000000000000000000000000081526001600160a01b0387811660048301526024820186905286169063095ea7b3906044016020604051808303815f875af115801561206d573d5f5f3e3d5ffd5b505050506040513d601f19601f82011682018060405250810190612091919061387c565b506040517f127af7f90000000000000000000000000000000000000000000000000000000081526001600160a01b0387169063127af7f9906120db9087908b908890600401613c2c565b6020604051808303815f875af11580156120f7573d5f5f3e3d5ffd5b505050506040513d601f19601f8201168201806040525081019061211b91906137fe565b90505b61212a87878784612b32565b9695505050505050565b5f5f6121408587611470565b9050805f0361217b576040517f3a513ebe00000000000000000000000000000000000000000000000000000000815260040160405180910390fd5b6040517f57831a040000000000000000000000000000000000000000000000000000000081526001600160a01b038716906357831a04906121c6908890859089908990600401613c7c565b6020604051808303815f875af11580156121e2573d5f5f3e3d5ffd5b505050506040513d601f19601f8201168201806040525081019061212a91906137fe565b5f816040516020016122189190613101565b604051602081830303815290604052805190602001209050919050565b5f5f6122408661135e565b905073bbbbbbbbbb9cc5e90e3b3af64bdaf62c37eeffcb6001600160a01b031663d8eabcb882878787865f01518d6040516020016122949291906001600160a01b0392831681529116602082015260400190565b6040516020818303038152906040526040518663ffffffff1660e01b81526004016122c3959493929190613ca4565b60408051808303815f875af11580156122de573d5f5f3e3d5ffd5b505050506040513d601f19601f820116820180604052508101906123029190613641565b50979650505050505050565b5f856001600160a01b03166338d52e0f6040518163ffffffff1660e01b8152600401602060405180830381865afa15801561234b573d5f5f3e3d5ffd5b505050506040513d601f19601f8201168201806040525081019061236f9190613663565b6040517f70a082310000000000000000000000000000000000000000000000000000000081526001600160a01b0389811660048301529192505f918816906370a0823190602401602060405180830381865afa1580156123d1573d5f5f3e3d5ffd5b505050506040513d601f19601f820116820180604052508101906123f591906137fe565b111561242d576040517f1bb8b5b100000000000000000000000000000000000000000000000000000000815260040160405180910390fd5b8415612448576124486001600160a01b038216333088611c1c565b83156124625761245d87878388888888612d46565b612472565b612470878783888787611eac565b505b6040517f7e1245980000000000000000000000000000000000000000000000000000000081526001600160a01b03808916600483015287166024820152735615deb798bb3e4dfa0139dfa1b3d433cc23b72f90637e124598906044015f604051808303815f87803b158015610560575f5ffd5b6040517f268b4bae0000000000000000000000000000000000000000000000000000000081526001600160a01b038084166004830152821660248201525f90735615deb798bb3e4dfa0139dfa1b3d433cc23b72f9063268b4bae906044016040805180830381865afa15801561255d573d5f5f3e3d5ffd5b505050506040513d601f19601f820116820180604052508101906125819190613815565b80519091506001600160a01b031630146125c7576040517f55a378b100000000000000000000000000000000000000000000000000000000815260040160405180910390fd5b61012c816020015163ffffffff16426125e09190613d30565b1015611ccf576040517f61de72ab00000000000000000000000000000000000000000000000000000000815260040160405180910390fd5b5f6126a288886040805160a080820183525f8083526020808401829052838501829052606080850183905260809485018390526001600160a01b039788168084526001808452938790208751808901895281548b16815294015484840190815287519586018852978916855291840182905294830152519094169184019190915290519082015290565b90505f7fffffffffffffffffffffffffffffffffffffffffffffffffffffffffffffffff85036127905773bbbbbbbbbb9cc5e90e3b3af64bdaf62c37eeffcb6393c520626126ef84612206565b6040517fffffffff0000000000000000000000000000000000000000000000000000000060e084901b16815260048101919091526001600160a01b038d166024820152604401606060405180830381865afa158015612750573d5f5f3e3d5ffd5b505050506040513d601f19601f82011682018060405250810190612774919061369b565b602001516fffffffffffffffffffffffffffffffff1690505f94505b5f8a8a8a8a8a89896127a18f612850565b6040516020016127b8989796959493929190613d43565b604051602081830303815290604052905073bbbbbbbbbb9cc5e90e3b3af64bdaf62c37eeffcb6001600160a01b03166320b76e818488858f866040518663ffffffff1660e01b8152600401612811959493929190613daf565b60408051808303815f875af115801561282c573d5f5f3e3d5ffd5b505050506040513d601f19601f820116820180604052508101906119d39190613641565b5f6001600160a01b03821633148015610ce957506040517f46f74dce000000000000000000000000000000000000000000000000000000008152336004820152735615deb798bb3e4dfa0139dfa1b3d433cc23b72f906346f74dce90602401602060405180830381865afa1580156128ca573d5f5f3e3d5ffd5b505050506040513d601f19601f82011682018060405250810190610ce9919061387c565b6040805160a080820183525f8083526020808401829052838501829052606080850183905260809485018390526001600160a01b038b81168085526001808552948890208851808a018a52815484168152950154858501908152885196870189528c8316875293860181905285880152925190921691830191909152519181019190915290517f8720316d00000000000000000000000000000000000000000000000000000000815273bbbbbbbbbb9cc5e90e3b3af64bdaf62c37eeffcb90638720316d906129c7908490889088908890600401613e3b565b5f604051808303815f87803b1580156129de575f5ffd5b505af1158015610716573d5f5f3e3d5ffd5b5f5f60205f8451602086015f885af180612a0f576040513d5f823e3d81fd5b50505f513d91508115612a26578060011415612a33565b6001600160a01b0384163b155b15611c98576040517f5274afe70000000000000000000000000000000000000000000000000000000081526001600160a01b0385166004820152602401610452565b604080516001600160a01b038416602482015260448082018490528251808303909101815260649091019091526020810180517bffffffffffffffffffffffffffffffffffffffffffffffffffffffff167f095ea7b300000000000000000000000000000000000000000000000000000000179052612af48482612ddd565b611c98576040516001600160a01b0384811660248301525f6044830152612b2891869182169063095ea7b390606401611c51565b611c9884826129f0565b6040805160a080820183525f8083526020808401829052838501829052606080850183905260809485018390526001600160a01b0389811680855260018085528886208951808b018b5281548516815291015481860190815289519788018a528b841688529487018290528689018290525182169286019290925291519484019490945284517f98476c2b00000000000000000000000000000000000000000000000000000000815273bbbbbbbbbb9cc5e90e3b3af64bdaf62c37eeffcb6004820152602481018790529089166044820152935191936398476c2b926064808301939282900301818387803b158015612c29575f5ffd5b505af1158015612c3b573d5f5f3e3d5ffd5b50506040517f095ea7b300000000000000000000000000000000000000000000000000000000815273bbbbbbbbbb9cc5e90e3b3af64bdaf62c37eeffcb6004820152602481018590526001600160a01b038716925063095ea7b391506044016020604051808303815f875af1158015612cb6573d5f5f3e3d5ffd5b505050506040513d601f19601f82011682018060405250810190612cda919061387c565b506040517f238d657900000000000000000000000000000000000000000000000000000000815273bbbbbbbbbb9cc5e90e3b3af64bdaf62c37eeffcb9063238d657990612d2f90849086908a90600401613ebe565b5f604051808303815f87803b1580156112cb575f5ffd5b5f878787878686604051602001612d6296959493929190613f45565b60408051601f19818403018152908290527fe0232b42000000000000000000000000000000000000000000000000000000008252915073bbbbbbbbbb9cc5e90e3b3af64bdaf62c37eeffcb9063e0232b4290612dc690899088908690600401613fa6565b5f604051808303815f87803b1580156116cd575f5ffd5b5f5f5f5f60205f8651602088015f8a5af192503d91505f51905082801561212a57508115612e0e578060011461212a565b50505050506001600160a01b03163b151590565b5f5f83601f840112612e32575f5ffd5b50813567ffffffffffffffff811115612e49575f5ffd5b602083019150836020828501011115612e60575f5ffd5b9250929050565b5f5f5f60408486031215612e79575f5ffd5b83359250602084013567ffffffffffffffff811115612e96575f5ffd5b612ea286828701612e22565b9497909650939450505050565b6001600160a01b0381168114612ec3575f5ffd5b50565b5f5f83601f840112612ed6575f5ffd5b50813567ffffffffffffffff811115612eed575f5ffd5b6020830191508360208260051b8501011115612e60575f5ffd5b5f5f5f5f5f60808688031215612f1b575f5ffd5b8535612f2681612eaf565b94506020860135612f3681612eaf565b93506040860135612f4681612eaf565b9250606086013567ffffffffffffffff811115612f61575f5ffd5b612f6d88828901612ec6565b969995985093965092949392505050565b5f5f5f5f60608587031215612f91575f5ffd5b8435612f9c81612eaf565b93506020850135612fac81612eaf565b9250604085013567ffffffffffffffff811115612fc7575f5ffd5b612fd387828801612e22565b95989497509550505050565b5f5f5f60608486031215612ff1575f5ffd5b8335612ffc81612eaf565b9250602084013561300c81612eaf565b929592945050506040919091013590565b5f5f6040838503121561302e575f5ffd5b823561303981612eaf565b9150602083013561304981612eaf565b809150509250929050565b5f5f5f5f60808587031215613067575f5ffd5b843561307281612eaf565b9350602085013561308281612eaf565b93969395505050506040820135916060013590565b5f5f5f606084860312156130a9575f5ffd5b83356130b481612eaf565b925060208401356130c481612eaf565b915060408401356130d481612eaf565b809150509250925092565b5f602082840312156130ef575f5ffd5b81356130fa81612eaf565b9392505050565b60a08101610ce982846001600160a01b0381511682526001600160a01b0360208201511660208301526001600160a01b0360408201511660408301526001600160a01b036060820151166060830152608081015160808301525050565b8015158114612ec3575f5ffd5b5f5f6040838503121561317c575f5ffd5b823561318781612eaf565b915060208301356130498161315e565b5f5f5f5f5f5f60a087890312156131ac575f5ffd5b86356131b781612eaf565b955060208701356131c781612eaf565b94506040870135935060608701359250608087013567ffffffffffffffff8111156131f0575f5ffd5b6131fc89828a01612e22565b979a9699509497509295939492505050565b602080825282518282018190525f918401906040840190835b81811015613245578351835260209384019390920191600101613227565b509095945050505050565b5f5f5f5f5f5f5f60c0888a031215613266575f5ffd5b873561327181612eaf565b9650602088013561328181612eaf565b9550604088013561329181612eaf565b9450606088013593506080880135925060a088013567ffffffffffffffff8111156132ba575f5ffd5b6132c68a828b01612e22565b989b979a50959850939692959293505050565b5f5f5f5f5f5f5f5f60c0898b0312156132f0575f5ffd5b88356132fb81612eaf565b9750602089013561330b81612eaf565b96506040890135955060608901359450608089013567ffffffffffffffff811115613334575f5ffd5b6133408b828c01612e22565b90955093505060a089013567ffffffffffffffff81111561335f575f5ffd5b61336b8b828c01612ec6565b999c989b5096995094979396929594505050565b7f4e487b71000000000000000000000000000000000000000000000000000000005f52604160045260245ffd5b604051601f8201601f1916810167ffffffffffffffff811182821017156133d5576133d561337f565b604052919050565b5f82601f8301126133ec575f5ffd5b813567ffffffffffffffff8111156134065761340661337f565b6134196020601f19601f840116016133ac565b81815284602083860101111561342d575f5ffd5b816020850160208301375f918101602001919091529392505050565b5f5f5f5f5f5f5f60e0888a03121561345f575f5ffd5b873561346a81612eaf565b9650602088013561347a81612eaf565b9550604088013561348a81612eaf565b9450606088013561349a81612eaf565b93506080880135925060a088013567ffffffffffffffff8111156134bc575f5ffd5b6134c88a828b016133dd565b92505060c08801356134d98161315e565b8091505092959891949750929550565b5f5f5f5f5f5f60c087890312156134fe575f5ffd5b863561350981612eaf565b9550602087013561351981612eaf565b9450604087013561352981612eaf565b935060608701359250608087013567ffffffffffffffff81111561354b575f5ffd5b61355789828a016133dd565b92505060a087013561356881612eaf565b809150509295509295509295565b7f4e487b71000000000000000000000000000000000000000000000000000000005f52601160045260245ffd5b80820180821115610ce957610ce9613576565b610120810161361482886001600160a01b0381511682526001600160a01b0360208201511660208301526001600160a01b0360408201511660408301526001600160a01b036060820151166060830152608081015160808301525050565b60a082019590955260c08101939093526001600160a01b0391821660e08401521661010090910152919050565b5f5f60408385031215613652575f5ffd5b505080516020909101519092909150565b5f60208284031215613673575f5ffd5b81516130fa81612eaf565b6fffffffffffffffffffffffffffffffff81168114612ec3575f5ffd5b5f60608284031280156136ac575f5ffd5b506040516060810167ffffffffffffffff811182821017156136d0576136d061337f565b6040528251815260208301516136e58161367e565b602082015260408301516136f88161367e565b60408201529392505050565b5f60c0828403128015613715575f5ffd5b5060405160c0810167ffffffffffffffff811182821017156137395761373961337f565b60405282516137478161367e565b815260208301516137578161367e565b6020820152604083015161376a8161367e565b6040820152606083015161377d8161367e565b606082015260808301516137908161367e565b608082015260a08301516137a38161367e565b60a08201529392505050565b8082028115828204841417610ce957610ce9613576565b5f826137f9577f4e487b71000000000000000000000000000000000000000000000000000000005f52601260045260245ffd5b500490565b5f6020828403121561380e575f5ffd5b5051919050565b5f6040828403128015613826575f5ffd5b506040805190810167ffffffffffffffff8111828210171561384a5761384a61337f565b604052825161385881612eaf565b8152602083015163ffffffff81168114613870575f5ffd5b60208201529392505050565b5f6020828403121561388c575f5ffd5b81516130fa8161315e565b5f5f5f606084860312156138a9575f5ffd5b5050815160208301516040909301519094929350919050565b5f602082840312156138d2575f5ffd5b815167ffffffffffffffff8111156138e8575f5ffd5b8201601f810184136138f8575f5ffd5b805167ffffffffffffffff8111156139125761391261337f565b8060051b613922602082016133ac565b9182526020818401810192908101908784111561393d575f5ffd5b6020850194505b8385101561396357845180835260209586019590935090910190613944565b979650505050505050565b5f81518084528060208401602086015e5f602082860101526020601f19601f83011685010191505092915050565b6001600160a01b0385168152836020820152826040820152608060608201525f61212a608083018461396e565b7f4e487b71000000000000000000000000000000000000000000000000000000005f52603260045260245ffd5b5f82357fffffffffffffffffffffffffffffffffffffffffffffffffffffffffffffffa1833603018112613a28575f5ffd5b9190910192915050565b5f5f83357fffffffffffffffffffffffffffffffffffffffffffffffffffffffffffffffe1843603018112613a65575f5ffd5b83018035915067ffffffffffffffff821115613a7f575f5ffd5b602001915060c081023603821315612e60575f5ffd5b6001600160a01b038516815260e06020820181905281018390525f846101008301825b86811015613b6b578235613acb81612eaf565b6001600160a01b031682526020830135613ae481612eaf565b6001600160a01b031660208301526040830135613b0081612eaf565b6001600160a01b031660408301526060830135613b1c81612eaf565b6001600160a01b031660608301526080838101359083015260a0830135613b428161367e565b6fffffffffffffffffffffffffffffffff1660a083015260c09283019290910190600101613ab8565b509150613bcc905060408301846001600160a01b0381511682526001600160a01b0360208201511660208301526001600160a01b0360408201511660408301526001600160a01b036060820151166060830152608081015160808301525050565b95945050505050565b6001600160a01b03871681526001600160a01b03861660208201526001600160a01b038516604082015283606082015282608082015260c060a08201525f613c2060c083018461396e565b98975050505050505050565b8381526001600160a01b0383166020820152606060408201525f613bcc606083018461396e565b81835281816020850137505f602082840101525f6020601f19601f840116840101905092915050565b6001600160a01b0385168152836020820152606060408201525f61212a606083018486613c53565b613cfd81876001600160a01b0381511682526001600160a01b0360208201511660208301526001600160a01b0360408201511660408301526001600160a01b036060820151166060830152608081015160808301525050565b6001600160a01b03851660a08201528360c08201528260e08201526101206101008201525f61396361012083018461396e565b81810381811115610ce957610ce9613576565b6001600160a01b03891681526001600160a01b03881660208201526001600160a01b03871660408201526001600160a01b038616606082015284608082015260e060a08201525f613d9860e083018587613c53565b905082151560c08301529998505050505050505050565b613e0881876001600160a01b0381511682526001600160a01b0360208201511660208301526001600160a01b0360408201511660408301526001600160a01b036060820151166060830152608081015160808301525050565b8460a08201528360c08201526001600160a01b03831660e08201526101206101008201525f61396361012083018461396e565b6101008101613e9982876001600160a01b0381511682526001600160a01b0360208201511660208301526001600160a01b0360408201511660408301526001600160a01b036060820151166060830152608081015160808301525050565b60a08201949094526001600160a01b0392831660c0820152911660e090910152919050565b613f1781856001600160a01b0381511682526001600160a01b0360208201511660208301526001600160a01b0360408201511660408301526001600160a01b036060820151166060830152608081015160808301525050565b60a08101929092526001600160a01b031660c082015261010060e082018190525f9082015261012001919050565b6001600160a01b03871681526001600160a01b03861660208201526001600160a01b038516604082015283606082015260c060808201525f613f8a60c083018561396e565b90506001600160a01b03831660a0830152979650505050505050565b6001600160a01b0384168152826020820152606060408201525f613bcc606083018461396e56fea164736f6c634300081d000a","linkReferences":{}},"methodIdentifiers":{"allocateAndEnterPosition(address,address,uint256,uint256,bytes,(address,uint256,((address,address,address,address,uint256),uint128)[])[])":"f7d6f6da","allocateAndMigratePosition(address,address,address,(address,uint256,((address,address,address,address,uint256),uint128)[])[])":"1e164b63","balanceOfCollateral(address,address)":"da3a855f","claimRewards(address)":"ef5cfb8c","enterPosition(address,address,uint256,uint256,bytes)":"de13c617","exitPosition(address,address,address,uint256,uint256,bytes)":"ef9a0b61","forceWithdraw(address,address,bytes)":"4a7f87e8","healthFactor(address,address)":"576f5c40","initializeMarket(address,address,uint256)":"4fb2a320","initiateWithdraw(address,address,bytes)":"c0b5de76","isApproved(address,address)":"a389783e","liquidate(address,address,uint256,uint256)":"c1342574","marketParams(address)":"da35e283","migratePosition(address,address,address)":"c139cc98","onMorphoFlashLoan(uint256,bytes)":"31f57072","onMorphoLiquidate(uint256,bytes)":"cf7ea196","onMorphoRepay(uint256,bytes)":"05b4591c","setApproval(address,bool)":"db9b7170"},"id":84}