{"abi":[{"type":"constructor","inputs":[{"name":"_asset","type":"address","internalType":"address"},{"name":"_yieldToken","type":"address","internalType":"address"},{"name":"_feeRate","type":"uint256","internalType":"uint256"}],"stateMutability":"nonpayable"},{"type":"function","name":"allowTransfer","inputs":[{"name":"to","type":"address","internalType":"address"},{"name":"amount","type":"uint256","internalType":"uint256"},{"name":"currentAccount","type":"address","internalType":"address"}],"outputs":[],"stateMutability":"nonpayable"},{"type":"function","name":"allowance","inputs":[{"name":"owner","type":"address","internalType":"address"},{"name":"spender","type":"address","internalType":"address"}],"outputs":[{"name":"","type":"uint256","internalType":"uint256"}],"stateMutability":"view"},{"type":"function","name":"approve","inputs":[{"name":"spender","type":"address","internalType":"address"},{"name":"value","type":"uint256","internalType":"uint256"}],"outputs":[{"name":"","type":"bool","internalType":"bool"}],"stateMutability":"nonpayable"},{"type":"function","name":"asset","inputs":[],"outputs":[{"name":"","type":"address","internalType":"address"}],"stateMutability":"view"},{"type":"function","name":"balanceOf","inputs":[{"name":"account","type":"address","internalType":"address"}],"outputs":[{"name":"","type":"uint256","internalType":"uint256"}],"stateMutability":"view"},{"type":"function","name":"burnShares","inputs":[{"name":"sharesOwner","type":"address","internalType":"address"},{"name":"sharesToBurn","type":"uint256","internalType":"uint256"},{"name":"sharesHeld","type":"uint256","internalType":"uint256"},{"name":"redeemData","type":"bytes","internalType":"bytes"}],"outputs":[{"name":"assetsWithdrawn","type":"uint256","internalType":"uint256"}],"stateMutability":"nonpayable"},{"type":"function","name":"clearCurrentAccount","inputs":[],"outputs":[],"stateMutability":"nonpayable"},{"type":"function","name":"collectFees","inputs":[],"outputs":[],"stateMutability":"nonpayable"},{"type":"function","name":"convertSharesToYieldToken","inputs":[{"name":"shares","type":"uint256","internalType":"uint256"}],"outputs":[{"name":"","type":"uint256","internalType":"uint256"}],"stateMutability":"view"},{"type":"function","name":"convertToAssets","inputs":[{"name":"shares","type":"uint256","internalType":"uint256"}],"outputs":[{"name":"","type":"uint256","internalType":"uint256"}],"stateMutability":"view"},{"type":"function","name":"convertToShares","inputs":[{"name":"assets","type":"uint256","internalType":"uint256"}],"outputs":[{"name":"","type":"uint256","internalType":"uint256"}],"stateMutability":"view"},{"type":"function","name":"convertYieldTokenToAsset","inputs":[],"outputs":[{"name":"","type":"uint256","internalType":"uint256"}],"stateMutability":"view"},{"type":"function","name":"convertYieldTokenToShares","inputs":[{"name":"yieldTokens","type":"uint256","internalType":"uint256"}],"outputs":[{"name":"","type":"uint256","internalType":"uint256"}],"stateMutability":"view"},{"type":"function","name":"decimals","inputs":[],"outputs":[{"name":"","type":"uint8","internalType":"uint8"}],"stateMutability":"view"},{"type":"function","name":"effectiveSupply","inputs":[],"outputs":[{"name":"","type":"uint256","internalType":"uint256"}],"stateMutability":"view"},{"type":"function","name":"feeRate","inputs":[],"outputs":[{"name":"","type":"uint256","internalType":"uint256"}],"stateMutability":"view"},{"type":"function","name":"feesAccrued","inputs":[],"outputs":[{"name":"feesAccruedInYieldToken","type":"uint256","internalType":"uint256"}],"stateMutability":"view"},{"type":"function","name":"initialize","inputs":[{"name":"data","type":"bytes","internalType":"bytes"}],"outputs":[],"stateMutability":"nonpayable"},{"type":"function","name":"initiateWithdraw","inputs":[{"name":"account","type":"address","internalType":"address"},{"name":"sharesHeld","type":"uint256","internalType":"uint256"},{"name":"data","type":"bytes","internalType":"bytes"}],"outputs":[{"name":"requestId","type":"uint256","internalType":"uint256"}],"stateMutability":"nonpayable"},{"type":"function","name":"initiateWithdrawNative","inputs":[{"name":"data","type":"bytes","internalType":"bytes"}],"outputs":[{"name":"requestId","type":"uint256","internalType":"uint256"}],"stateMutability":"nonpayable"},{"type":"function","name":"mintShares","inputs":[{"name":"assetAmount","type":"uint256","internalType":"uint256"},{"name":"receiver","type":"address","internalType":"address"},{"name":"depositData","type":"bytes","internalType":"bytes"}],"outputs":[{"name":"sharesMinted","type":"uint256","internalType":"uint256"}],"stateMutability":"nonpayable"},{"type":"function","name":"name","inputs":[],"outputs":[{"name":"","type":"string","internalType":"string"}],"stateMutability":"view"},{"type":"function","name":"postLiquidation","inputs":[{"name":"liquidator","type":"address","internalType":"address"},{"name":"liquidateAccount","type":"address","internalType":"address"},{"name":"sharesToLiquidator","type":"uint256","internalType":"uint256"}],"outputs":[],"stateMutability":"nonpayable"},{"type":"function","name":"preLiquidation","inputs":[{"name":"liquidator","type":"address","internalType":"address"},{"name":"liquidateAccount","type":"address","internalType":"address"},{"name":"sharesToLiquidate","type":"uint256","internalType":"uint256"},{"name":"accountSharesHeld","type":"uint256","internalType":"uint256"}],"outputs":[],"stateMutability":"nonpayable"},{"type":"function","name":"price","inputs":[],"outputs":[{"name":"","type":"uint256","internalType":"uint256"}],"stateMutability":"view"},{"type":"function","name":"price","inputs":[{"name":"borrower","type":"address","internalType":"address"}],"outputs":[{"name":"","type":"uint256","internalType":"uint256"}],"stateMutability":"nonpayable"},{"type":"function","name":"redeemNative","inputs":[{"name":"sharesToRedeem","type":"uint256","internalType":"uint256"},{"name":"redeemData","type":"bytes","internalType":"bytes"}],"outputs":[{"name":"assetsWithdrawn","type":"uint256","internalType":"uint256"}],"stateMutability":"nonpayable"},{"type":"function","name":"symbol","inputs":[],"outputs":[{"name":"","type":"string","internalType":"string"}],"stateMutability":"view"},{"type":"function","name":"totalAssets","inputs":[],"outputs":[{"name":"","type":"uint256","internalType":"uint256"}],"stateMutability":"view"},{"type":"function","name":"totalSupply","inputs":[],"outputs":[{"name":"","type":"uint256","internalType":"uint256"}],"stateMutability":"view"},{"type":"function","name":"transfer","inputs":[{"name":"to","type":"address","internalType":"address"},{"name":"value","type":"uint256","internalType":"uint256"}],"outputs":[{"name":"","type":"bool","internalType":"bool"}],"stateMutability":"nonpayable"},{"type":"function","name":"transferFrom","inputs":[{"name":"from","type":"address","internalType":"address"},{"name":"to","type":"address","internalType":"address"},{"name":"value","type":"uint256","internalType":"uint256"}],"outputs":[{"name":"","type":"bool","internalType":"bool"}],"stateMutability":"nonpayable"},{"type":"function","name":"yieldToken","inputs":[],"outputs":[{"name":"","type":"address","internalType":"address"}],"stateMutability":"view"},{"type":"event","name":"Approval","inputs":[{"name":"owner","type":"address","indexed":true,"internalType":"address"},{"name":"spender","type":"address","indexed":true,"internalType":"address"},{"name":"value","type":"uint256","indexed":false,"internalType":"uint256"}],"anonymous":false},{"type":"event","name":"Transfer","inputs":[{"name":"from","type":"address","indexed":true,"internalType":"address"},{"name":"to","type":"address","indexed":true,"internalType":"address"},{"name":"value","type":"uint256","indexed":false,"internalType":"uint256"}],"anonymous":false},{"type":"event","name":"VaultCreated","inputs":[{"name":"vault","type":"address","indexed":true,"internalType":"address"}],"anonymous":false},{"type":"error","name":"CannotEnterPosition","inputs":[]},{"type":"error","name":"CurrentAccountAlreadySet","inputs":[]},{"type":"error","name":"ERC20InsufficientAllowance","inputs":[{"name":"spender","type":"address","internalType":"address"},{"name":"allowance","type":"uint256","internalType":"uint256"},{"name":"needed","type":"uint256","internalType":"uint256"}]},{"type":"error","name":"ERC20InsufficientBalance","inputs":[{"name":"sender","type":"address","internalType":"address"},{"name":"balance","type":"uint256","internalType":"uint256"},{"name":"needed","type":"uint256","internalType":"uint256"}]},{"type":"error","name":"ERC20InvalidApprover","inputs":[{"name":"approver","type":"address","internalType":"address"}]},{"type":"error","name":"ERC20InvalidReceiver","inputs":[{"name":"receiver","type":"address","internalType":"address"}]},{"type":"error","name":"ERC20InvalidSender","inputs":[{"name":"sender","type":"address","internalType":"address"}]},{"type":"error","name":"ERC20InvalidSpender","inputs":[{"name":"spender","type":"address","internalType":"address"}]},{"type":"error","name":"InsufficientSharesHeld","inputs":[]},{"type":"error","name":"InvalidInitialization","inputs":[]},{"type":"error","name":"ReentrancyGuardReentrantCall","inputs":[]},{"type":"error","name":"SafeERC20FailedOperation","inputs":[{"name":"token","type":"address","internalType":"address"}]},{"type":"error","name":"Unauthorized","inputs":[{"name":"caller","type":"address","internalType":"address"}]},{"type":"error","name":"UnauthorizedLendingMarketTransfer","inputs":[{"name":"from","type":"address","internalType":"address"},{"name":"to","type":"address","internalType":"address"},{"name":"value","type":"uint256","internalType":"uint256"}]},{"type":"error","name":"WithdrawRequestNotFinalized","inputs":[{"name":"requestId","type":"uint256","internalType":"uint256"}]}],"bytecode":{"object":"0x610160604052348015610010575f5ffd5b506040516144be3803806144be83398101604081905261002f916102f8565b6040516324a1f5eb60e21b81526001600160a01b0383166004820152839083908390735615deb798bb3e4dfa0139dfa1b3d433cc23b72f90639287d7ac90602401602060405180830381865afa15801561008b573d5f5f3e3d5ffd5b505050506040513d601f19601f820116820180604052508101906100af9190610338565b838383856001600160a01b031663313ce5676040518163ffffffff1660e01b8152600401602060405180830381865afa1580156100ee573d5f5f3e3d5ffd5b505050506040513d601f19601f82011682018060405250810190610112919061035a565b60408051602080820183525f8083528351918201909352828152825460ff19166001179092559060046101458382610412565b5060056101528282610412565b50505060c08290526001600160a01b03808516608052831660a05260ff81166101005261017e8461022b565b60ff1661012052505050506001600160a01b03811660e08190526101a2575f610204565b60e0516001600160a01b0316633ed3a0546040518163ffffffff1660e01b8152600401602060405180830381865afa1580156101e0573d5f5f3e3d5ffd5b505050506040513d601f19601f820116820180604052508101906102049190610338565b6001600160a01b03166101405250504660011491506102239050575f5ffd5b5050506104cc565b5f6001600160a01b038216158061025e57506001600160a01b03821673eeeeeeeeeeeeeeeeeeeeeeeeeeeeeeeeeeeeeeee145b6102c757816001600160a01b031663313ce5676040518163ffffffff1660e01b8152600401602060405180830381865afa15801561029e573d5f5f3e3d5ffd5b505050506040513d601f19601f820116820180604052508101906102c2919061035a565b6102ca565b60125b905060128160ff1611156102dc575f5ffd5b919050565b6001600160a01b03811681146102f5575f5ffd5b50565b5f5f5f6060848603121561030a575f5ffd5b8351610315816102e1565b6020850151909350610326816102e1565b80925050604084015190509250925092565b5f60208284031215610348575f5ffd5b8151610353816102e1565b9392505050565b5f6020828403121561036a575f5ffd5b815160ff81168114610353575f5ffd5b634e487b7160e01b5f52604160045260245ffd5b600181811c908216806103a257607f821691505b6020821081036103c057634e487b7160e01b5f52602260045260245ffd5b50919050565b601f82111561040d57805f5260205f20601f840160051c810160208510156103eb5750805b601f840160051c820191505b8181101561040a575f81556001016103f7565b50505b505050565b81516001600160401b0381111561042b5761042b61037a565b61043f81610439845461038e565b846103c6565b6020601f821160018114610471575f831561045a5750848201515b5f19600385901b1c1916600184901b17845561040a565b5f84815260208120601f198516915b828110156104a05787850151825560209485019460019092019101610480565b50848210156104bd57868401515f19600387901b60f8161c191681555b50505050600190811b01905550565b60805160a05160c05160e051610100516101205161014051613ec86105f65f395f81816125cb015261265e01525f81816113de015261199e01525f818161141f015261196901525f81816106070152818161187b015281816118ea015281816120c001528181612134015281816124200152818161251d01528181612818015281816128e201528181612afe0152612bcc01525f81816103b40152611fa501525f81816103750152818161172601528181611e820152818161220d01528181612b2f0152612f3501525f81816102e6015281816105d50152818161087501528181610a930152818161174e0152818161184801528181611aa501528181611b02015281816125f50152818161268d015281816128470152818161290f0152612f640152613ec85ff3fe608060405234801561000f575f5ffd5b5060043610610201575f3560e01c80638fc4709311610123578063aea91078116100b8578063c879657211610088578063dd62ed3e1161006e578063dd62ed3e14610473578063e0b4327d146104ab578063eb9b1912146104b3575f5ffd5b8063c879657214610458578063cc351ac514610460575f5ffd5b8063aea9107814610417578063b35cb45d1461042a578063b905a4ff14610432578063c6e6f59214610445575f5ffd5b806398476c2b116100f357806398476c2b146103d657806398dce16d146103e9578063a035b1fe146103fc578063a9059cbb14610404575f5ffd5b80638fc470931461039757806394db05951461039f57806395d89b41146103a7578063978bbdb9146103af575f5ffd5b806323b872dd11610199578063439fab9111610169578063439fab911461032057806357831a041461033557806370a082311461034857806376d5de8514610370575f5ffd5b806323b872dd146102ac57806325565931146102bf578063313ce567146102d257806338d52e0f146102e1575f5ffd5b80630db734d4116101d45780630db734d41461026b578063127af7f91461027e578063131b822d1461029157806318160ddd146102a4575f5ffd5b806301e1d1141461020557806306fdde031461022057806307a2d13a14610235578063095ea7b314610248575b5f5ffd5b61020d6104c6565b6040519081526020015b60405180910390f35b6102286104d8565b60405161021791906132e9565b61020d6102433660046132fb565b610568565b61025b610256366004613329565b610692565b6040519015158152602001610217565b61020d610279366004613391565b6106a9565b61020d61028c3660046133f6565b6108d0565b61020d61029f36600461358c565b610b79565b60035461020d565b61025b6102ba3660046135be565b610b94565b61020d6102cd3660046132fb565b610bb9565b60405160128152602001610217565b6103087f000000000000000000000000000000000000000000000000000000000000000081565b6040516001600160a01b039091168152602001610217565b61033361032e3660046135fc565b610bfc565b005b61020d61034336600461363b565b610c70565b61020d61035636600461367b565b6001600160a01b03165f9081526001602052604090205490565b6103087f000000000000000000000000000000000000000000000000000000000000000081565b61020d610e46565b61020d610e6b565b610228610e81565b61020d7f000000000000000000000000000000000000000000000000000000000000000081565b6103336103e4366004613696565b610e90565b6103336103f73660046135be565b61104f565b61020d6111c6565b61025b610412366004613329565b6111ee565b61020d61042536600461367b565b6111fb565b610333611286565b61020d6104403660046132fb565b6113a8565b61020d6104533660046132fb565b6113d7565b61033361146e565b61033361046e3660046136d5565b6114fb565b61020d610481366004613718565b6001600160a01b039182165f90815260026020908152604080832093909416825291909152205490565b61020d6116f6565b61020d6104c136600461374f565b6117db565b5f6104d361024360035490565b905090565b6060600680546104e790613793565b80601f016020809104026020016040519081016040528092919081815260200182805461051390613793565b801561055e5780601f106105355761010080835404028352916020019161055e565b820191905f5260205f20905b81548152906001019060200180831161054157829003601f168201915b5050505050905090565b5f805c6001600160a01b03161580159061059057506105906001600160a01b035f5c16611878565b15610683576040517f32df6ff20000000000000000000000000000000000000000000000000000000081523060048201526001600160a01b035f805c821660248401527f000000000000000000000000000000000000000000000000000000000000000082166044840152606483018590529182917f000000000000000000000000000000000000000000000000000000000000000016906332df6ff2906084016040805180830381865afa15801561064b573d5f5f3e3d5ffd5b505050506040513d601f19601f8201168201806040525081019061066f91906137f8565b915091508115610680579392505050565b50505b61068c82611953565b92915050565b5f3361069f8185856119ea565b5060019392505050565b6040517f46f74dce0000000000000000000000000000000000000000000000000000000081523360048201525f90735615deb798bb3e4dfa0139dfa1b3d433cc23b72f906346f74dce90602401602060405180830381865afa158015610711573d5f5f3e3d5ffd5b505050506040513d601f19601f820116820180604052508101906107359190613822565b15155f03610776576040517f8e4a23d60000000000000000000000000000000000000000000000000000000081523360048201526024015b60405180910390fd5b336001805c73ffffffffffffffffffffffffffffffffffffffff19168217905d50855f5c6001600160a01b03166107d557805f805c73ffffffffffffffffffffffffffffffffffffffff19166001600160a01b03831617905d5061081c565b5f5c6001600160a01b039081169082161461081c576040517f391fea3c00000000000000000000000000000000000000000000000000000000815260040160405180910390fd5b6108246119fc565b610866868686868080601f0160208091040260200160405190810160405280939291908181526020018383808284375f920191909152508d9250611a84915050565b91506108a16001600160a01b037f000000000000000000000000000000000000000000000000000000000000000081169060015c1684611b4a565b6108a9611bbe565b506001805c73ffffffffffffffffffffffffffffffffffffffff1916905d95945050505050565b6040517f46f74dce0000000000000000000000000000000000000000000000000000000081523360048201525f90735615deb798bb3e4dfa0139dfa1b3d433cc23b72f906346f74dce90602401602060405180830381865afa158015610938573d5f5f3e3d5ffd5b505050506040513d601f19601f8201168201806040525081019061095c9190613822565b15155f03610998576040517f8e4a23d600000000000000000000000000000000000000000000000000000000815233600482015260240161076d565b336001805c73ffffffffffffffffffffffffffffffffffffffff19168217905d50835f5c6001600160a01b03166109f757805f805c73ffffffffffffffffffffffffffffffffffffffff19166001600160a01b03831617905d50610a3e565b5f5c6001600160a01b0390811690821614610a3e576040517f391fea3c00000000000000000000000000000000000000000000000000000000815260040160405180910390fd5b610a466119fc565b610a4f85611878565b15610a86576040517f1bb8b5b100000000000000000000000000000000000000000000000000000000815260040160405180910390fd5b610ac06001600160a01b037f000000000000000000000000000000000000000000000000000000000000000081169060015c163089611be8565b610b018685858080601f0160208091040260200160405190810160405280939291908181526020018383808284375f920191909152508a9250611c27915050565b915060015c6001600160a01b03166002805c73ffffffffffffffffffffffffffffffffffffffff19168217905d50818060035d50610b4b856001600160a01b0360015c1684611cb9565b610b53611bbe565b506001805c73ffffffffffffffffffffffffffffffffffffffff1916905d949350505050565b335f81815260016020526040812054909161068c9184611d48565b5f33610ba1858285611dc3565b610bac858585611cb9565b60019150505b9392505050565b5f6001610bc4610e6b565b610bcc611e52565b610bd69190613868565b610be0919061387b565b610be8610e46565b610bf2908461388e565b61068c91906138a5565b5f5460ff1615610c38576040517ff92ee8a900000000000000000000000000000000000000000000000000000000815260040160405180910390fd5b5f80547fffffffffffffffffffffffffffffffffffffffffffffffffffffffffffffff00166001179055610c6c8282611ef3565b5050565b6040517f46f74dce0000000000000000000000000000000000000000000000000000000081523360048201525f90735615deb798bb3e4dfa0139dfa1b3d433cc23b72f906346f74dce90602401602060405180830381865afa158015610cd8573d5f5f3e3d5ffd5b505050506040513d601f19601f82011682018060405250810190610cfc9190613822565b15155f03610d38576040517f8e4a23d600000000000000000000000000000000000000000000000000000000815233600482015260240161076d565b336001805c73ffffffffffffffffffffffffffffffffffffffff19168217905d50845f5c6001600160a01b0316610d9757805f805c73ffffffffffffffffffffffffffffffffffffffff19166001600160a01b03831617905d50610dde565b5f5c6001600160a01b0390811690821614610dde576040517f391fea3c00000000000000000000000000000000000000000000000000000000815260040160405180910390fd5b610e1e868686868080601f0160208091040260200160405190810160405280939291908181526020018383808284375f92019190915250611d4892505050565b9150506001805c73ffffffffffffffffffffffffffffffffffffffff1916905d949350505050565b5f620f4240600a54610e5760035490565b610e619190613868565b6104d3919061387b565b5f610e74611f80565b6009546104d3919061387b565b6060600780546104e790613793565b805f5c6001600160a01b0316610ece57805f805c73ffffffffffffffffffffffffffffffffffffffff19166001600160a01b03831617905d50610f15565b5f5c6001600160a01b0390811690821614610f15576040517f391fea3c00000000000000000000000000000000000000000000000000000000815260040160405180910390fd5b6040517f46f74dce000000000000000000000000000000000000000000000000000000008152336004820152735615deb798bb3e4dfa0139dfa1b3d433cc23b72f906346f74dce90602401602060405180830381865afa158015610f7b573d5f5f3e3d5ffd5b505050506040513d601f19601f82011682018060405250810190610f9f9190613822565b15155f03610fdb576040517f8e4a23d600000000000000000000000000000000000000000000000000000000815233600482015260240161076d565b336001805c73ffffffffffffffffffffffffffffffffffffffff19168217905d50836002805c73ffffffffffffffffffffffffffffffffffffffff19166001600160a01b03831617905d50828060035d506001805c73ffffffffffffffffffffffffffffffffffffffff1916905d50505050565b6040517f46f74dce000000000000000000000000000000000000000000000000000000008152336004820152735615deb798bb3e4dfa0139dfa1b3d433cc23b72f906346f74dce90602401602060405180830381865afa1580156110b5573d5f5f3e3d5ffd5b505050506040513d601f19601f820116820180604052508101906110d99190613822565b15155f03611115576040517f8e4a23d600000000000000000000000000000000000000000000000000000000815233600482015260240161076d565b336001805c73ffffffffffffffffffffffffffffffffffffffff19168217905d50826002805c73ffffffffffffffffffffffffffffffffffffffff19166001600160a01b03831617905d50808060035d5061117c6001600160a01b0360015c168483611cb9565b6111878383836120bd565b505f805c73ffffffffffffffffffffffffffffffffffffffff1916905d6001805c73ffffffffffffffffffffffffffffffffffffffff1916905d505050565b5f6111df610243620f4240670de0b6b3a764000061388e565b6104d39064e8d4a5100061388e565b5f3361069f818585611cb9565b5f6001600160a01b03815c81811691849190821673ffffffffffffffffffffffffffffffffffffffff1990911617835d505f611245610243620f4240670de0b6b3a764000061388e565b6112549064e8d4a5100061388e565b9050815f805c73ffffffffffffffffffffffffffffffffffffffff19166001600160a01b03831617905d509392505050565b6040517f46f74dce000000000000000000000000000000000000000000000000000000008152336004820152735615deb798bb3e4dfa0139dfa1b3d433cc23b72f906346f74dce90602401602060405180830381865afa1580156112ec573d5f5f3e3d5ffd5b505050506040513d601f19601f820116820180604052508101906113109190613822565b15155f0361134c576040517f8e4a23d600000000000000000000000000000000000000000000000000000000815233600482015260240161076d565b336001805c73ffffffffffffffffffffffffffffffffffffffff19168217905d505f805c73ffffffffffffffffffffffffffffffffffffffff1916905d6001805c73ffffffffffffffffffffffffffffffffffffffff1916905d565b5f6113b1610e46565b60016113bb610e6b565b6113c3611e52565b6113cd9190613868565b610be8919061387b565b5f806114047f0000000000000000000000000000000000000000000000000000000000000000600a6139c0565b61140c6116f6565b611416919061388e565b611444601260ff7f00000000000000000000000000000000000000000000000000000000000000001661387b565b61144f90600a6139ce565b611459908561388e565b61146391906138a5565b9050610bb281610bb9565b61147661219e565b6114f5735615deb798bb3e4dfa0139dfa1b3d433cc23b72f6001600160a01b031663b3f006746040518163ffffffff1660e01b8152600401602060405180830381865afa1580156114c9573d5f5f3e3d5ffd5b505050506040513d601f19601f820116820180604052508101906114ed91906139d9565b600954612200565b5f600955565b6040517f46f74dce000000000000000000000000000000000000000000000000000000008152336004820152735615deb798bb3e4dfa0139dfa1b3d433cc23b72f906346f74dce90602401602060405180830381865afa158015611561573d5f5f3e3d5ffd5b505050506040513d601f19601f820116820180604052508101906115859190613822565b15155f036115c1576040517f8e4a23d600000000000000000000000000000000000000000000000000000000815233600482015260240161076d565b336001805c73ffffffffffffffffffffffffffffffffffffffff19168217905d50825f805c73ffffffffffffffffffffffffffffffffffffffff19166001600160a01b03831617905d5061161484611878565b1561164b576040517f1bb8b5b100000000000000000000000000000000000000000000000000000000815260040160405180910390fd5b61165483611878565b801561167557506001600160a01b0384165f90815260016020526040812054115b156116ac576040517f1bb8b5b100000000000000000000000000000000000000000000000000000000815260040160405180910390fd5b336002805c73ffffffffffffffffffffffffffffffffffffffff19168217905d50818060035d506001805c73ffffffffffffffffffffffffffffffffffffffff1916905d50505050565b6040517f4c2d8eff0000000000000000000000000000000000000000000000000000000081526001600160a01b037f0000000000000000000000000000000000000000000000000000000000000000811660048301527f00000000000000000000000000000000000000000000000000000000000000001660248201525f90819073594734c7e06c3d483466adbce401c6bd269746c890634c2d8eff906044016040805180830381865afa1580156117b0573d5f5f3e3d5ffd5b505050506040513d601f19601f820116820180604052508101906117d491906139f4565b5092915050565b5f6117e46119fc565b335f908152600160205260408120549081900361182d576040517f3a513ebe00000000000000000000000000000000000000000000000000000000815260040160405180910390fd5b61183984828533611a84565b915061186f6001600160a01b037f0000000000000000000000000000000000000000000000000000000000000000163384611b4a565b5061068c611bbe565b5f7f00000000000000000000000000000000000000000000000000000000000000006001600160a01b03161580159061068c57506040517f37504d9c0000000000000000000000000000000000000000000000000000000081523060048201526001600160a01b0383811660248301527f000000000000000000000000000000000000000000000000000000000000000016906337504d9c90604401602060405180830381865afa15801561192f573d5f5f3e3d5ffd5b505050506040513d601f19601f8201168201806040525081019061068c9190613822565b5f5f61195e836113a8565b905061198e601260ff7f00000000000000000000000000000000000000000000000000000000000000001661387b565b61199990600a6139ce565b6119c47f0000000000000000000000000000000000000000000000000000000000000000600a6139c0565b6119cc6116f6565b6119d6908461388e565b6119e0919061388e565b610bb291906138a5565b6119f78383836001612234565b505050565b7f9b779b17422d0df92223018b32b4d1fa46e071723d6817e2486d003becc55f005c15611a55576040517f3ee5aeb500000000000000000000000000000000000000000000000000000000815260040160405180910390fd5b611a8260017f9b779b17422d0df92223018b32b4d1fa46e071723d6817e2486d003becc55f005b90612338565b565b5f845f03611a9357505f611b42565b5f611a9d83611878565b90505f611ac97f000000000000000000000000000000000000000000000000000000000000000061233f565b9050611ad361219e565b611adf878584886123da565b8115611afc5786600a5f828254611af69190613868565b90915550505b5f611b267f000000000000000000000000000000000000000000000000000000000000000061233f565b9050611b328282613868565b9350611b3e8589612716565b5050505b949350505050565b6040516001600160a01b038381166024830152604482018390526119f791859182169063a9059cbb906064015b604051602081830303815290604052915060e01b6020820180517bffffffffffffffffffffffffffffffffffffffffffffffffffffffff8381831617835250505050612763565b611a825f7f9b779b17422d0df92223018b32b4d1fa46e071723d6817e2486d003becc55f00611a7c565b6040516001600160a01b038481166024830152838116604483015260648201839052611c219186918216906323b872dd90608401611b77565b50505050565b5f835f03611c3657505f610bb2565b611c3e61219e565b5f611c47611e52565b9050611c548584866127e8565b5f81611c5e611e52565b611c689190613868565b90506001611c74610e6b565b611c7e9084613868565b611c88919061387b565b611c90610e46565b611c9a908361388e565b611ca491906138a5565b9250611cb0848461297b565b50509392505050565b6001600160a01b038316611cfb576040517f96c6fd1e0000000000000000000000000000000000000000000000000000000081525f600482015260240161076d565b6001600160a01b038216611d3d576040517fec442f050000000000000000000000000000000000000000000000000000000081525f600482015260240161076d565b6119f78383836129c4565b5f825f03611d82576040517f3a513ebe00000000000000000000000000000000000000000000000000000000815260040160405180910390fd5b611d8a61219e565b5f611d94846113a8565b9050611da285828686612ace565b915083600a5f828254611db5919061387b565b909155509195945050505050565b6001600160a01b038381165f908152600260209081526040808320938616835292905220545f19811015611c215781811015611e44576040517ffb8f41b20000000000000000000000000000000000000000000000000000000081526001600160a01b0384166004820152602481018290526044810183905260640161076d565b611c2184848484035f612234565b6040517f70a082310000000000000000000000000000000000000000000000000000000081523060048201525f907f00000000000000000000000000000000000000000000000000000000000000006001600160a01b0316906370a0823190602401602060405180830381865afa158015611ecf573d5f5f3e3d5ffd5b505050506040513d601f19601f820116820180604052508101906104d39190613a16565b5f80611f0183850185613a2d565b90925090506006611f128382613ac7565b506007611f1f8282613ac7565b50600880547fffffffffffffffffffffffffffffffffffffffffffffffffffffffff00000000164263ffffffff1617905560405130907f2e49a5810fda2439a23771848b4acec786b0a64d4de3d124ac57fc8739c38875905f90a250505050565b6008545f908190611f979063ffffffff1642613868565b90505f6301e13380611fc9837f000000000000000000000000000000000000000000000000000000000000000061388e565b611fd391906138a5565b9050805f03611fe4575f9250505090565b5f600954611ff0611e52565b611ffa9190613868565b90505f670de0b6b3a764000061201181600661388e565b61201b919061388e565b83612026818061388e565b612030919061388e565b61203a91906138a5565b61204d670de0b6b3a7640000600261388e565b612057858061388e565b61206191906138a5565b61207385670de0b6b3a764000061387b565b61207d919061387b565b612087919061387b565b90505f8161209d670de0b6b3a76400008561388e565b6120a791906138a5565b90506120b38184613868565b9550505050505090565b5f7f00000000000000000000000000000000000000000000000000000000000000006001600160a01b031615610bb2576040517f838f705b0000000000000000000000000000000000000000000000000000000081526001600160a01b0384811660048301528581166024830152604482018490527f0000000000000000000000000000000000000000000000000000000000000000169063838f705b906064016020604051808303815f875af115801561217a573d5f5f3e3d5ffd5b505050506040513d601f19601f82011682018060405250810190611b429190613822565b6008544263ffffffff909116036121b157565b6121b9611f80565b60095f8282546121c9919061387b565b9091555050600880547fffffffffffffffffffffffffffffffffffffffffffffffffffffffff00000000164263ffffffff16179055565b610c6c6001600160a01b037f0000000000000000000000000000000000000000000000000000000000000000168383611b4a565b6001600160a01b038416612276576040517fe602df050000000000000000000000000000000000000000000000000000000081525f600482015260240161076d565b6001600160a01b0383166122b8576040517f94280d620000000000000000000000000000000000000000000000000000000081525f600482015260240161076d565b6001600160a01b038085165f9081526002602090815260408083209387168352929052208290558015611c2157826001600160a01b0316846001600160a01b03167f8c5be1e5ebec7d5bd14f71427d1e84f3dd0314c0f7b2291e5b200ac8c7c3b9258460405161232a91815260200190565b60405180910390a350505050565b80825d5050565b5f6001600160a01b038216156123d3576040517f70a082310000000000000000000000000000000000000000000000000000000081523060048201526001600160a01b038316906370a0823190602401602060405180830381865afa1580156123aa573d5f5f3e3d5ffd5b505050506040513d601f19601f820116820180604052508101906123ce9190613a16565b61068c565b4792915050565b81156126f8576040517fafbf911a0000000000000000000000000000000000000000000000000000000081523060048201526001600160a01b0384811660248301525f917f00000000000000000000000000000000000000000000000000000000000000009091169063afbf911a9060440160c060405180830381865afa158015612467573d5f5f3e3d5ffd5b505050506040513d601f19601f8201168201806040525081019061248b9190613bbe565b5090505f81604001516effffffffffffffffffffffffffffff168683602001516effffffffffffffffffffffffffffff166124c6919061388e565b6124d091906138a5565b6040517fed020beb0000000000000000000000000000000000000000000000000000000081526001600160a01b03878116600483015260248201839052604482018990529192505f9182917f00000000000000000000000000000000000000000000000000000000000000009091169063ed020beb9060640160408051808303815f875af1158015612564573d5f5f3e3d5ffd5b505050506040513d601f19601f820116820180604052508101906125889190613c80565b91509150806125c95783516040517f4ccb7bc2000000000000000000000000000000000000000000000000000000008152600481019190915260240161076d565b7f00000000000000000000000000000000000000000000000000000000000000006001600160a01b03167f00000000000000000000000000000000000000000000000000000000000000006001600160a01b0316146126ef575f858060200190518101906126379190613caa565b90505f6040518060e001604052805f600481111561265757612657613d76565b81526020017f00000000000000000000000000000000000000000000000000000000000000006001600160a01b031681526020017f00000000000000000000000000000000000000000000000000000000000000006001600160a01b0316815260200185815260200183602001518152602001428152602001836040015181525090506126ea81835f015160ff16612c50565b505050505b50505050611c21565b5f612702856113a8565b905061270e8183612ef8565b505050505050565b6001600160a01b038216612758576040517f96c6fd1e0000000000000000000000000000000000000000000000000000000081525f600482015260240161076d565b610c6c825f836129c4565b5f5f60205f8451602086015f885af180612782576040513d5f823e3d81fd5b50505f513d915081156127995780600114156127a6565b6001600160a01b0384163b155b15611c21576040517f5274afe70000000000000000000000000000000000000000000000000000000081526001600160a01b038516600482015260240161076d565b6040517f095ea7b30000000000000000000000000000000000000000000000000000000081526001600160a01b037f000000000000000000000000000000000000000000000000000000000000000081166004830152602482018590527f0000000000000000000000000000000000000000000000000000000000000000169063095ea7b3906044016020604051808303815f875af115801561288d573d5f5f3e3d5ffd5b505050506040513d601f19601f820116820180604052508101906128b19190613822565b506040517fe7c35c3c0000000000000000000000000000000000000000000000000000000081526001600160a01b037f0000000000000000000000000000000000000000000000000000000000000000169063e7c35c3c9061293b907f00000000000000000000000000000000000000000000000000000000000000009087908690600401613da3565b6020604051808303815f875af1158015612957573d5f5f3e3d5ffd5b505050506040513d601f19601f82011682018060405250810190611c219190613a16565b6001600160a01b0382166129bd576040517fec442f050000000000000000000000000000000000000000000000000000000081525f600482015260240161076d565b610c6c5f83835b6001600160a01b038316158015906129e457506001600160a01b03821615155b15612ac35760025c6001600160a01b0390811690831614612a4b576040517ffd351fc80000000000000000000000000000000000000000000000000000000081526001600160a01b038085166004830152831660248201526044810182905260640161076d565b8060035c1015612aa1576040517ffd351fc80000000000000000000000000000000000000000000000000000000081526001600160a01b038085166004830152831660248201526044810182905260640161076d565b6002805c73ffffffffffffffffffffffffffffffffffffffff1916905d5f60035d5b6119f7838383612fcb565b6040517f095ea7b30000000000000000000000000000000000000000000000000000000081526001600160a01b037f000000000000000000000000000000000000000000000000000000000000000081166004830152602482018590525f917f00000000000000000000000000000000000000000000000000000000000000009091169063095ea7b3906044016020604051808303815f875af1158015612b77573d5f5f3e3d5ffd5b505050506040513d601f19601f82011682018060405250810190612b9b9190613822565b506040517f7c86cff50000000000000000000000000000000000000000000000000000000081526001600160a01b037f00000000000000000000000000000000000000000000000000000000000000001690637c86cff590612c07908890889088908890600401613dca565b6020604051808303815f875af1158015612c23573d5f5f3e3d5ffd5b505050506040513d601f19601f82011682018060405250810190612c479190613a16565b95945050505050565b5f80600484516004811115612c6757612c67613d76565b03612dba5760408481015190517f9287d7ac0000000000000000000000000000000000000000000000000000000081526001600160a01b0390911660048201525f90735615deb798bb3e4dfa0139dfa1b3d433cc23b72f90639287d7ac90602401602060405180830381865afa158015612ce3573d5f5f3e3d5ffd5b505050506040513d601f19601f82011682018060405250810190612d0791906139d9565b9050612d2f81866060015187602001516001600160a01b031661310a9092919063ffffffff16565b806001600160a01b031663e7c35c3c866020015187606001518860c001516040518463ffffffff1660e01b8152600401612d6b93929190613da3565b6020604051808303815f875af1158015612d87573d5f5f3e3d5ffd5b505050506040513d601f19601f82011682018060405250810190612dab9190613a16565b91508460600151925050612ef1565b5f73594734c7e06c3d483466adbce401c6bd269746c86001600160a01b031663aaf10f426040518163ffffffff1660e01b8152600401602060405180830381865afa158015612e0b573d5f5f3e3d5ffd5b505050506040513d601f19601f82011682018060405250810190612e2f91906139d9565b90505f612ed382632ba8c23c60e01b8789604051602401612e51929190613df7565b604080517fffffffffffffffffffffffffffffffffffffffffffffffffffffffffffffffe08184030181529190526020810180517bffffffffffffffffffffffffffffffffffffffffffffffffffffffff167fffffffff0000000000000000000000000000000000000000000000000000000090931692909217909152613131565b905080806020019051810190612ee991906139f4565b909450925050505b9250929050565b5f5f82806020019051810190612f0e9190613caa565b90505f6040518060e001604052805f6004811115612f2e57612f2e613d76565b81526020017f00000000000000000000000000000000000000000000000000000000000000006001600160a01b031681526020017f00000000000000000000000000000000000000000000000000000000000000006001600160a01b031681526020018681526020018360200151815260200142815260200183604001518152509050612fc181835f015160ff16612c50565b9695505050505050565b6001600160a01b038316612ff5578060035f828254612fea919061387b565b9091555061307e9050565b6001600160a01b0383165f9081526001602052604090205481811015613060576040517fe450d38c0000000000000000000000000000000000000000000000000000000081526001600160a01b0385166004820152602481018290526044810183905260640161076d565b6001600160a01b0384165f9081526001602052604090209082900390555b6001600160a01b03821661309a576003805482900390556130b8565b6001600160a01b0382165f9081526001602052604090208054820190555b816001600160a01b0316836001600160a01b03167fddf252ad1be2c89b69c2b068fc378daa952ba7f163c4a11628f55a4df523b3ef836040516130fd91815260200190565b60405180910390a3505050565b6001600160a01b03831661311d57505050565b6119f76001600160a01b038416838361319b565b60605f836001600160a01b03168360405161314c9190613ea5565b5f60405180830381855af49150503d805f8114613184576040519150601f19603f3d011682016040523d82523d5f602084013e613189565b606091505b5092509050806117d4573d5f5f3e3d5ffd5b604080516001600160a01b038416602482015260448082018490528251808303909101815260649091019091526020810180517bffffffffffffffffffffffffffffffffffffffffffffffffffffffff167f095ea7b30000000000000000000000000000000000000000000000000000000017905261321a8482613258565b611c21576040516001600160a01b0384811660248301525f604483015261324e91869182169063095ea7b390606401611b77565b611c218482612763565b5f5f5f5f60205f8651602088015f8a5af192503d91505f519050828015612fc1575081156132895780600114612fc1565b50505050506001600160a01b03163b151590565b5f81518084528060208401602086015e5f6020828601015260207fffffffffffffffffffffffffffffffffffffffffffffffffffffffffffffffe0601f83011685010191505092915050565b602081525f610bb2602083018461329d565b5f6020828403121561330b575f5ffd5b5035919050565b6001600160a01b0381168114613326575f5ffd5b50565b5f5f6040838503121561333a575f5ffd5b823561334581613312565b946020939093013593505050565b5f5f83601f840112613363575f5ffd5b50813567ffffffffffffffff81111561337a575f5ffd5b602083019150836020828501011115612ef1575f5ffd5b5f5f5f5f5f608086880312156133a5575f5ffd5b85356133b081613312565b94506020860135935060408601359250606086013567ffffffffffffffff8111156133d9575f5ffd5b6133e588828901613353565b969995985093965092949392505050565b5f5f5f5f60608587031215613409575f5ffd5b84359350602085013561341b81613312565b9250604085013567ffffffffffffffff811115613436575f5ffd5b61344287828801613353565b95989497509550505050565b7f4e487b71000000000000000000000000000000000000000000000000000000005f52604160045260245ffd5b6040516060810167ffffffffffffffff8111828210171561349e5761349e61344e565b60405290565b604051601f82017fffffffffffffffffffffffffffffffffffffffffffffffffffffffffffffffe016810167ffffffffffffffff811182821017156134eb576134eb61344e565b604052919050565b5f67ffffffffffffffff82111561350c5761350c61344e565b50601f017fffffffffffffffffffffffffffffffffffffffffffffffffffffffffffffffe01660200190565b5f82601f830112613547575f5ffd5b8135602083015f61355f61355a846134f3565b6134a4565b9050828152858383011115613572575f5ffd5b828260208301375f92810160200192909252509392505050565b5f6020828403121561359c575f5ffd5b813567ffffffffffffffff8111156135b2575f5ffd5b611b4284828501613538565b5f5f5f606084860312156135d0575f5ffd5b83356135db81613312565b925060208401356135eb81613312565b929592945050506040919091013590565b5f5f6020838503121561360d575f5ffd5b823567ffffffffffffffff811115613623575f5ffd5b61362f85828601613353565b90969095509350505050565b5f5f5f5f6060858703121561364e575f5ffd5b843561365981613312565b935060208501359250604085013567ffffffffffffffff811115613436575f5ffd5b5f6020828403121561368b575f5ffd5b8135610bb281613312565b5f5f5f606084860312156136a8575f5ffd5b83356136b381613312565b92506020840135915060408401356136ca81613312565b809150509250925092565b5f5f5f5f608085870312156136e8575f5ffd5b84356136f381613312565b9350602085013561370381613312565b93969395505050506040820135916060013590565b5f5f60408385031215613729575f5ffd5b823561373481613312565b9150602083013561374481613312565b809150509250929050565b5f5f60408385031215613760575f5ffd5b82359150602083013567ffffffffffffffff81111561377d575f5ffd5b61378985828601613538565b9150509250929050565b600181811c908216806137a757607f821691505b6020821081036137de577f4e487b71000000000000000000000000000000000000000000000000000000005f52602260045260245ffd5b50919050565b805180151581146137f3575f5ffd5b919050565b5f5f60408385031215613809575f5ffd5b613812836137e4565b6020939093015192949293505050565b5f60208284031215613832575f5ffd5b610bb2826137e4565b7f4e487b71000000000000000000000000000000000000000000000000000000005f52601160045260245ffd5b8181038181111561068c5761068c61383b565b8082018082111561068c5761068c61383b565b808202811582820484141761068c5761068c61383b565b5f826138d8577f4e487b71000000000000000000000000000000000000000000000000000000005f52601260045260245ffd5b500490565b6001815b6001841115613918578085048111156138fc576138fc61383b565b600184161561390a57908102905b60019390931c9280026138e1565b935093915050565b5f8261392e5750600161068c565b8161393a57505f61068c565b8160018114613950576002811461395a57613976565b600191505061068c565b60ff84111561396b5761396b61383b565b50506001821b61068c565b5060208310610133831016604e8410600b8410161715613999575081810a61068c565b6139a55f1984846138dd565b805f19048211156139b8576139b861383b565b029392505050565b5f610bb260ff841683613920565b5f610bb28383613920565b5f602082840312156139e9575f5ffd5b8151610bb281613312565b5f5f60408385031215613a05575f5ffd5b505080516020909101519092909150565b5f60208284031215613a26575f5ffd5b5051919050565b5f5f60408385031215613a3e575f5ffd5b823567ffffffffffffffff811115613a54575f5ffd5b613a6085828601613538565b925050602083013567ffffffffffffffff81111561377d575f5ffd5b601f8211156119f757805f5260205f20601f840160051c81016020851015613aa15750805b601f840160051c820191505b81811015613ac0575f8155600101613aad565b5050505050565b815167ffffffffffffffff811115613ae157613ae161344e565b613af581613aef8454613793565b84613a7c565b6020601f821160018114613b27575f8315613b105750848201515b5f19600385901b1c1916600184901b178455613ac0565b5f848152602081207fffffffffffffffffffffffffffffffffffffffffffffffffffffffffffffffe08516915b82811015613b745787850151825560209485019460019092019101613b54565b5084821015613b9157868401515f19600387901b60f8161c191681555b50505050600190811b01905550565b80516effffffffffffffffffffffffffffff811681146137f3575f5ffd5b5f5f82840360c0811215613bd0575f5ffd5b6060811215613bdd575f5ffd5b613be561347b565b84518152613bf560208601613ba0565b6020820152613c0660408601613ba0565b6040820152925060607fffffffffffffffffffffffffffffffffffffffffffffffffffffffffffffffa082011215613c3c575f5ffd5b50613c4561347b565b613c5160608501613ba0565b8152613c5f60808501613ba0565b6020820152613c7060a085016137e4565b6040820152809150509250929050565b5f5f60408385031215613c91575f5ffd5b82519150613ca1602084016137e4565b90509250929050565b5f60208284031215613cba575f5ffd5b815167ffffffffffffffff811115613cd0575f5ffd5b820160608185031215613ce1575f5ffd5b613ce961347b565b815160ff81168114613cf9575f5ffd5b815260208281015190820152604082015167ffffffffffffffff811115613d1e575f5ffd5b80830192505084601f830112613d32575f5ffd5b8151613d4061355a826134f3565b818152866020838601011115613d54575f5ffd5b8160208501602083015e5f918101602001919091526040820152949350505050565b7f4e487b71000000000000000000000000000000000000000000000000000000005f52602160045260245ffd5b6001600160a01b0384168152826020820152606060408201525f612c47606083018461329d565b6001600160a01b0385168152836020820152826040820152608060608201525f612fc1608083018461329d565b61ffff83168152604060208201525f825160058110613e3d577f4e487b71000000000000000000000000000000000000000000000000000000005f52602160045260245ffd5b604083015260208301516001600160a01b03811660608401525060408301516001600160a01b038116608084015250606083015160a0830152608083015160c083015260a083015160e083015260c083015160e0610100840152612c4761012084018261329d565b5f82518060208501845e5f92019182525091905056fea164736f6c634300081d000a","linkReferences":{}},"methodIdentifiers":{"allowTransfer(address,uint256,address)":"98476c2b","allowance(address,address)":"dd62ed3e","approve(address,uint256)":"095ea7b3","asset()":"38d52e0f","balanceOf(address)":"70a08231","burnShares(address,uint256,uint256,bytes)":"0db734d4","clearCurrentAccount()":"b35cb45d","collectFees()":"c8796572","convertSharesToYieldToken(uint256)":"b905a4ff","convertToAssets(uint256)":"07a2d13a","convertToShares(uint256)":"c6e6f592","convertYieldTokenToAsset()":"e0b4327d","convertYieldTokenToShares(uint256)":"25565931","decimals()":"313ce567","effectiveSupply()":"8fc47093","feeRate()":"978bbdb9","feesAccrued()":"94db0595","initialize(bytes)":"439fab91","initiateWithdraw(address,uint256,bytes)":"57831a04","initiateWithdrawNative(bytes)":"131b822d","mintShares(uint256,address,bytes)":"127af7f9","name()":"06fdde03","postLiquidation(address,address,uint256)":"98dce16d","preLiquidation(address,address,uint256,uint256)":"cc351ac5","price()":"a035b1fe","price(address)":"aea91078","redeemNative(uint256,bytes)":"eb9b1912","symbol()":"95d89b41","totalAssets()":"01e1d114","totalSupply()":"18160ddd","transfer(address,uint256)":"a9059cbb","transferFrom(address,address,uint256)":"23b872dd","yieldToken()":"76d5de85"},"id":91}