{"abi":[{"type":"constructor","inputs":[{"name":"_erc20","type":"address","internalType":"address"}],"stateMutability":"nonpayable"},{"type":"function","name":"STAKING_TOKEN","inputs":[],"outputs":[{"name":"","type":"address","internalType":"address"}],"stateMutability":"view"},{"type":"function","name":"WITHDRAW_TOKEN","inputs":[],"outputs":[{"name":"","type":"address","internalType":"address"}],"stateMutability":"view"},{"type":"function","name":"YIELD_TOKEN","inputs":[],"outputs":[{"name":"","type":"address","internalType":"address"}],"stateMutability":"view"},{"type":"function","name":"canFinalizeWithdrawRequest","inputs":[{"name":"","type":"uint256","internalType":"uint256"}],"outputs":[{"name":"","type":"bool","internalType":"bool"}],"stateMutability":"pure"},{"type":"function","name":"finalizeAndRedeemWithdrawRequest","inputs":[{"name":"account","type":"address","internalType":"address"},{"name":"withdrawYieldTokenAmount","type":"uint256","internalType":"uint256"},{"name":"sharesToBurn","type":"uint256","internalType":"uint256"}],"outputs":[{"name":"tokensWithdrawn","type":"uint256","internalType":"uint256"},{"name":"finalized","type":"bool","internalType":"bool"}],"stateMutability":"nonpayable"},{"type":"function","name":"finalizeRequestManual","inputs":[{"name":"vault","type":"address","internalType":"address"},{"name":"account","type":"address","internalType":"address"}],"outputs":[{"name":"tokensWithdrawn","type":"uint256","internalType":"uint256"},{"name":"finalized","type":"bool","internalType":"bool"}],"stateMutability":"nonpayable"},{"type":"function","name":"getWithdrawRequest","inputs":[{"name":"vault","type":"address","internalType":"address"},{"name":"account","type":"address","internalType":"address"}],"outputs":[{"name":"w","type":"tuple","internalType":"struct WithdrawRequest","components":[{"name":"requestId","type":"uint256","internalType":"uint256"},{"name":"yieldTokenAmount","type":"uint120","internalType":"uint120"},{"name":"sharesAmount","type":"uint120","internalType":"uint120"}]},{"name":"s","type":"tuple","internalType":"struct TokenizedWithdrawRequest","components":[{"name":"totalYieldTokenAmount","type":"uint120","internalType":"uint120"},{"name":"totalWithdraw","type":"uint120","internalType":"uint120"},{"name":"finalized","type":"bool","internalType":"bool"}]}],"stateMutability":"view"},{"type":"function","name":"getWithdrawRequestValue","inputs":[{"name":"vault","type":"address","internalType":"address"},{"name":"account","type":"address","internalType":"address"},{"name":"asset","type":"address","internalType":"address"},{"name":"shares","type":"uint256","internalType":"uint256"}],"outputs":[{"name":"hasRequest","type":"bool","internalType":"bool"},{"name":"valueInAsset","type":"uint256","internalType":"uint256"}],"stateMutability":"view"},{"type":"function","name":"initialize","inputs":[{"name":"data","type":"bytes","internalType":"bytes"}],"outputs":[],"stateMutability":"nonpayable"},{"type":"function","name":"initiateWithdraw","inputs":[{"name":"account","type":"address","internalType":"address"},{"name":"yieldTokenAmount","type":"uint256","internalType":"uint256"},{"name":"sharesAmount","type":"uint256","internalType":"uint256"},{"name":"data","type":"bytes","internalType":"bytes"}],"outputs":[{"name":"requestId","type":"uint256","internalType":"uint256"}],"stateMutability":"nonpayable"},{"type":"function","name":"isApprovedVault","inputs":[{"name":"","type":"address","internalType":"address"}],"outputs":[{"name":"","type":"bool","internalType":"bool"}],"stateMutability":"view"},{"type":"function","name":"isPendingWithdrawRequest","inputs":[{"name":"vault","type":"address","internalType":"address"},{"name":"account","type":"address","internalType":"address"}],"outputs":[{"name":"","type":"bool","internalType":"bool"}],"stateMutability":"view"},{"type":"function","name":"rescueTokens","inputs":[{"name":"cooldownHolder","type":"address","internalType":"address"},{"name":"token","type":"address","internalType":"address"},{"name":"receiver","type":"address","internalType":"address"},{"name":"amount","type":"uint256","internalType":"uint256"}],"outputs":[],"stateMutability":"nonpayable"},{"type":"function","name":"setApprovedVault","inputs":[{"name":"vault","type":"address","internalType":"address"},{"name":"isApproved","type":"bool","internalType":"bool"}],"outputs":[],"stateMutability":"nonpayable"},{"type":"function","name":"stakeTokens","inputs":[{"name":"depositToken","type":"address","internalType":"address"},{"name":"amount","type":"uint256","internalType":"uint256"},{"name":"data","type":"bytes","internalType":"bytes"}],"outputs":[{"name":"yieldTokensMinted","type":"uint256","internalType":"uint256"}],"stateMutability":"nonpayable"},{"type":"function","name":"tokenizeWithdrawRequest","inputs":[{"name":"_from","type":"address","internalType":"address"},{"name":"_to","type":"address","internalType":"address"},{"name":"sharesAmount","type":"uint256","internalType":"uint256"}],"outputs":[{"name":"didTokenize","type":"bool","internalType":"bool"}],"stateMutability":"nonpayable"},{"type":"event","name":"ApprovedVault","inputs":[{"name":"vault","type":"address","indexed":true,"internalType":"address"},{"name":"isApproved","type":"bool","indexed":true,"internalType":"bool"}],"anonymous":false},{"type":"event","name":"InitiateWithdrawRequest","inputs":[{"name":"account","type":"address","indexed":true,"internalType":"address"},{"name":"vault","type":"address","indexed":true,"internalType":"address"},{"name":"yieldTokenAmount","type":"uint256","indexed":false,"internalType":"uint256"},{"name":"sharesAmount","type":"uint256","indexed":false,"internalType":"uint256"},{"name":"requestId","type":"uint256","indexed":false,"internalType":"uint256"}],"anonymous":false},{"type":"event","name":"WithdrawRequestTokenized","inputs":[{"name":"from","type":"address","indexed":true,"internalType":"address"},{"name":"to","type":"address","indexed":true,"internalType":"address"},{"name":"requestId","type":"uint256","indexed":true,"internalType":"uint256"},{"name":"sharesAmount","type":"uint256","indexed":false,"internalType":"uint256"}],"anonymous":false},{"type":"error","name":"ExistingWithdrawRequest","inputs":[{"name":"vault","type":"address","internalType":"address"},{"name":"account","type":"address","internalType":"address"},{"name":"requestId","type":"uint256","internalType":"uint256"}]},{"type":"error","name":"InvalidInitialization","inputs":[]},{"type":"error","name":"InvalidWithdrawRequestTokenization","inputs":[]},{"type":"error","name":"NoWithdrawRequest","inputs":[{"name":"vault","type":"address","internalType":"address"},{"name":"account","type":"address","internalType":"address"}]},{"type":"error","name":"SafeERC20FailedOperation","inputs":[{"name":"token","type":"address","internalType":"address"}]},{"type":"error","name":"Unauthorized","inputs":[{"name":"caller","type":"address","internalType":"address"}]}],"bytecode":{"object":"0x60e060405234801561000f575f5ffd5b506040516128f33803806128f383398101604081905261002e91610055565b5f805460ff191660011790556001600160a01b031660a0819052608081905260c052610082565b5f60208284031215610065575f5ffd5b81516001600160a01b038116811461007b575f5ffd5b9392505050565b60805160a05160c0516127fa6100f95f395f818161010401528181611bfb0152611cc201525f818161019501528181610569015281816105fb015261187501525f81816101d1015281816106b001528181610742015281816109830152818161146f0152818161153901526115c301526127fa5ff3fe608060405234801561000f575f5ffd5b50600436106100fb575f3560e01c8063a7b8757211610093578063d665761a11610063578063d665761a146103c3578063df78a625146103d6578063e7c35c3c146103f8578063ed020beb1461040b575f5ffd5b8063a7b8757214610227578063afbf911a1461024f578063c2ded8c11461039c578063d5fc623c146103b0575f5ffd5b8063439fab91116100ce578063439fab91146101b7578063544bc96d146101cc5780637c86cff5146101f3578063838f705b14610214575f5ffd5b80630479d644146100ff57806332df6ff21461014357806337504d9c1461016d5780633ed3a05414610190575b5f5ffd5b6101267f000000000000000000000000000000000000000000000000000000000000000081565b6040516001600160a01b0390911681526020015b60405180910390f35b610156610151366004611f8b565b61041e565b60408051921515835260208301919091520161013a565b61018061017b366004611fd9565b610811565b604051901515815260200161013a565b6101267f000000000000000000000000000000000000000000000000000000000000000081565b6101ca6101c536600461204e565b61083f565b005b6101267f000000000000000000000000000000000000000000000000000000000000000081565b610206610201366004612081565b6108b1565b60405190815260200161013a565b6101806102223660046120e6565b610b7e565b61023a610235366004611fd9565b6110ac565b6040805192835290151560208301520161013a565b61034861025d366004611fd9565b60408051606080820183525f80835260208084018290529284018190528351808301855281815280840182905284018190526001600160a01b039586168152600283528381209490951685529281528184208251808501845281548082526001909201546effffffffffffffffffffffffffffff808216838601526f0100000000000000000000000000000091829004811683870152928752600384529584902084519586018552548083168652958604909116918401919091527e0100000000000000000000000000000000000000000000000000000000000090930460ff161515908201529091565b60408051835181526020808501516effffffffffffffffffffffffffffff908116828401529483015185168284015283518516606083015283015190931660808401520151151560a082015260c00161013a565b6101806103aa366004612124565b50600190565b6101ca6103be366004611f8b565b611180565b6101ca6103d136600461213b565b6112c4565b6101806103e436600461216b565b60016020525f908152604090205460ff1681565b610206610406366004612186565b6113f5565b61023a6104193660046121de565b6115f5565b6001600160a01b038085165f9081526002602090815260408083209387168352928152828220835160608101855281548082526001909201546effffffffffffffffffffffffffffff808216948301949094526f01000000000000000000000000000000900490921693820193909352909182919082036104a5575f5f9250925050610808565b80515f908152600360209081526040808320815160608101835290546effffffffffffffffffffffffffffff80821683526f01000000000000000000000000000000820416938201939093527e0100000000000000000000000000000000000000000000000000000000000090920460ff161515908201529080808061052a8a6118a6565b60ff169050846040015115610680576040517f4c2d8eff0000000000000000000000000000000000000000000000000000000081526001600160a01b037f0000000000000000000000000000000000000000000000000000000000000000811660048301528b16602482015273594734c7e06c3d483466adbce401c6bd269746c890634c2d8eff906044016040805180830381865afa1580156105cf573d5f5f3e3d5ffd5b505050506040513d601f19601f820116820180604052508101906105f39190612210565b50935061061f7f00000000000000000000000000000000000000000000000000000000000000006118a6565b60ff169150845f01516effffffffffffffffffffffffffffff1685602001516effffffffffffffffffffffffffffff1687602001516effffffffffffffffffffffffffffff1661066f919061225f565b6106799190612276565b9250610784565b6040517f4c2d8eff0000000000000000000000000000000000000000000000000000000081526001600160a01b037f0000000000000000000000000000000000000000000000000000000000000000811660048301528b16602482015273594734c7e06c3d483466adbce401c6bd269746c890634c2d8eff906044016040805180830381865afa158015610716573d5f5f3e3d5ffd5b505050506040513d601f19601f8201168201806040525081019061073a9190612210565b5093506107667f00000000000000000000000000000000000000000000000000000000000000006118a6565b60ff16915085602001516effffffffffffffffffffffffffffff1692505b5f670de0b6b3a764000061079984600a6123c7565b6107a3919061225f565b6107ae83600a6123c7565b6107b8868861225f565b6107c2919061225f565b6107cc9190612276565b9050600187604001516effffffffffffffffffffffffffffff168b836107f2919061225f565b6107fc9190612276565b98509850505050505050505b94509492505050565b6001600160a01b038083165f9081526002602090815260408083209385168352929052205415155b92915050565b5f5460ff161561087b576040517ff92ee8a900000000000000000000000000000000000000000000000000000000815260040160405180910390fd5b5f80547fffffffffffffffffffffffffffffffffffffffffffffffffffffffffffffff001660011790556108ad828282565b5050565b335f9081526001602052604081205460ff16610900576040517f8e4a23d60000000000000000000000000000000000000000000000000000000081523360048201526024015b60405180910390fd5b335f9081526002602090815260408083206001600160a01b038a16845290915290208054156109765780546040517fc5883c010000000000000000000000000000000000000000000000000000000081523360048201526001600160a01b038916602482015260448101919091526064016108f7565b6109ab6001600160a01b037f00000000000000000000000000000000000000000000000000000000000000001633308961195c565b6109b7878786866119de565b80825591506109c586611a0c565b6001820180547fffffffffffffffffffffffffffffffffff000000000000000000000000000000166effffffffffffffffffffffffffffff92909216919091179055610a1085611a0c565b81600101600f6101000a8154816effffffffffffffffffffffffffffff02191690836effffffffffffffffffffffffffffff1602179055506040518060600160405280610a5c88611a0c565b6effffffffffffffffffffffffffffff90811682525f60208084018290526040938401829052868252600381529083902084518154868401519686015115157e01000000000000000000000000000000000000000000000000000000000000027fff00ffffffffffffffffffffffffffffffffffffffffffffffffffffffffffff9786166f01000000000000000000000000000000027fffff00000000000000000000000000000000000000000000000000000000000090921692909516919091171794909416919091179092558051888152918201879052810183905233906001600160a01b038916907f7dc6e5b3ca303008de60be523ace8967fcb2a779a76232e12901aae0b826a24e9060600160405180910390a35095945050505050565b335f9081526001602052604081205460ff16610bc8576040517f8e4a23d60000000000000000000000000000000000000000000000000000000081523360048201526024016108f7565b826001600160a01b0316846001600160a01b031603610be5575f5ffd5b335f9081526002602090815260408083206001600160a01b038816845290915290208054801580610c14575083155b15610c23575f925050506110a5565b335f9081526002602090815260408083206001600160a01b03891684529091529020805415801590610c56575080548214155b15610ca85780546040517fc5883c010000000000000000000000000000000000000000000000000000000081523360048201526001600160a01b038816602482015260448101919091526064016108f7565b81815560018301546f0100000000000000000000000000000090046effffffffffffffffffffffffffffff16851115610d0d576040517f29dc1c1100000000000000000000000000000000000000000000000000000000815260040160405180910390fd5b60018301546f0100000000000000000000000000000090046effffffffffffffffffffffffffffff16859003610e795760018084015490820154610d65916effffffffffffffffffffffffffffff90811691166123d2565b600182810180547fffffffffffffffffffffffffffffffffff000000000000000000000000000000166effffffffffffffffffffffffffffff938416179081905590850154610dd0926f010000000000000000000000000000009182900481169291909104166123d2565b600180830180546effffffffffffffffffffffffffffff939093166f01000000000000000000000000000000027fffff000000000000000000000000000000ffffffffffffffffffffffffffffff90931692909217909155335f9081526002602090815260408083206001600160a01b038c16845290915281209081550180547fffff00000000000000000000000000000000000000000000000000000000000016905561104f565b60018301545f906effffffffffffffffffffffffffffff6f010000000000000000000000000000008204811691610eb29189911661225f565b610ebc9190612276565b6001830154909150610ee990610ee49083906effffffffffffffffffffffffffffff166123f9565b611a0c565b6001830180547fffffffffffffffffffffffffffffffffff000000000000000000000000000000166effffffffffffffffffffffffffffff9283161790819055610f4d91610ee49189916f01000000000000000000000000000000909104166123f9565b600183810180547fffff000000000000000000000000000000ffffffffffffffffffffffffffffff166f010000000000000000000000000000006effffffffffffffffffffffffffffff94851602179055850154610fb191610ee49184911661240c565b6001850180547fffffffffffffffffffffffffffffffffff000000000000000000000000000000166effffffffffffffffffffffffffffff928316179081905561101591610ee49189916f010000000000000000000000000000009091041661240c565b84600101600f6101000a8154816effffffffffffffffffffffffffffff02191690836effffffffffffffffffffffffffffff160217905550505b81866001600160a01b0316886001600160a01b03167f3290f85eb3a83c40daf3b41be74981b06f475e338aee958516f687462f6d85558860405161109591815260200190565b60405180910390a4600193505050505b9392505050565b6001600160a01b038083165f908152600260209081526040808320938516835292905290812080548291908203611122576040517f53cc89170000000000000000000000000000000000000000000000000000000081526001600160a01b038087166004830152851660248201526044016108f7565b604080516060810182528254815260018301546effffffffffffffffffffffffffffff80821660208401526f010000000000000000000000000000009091041691810191909152611174908590611a2c565b90969095509350505050565b735615deb798bb3e4dfa0139dfa1b3d433cc23b72f6001600160a01b031663c4d5608a6040518163ffffffff1660e01b8152600401602060405180830381865afa1580156111d0573d5f5f3e3d5ffd5b505050506040513d601f19601f820116820180604052508101906111f4919061241f565b6001600160a01b0316336001600160a01b031614611240576040517f8e4a23d60000000000000000000000000000000000000000000000000000000081523360048201526024016108f7565b6040517fcea9d26f0000000000000000000000000000000000000000000000000000000081526001600160a01b03848116600483015283811660248301526044820183905285169063cea9d26f906064015f604051808303815f87803b1580156112a8575f5ffd5b505af11580156112ba573d5f5f3e3d5ffd5b5050505050505050565b735615deb798bb3e4dfa0139dfa1b3d433cc23b72f6001600160a01b031663c4d5608a6040518163ffffffff1660e01b8152600401602060405180830381865afa158015611314573d5f5f3e3d5ffd5b505050506040513d601f19601f82011682018060405250810190611338919061241f565b6001600160a01b0316336001600160a01b031614611384576040517f8e4a23d60000000000000000000000000000000000000000000000000000000081523360048201526024016108f7565b6001600160a01b0382165f8181526001602052604080822080547fffffffffffffffffffffffffffffffffffffffffffffffffffffffffffffff001685151590811790915590519092917f9391b1bd8cb1e638125000ffd909b226e8f35c80fc0aa208a1a3f5fde67fc3ba91a35050565b335f9081526001602052604081205460ff1661143f576040517f8e4a23d60000000000000000000000000000000000000000000000000000000081523360048201526024016108f7565b6040517f70a082310000000000000000000000000000000000000000000000000000000081523060048201525f907f00000000000000000000000000000000000000000000000000000000000000006001600160a01b0316906370a0823190602401602060405180830381865afa1580156114bc573d5f5f3e3d5ffd5b505050506040513d601f19601f820116820180604052508101906114e0919061243a565b90506114f76001600160a01b03871633308861195c565b5f5f61150588888888611bf6565b915091506040517f70a0823100000000000000000000000000000000000000000000000000000000815230600482015283907f00000000000000000000000000000000000000000000000000000000000000006001600160a01b0316906370a0823190602401602060405180830381865afa158015611586573d5f5f3e3d5ffd5b505050506040513d601f19601f820116820180604052508101906115aa919061243a565b6115b4919061240c565b93506115ea6001600160a01b037f0000000000000000000000000000000000000000000000000000000000000000163386611d24565b505050949350505050565b335f90815260016020526040812054819060ff16611641576040517f8e4a23d60000000000000000000000000000000000000000000000000000000081523360048201526024016108f7565b335f9081526002602090815260408083206001600160a01b038916845290915281208054909103611678575f5f925092505061189e565b604080516060810182528254815260018301546effffffffffffffffffffffffffffff80821660208401526f0100000000000000000000000000000090910416918101919091526116ca908790611a2c565b9093509150811561189c5760018101546effffffffffffffffffffffffffffff168510156117f95760018101546effffffffffffffffffffffffffffff16611712868561225f565b61171c9190612276565b925061172784611a0c565b600182018054600f9061175f9084906f0100000000000000000000000000000090046effffffffffffffffffffffffffffff16612451565b92506101000a8154816effffffffffffffffffffffffffffff02191690836effffffffffffffffffffffffffffff16021790555061179c85611a0c565b6001820180545f906117c09084906effffffffffffffffffffffffffffff16612451565b92506101000a8154816effffffffffffffffffffffffffffff02191690836effffffffffffffffffffffffffffff160217905550611868565b60018101546effffffffffffffffffffffffffffff168514611819575f5ffd5b335f9081526002602090815260408083206001600160a01b038a168452909152812090815560010180547fffff0000000000000000000000000000000000000000000000000000000000001690555b61189c6001600160a01b037f0000000000000000000000000000000000000000000000000000000000000000163385611d24565b505b935093915050565b5f6001600160a01b03821615806118d957506001600160a01b03821673eeeeeeeeeeeeeeeeeeeeeeeeeeeeeeeeeeeeeeee145b61194257816001600160a01b031663313ce5676040518163ffffffff1660e01b8152600401602060405180830381865afa158015611919573d5f5f3e3d5ffd5b505050506040513d601f19601f8201168201806040525081019061193d9190612478565b611945565b60125b905060128160ff161115611957575f5ffd5b919050565b6040516001600160a01b0384811660248301528381166044830152606482018390526119d89186918216906323b872dd906084015b604051602081830303815290604052915060e01b6020820180517bffffffffffffffffffffffffffffffffffffffffffffffffffffffff8381831617835250505050611d5a565b50505050565b5f60045f81546119ed90612498565b91829055505f8181526005602052604090209490945550919392505050565b5f6effffffffffffffffffffffffffffff821115611a28575f5ffd5b5090565b80515f90815260036020526040812080548291907e01000000000000000000000000000000000000000000000000000000000000900460ff1615611abc57805460208501516effffffffffffffffffffffffffffff80831692611aa6928216916f010000000000000000000000000000009091041661225f565b611ab09190612276565b60019250925050611bef565b83515f9081526005602052604081208054919055925060019150611adf83611a0c565b81546effffffffffffffffffffffffffffff919091166f01000000000000000000000000000000027fffff000000000000000000000000000000ffffffffffffffffffffffffffffff9091161780825560ff7e010000000000000000000000000000000000000000000000000000000000009091041615611b5e575f5ffd5b80547fff00ffffffffffffffffffffffffffffffffffffffffffffffffffffffffffff81167e010000000000000000000000000000000000000000000000000000000000001780835560208601516effffffffffffffffffffffffffffff92831692611be192918116916f0100000000000000000000000000000090041661225f565b611beb9190612276565b9250505b9250929050565b5f60607f00000000000000000000000000000000000000000000000000000000000000006001600160a01b0316866001600160a01b031603611c735784915083838080601f0160208091040260200160405190810160405280939291908181526020018383808284375f9201919091525092935061080892505050565b5f611c80848601866125df565b905080608001519150611d176040518060e00160405280835f01516004811115611cac57611cac6126a7565b8152602001896001600160a01b031681526020017f00000000000000000000000000000000000000000000000000000000000000006001600160a01b031681526020018881526020018360200151815260200142815260200183604001518152508260600151611ddf565b9350505094509492505050565b6040516001600160a01b03838116602483015260448201839052611d5591859182169063a9059cbb90606401611991565b505050565b5f5f60205f8451602086015f885af180611d79576040513d5f823e3d81fd5b50505f513d91508115611d90578060011415611d9d565b6001600160a01b0384163b155b156119d8576040517f5274afe70000000000000000000000000000000000000000000000000000000081526001600160a01b03851660048201526024016108f7565b5f5f5f5f73594734c7e06c3d483466adbce401c6bd269746c86001600160a01b031663aaf10f426040518163ffffffff1660e01b8152600401602060405180830381865afa158015611e33573d5f5f3e3d5ffd5b505050506040513d601f19601f82011682018060405250810190611e57919061241f565b6001600160a01b0316632ba8c23c60e01b8688604051602401611e7b929190612720565b604080517fffffffffffffffffffffffffffffffffffffffffffffffffffffffffffffffe08184030181529181526020820180517bffffffffffffffffffffffffffffffffffffffffffffffffffffffff167fffffffff00000000000000000000000000000000000000000000000000000000909416939093179092529051611f0491906127d7565b5f60405180830381855af49150503d805f8114611f3c576040519150601f19603f3d011682016040523d82523d5f602084013e611f41565b606091505b509150915081611f53573d5f5f3e3d5ffd5b80806020019051810190611f679190612210565b9097909650945050505050565b6001600160a01b0381168114611f88575f5ffd5b50565b5f5f5f5f60808587031215611f9e575f5ffd5b8435611fa981611f74565b93506020850135611fb981611f74565b92506040850135611fc981611f74565b9396929550929360600135925050565b5f5f60408385031215611fea575f5ffd5b8235611ff581611f74565b9150602083013561200581611f74565b809150509250929050565b5f5f83601f840112612020575f5ffd5b50813567ffffffffffffffff811115612037575f5ffd5b602083019150836020828501011115611bef575f5ffd5b5f5f6020838503121561205f575f5ffd5b823567ffffffffffffffff811115612075575f5ffd5b61117485828601612010565b5f5f5f5f5f60808688031215612095575f5ffd5b85356120a081611f74565b94506020860135935060408601359250606086013567ffffffffffffffff8111156120c9575f5ffd5b6120d588828901612010565b969995985093965092949392505050565b5f5f5f606084860312156120f8575f5ffd5b833561210381611f74565b9250602084013561211381611f74565b929592945050506040919091013590565b5f60208284031215612134575f5ffd5b5035919050565b5f5f6040838503121561214c575f5ffd5b823561215781611f74565b915060208301358015158114612005575f5ffd5b5f6020828403121561217b575f5ffd5b81356110a581611f74565b5f5f5f5f60608587031215612199575f5ffd5b84356121a481611f74565b935060208501359250604085013567ffffffffffffffff8111156121c6575f5ffd5b6121d287828801612010565b95989497509550505050565b5f5f5f606084860312156121f0575f5ffd5b83356121fb81611f74565b95602085013595506040909401359392505050565b5f5f60408385031215612221575f5ffd5b505080516020909101519092909150565b7f4e487b71000000000000000000000000000000000000000000000000000000005f52601160045260245ffd5b808202811582820484141761083957610839612232565b5f826122a9577f4e487b71000000000000000000000000000000000000000000000000000000005f52601260045260245ffd5b500490565b6001815b600184111561189e578085048111156122cd576122cd612232565b60018416156122db57908102905b60019390931c9280026122b2565b5f826122f757506001610839565b8161230357505f610839565b816001811461231957600281146123235761233f565b6001915050610839565b60ff84111561233457612334612232565b50506001821b610839565b5060208310610133831016604e8410600b8410161715612362575081810a610839565b61238d7fffffffffffffffffffffffffffffffffffffffffffffffffffffffffffffffff84846122ae565b807fffffffffffffffffffffffffffffffffffffffffffffffffffffffffffffffff048211156123bf576123bf612232565b029392505050565b5f6110a583836122e9565b6effffffffffffffffffffffffffffff818116838216019081111561083957610839612232565b8082018082111561083957610839612232565b8181038181111561083957610839612232565b5f6020828403121561242f575f5ffd5b81516110a581611f74565b5f6020828403121561244a575f5ffd5b5051919050565b6effffffffffffffffffffffffffffff828116828216039081111561083957610839612232565b5f60208284031215612488575f5ffd5b815160ff811681146110a5575f5ffd5b5f7fffffffffffffffffffffffffffffffffffffffffffffffffffffffffffffffff82036124c8576124c8612232565b5060010190565b7f4e487b71000000000000000000000000000000000000000000000000000000005f52604160045260245ffd5b60405160a0810167ffffffffffffffff8111828210171561251f5761251f6124cf565b60405290565b5f82601f830112612534575f5ffd5b813567ffffffffffffffff81111561254e5761254e6124cf565b604051601f82017fffffffffffffffffffffffffffffffffffffffffffffffffffffffffffffffe0908116603f0116810167ffffffffffffffff8111828210171561259b5761259b6124cf565b6040528181528382016020018510156125b2575f5ffd5b816020850160208301375f918101602001919091529392505050565b803561ffff81168114611957575f5ffd5b5f602082840312156125ef575f5ffd5b813567ffffffffffffffff811115612605575f5ffd5b820160a08185031215612616575f5ffd5b61261e6124fc565b81356005811061262c575f5ffd5b815260208281013590820152604082013567ffffffffffffffff811115612651575f5ffd5b61265d86828501612525565b60408301525061266f606083016125ce565b6060820152608082013567ffffffffffffffff81111561268d575f5ffd5b61269986828501612525565b608083015250949350505050565b7f4e487b71000000000000000000000000000000000000000000000000000000005f52602160045260245ffd5b5f81518084528060208401602086015e5f6020828601015260207fffffffffffffffffffffffffffffffffffffffffffffffffffffffffffffffe0601f83011685010191505092915050565b61ffff83168152604060208201525f825160058110612766577f4e487b71000000000000000000000000000000000000000000000000000000005f52602160045260245ffd5b604083015260208301516001600160a01b03811660608401525060408301516001600160a01b038116608084015250606083015160a0830152608083015160c083015260a083015160e083015260c083015160e06101008401526127ce6101208401826126d4565b95945050505050565b5f82518060208501845e5f92019182525091905056fea164736f6c634300081d000a","linkReferences":{}},"methodIdentifiers":{"STAKING_TOKEN()":"0479d644","WITHDRAW_TOKEN()":"3ed3a054","YIELD_TOKEN()":"544bc96d","canFinalizeWithdrawRequest(uint256)":"c2ded8c1","finalizeAndRedeemWithdrawRequest(address,uint256,uint256)":"ed020beb","finalizeRequestManual(address,address)":"a7b87572","getWithdrawRequest(address,address)":"afbf911a","getWithdrawRequestValue(address,address,address,uint256)":"32df6ff2","initialize(bytes)":"439fab91","initiateWithdraw(address,uint256,uint256,bytes)":"7c86cff5","isApprovedVault(address)":"df78a625","isPendingWithdrawRequest(address,address)":"37504d9c","rescueTokens(address,address,address,uint256)":"d5fc623c","setApprovedVault(address,bool)":"d665761a","stakeTokens(address,uint256,bytes)":"e7c35c3c","tokenizeWithdrawRequest(address,address,uint256)":"838f705b"},"id":100}